:020000040000FA
:100000000C945C010C948D010C948D010C948D0169
:100010000C948D010C948D010C948D010C948D0128
:100020000C948D010C94EC0D0C94EC0D0C94EC0DD7
:100030000C948D010C948D010C948D010C948D0108
:100040000C948D010C948D010C948D010C948D01F8
:100050000C948D010C948D010C948D010C947E0CEC
:100060000C948D010C94480C0C941E0C0C948D0176
:100070000C948D010C948D010C948D010C948D01C8
:100080000C948D010C948D010C948D010C948D01B8
:100090000C948D010C948D010C948D010C94C80C62
:1000A0000C948D010C948D010C948D010C948D0198
:1000B0000C948D010C948D010C948D010C948D0188
:1000C0000C948D010C948D010C948D010C948D0178
:1000D0000C948D010C948D010C948D010C948D0168
:1000E0000C948D010C94340A0C94B5090C944903BA
:1000F0000C9498080C947A030C947E080C940809CC
:100100000C9476030C94EC010C943A0A0C9454036E
:100110000C947F030C946E080C9484070C94ED01EE
:100120000C9468030C94D0020C94C5080C948302C0
:100130000C9429020C9484030C945E030C947203B7
:100140000C946C030C94EA010C9480030C941A0236
:100150000C94E0050C943F030C9412180C942009A5
:100160000C94EB010C945A030C947C090C944503F9
:100170000C94680E0C944B020C9491080C9451034F
:100180000C943D020C9494090C9464030C944D035C
:100190000C946F0800002100240027002A002D0085
:1001A0003000330001010000040107010A010000D2
:1001B0000A0B02090C0D0E080703040100000000E1
:1001C000000000000000000000000000000000002F
:1001D00000000000000000000000121110000000EC
:1001E000000000000000000000000000000000000F
:1001F00000000000000020002300260029002C0041
:100200002F00320000010000030106010901000077
:100210002200250028002B002E00310034000201AE
:100220000000050108010B01050505050705080883
:100230000808020202020A0A080804040404010170
:100240000101010101010303030303030303040785
:1002500007070C0C0C0C0C0C0C0C0202020206061C
:100260000606060606060B0B0B0B0B0B0B0B01020F
:1002700010202008081020401020408002010201B8
:100280000804020101020408102040808040201070
:1002900008040201800402018040201008040201C9
:1002A0000804020101020408102040800102040831
:1002B00010204080680E121811241FBECFEFD1E22B
:1002C000DEBFCDBF00E00CBF26E0A6ECB3E001C06E
:1002D0001D92AB33B207E1F713E0A0E0B2E0E6E92C
:1002E000F8E300E00BBF02C007900D92A63CB107F7
:1002F000D9F711E0CBE5D1E000E006C02197010974
:10030000802FFE010E94071ACA35D10780E0080736
:10031000A9F70E94B30F0C94391C0C940000CF92E3
:10032000DF92EF92FF92CF93DF93B0910C06A0E0A3
:100330008111AB2F80910D0690E0880F991FAC01C1
:100340004C505E4FC0901206D0901306E0901406F9
:10035000F090150630E020E0FA01C591D491E881D3
:10036000B90190E080E0EB23EA130AC02F5F3F4F12
:100370006C157D058E059F0578F36FEF7FEFCB0140
:10038000DF91CF91FF90EF90DF90CF90089596E0AE
:10039000899FD0011124AC57BA4F90967C936E93ED
:1003A0005F9791E091969C939197E091F105F09180
:1003B000F2059091F005992339F0309751F08111B1
:1003C00008C08091A0051994309719F05C968C9123
:1003D000FACF0895089508950895AF92BF92CF92ED
:1003E000DF92EF92FF920F931F93CF93DF936C01F5
:1003F0007B018B01040F151FEB015E01AE18BF08D6
:10040000C017D10759F06991D601ED91FC91019087
:10041000F081E02DC6011995892B79F7C501DF918F
:10042000CF911F910F91FF90EF90DF90CF90BF90F1
:10043000AF900895FC01538D448D252F30E0842F1B
:1004400090E0821B930B541710F0CF9608950197FC
:100450000895FC01918D828D981761F0A28DAE0FE9
:10046000BF2FB11D5D968C91928D9F5F9F73928F70
:1004700090E008958FEF9FEF0895FC01918D828D9C
:10048000981731F0828DE80FF11D858D90E0089569
:100490008FEF9FEF0895FC01918D228D892F90E0C1
:1004A000805C9F4F821B91098F739927089585ED7A
:1004B00094E00E944B0221E0892B09F420E0822F76
:1004C0000895FC01A48DA80FB92FB11DA35ABF4FE9
:1004D0002C91848D90E001968F739927848FA68943
:1004E000B7892C93A089B1898C91837080648C9397
:1004F000938D848D981306C00288F389E02D808146
:100500008F7D80830895EF92FF920F931F93CF9377
:10051000DF93EC0181E0888F9B8D8C8D98131AC03E
:10052000E889F989808185FF15C09FB7F894EE8925
:10053000FF896083E889F989808183708064808382
:100540009FBF81E090E0DF91CF911F910F91FF90CD
:10055000EF900895F62E0B8D10E00F5F1F4F0F7375
:100560001127E02E8C8D8E110CC00FB607FCFACF30
:10057000E889F989808185FFF5CFCE010E9461026B
:10058000F1CFEB8DEC0FFD2FF11DE35AFF4FF08201
:100590009FB7F8940B8FEA89FB8980818062CFCF67
:1005A000CF93DF93EC01888D8823B9F0AA89BB89AA
:1005B000E889F9898C9185FD03C0808186FD0DC095
:1005C0000FB607FCF7CF8C9185FFF2CF808185FFB6
:1005D000EDCFCE010E946102E9CFDF91CF91089566
:1005E00080E090E0892B29F00E94570281110E943F
:1005F000000080E090E0892B49F080E090E0892BBA
:1006000029F00E94000081110E94000080E090E02B
:10061000892B49F080E090E0892B29F00E940000AE
:1006200081110E94000080E090E0892B49F080E079
:1006300090E0892B29F00E94000081110C940000A9
:1006400008958150823108F05AC0E82FF0E08827E1
:10065000E35DFC4F8F4F0C94071A4D0351033F038A
:10066000450349037F0354035A035E03640368038D
:100670006C03720376037F037A0380038403809103
:1006800080008F77809380000895809180008F7D17
:10069000F9CF80918000877FF5CF84B58F7784BDB7
:1006A000089584B58F7DFBCF8091B0008F778093C4
:1006B000B00008958091B0008F7DF9CF80919000B7
:1006C0008F77809390000895809190008F7DF9CF6F
:1006D00080919000877FF5CF8091A0008F778093E5
:1006E000A00008958091A0008F7DF9CF8091A00097
:1006F000877FF5CF809120018F7780932001089527
:10070000809120018F7DF9CF80912001877FF5CFE7
:10071000CF93DF93282F30E0F901E255FE4F84910B
:10072000F901E259FD4FD491F901E85DFD4FC49103
:10073000CC23A1F081110E942103EC2FF0E0EE0FF9
:10074000FF1FEC50FE4FA591B491EC91ED2381E099
:1007500090E009F480E0DF91CF91089580E090E08F
:10076000FACF1F93CF93DF93282F30E0F901E255A2
:10077000FE4F8491F901E259FD4FD491F901E85DF2
:10078000FD4FC491CC23A9F0162F81110E942103A3
:10079000EC2FF0E0EE0FFF1FE25FFD4FA591B4914B
:1007A0008FB7F894EC91111108C0D095DE23DC933B
:1007B0008FBFDF91CF911F910895DE2BF8CFCF939C
:1007C000DF9390E0FC01E259FD4F2491885D9D4F3D
:1007D000FC0184918823C9F090E0880F991FFC01E7
:1007E000EC56FE4FA591B491FC01E25FFD4FC5911F
:1007F000D49161110DC09FB7F8948C9120958223FC
:100800008C938881282328839FBFDF91CF910895FF
:10081000623051F49FB7F8943C91822F80958323E6
:100820008C93E8812E2BEFCF8FB7F894EC912E2B81
:100830002C938FBFEACF3FB7F89480914F049091EB
:100840005004A0915104B091520426B5A89B05C054
:100850002F3F19F00196A11DB11D3FBFBA2FA92F3F
:10086000982F8827BC01CD01620F711D811D911D3C
:1008700042E0660F771F881F991F4A95D1F70895A8
:100880008F929F92AF92BF92CF92DF92EF92FF92A0
:100890004B015C010E941B046B017C010E941B0444
:1008A0006C197D098E099F09683E73408105910589
:1008B000A8F321E0821A9108A108B10888EEC80EB9
:1008C00083E0D81EE11CF11C81149104A104B10441
:1008D00029F7FF90EF90DF90CF90BF90AF909F905F
:1008E0008F9008952FB7F89460914B0470914C0449
:1008F00080914D0490914E042FBF0895CF92DF92C6
:10090000EF92FF920F931F93CF93DF93CDB7DEB794
:10091000C054D1400FB6F894DEBF0FBECDBF0E94C9
:10092000720400910E0610910F062091100630916E
:1009300011066B017C01C01AD10AE20AF30A970181
:100940008601003D17402105310590F4809116067F
:10095000C05CDE4F0FB6F894DEBF0FBECDBFDF9197
:10096000CF911F910F91FF90EF90DF90CF9008955E
:1009700060930E0670930F068093100690931106F5
:1009800010920906109208061092070610920606A9
:100990001092050662E080910A060E94DF0361E082
:1009A00070E080E090E00E94400461E080910A06DF
:1009B0000E94DF0360E080910A060E94B1038091EB
:1009C0000B068551823020F58BE291E10197F1F71A
:1009D00062E080910A060E94DF038091170690E092
:1009E0008230910538F0880F991F880F991F05975D
:1009F0000197F1F7F89480E00E948F016F3F7F4FDD
:100A00008F4F9F4F61F410921606789480E0A0CF2C
:100A100064E170E080E090E00E944004D9CF81E082
:100A20000E948F016F3F7F4F8F4F9F4F61F38E0169
:100A30000F5F1F4F6E012FEBC21A2EEFD20A780103
:100A400080E00E948F01F70160837183828393832A
:100A500081E00E948F01F701648375838683978309
:100A6000F8E0EF0EF11CEC14FD0451F7789430E03F
:100A700020E0F801C080D180E280F380448155817C
:100A800066817781FFEFCF16DF06EF06FF0631F0B4
:100A90004F3F8FEF58076807780719F41092160632
:100AA000B5CFF90183E0F595E7958A95E1F7EB5F1E
:100AB000F94F8081880FC416D506E606F70610F1B7
:100AC00080832F5F3F4F085F1F4F2832310589F623
:100AD000409109062091050680910606280F3327CC
:100AE000331F80910706280F311D80910806820F61
:100AF000932F911D99274817190681F681E080935D
:100B0000160626CF8160DCCF0F931F93CF93DF9320
:100B1000C82FD62F86E0C89FF0011124EC57FA4F5A
:100B200011A2878D90A181309105F1F058F08230AB
:100B30009105F1F1039709F440C0DF91CF911F9126
:100B40000F9108956623C9F361E070E08C2F0E9435
:100B5000C7010E9472046093DC057093DD058093E9
:100B6000DE059093DF05E9CF0E9472040091DC0559
:100B70001091DD052091DE053091DF05AB01BC0150
:100B8000401B510B620B730B8091EE059091EF05AA
:100B9000B0E0A0E084179507A607B70748F462E025
:100BA00070E08C2FDF91CF911F910F910C94C701B2
:100BB00063E070E0D111C1CFF4CF70E060E0F1CF1D
:100BC0000895862F0C948803862F642F0C94B1030C
:100BD000862F642F0C94DF0320912704260F3327E0
:100BE000331F21323105ECF42091AB04FC0190E07D
:100BF00080E0243069F082E00895A09127042191DB
:100C0000AC01495F5B4FA40FB52FB11D2C9301962A
:100C1000861798F380912704680F6093270480E07B
:100C2000089581E008951092AB0481E08093AA04B6
:100C30001092850461E084E10E94B10361E085E1E6
:100C40000E94B103E9EBF0E080818E7F8083808198
:100C50008D7F808388E48093B80085E48093BC0016
:100C60000895CF93DF9391E0909306048823B9F021
:100C7000C091B800D091BA008091BC008A7B80936B
:100C8000BC0060E084E10E94B10360E085E10E9465
:100C9000B1030E941306D093BA00C093B800DF914D
:100CA000CF9108958F929F92AF92BF92CF92DF9291
:100CB000EF92FF920F931F93CF93DF93D091D404C1
:100CC000D13208F0D7C0182FC091D3040E941B0462
:100CD0006B017C018091AB0481116BC082E0809339
:100CE000AB041093AA048FEF8093A9041092A80478
:100CF000D093A704A3EBB4E0E7E8F4E080E0D813D6
:100D000091C01092860480918604CC0FC82BC093AA
:100D1000860480918504813009F088C01092850492
:100D20000E941B046B017C01809186048093BB00B0
:100D30008091AD049091AE04A091AF04B091B00445
:100D4000892B8A2B8B2BA1F00E941B040091AD04F0
:100D50001091AE042091AF043091B0046C197D095C
:100D60008E099F09061717072807390708F442C09C
:100D70008091BC0083FDD8CF85EC8093BC000E949D
:100D80001B046B017C018091AB04823009F450C0DC
:100D90008091A9048F3F09F46FC08091A90480322B
:100DA00009F46CC08091A904803309F469C084E01F
:100DB00026C08091AD049091AE04A091AF04B09193
:100DC000B004892B8A2B8B2B09F484CF0E941B043F
:100DD0008090AD049090AE04A090AF04B090B004A9
:100DE0006C197D098E099F0986169706A806B90613
:100DF00008F070CF8091AC040E94310685E010921B
:100E0000B2041092D4041092B104DF91CF911F91DB
:100E10000F91FF90EF90DF90CF90BF90AF909F9099
:100E20008F9008959D9191938F5F69CF85EEA5CFA7
:100E30008091AD049091AE04A091AF04B091B00444
:100E4000892B8A2B8B2B09F49ECF0E941B040091C7
:100E5000AD041091AE042091AF043091B0046C1930
:100E60007D098E099F09061717072807390708F01B
:100E70008ACFC0CF81E0C3CF80E0C1CF82E0BFCFB7
:100E800083E0BDCFEF92FF920F931F93CF93DF9339
:100E9000EC018B017C0183E7E80EF11CD7018D91F9
:100EA0009C91FE01E159FF4F208131E03093B10464
:100EB0002093D3041092B2041092D404DC01ED917B
:100EC000FC910190F081E02D1995FE01E059FF4F52
:100ED0008081823058F0F70180819181DC01ED91B1
:100EE000FC910190F081E02D612F199581E00E9425
:100EF0005206CF58DF4F08831983DF91CF911F919E
:100F00000F91FF90EF90089521E030E002C0220F92
:100F1000331F6A95E2F7FC01EF58FF4F6081718142
:100F2000442341F0262B372B31832083608171814C
:100F30000C9442072095309526233723F5CFCF9286
:100F4000DF92EF92FF920F931F93CF93DF93D82FEF
:100F5000C62F613208F098C00E941B046B017C010F
:100F60008091AB0481116BC081E08093AB048093CE
:100F7000AA049FEF9093A9041092A8049C0F909349
:100F8000A7048093860480918604DD0FD82BD0932C
:100F9000860480918504813009F078C01092850420
:100FA0000E941B046B017C01809186048093BB002E
:100FB0008091AD049091AE04A091AF04B091B004C3
:100FC000892B8A2B8B2BA1F00E941B040091AD046E
:100FD0001091AE042091AF043091B0046C197D09DA
:100FE0008E099F09061717072807390708F448C014
:100FF0008091BC0083FDD8CF85EC8093BC000E941B
:101000001B046B017C018091AB04813009F440C06A
:101010008091A8048C1710F4C091A804E7E8F4E0CC
:10102000A5E6B4E080E08C1355C08C2FDF91CF9102
:101030001F910F91FF90EF90DF90CF9008958091D6
:10104000AD049091AE04A091AF04B091B004892B8F
:101050008A2B8B2B09F484CF0E941B040091AD04D2
:101060001091AE042091AF043091B0046C197D0949
:101070008E099F09061717072807390708F070CF50
:101080008091AC040E943106C0E0CFCF85EEB5CF91
:101090008091AD049091AE04A091AF04B091B004E2
:1010A000892B8A2B8B2B09F4AECF0E941B04009155
:1010B000AD041091AE042091AF043091B0046C19CE
:1010C0007D098E099F09061717072807390708F0B9
:1010D0009ACFD6CF91919D938F5FA5CF0895E09140
:1010E0005C0480915B04E81730F4F0E0EB59FB4FAF
:1010F000808190E008958FEF9FEF089590915C04B8
:1011000080915B042FEF3FEF981748F4E92FF0E050
:10111000EB59FB4F208130E09F5F90935C04C90145
:10112000089580915B0490915C04891B990B08954C
:10113000CF92DF92EF92FF920F931F93CF93DF93A3
:101140007C01CB018A012091B104222389F0EB01BB
:101150006B01C40ED51ECC15DD0569F06991D70170
:10116000ED91FC910190F081E02DC7011995F3CF2D
:10117000642F0E94EC05C801DF91CF911F910F9160
:10118000FF90EF90DF90CF900895CF93DF931F9261
:10119000CDB7DEB769832091B1042223F9F0209105
:1011A000D404203258F021E030E0FC013383228364
:1011B00090E080E00F90DF91CF9108958091B2048C
:1011C000E82FF0E0ED54FB4F998190838F5F80937F
:1011D000B2048093D40481E090E0ECCF61E0CE01D2
:1011E00001960E94EC05F7CFFC01248131E0309399
:1011F000B1042093D3041092B2041092D4048385D6
:10120000682B88E795E00E94C50881E00C9452069F
:1012100020915504309156042817390771F49091A4
:10122000530480915404981741F0E0915304F0E086
:10123000EA53FC4F808190E008958FEF9FEF08956F
:10124000EF92FF920F931F93CF93DF93DC015C9695
:10125000ED90FC905D97E114F10479F481E090E069
:1012600013969C938E93129790E080E0DF91CF913C
:101270001F910F91FF90EF9008955196ED91FC9181
:10128000529750968C915097982F90950FB75E96E5
:101290002C915E97122F127021FD6095F894208199
:1012A000112319F1282B2083E7012197F1F728E07A
:1012B000462F50E0308160FF1AC0382B3083E701A1
:1012C0002197F1F7BA0175956795215089F7112398
:1012D00081F08081892380830FBF5C968D919C91E2
:1012E0000197F1F781E090E0C1CF2923DCCF3923CA
:1012F000E5CF9081892BEFCF209155043091560492
:101300002817390771F4809154042091530490E018
:10131000805C9F4F821B910960E470E00E94F3198A
:10132000089590E080E0089520915504309156048E
:1013300028173907B9F490915304809154049817F1
:1013400089F0E0915304F0E0EA53FC4F8081209152
:10135000530430E02F5F3F4F2F7333272093530404
:1013600090E008958FEF9FEF089590E080E008955A
:101370000F931F93CF938C01C62F0E94F4086C2FFC
:101380006460C8010E94F4086C2F6B7FC8010E9442
:10139000F40883EC90E00197F1F7CF911F910F9142
:1013A00008950F931F93CF93DF938C01D62FC42FF3
:1013B000607F642B0E94B80980E1D89FB00111249E
:1013C0006C2BC801DF91CF911F910F910C94B8093C
:1013D00040E061E089EF95E00E94D1098BE39FE155
:1013E0000197F1F70895CF93DF9300D000D01F92BB
:1013F0001F92CDB7DEB798E0E8E0F2E0DE0111968B
:1014000001900D929A95E1F790910106961710F4CC
:101410006FEF690F262F30E0220F331F41E050E0BD
:101420004C0F5D1F240F351FF9016081680F606844
:1014300040E089EF95E028960FB6F894DEBF0FBE26
:10144000CDBFDF91CF910C94D109CF93DF93EA0107
:101450000E94F3094C815D816881798189EF95E073
:10146000DF91CF910C94ED0141E00E94D10981E020
:1014700090E00895CF92DF92EF92FF920F931F9327
:10148000CF93DF93EC0181E090E07C0102C0EE0C91
:10149000FF1C6A95E2F76E0180E7C80ED11CD601E9
:1014A0006C91613208F060E2FE01E159FF4F8081EA
:1014B0000E949F0710925C0480935B04CD58DF4F1D
:1014C00088819981DC01ED91FC910284F385E02D06
:1014D00019958C01F6018081823060F088819981B4
:1014E000DC01ED91FC910284F385E02D199520E05B
:1014F000022B182B0E211F2181E090E00E151F05F5
:1015000011F090E080E0DF91CF911F910F91FF905B
:10151000EF90DF90CF90089542E050E06FE672E0E8
:1015200088E196E00C94ED01CF93DF93FC010190EC
:101530000020E9F73197AF01481B590BBC0188E146
:1015400096E00E94ED01EC010E948C0A8C0F9D1F19
:10155000DF91CF910895CF93DF936AE188E196E020
:101560000E942009EC010E948C0A8C0F9D1FDF91C4
:10157000CF910895CF93DF93FC0144815581608121
:10158000718188E196E00E94ED01EC010E948C0AD5
:101590008C0F9D1FDF91CF9108950F931F93CF93D1
:1015A000DF93EC0188819981009759F02A813B8172
:1015B0002617370730F081E0DF91CF911F910F910F
:1015C00008958B016F5F7F4F0E94481B009759F071
:1015D000998388831B830A832C813D81232B59F7B0
:1015E000FC011082E8CF80E0E7CFEF92FF920F93EB
:1015F0001F93CF93DF936115710541F480E0DF9174
:10160000CF911F910F91FF90EF90089541155105D3
:10161000B1F07B01EC010C811D81040F151FB80195
:101620000E94CD0A882351F3288139818C819D81C4
:10163000B701820F931F0E94321C1D830C8381E02F
:10164000DECFCF93DF93EC0188819981009711F071
:101650000E94BF1A198218821D821C821B821A8264
:10166000DF91CF910895CF93DF93EC01FB010190BF
:101670000020E9F73197AF01461B570B0E94F50A8E
:10168000811103C0CE010E94210BCE01DF91CF91C9
:101690000895CF93DF93EC01FB0144815581608174
:1016A00071810E94F50A811103C0CE010E94210BB5
:1016B000CE01DF91CF910895EF92FF920F931F9388
:1016C000CF93DF93EC017B018A01BA010E94CD0A1E
:1016D00081110BC0CE010E94210BCE01DF91CF9171
:1016E0001F910F91FF90EF9008951D830C83B70118
:1016F000888199810E94321CF0CFEF92FF920F9364
:101700001F93CF93DF9300D000D000D0CDB7DEB7CA
:101710008C01862FF80111821082138212821582A9
:1017200014824AE09E012F5F3F4F7901B90190E09A
:101730000E943218F70101900020E9F73197AF01BC
:101740004E195F09B701C8010E945C0B29960FB6BC
:10175000F894DEBF0FBECDBFDF91CF911F910F91E7
:10176000FF90EF900895FB01DC0111961C921E92F0
:1017700013961C921E92129715961C921E92149705
:101780008617970749F0608171816115710521F015
:10179000448155810C945C0B0895FC0111821082E8
:1017A0001382128215821482FB0101900020E9F756
:1017B0003197AF01461B570B0C945C0BFC018081E9
:1017C0009181009711F00C94BF1A089585ED8093D4
:1017D000BC008091AD049091AE04A091AF04B09193
:1017E000B0040796A11DB11D23E0B695A795979566
:1017F00087952A95D1F72091BC0024FD03C0109253
:10180000AB0408954091AD045091AE046091AF04D3
:101810007091B004452B462B472B69F30097A10527
:10182000B10541F025E32A95F1F700000197A109E0
:10183000B109E1CF8091AC040C9431061F920F9254
:101840000FB60F9211240BB60F922F933F934F9325
:101850005F936F937F938F939F93AF93BF93EF9318
:10186000FF9385ED94E00E946102FF91EF91BF919B
:10187000AF919F918F917F916F915F914F913F9128
:101880002F910F900BBE0F900FBE0F901F901895C9
:101890001F920F920FB60F9211240BB60F922F9337
:1018A0008F939F93EF93FF93E091E504F091E6040B
:1018B0008081E091EB04F091EC0482FD1DC09081E9
:1018C0008091EE048F5F8F732091EF04821741F0B7
:1018D000E091EE04F0E0EB52FB4F958F8093EE0425
:1018E000FF91EF919F918F912F910F900BBE0F90D1
:1018F0000FBE0F901F9018958081F2CF1F920F920C
:101900000FB60F9211242F933F938F939F93AF9312
:10191000BF9380914B0490914C04A0914D04B091E1
:101920004E0430914A0423E0230F2D3758F50196D9
:10193000A11DB11D20934A0480934B0490934C0445
:10194000A0934D04B0934E0480914F0490915004A5
:10195000A0915104B09152040196A11DB11D809334
:101960004F0490935004A0935104B0935204BF913C
:10197000AF919F918F913F912F910F900FBE0F903C
:101980001F90189526E8230F0296A11DB11DD2CFF6
:101990001F920F920FB60F9211240BB60F922F9336
:1019A0003F934F935F936F937F938F939F93AF93E7
:1019B000BF93EF93FF938091B900887F803609F43D
:1019C0004DC008F040C0883209F4A9C028F5803124
:1019D00009F49DC0C8F4882309F4FBC0883009F4D9
:1019E00096C0FF91EF91BF91AF919F918F917F91A1
:1019F0006F915F914F913F912F910F900BBE0F9080
:101A00000FBE0F901F901895883109F488C080325E
:101A100041F78093A90414C0803409F49DC040F4B8
:101A20008033B9F38833E9F68093A90485ECB0C01C
:101A3000803509F485C0883509F496C0883489F664
:101A40000E94E60BCECF883909F48CC038F5883770
:101A500029F050F4883611F0803719F683E080932E
:101A6000AB041092490457C0883809F47BC0803910
:101A700019F0803809F0B5CF80914904803208F020
:101A800071C0E091490481E08E0F809349048091F8
:101A9000BB00F0E0E75DFB4F80833DC0803B39F049
:101AA000E0F4803A09F479C0883A09F09ACF84E0EA
:101AB0008093AB041092280410922704E0915904FB
:101AC000F0915A0419958091270481110FC081E08B
:101AD000809327041092070409C0803C09F4A6CF24
:101AE000883C09F4A3CF883B09F07BCFE091280420
:101AF00081E08E0F80932804F0E0E95FFB4F808146
:101B00008093BB00909128048091270429C0809184
:101B100086048093BB0085EC8093BC0062CF9091DB
:101B2000A8048091A704981758F5E091A80481E0D3
:101B30008E0F8093A804F0E0E957FB4F8081E9CF36
:101B4000E091A80481E08E0F8093A8048091BB00EF
:101B5000F0E0E957FB4F80839091A8048091A7049F
:101B60009817C8F285E8D8CFE091A80481E08E0FDD
:101B70008093A8048091BB00F0E0E957FB4F80837D
:101B80008091AA0481115CCF81E08093850484EA6E
:101B90008093BC001092AB0424CF85EC8093BC00F2
:101BA0001092AB0480914904803230F4E0914904F2
:101BB000F0E0E75DFB4F10826091490470E0E09136
:101BC0005704F091580489E294E019951092490461
:101BD00008CF1092A90434CF1F920F920FB60F9224
:101BE00011240BB60F922F933F934F935F936F93F4
:101BF0007F938F939F93AF93BF93EF93FF93E09166
:101C00005504F0915604309749F0A685B78585852F
:101C1000968D91FF16C09C918923B1F4FF91EF91AD
:101C2000BF91AF919F918F917F916F915F914F91F4
:101C30003F912F910F900BBE0F900FBE0F901F90F2
:101C400018959C91892351F7A389B4899C91858922
:101C5000809589238C93868997890197F1F7608D08
:101C6000718DA685B785558538E020E0CB010197B9
:101C7000F1F7822F90E095958795282F4C91452379
:101C800009F02068315091F7868D81FD2095809173
:101C9000540490E001968F739927309153043817BC
:101CA00099F0A0915404B0E0AA53BC4F2C938093B8
:101CB0005404828D938D0197F1F7A389B4898C9197
:101CC0009589892B8C93AACF868D8160868FF1CFE1
:101CD0001092D8041092D70488EE93E0A0E0B0E010
:101CE0008093D9049093DA04A093DB04B093DC04CE
:101CF00024E132E03093D6042093D50425EC30E083
:101D00003093E2042093E10424EC30E03093E404C7
:101D10002093E30420EC30E03093E6042093E504C4
:101D200021EC30E03093E8042093E70422EC30E02B
:101D30003093EA042093E90426EC30E03093EC047D
:101D40002093EB041092EE041092EF041092F00432
:101D50001092F10410927B0510927A0580937C0515
:101D600090937D05A0937E05B0937F0526E232E037
:101D7000309379052093780510921B0610921A066D
:101D800080931C0690931D06A0931E06B0931F0619
:101D900084E492E0909319068093180610922F061F
:101DA00010922E06109231061092300610923306D1
:101DB0001092320610923506109234066091360663
:101DC0006E7F6D7F609336066695617081E068274F
:101DD00088E00E94B10361E088E00E94DF03E6E74B
:101DE000F2E0E491E0932806E0E3F2E0E491F0E031
:101DF000EE0FFF1FE25FFD4F8591949190932A06AD
:101E00008093290660E086E10E94DF038091360618
:101E100081FD04C061E086E10E94B10386E1809308
:101E20002406E4E8F2E0E491E0932506EEE3F2E034
:101E3000E491F0E0EE0FFF1FEC50FE4F859194917E
:101E4000909327068093260685E080930A068BE010
:101E500080930B06E3E7F2E0E491E0930C06EDE2F9
:101E6000F2E0E491E0930D0680E89EE3A0E0B0E0AC
:101E70008093120690931306A0931406B093150650
:101E80001092FC051092FB0588E392E09093FA050E
:101E90008093F90580E28093FD0584E1809302063A
:101EA00084E0809303061092040610928605109237
:101EB0008A051092890510928B05E0EAF5E08CED19
:101EC00095E0108214821382158236968E179F0732
:101ED000C1F78FE592E09093E7058093E6058CE5E6
:101EE00092E09093E9058093E80584E08093EA0509
:101EF00083E08093EB0583E692E09093E505809381
:101F0000E4058AE090E09093ED058093EC0584EF82
:101F100091E09093EF058093EE051092F2051092F8
:101F2000F1051092E0051092E1051092E205109281
:101F3000E3051092F00586E592E090938505809385
:101F4000840581E28093F30581E08093F40588E7BE
:101F500095E09093F8058093F70562E772E082E7D9
:101F600095E00C94CD0BCF93DF93CDB7DEB762979E
:101F70000FB6F894DEBF0FBECDBF789484B58260F3
:101F800084BD84B5816084BD85B5826085BD85B51D
:101F9000816085BD80916E00816080936E0010929B
:101FA0008100809181008260809381008091810016
:101FB00081608093810080918000816080938000A7
:101FC0008091B10084608093B1008091B000816005
:101FD0008093B00080919100826080939100809105
:101FE0009100816080939100809190008160809346
:101FF00090008091A10082608093A1008091A10057
:1020000081608093A1008091A00081608093A000F6
:102010008091210182608093210180912101816062
:102020008093210180912001816080932001809123
:102030007A00846080937A0080917A008260809335
:102040007A0080917A00816080937A0080917A0092
:10205000806880937A001092C100E091E504F091CD
:10206000E60482E08083E091E104F091E2041082D2
:10207000E091E304F091E4048FEC80831092ED048E
:10208000E091E904F091EA0486E08083E091E704BE
:10209000F091E804808180618083E091E704F09111
:1020A000E804808188608083E091E704F091E8048F
:1020B000808180688083E091E704F091E80480816A
:1020C0008F7D808360E08CE00E94DF0360E08BE026
:1020D0000E94DF0360E08AE00E94DF0360E089E0A5
:1020E0000E94DF0360E085E00E94DF0361E082E0A0
:1020F0000E94DF0361E083E00E94DF0361E084E08F
:102100000E94DF0361E08DE00E94DF03109233063E
:1021100010923206109231061092300610922F065D
:1021200010922E068DE991E0909335068093340647
:102130008091240696EF980F943048F02EEC280FEB
:10214000243028F022EC280F283008F061C02DEB55
:1021500030E030932F0620932E062BE931E03093A8
:102160003106209330062CE231E030933306209381
:102170003206943050F02EEC280F243030F022EC50
:10218000280FF0E0E0E0283010F4E8E6F0E02081ED
:10219000943028F032EC380F383008F40DC231E0BA
:1021A000232B943048F09EEC980F943028F08E53F7
:1021B000F0E0E0E0883010F4E8E6F0E020832091E1
:1021C000240636EF320F343008F4F8C18EEC820F5B
:1021D000843008F4F3C182EC820F883008F0F1C13A
:1021E0008DE690E090932C0680932B06343008F017
:1021F000EBC12650330B81E001C0880F2A95EAF726
:1022000080932D0680913406909135060197F1F761
:102210008091320690913306892B49F1E091550463
:10222000F091560456E0E831F50709F1309739F09E
:10223000A389B4899C918589809589238C93809109
:1022400036068E7F80933606109254041092530403
:1022500088E196E09093560480935504E0912B0614
:10226000F0912C06808190912D06892B808384E744
:1022700092E00E94940A62E080910A060E94DF03C5
:102280000E947204605D77408109910960930E0697
:1022900070930F06809310069093110687E3809346
:1022A000170610925C0410925B041092B204109214
:1022B000D4040E9413068BEE91E090935A0480930D
:1022C00059048CEE91E09093580480935704109237
:1022D000FE0580910306823018F098E09093FE0589
:1022E0008093010662E370E080E090E00E94400489
:1022F0006091040689EF95E00E94F40868EE73E0AF
:1023000080E090E00E94400460E389EF95E00E9445
:10231000B8090BE416E4C8010197F1F760E389EF0F
:1023200095E00E94B809C8010197F1F760E389EFD1
:1023300095E00E94B80983E592E00197F1F760E229
:1023400089EF95E00E94B8096091FE05606240E067
:1023500089EF95E00E94D10984E08093FF0540E079
:102360006CE089EF95E00E94D1090E94E80982E0C3
:102370008093000640E066E089EF95E00E94D10975
:1023800040E062E089EF95E00E94D1098BE39FE194
:102390000197F1F788E08093040660E089EF95E00B
:1023A0000E94F40883E692E09093E5058093E405AB
:1023B0006FEF7FEF84E895E00E9442076091F4059B
:1023C000613208F060E28091F3050E949F0710924D
:1023D0005C0480935B048091F7059091F805DC0123
:1023E000ED91FC910284F385E02D19959093F6050B
:1023F0008093F5058091F4058230B8F08091F7055F
:102400009091F805DC01ED91FC910284F385E02DBB
:10241000199520E0382F8091F5059091F605822BD3
:10242000932B9093F6058093F505412C512C3201A6
:102430004394AA24AA94BA2C8091640481119EC169
:1024400067E772E0CE0101960E94CD0BAE014F5FAF
:102450005F4F61E070E087E090E00E94250ACE01C6
:1024600001960E94DE0B68EE73E080E090E00E942F
:1024700040040E94E80960E872E0CE0101960E94E3
:10248000CD0BAE014F5F5F4F70E060E082E090E007
:102490000E94250ACE0101960E94DE0B62E972E0DD
:1024A000CE0101960E94CD0BAE014F5F5F4F61E000
:1024B00070E086E090E00E94250ACE0101960E941D
:1024C000DE0B62E772E0CE0101960E94CD0BAE01F9
:1024D0004F5F5F4F62E070E090E080E00E94250A6D
:1024E000CE0101960E94DE0B62E081E00E94F309BA
:1024F000B1E0B093F0050E9472040091E0051091E4
:10250000E1052091E2053091E305AB01BC01401BE0
:10251000510B620B730B8091EC059091ED05B0E0CF
:10252000A0E084179507A607B70710F7312C809114
:10253000EB05381608F071C0C32CD12CE091E805EA
:10254000F091E905EC0DFD1D40E0608184E895E027
:102550000E948407D301C201032C04C0880F991F75
:10256000AA1FBB1F0A94D2F74C017C01E094F0949F
:10257000212C8091EA05281608F040C0022D10E0B9
:10258000E091E605F091E705E00FF11F608184E836
:1025900095E00E943A0A0C5F1F4F000F111FF801CF
:1025A000EC57FA4F892B29F5808191818829992947
:1025B000918380832394DDCF34E0F2CD8BE690E0ED
:1025C00011CE90E080E00ECE88E0223309F418CEE0
:1025D00084E0233309F414CE82E0243309F410CECE
:1025E00082EC820F883018F42E53330B04CE81E036
:1025F00007CE808191818E219F21DACF8091E805DD
:102600009091E905C80ED91E41E0F601608184E889
:1026100095E00E94840733948ACF04E815E078019E
:10262000D7015F968D919C919097892B49F45C9688
:102630001C925C975E96BC92AE925D9791961C92AE
:10264000B6E0EB0EF11CE0ECEE16E5E0FE0641F71D
:10265000912C8091EA05981608F053C0812CC92C62
:10266000D12CCC0CDD1CC60184579A4F6C012091F3
:10267000EB05821608F043C0D6016D917C91082CC1
:1026800002C0769567950A94E2F7929E9001112414
:10269000280D311DE4E8F5E080E0458D568D2417C6
:1026A000350709F465C48F5F36968A30B1F760FF4D
:1026B00024C0E4E8F5E090E080E0448D411118C0CA
:1026C000E091E405F091E505E20FF31F4081B6E0EB
:1026D000B89FF001B99FF00D1124EC57FA4F448FC9
:1026E000368F258F10A2178E61E00E94840505C0E9
:1026F000019636968A30910501F78394B8CF93946A
:10270000A8CFD12CF80181A18111D82E0A5F1F4FCB
:10271000E016F106B9F70E9472046093E005709329
:10272000E1058093E2059093E305DD2009F4E0CE16
:102730008091A505882309F4DBCE8091A3059091B3
:10274000A405019709F0D4CE1091A005112309F436
:10275000CFCE133209F40EC419831A8241E050E03F
:10276000BE016F5F7F4F82E795E00E94F50A41E06E
:10277000612F89EF95E00E94D109BACE8BE00E94CB
:102780008803282E809360048AE00E948803382EF4
:1027900080935F0489E00E948803882E80935E0402
:1027A0008CE00E948803082F809361040E947E04BD
:1027B000882349F080910B068B3028F08D3040F053
:1027C00085518230B8F160E070E080EC9FE71CC07A
:1027D0006091060670E090E080E00E945E182DECAB
:1027E0003CEC4CEC5DE30E9499186B017C0160911C
:1027F000050670E090E080E00E945E189B01AC014D
:10280000C701B6010E9458190E94C419962E609300
:1028100063040E947E04882341F080910B068C3073
:1028200009F4AFC0C8F48B3081F160E070E080EC57
:102830009FE753C0609105067091060676276727CB
:10284000762790E080E00E945C182DEC3CEC4CEC8C
:102850005DE30E949918D8CF8551823030F71091EE
:102860000706612F70E0762F662766277F778091B5
:102870000806682B90E080E00E945C182DEC3CEC90
:102880004CEC5DE30E94991898C06091070670E0D7
:1028900090E080E00E945C186B017C0110910806BA
:1028A00017FF0AC0AC019B0160E070E080E89FEB7D
:1028B0000E9457196B017C011F70612F70E090E03E
:1028C00080E00E945E182DEC3CEC4CEC5DE30E9435
:1028D0009918A70196010E9458190E94C419609383
:1028E0005D04F1E082E090E02F1629F0013009F05C
:1028F00068C083E090E0909301028093000261E061
:1029000082E00E94B10361E08DE00E94B10360E0CB
:1029100083E00E94B10360E084E00E94B1038091F3
:102920000002909101028130910509F40CC108F474
:10293000BBC08230910509F429C1039709F43EC157
:1029400080916204811114C0809100029091010273
:102950008130910509F46BC108F448C182309105BA
:1029600009F482C1039709F49CC181E08093620459
:1029700068EE73E080E090E00E9440040E94F00264
:102980005BCD10910706612F70E090E080E00E941F
:102990005C186B017C01609108066F7070E090E03C
:1029A00080E00E945E182DEC3CEC4CEC5DE30E9454
:1029B0009918A70196010E94581917FF8ECF9058B9
:1029C0008CCF51E0351205C0109201021092000226
:1029D00096CF81E0881203C081E090E08CCF96E42E
:1029E000991508F07BC161E084E00E94B10360E0CA
:1029F00083E00E94B1030E94E80966E4CE010796D5
:102A00000E947D0B6FE373E0CE010D960E94CD0B0B
:102A1000BE01695F7F4FCE010D960E94490B61E5B3
:102A200073E00E94330BBC01CE0101960E94B30BF0
:102A3000AE014F5F5F4F70E060E090E080E00E9489
:102A4000250ACE0101960E94DE0BCE010D960E9452
:102A5000DE0BCE0107960E94DE0B63E573E0CE012C
:102A600001960E94CD0BAE014F5F5F4F61E070E0B9
:102A700085E090E00E94250ACE0101960E94DE0BBF
:102A80006FE573E0CE0101960E94CD0BAE014F5F62
:102A90005F4F62E070E085E090E00E94250ACE0181
:102AA00001960E94DE0B64CF0E94E8096AE972E099
:102AB000CE0101960E94CD0BAE014F5F5F4F70E0DB
:102AC00060E087E090E00E94250ACE0101960E9416
:102AD000DE0B6DED72E0CE0101960E94CD0BAE01D2
:102AE0004F5F5F4F61E070E082E090E00E94250A56
:102AF000CE0101960E94DE0B63EA72E0CE010196E0
:102B00000E94CD0BAE014F5F5F4F62E070E082E04C
:102B100090E00E94250ACE0101960E94DE0B64EB34
:102B200072E0CE0101960E94CD0BAE014F5F5F4F68
:102B300063E070E087E090E00E94250ACE010196F4
:102B40000E94DE0BFDCE0E94E8096AE972E0CE0128
:102B500001960E94CD0BAE014F5F5F4F70E060E0C9
:102B600087E090E00E94250ACE0101960E94DE0BCC
:102B700066EF72E0CE0101960E94CD0BAE014F5F71
:102B80005F4F61E070E081E090E0B0CF0E94E80923
:102B90006AE972E0CE0101960E94CD0BAE014F5F53
:102BA0005F4F70E060E087E090E00E94250ACE0170
:102BB00001960E94DE0B60E173E0DCCF0E94E80921
:102BC0006AE972E0CE0101960E94CD0BAE014F5F23
:102BD0005F4F70E060E087E090E00E94250ACE0140
:102BE00001960E94DE0B6CE273E0C4CF8DEB92E0A5
:102BF0000E94940A67EC72E0CE0101960E94CD0B10
:102C000062E775E0CE0101960E94490B61ED72E02A
:102C10000E94330B0E94BA0ACE0101960E94DE0B7D
:102C200084ED92E00E94940A0E94AB0A9ECE8DEB46
:102C300092E00E94940A67EC72E0CE0101960E9435
:102C4000CD0B62E775E0CE0101960E94490B61ED64
:102C500072E00E94330B0E94BA0ACE0101960E94D4
:102C6000DE0B8DEE92E0DECF8DEB92E00E94940AB7
:102C700067EC72E0CE0101960E94CD0B62E775E031
:102C8000CE0101960E94490B61ED72E00E94330B68
:102C90000E94BA0ACE0101960E94DE0B87E093E003
:102CA000C1CF8DEB92E00E94940A67EC72E0CE01F6
:102CB00001960E94CD0B62E775E0CE0101960E945D
:102CC000490B61ED72E00E94330B0E94BA0ACE01FB
:102CD00001960E94DE0B83E293E0A4CF60E082E0E5
:102CE0000E94B10360E08DE00E94B10360E084E0E7
:102CF0000E94B10361E083E00E94B1030E94E809F1
:102D0000602FCE0107960E947D0B6BE673E0CE012B
:102D10000D960E94CD0BBE01695F7F4FCE010D96CF
:102D20000E94490BBC01CE0101960E94B30BAE017B
:102D30004F5F5F4F70E060E090E080E00E94250A06
:102D4000CE0101960E94DE0BCE010D960E94DE0B95
:102D5000CE0107960E94DE0B60916004CE010796BB
:102D60000E947D0B63E773E0CE010D960E94CD0BB0
:102D7000BE01695F7F4FCE010D960E94490BBC01D9
:102D8000CE0101960E94B30BAE014F5F5F4F61E031
:102D900070E090E080E00E94250ACE0101960E943A
:102DA000DE0BCE010D960E94DE0BCE0107960E942F
:102DB000DE0B60915F04CE0107960E947D0B6BE7EE
:102DC00073E0CE010D960E94CD0BBE01695F7F4F6F
:102DD000CE010D960E94490BBC01CE0101960E94C6
:102DE000B30BAE014F5F5F4F62E070E090E080E0B8
:102DF0000E94250ACE0101960E94DE0BCE010D969F
:102E00000E94DE0BCE0107960E94DE0B60915E04ED
:102E1000CE0107960E947D0B60E873E0CE010D960F
:102E20000E94CD0BBE01695F7F4FCE010D960E94BF
:102E3000490BBC01CE0101960E94B30BAE014F5F5E
:102E40005F4F63E070E090E080E00E94250ACE01D1
:102E500001960E94DE0BCE010D960E94DE0BCE0184
:102E600007960E94DE0B68EE73E080E090E00E941F
:102E700040040E94E80960916304CE0107960E9415
:102E80007D0B66E873E0CE010D960E94CD0BBE016E
:102E9000695F7F4FCE010D960E94490B61E573E09B
:102EA0000E94330BBC01CE0101960E94B30BAE0110
:102EB0004F5F5F4F70E060E090E080E00E94250A85
:102EC000CE0101960E94DE0BCE010D960E94DE0B14
:102ED000CE0107960E94DE0B60915D04CE0107963D
:102EE0000E947D0B61E973E0CE010D960E94CD0B2F
:102EF000BE01695F7F4FCE010D960E94490B8C0188
:102F00008FED89831A8241E050E0BE016F5F7F4FF1
:102F1000C8010E94F50A811103C0C8010E94210B5B
:102F20006FE973E0C8010E94330BBC01CE0101962A
:102F30000E94B30BAE014F5F5F4F61E070E090E025
:102F400080E00E94250ACE0101960E94DE0BCE0190
:102F50000D960E94DE0BCE0107960E94DE0B86E0E6
:102F600090E090930102809300021092620400CDE1
:102F70006170BBCB0E94E80961EA73E0CE01019663
:102F80000E94CD0BAE014F5F5F4F70E060E084E0C8
:102F900090E00E94250ACE0101960E94DE0B62E7B6
:102FA00075E0CE0101960E94B30BAE014F5F5F4FFB
:102FB00061E070E084E090E00E94250ACE01019675
:102FC0000E94DE0B6FEA73E0CE0101960E94CD0BEA
:102FD000AE014F5F5F4F62E070E086E090E00E94DC
:102FE000250ACE0101960E94DE0B68EB73E0CE014C
:102FF00001960E94CD0BAE014F5F5F4F63E070E022
:1030000084E090E00E94250ACE0101960E94DE0B2A
:1030100068EE73E080E090E00E94400481E08093DD
:103020006404ACCC82E795E00E94DE0B84E492E07D
:103030009093190680931806809155049091560438
:103040008851964071F4E0912B06F0912C06908106
:1030500080912D06809589238083109256041092CA
:1030600055040895BB27FB015527AA27880F991FF0
:10307000AA1FA41710F0A41B83955051B9F7A05DA7
:10308000AA3308F0A95DA193009779F7B111B19324
:103090001192CB010C944C18DC01FC01672F71914B
:1030A0007723E1F7329704C07C916D93708362912E
:1030B000AE17BF07C8F30895E89409C097FB3EF424
:1030C00090958095709561957F4F8F4F9F4F992375
:1030D000A9F0F92F96E9BB279395F69587957795F3
:1030E0006795B795F111F8CFFAF4BB0F11F460FFB3
:1030F0001BC06F5F7F4F8F4F9F4F16C0882311F00B
:1031000096E911C0772321F09EE8872F762F05C01E
:10311000662371F096E8862F70E060E02AF09A95B9
:10312000660F771F881FDAF7880F9695879597F9AE
:1031300008950E94AC180C941D190E940F1938F0C4
:103140000E94161920F0952311F00C9406190C9486
:103150000C1911240C9451190E942E1970F3959F8B
:10316000C1F3950F50E0551F629FF001729FBB277E
:10317000F00DB11D639FAA27F00DB11DAA1F649F1A
:103180006627B00DA11D661F829F2227B00DA11DCD
:10319000621F739FB00DA11D621F839FA00D611D53
:1031A000221F749F3327A00D611D231F849F600D74
:1031B000211D822F762F6A2F11249F5750409AF09D
:1031C000F1F088234AF0EE0FFF1FBB1F661F771F29
:1031D000881F91505040A9F79E3F510580F00C94F4
:1031E00006190C9451195F3FE4F3983ED4F3869589
:1031F00077956795B795F795E7959F5FC1F7FE2B94
:10320000880F911D9695879597F9089597F99F676F
:1032100080E870E060E008959FEF80EC089500245E
:103220000A941616170618060906089500240A942B
:1032300012161306140605060895092E0394000CB1
:1032400011F4882352F0BB0F40F4BF2B11F460FF40
:1032500004C06F5F7F4F8F4F9F4F089557FD905869
:10326000440F551F59F05F3F71F04795880F97FB4A
:10327000991F61F09F3F79F0879508951216130604
:103280001406551FF2CF4695F1DF08C01616170633
:103290001806991FF1CF8695710561050894089568
:1032A000E894BB2766277727CB0197F908955058F4
:1032B000BB27AA270E946F190C941D190E940F1991
:1032C00038F00E94161920F039F49F3F19F426F4C3
:1032D0000C940C190EF4E095E7FB0C940619E92FF9
:1032E0000E942E1958F3BA176207730784079507CF
:1032F00020F079F4A6F50C9450190EF4E0950B2EFD
:10330000BA2FA02D0B01B90190010C01CA01A00137
:103310001124FF27591B99F0593F50F4503E68F192
:103320001A16F040A22F232F342F4427585FF3CFD3
:10333000469537952795A795F0405395C9F77EF4A4
:103340001F16BA0B620B730B840BBAF09150A1F0ED
:10335000FF0FBB1F661F771F881FC2F70EC0BA0F73
:10336000621F731F841F48F4879577956795B795FB
:10337000F7959E3F08F0B0CF9395880F08F09927F6
:10338000EE0F9795879508950E94361988F09F57FC
:1033900098F0B92F9927B751B0F0E1F0660F771F79
:1033A000881F991F1AF0BA95C9F714C0B13091F06F
:1033B0000E945019B1E008950C945019672F782F8E
:1033C0008827B85F39F0B93FCCF386957795679534
:1033D000B395D9F73EF490958095709561957F4FA0
:1033E0008F4F9F4F089597FB072E16F4009407D038
:1033F00077FD09D00E940F1A07FC05D03EF4909586
:1034000081959F4F0895709561957F4F0895EE0FB8
:10341000FF1F881F8BBF0790F691E02D1994AA1B00
:10342000BB1B51E107C0AA1FBB1FA617B70710F0AF
:10343000A61BB70B881F991F5A95A9F780959095E1
:10344000BC01CD0108950F931F93CF93DF9382307A
:10345000910510F482E090E0E0913906F0913A068F
:1034600030E020E0B0E0A0E0309799F4211531057C
:1034700009F44AC0281B390B24303105D8F58A815C
:103480009B816115710589F1FB0193838283FE01A4
:1034900011C0408151810281138148175907E0F022
:1034A0004817590799F4109761F012960C931297E8
:1034B00013961C933296CF01DF91CF911F910F91FC
:1034C00008950093390610933A06F4CF211531057B
:1034D00051F04217530738F0A901DB019A01BD01F1
:1034E000DF01F801C1CFEF01F9CF90933A06809345
:1034F0003906CDCFFE01E20FF31F81939193225045
:10350000310939832883D7CF209137063091380687
:10351000232B41F4209104023091050230933806A8
:1035200020933706209102023091030221153105C4
:1035300041F42DB73EB74091060250910702241B7B
:10354000350BE0913706F0913806E217F307A0F447
:103550002E1B3F0B2817390778F0AC014E5F5F4FE9
:103560002417350748F04E0F5F1F509338064093DD
:103570003706819391939FCFF0E0E0E09CCFCF930B
:10358000DF930097E9F0FC01329713821282A09139
:103590003906B0913A06ED0130E020E01097A1F431
:1035A00020813181820F931F209137063091380698
:1035B0002817390709F061C0F0933806E093370601
:1035C000DF91CF910895EA01CE17DF07E8F54A8130
:1035D0005B819E0141155105B1F7E901FB83EA8347
:1035E00049915991C40FD51FEC17FD0761F48081F3
:1035F00091810296840F951FE901998388838281C6
:1036000093819B838A83F0E0E0E012968D919C91F8
:1036100013970097B9F52D913C911197CD01029622
:10362000820F931F209137063091380628173907EB
:1036300039F6309751F510923A0610923906B09348
:103640003806A0933706BCCFD383C2834081518113
:10365000840F951FC817D90761F44E5F5F4F8881AB
:103660009981480F591F518340838A819B8193839D
:1036700082832115310509F0B0CFF0933A06E0932B
:1036800039069ECFFD01DC01C0CF13821282D7CF55
:103690004F925F926F927F928F929F92AF92BF9262
:1036A000CF92DF92EF92FF920F931F93CF93DF930E
:1036B0008C01009799F4CB01DF91CF911F910F916D
:1036C000FF90EF90DF90CF90BF90AF909F908F9042
:1036D0007F906F905F904F900C94231AFC01E60F3F
:1036E000F71F9C0122503109E217F30708F4AEC01E
:1036F000D901CD91DC911197C617D70720F1C530BC
:10370000D10578F0CE0104978617970750F0C61BB5
:10371000D70B2297C193D1936D937C93CF010E94D5
:10372000BF1AC801DF91CF911F910F91FF90EF90C9
:10373000DF90CF90BF90AF909F908F907F906F90D1
:103740005F904F9008955B01AC1ABD0A4C018C0E3E
:103750009D1EA0913906B0913A06512C412CF12CB6
:10376000E12C109731F58091370690913806881535
:10377000990509F05CC04616570608F058C08091BC
:10378000020290910302009741F48DB79EB74091D9
:10379000060250910702841B950BE817F90708F001
:1037A00055C0F0933806E0933706F90171836083C2
:1037B000B8CF8D919C91119712966C901297139699
:1037C0007C901397A815B90559F56C0142E0C40E19
:1037D000D11CCA14DB0420F1AC014A195B09DA01DF
:1037E0001296159780F06282738251834083D901CB
:1037F0006D937C93E114F10471F0D7011396FC935F
:10380000EE9312978ECF22968C0F9D1FF901918314
:103810008083F301EFCFF0933A06E093390681CF2E
:103820004816590608F42C017D01D3019ACFCB012B
:103830000E94231A7C01009749F0AE01B8010E9452
:10384000291CC8010E94BF1A87016BCF10E000E05D
:1038500068CFFB01DC0102C001900D924150504045
:10386000D8F70895FB01DC0101900D920020E1F7EB
:10387000089511E0CBE5D1E000E006C0802FFE0105
:103880000E94071A2196011DCC35D10780E0080758
:10389000A9F7F894FFCF060000003B068000000067
:1038A000400014005400000000008302ED011A02E1
:1038B000D0024B0229023D0200000000C508980812
:1038C000B5096E0891087E086F0800000000340AF0
:1038D000ED01B509E005000000002009ED01B50982
:1038E0006E087C099409080900000000EA018407B9
:1038F0003A0A040506000102033132333435363703
:1039000038392A30230D0A002B0041540057656CCA
:10391000636F6D652100456E74657220796F7572F5
:10392000206D6F62696C65006E756D6265723A003C
:103930005741524E494E472100534D53206E6F74EC
:10394000696669636174696F6E0069732073656E7F
:10395000742E0041542B434D47463D310041542BBA
:10396000434D47533D2200220D005761726E696E30
:10397000672120434F206973206465746563746513
:103980006421005761726E696E672120434F3220B7
:10399000697320646574656374656421005761729E
:1039A0006E696E672120536D6F6B652069732064AB
:1039B0006574656374656421005761726E696E6732
:1039C0002120466C616D65206973206465746563B0
:1039D000746564210048756D696469747920766145
:1039E0006C7565203E20002500486F6F6420737958
:1039F0007374656D00697320656E61626C65642E19
:103A000000466C616D653A2000536D6F6B653A201E
:103A100000434F3A2000434F323A200048756D6909
:103A2000646974793A200054656D706572617475CB
:103A300072653A200043004D6F62696C65204E75D7
:103A40006D626572006973207361766564007375D9
:0C3A5000636365737366756C6C7921000C
:10E000000D9489F10D94B2F10D94B2F10D94B2F129
:10E010000D94B2F10D94B2F10D94B2F10D94B2F1F0
:10E020000D94B2F10D94B2F10D94B2F10D94B2F1E0
:10E030000D94B2F10D94B2F10D94B2F10D94B2F1D0
:10E040000D94B2F10D94B2F10D94B2F10D94B2F1C0
:10E050000D94B2F10D94B2F10D94B2F10D94B2F1B0
:10E060000D94B2F10D94B2F10D94B2F10D94B2F1A0
:10E070000D94B2F10D94B2F10D94B2F10D94B2F190
:10E080000D94B2F10D94B2F10D94B2F10D94B2F180
:10E090000D94B2F10D94B2F10D94B2F10D94B2F170
:10E0A0000D94B2F10D94B2F10D94B2F10D94B2F160
:10E0B0000D94B2F10D94B2F10D94B2F10D94B2F150
:10E0C0000D94B2F10D94B2F10D94B2F10D94B2F140
:10E0D0000D94B2F10D94B2F10D94B2F10D94B2F130
:10E0E0000D94B2F141546D656761323536300041AF
:10E0F000726475696E6F206578706C6F72657220DE
:10E1000073746B3530305632206279204D4C530099
:10E11000426F6F746C6F616465723E004875683F52
:10E1200000436F6D70696C6564206F6E203D200048
:10E130004350552054797065202020203D20005FF9
:10E140005F4156525F415243485F5F3D2000415658
:10E1500052204C696243205665723D20004743437C
:10E160002056657273696F6E203D20004350552024
:10E1700049442020202020203D20004C6F7720663D
:10E18000757365202020203D20004869676820665F
:10E190007573652020203D200045787420667573D6
:10E1A00065202020203D20004C6F636B2066757336
:10E1B000652020203D20004D617220203720323024
:10E1C000313300312E362E3800342E332E350056A2
:10E1D00023202020414444522020206F7020636F70
:10E1E00064652020202020696E73747275637469E1
:10E1F0006F6E2061646472202020496E74657272B3
:10E20000757074006E6F20766563746F7200726A49
:10E210006D702020006A6D70200057686174207056
:10E220006F72743A00506F7274206E6F7420737541
:10E2300070706F72746564004D7573742062652030
:10E2400061206C6574746572002000577269747483
:10E25000696E672045450052656164696E672045B7
:10E26000450045452065727220636E743D00504F35
:10E27000525400303D5A65726F2061646472003FF1
:10E280003D43505520737461747300403D454550C3
:10E29000524F4D207465737400423D426C696E6B41
:10E2A000204C454400453D44756D70204545505215
:10E2B0004F4D00463D44756D7020464C415348001B
:10E2C000483D48656C70004C3D4C69737420492F83
:10E2D0004F20506F72747300513D51756974005234
:10E2E0003D44756D702052414D00563D73686F7707
:10E2F00020696E7465727275707420566563746FF0
:10E30000727300593D506F727420626C696E6B00BD
:10E310002A0011241FBECFEFD1E2DEBFCDBF01E046
:10E320000CBF12E0A0E0B2E0EEE1FDEF03E00BBFB6
:10E3300002C007900D92A030B107D9F712E0A0E01B
:10E34000B2E001C01D92AE30B107E1F70F9460F367
:10E350000D948DFE01E20EBF0FEF0DBF11241FBE05
:10E360000D9460F30D9400F020E030E040ED57E0B4
:10E3700005C0FA013197F1F72F5F3F4F2817390792
:10E38000C0F308959C01260F311DC901A0E0B0E043
:10E390002F5F3F4FABBFFC018791882361F08093D3
:10E3A000C6008091C00086FFFCCF8091C0008064D1
:10E3B0008093C000EACF08958DE08093C6008091DD
:10E3C000C00086FFFCCF8091C00080648093C000B5
:10E3D0008AE08093C6008091C00086FFFCCF8091C8
:10E3E000C00080648093C00008950F94C2F10F9420
:10E3F000DCF10895FC019081992359F09093C600B7
:10E400008091C00086FFFCCF8091C0008064809323
:10E41000C0003196992379F70895282F982F929567
:10E420009F70892F805D8A3308F0895F8093C600D2
:10E430008091C00086FFFCCF8091C00080648093F3
:10E44000C000822F8F70982F905D9A3308F0995FEB
:10E450009093C6008091C00086FFFCCF8091C000E1
:10E4600080648093C00008959C01FB01853691056E
:10E470001CF46330710594F0C90164E670E00F94F8
:10E480002EFE605D7F4F6093C6008091C00086FFC6
:10E49000FCCF8091C00080648093C0002B30310598
:10E4A00014F43297B4F0C90164E670E00F942EFEC4
:10E4B0006AE070E00F942EFE605D7F4F6093C600AF
:10E4C0008091C00086FFFCCF8091C0008064809363
:10E4D000C000C9016AE070E00F942EFEC0968093E0
:10E4E000C6008091C00086FFFCCF8091C000806490
:10E4F0008093C00008951F93182F8EE692EE60E07F
:10E500000F94C2F11093C6008091C00086FFFCCF2B
:10E510008091C00080648093C0000F94DCF11F9153
:10E5200008952F923F924F925F926F927F928F92B7
:10E530009F92AF92BF92CF92DF92EF92FF920F9392
:10E540001F93DF93CF93CDB7DEB762970FB6F894E2
:10E55000DEBF0FBECDBF382E622ECA01DB015C01CB
:10E560006D01772420E2222E2E010894411C511CBB
:10E570008BC081E0A81680E0B80681E0C80680E084
:10E58000D80628F0C601AA27BB270F940DF2BB2797
:10E59000AD2D9C2D8B2D0F940DF28A2D0F940DF225
:10E5A0002092C6008091C00086FFFCCF8091C00001
:10E5B00080648093C0009DE29093C6008091C0006B
:10E5C00086FFFCCF8091C00080648093C0002092C1
:10E5D000C6008091C00086FFFCCF8091C00080649F
:10E5E0008093C00019828601750188249924A1E0D6
:10E5F0003A1651F03A1620F0B2E03B1661F409C029
:10E600000BBFF701779007C0C7010F9477FE782EF4
:10E6100002C0F7017080872D0F940DF22092C60082
:10E620008091C00086FFFCCF8091C0008064809301
:10E63000C000872D8052F401EF70F0708F3520F408
:10E64000E40DF51D708204C0E40DF51D8EE280839B
:10E650000894E11CF11C011D111D0894811C911CE2
:10E6600090E18916910409F0C2CF80E190E0A0E02A
:10E67000B0E0A80EB91ECA1EDB1E198AC2010F9493
:10E68000FAF10F94DCF16A94662009F072CF629679
:10E690000FB6F894DEBF0FBECDBFCF91DF911F91B3
:10E6A0000F91FF90EF90DF90CF90BF90AF909F9031
:10E6B0008F907F906F905F904F903F902F90089534
:10E6C0002F923F924F925F926F927F928F929F9282
:10E6D000AF92BF92CF92DF92EF92FF920F931F9370
:10E6E000DF93CF93CDB7DEB7CD53D1400FB6F894BB
:10E6F000DEBF0FBECDBF01E20EBF0FEF0DBF94B75F
:10E70000F894A89514BE80916000886180936000A1
:10E7100010926000789493FF05C0E0910002F091A0
:10E7200001021995279A2F9A8091C00082608093E8
:10E73000C00080E18093C40088E18093C1000000A4
:10E74000EE24FF24870144E0A42EB12CCC24DD2448
:10E7500024C0C5010197F1F70894E11CF11C011DCB
:10E76000111D21E2E2162EE4F20620E0020720E06D
:10E77000120718F031E0C32ED12CC801B70127ECE5
:10E780003BE140E050E00F9441FE611571058105C9
:10E79000910519F485B1805885B98091C00087FD35
:10E7A00003C0C114D104A9F2A6014F5F5F4FC25E3E
:10E7B000DE4F59834883CE51D140C25EDE4F8881FF
:10E7C0009981CE51D140019711F00D9410FEC05D9A
:10E7D000DE4F19821882C053D14060E0C15DDE4F28
:10E7E0001882CF52D14088249924C35DDE4F19820C
:10E7F0001882CD52D140C05EDE4F188219821A8233
:10E800001B82C052D140CE5CDE4F188219821A8220
:10E810001B82C253D140EE24FF2487010BBFF701B6
:10E8200007911691C45CDE4F19830883CC53D14005
:10E830000D940BFEC25EDE4F28813981CE51D1404E
:10E840002130310509F52091C600C25EDE4F1982E4
:10E850001882CE51D14022C02F5F3F4F4F4F5F4FA4
:10E86000213082E138078AE7480780E0580780F0C6
:10E87000C45CDE4FE881F981CC53D140EF5FFF4F9C
:10E8800019F0EE27FF27099420E030E040E050E047
:10E890008091C00087FFE0CF2091C600C35DDE4FAE
:10E8A00048815981CD52D1404F5F5F4FC35DDE4FEC
:10E8B00059834883CD52D140213209F063C64A3092
:10E8C000510508F05FC60894811C911C53E0851621
:10E8D000910409F059C600E010E018C081E280936D
:10E8E000C6008091C00086FFFCCF8091C00080648C
:10E8F0008093C0002F5F3F4F2931310579F70F9486
:10E90000DCF10F5F1F4F0530110519F020E030E0FA
:10E91000E5CF10920A0210920B0210920C02109294
:10E920000D02109206021092070210920802109235
:10E930000902109202021092030210920402109235
:10E9400005028FEE90EE60E00F94F5F180E191EE1C
:10E9500060E00F94C2F18091C00087FFFCCF9091DE
:10E96000C600903608F09F759032B8F09093C600BC
:10E970008091C00086FFFCCF8091C00080648093AE
:10E98000C000A0E2A093C6008091C00086FFFCCF2B
:10E990008091C00080648093C000983409F4D7C18E
:10E9A0009934B8F4923409F459C1933458F490333B
:10E9B00019F1903308F4E3C59F33A1F1903409F0C5
:10E9C000DEC5BDC0953409F470C1963409F0D7C5D1
:10E9D00098C1923509F42BC2933538F49C3409F46C
:10E9E000F5C1913509F0CBC518C2963509F445C279
:10E9F000993509F0C4C567C483E792EE62E00F94CD
:10EA0000F5F110920602109207021092080210927D
:10EA1000090210920A0210920B0210920C0210923C
:10EA20000D0213C18FE792EE62E00F94F5F18FEEC5
:10EA300090EE60E00F94F5F181E291EE60E00F94CA
:10EA4000C2F187EB91EE60E00F94F5F180E391EE77
:10EA500060E00F94C2F184EE90EE60E00F94F5F167
:10EA60008FE391EE60E00F94C2F186E090E061E008
:10EA700070E00F9434F20F94DCF18DE591EE60E0DC
:10EA80000F94C2F189EC91EE60E00F94F5F18EE401
:10EA900091EE60E00F94C2F183EC91EE60E00F9490
:10EAA000F5F18CE691EE60E00F94C2F18EE10F94E7
:10EAB0000DF288E90F940DF281E00F940DF20F949E
:10EAC000DCF18BE791EE60E00F94C2F119E0E0E039
:10EAD000F0E010935700E4918E2F0F940DF20F94F5
:10EAE000DCF18AE891EE60E00F94C2F1E3E0F0E03F
:10EAF00010935700E4918E2F0F940DF20F94DCF1D8
:10EB000089E991EE60E00F94C2F1E2E0F0E0109349
:10EB10005700E4918E2F0F940DF20F94DCF188EAE8
:10EB200091EE60E00F94C2F1E1E0F0E01093570045
:10EB30001491812F0F940DF20F94DCF107CF8BE825
:10EB400092EE62E00F94F5F18BE492EE60E00F94A8
:10EB5000F5F10F94DCF100E010E019C0C8016F2D51
:10EB60000F947FFEFF2031F489E492EE60E00F9471
:10EB7000C2F10BC0F092C6008091C00086FFFCCFAE
:10EB80008091C00080648093C0000F5F1F4FC80158
:10EB900081519F41A0E0B0E0ABBFFC01F790BAE229
:10EBA000FB1621F0E2E000301E07C1F60F94DCF105
:10EBB0000F94DCF187E592EE60E00F94F5F10F948D
:10EBC000DCF1CC24DD2400E010E01EC0C8010F946D
:10EBD00077FEF82E882331F489E492EE60E00F94FA
:10EBE000C2F10BC08093C6008091C00086FFFCCFAD
:10EBF0008091C00080648093C000FE1419F00894D6
:10EC0000C11CD11C0F5F1F4FC80181519F41A0E063
:10EC1000B0E0ABBFFC01E790FAE2EF1621F022E092
:10EC20000030120799F60F94DCF10F94DCF182E6C4
:10EC300092EE60E00F94C2F1C60161E070E00F94C3
:10EC400034F20F94DCF10F94DCF110920202109276
:10EC50000302109204021092050278CE89E992EE26
:10EC600062E00F94F5F1279A2F9A16C02F9880E052
:10EC700090E0E0EDF7E03197F1F7019684369105E9
:10EC8000C1F72F9A80E090E0E0EDF7E03197F1F7DF
:10EC9000019684369105C1F78091C00087FFE6CFC9
:10ECA0008091C00087FFFCCF64C485EA92EE62E0E9
:10ECB0000F94F5F140910202509103026091040219
:10ECC0007091050281E020E10F9491F2809102029F
:10ECD00090910302A0910402B091050280509F4FD1
:10ECE000AF4FBF4F8093020290930302A0930402A0
:10ECF000B093050280509041A040B04008F426CE69
:10ED0000A4CF83EB92EE62E00F94F5F140910602FE
:10ED100050910702609108027091090280E020E1A1
:10ED20000F9491F28091060290910702A09108023F
:10ED3000B091090280509F4FAF4FBF4F80930602A2
:10ED400090930702A0930802B0930902FFCD80ECD4
:10ED500092EE62E00F94F5F183E792EE60E00F949B
:10ED6000F5F18FE792EE60E00F94F5F18BE892EE0B
:10ED700060E00F94F5F189E992EE60E00F94F5F10F
:10ED800085EA92EE60E00F94F5F183EB92EE60E09D
:10ED90000F94F5F180EC92EE60E00F94F5F187ECC2
:10EDA00092EE60E00F94F5F188ED92EE60E00F9442
:10EDB000F5F18FED92EE60E00F94F5F18AEE92EEB0
:10EDC00060E00F94F5F183E093EEBDCD87EC92EE19
:10EDD00062E00F94F5F181E40F947BF282E40F94EA
:10EDE0007BF283E40F947BF284E40F947BF285E45E
:10EDF0000F947BF286E40F947BF287E40F947BF20E
:10EE000088E40F947BF28AE40F947BF28BE40F94F6
:10EE10007BF28CE40F947BF299CD88ED92EE62E068
:10EE20000F94F5F1772473948824992409C48FED05
:10EE300092EE62E00F94F5F140910A0250910B02BC
:10EE400060910C0270910D0282E020E10F9491F22A
:10EE500080910A0290910B02A0910C02B0910D02D8
:10EE600080509F4FAF4FBF4F80930A0290930B0289
:10EE7000A0930C02B0930D0269CD8AEE92EE62E08F
:10EE80000F94F5F184EE90EE60E00F94F5F18FECC5
:10EE900091EE60E00F94F5F1662477244301CC5D98
:10EEA000DE4F19821882C452D140D401C301B695F5
:10EEB000A79597958795CA5DDE4F88839983AA8326
:10EEC000BB83C652D140CC5DDE4FA881B981C4520C
:10EED000D1401196CC5DDE4FB983A883C452D14096
:10EEE000CD0162E070E00F9434F2B0E2B093C6005E
:10EEF0008091C00086FFFCCF8091C0008064809329
:10EF0000C000EDE2E093C6008091C00086FFFCCF18
:10EF10008091C00080648093C000F0E2F093C6004E
:10EF20008091C00086FFFCCF8091C00080648093F8
:10EF3000C000CA5DDE4FE880F9800A811B81C6529D
:10EF4000D140BB27A12F902F8F2D0F940DF2CA5DBA
:10EF5000DE4F8881C652D1400F940DF2B0E2FB2EF5
:10EF6000F092C6008091C00086FFFCCF8091C00067
:10EF700080648093C0000DE30093C6008091C000C0
:10EF800086FFFCCF8091C00080648093C00010E2B7
:10EF90001093C6008091C00086FFFCCF8091C00016
:10EFA00080648093C0008BBEF3012791C65DDE4F65
:10EFB0002883CA52D140A22EBB24CC24DD2408943D
:10EFC000611C711C811C911C8BBEF3018791282E42
:10EFD0003324442455240894611C711C811C911C09
:10EFE0008BBEF3013791C55DDE4F3883CB52D140E4
:10EFF0000894611C711C811C911C8BBEF30147910C
:10F00000C45DDE4F4883CC52D140ADEFEA2EAFEF66
:10F01000FA2EAFEF0A2FAFEF1A2F6E0C7F1C801E57
:10F02000911E142D032DF22CEE24EA0CFB1C0C1D5A
:10F030001D1D0F940DF220E22093C6008091C000A8
:10F0400086FFFCCF8091C00080648093C000C65DC5
:10F05000DE4F8881CA52D1400F940DF230E23093D6
:10F06000C6008091C00086FFFCCF8091C000806404
:10F070008093C000C45DDE4F8881CC52D1400F9494
:10F080000DF240E24093C6008091C00086FFFCCFA5
:10F090008091C00080648093C000C55DDE4F888190
:10F0A000CB52D1400F940DF250E25093C6008091A4
:10F0B000C00086FFFCCF8091C00080648093C000B8
:10F0C0008FEFE8168FEFF80680E0080780E018075A
:10F0D00031F484E092EE60E00F94C2F1DFC0D80119
:10F0E000C7018070907CA070B0708050904CA040A0
:10F0F000B040D1F52FEF3FE340E050E0E222F322B1
:10F1000004231523CA5DDE4FA880B980CA80DB8046
:10F11000C652D140AE0CBF1CC01ED11EAA0CBB1CD7
:10F12000CC1CDD1C8EE092EE60E00F94C2F1BB2798
:10F13000A12F902F8F2D0F940DF28E2D0F940DF285
:10F1400030E23093C6008091C00086FFFCCF8091F2
:10F15000C00080648093C0004EE34093C60080915D
:10F16000C00086FFFCCF87C08EE09EEFA0E0B0E03D
:10F17000E822F9220A231B239CE0E91694E9F90608
:10F1800090E0090790E0190709F088C0C45DDE4FE0
:10F19000A881CC52D140EA2EFF2400E010E0102FCD
:10F1A0000F2DFE2CEE24C55DDE4FB881CB52D14031
:10F1B000EB0EF11C011D111DD601C501817090706F
:10F1C000A070B070DC0199278827E80EF91E0A1F8D
:10F1D0001B1F20EF30E040E050E0A222B322C42207
:10F1E000D52241E1AA0CBB1CCC1CDD1C4A95D1F7F1
:10F1F000EA0CFB1C0C1D1D1D81E090E0A0E0B0E0BE
:10F20000282239224A225B2235E1220C331C441C7D
:10F21000551C3A95D1F7E20CF31C041D151D57013E
:10F220006801AA0CBB1CCC1CDD1C85E192EE60E0E1
:10F230000F94C2F1C801AA27BB270F940DF2BB2778
:10F24000A12F902F8F2D0F940DF28E2D0F940DF274
:10F2500090E29093C6008091C00086FFFCCF809121
:10F26000C00080648093C000AEE3A093C60080918C
:10F27000C00086FFFCCF8091C00080648093C000F6
:10F28000C601AA27BB270F940DF2BB27AD2D9C2DDD
:10F290008B2D0F940DF28A2D0F940DF20F94DCF14B
:10F2A000CC5DDE4FE881F981C452D140F99709F471
:10F2B0004DCBF4E0EF2EF12C012D112D6E0C7F1CA7
:10F2C000801E911EF2CD83E093EE62E00F94F5F183
:10F2D0008AE192EE60E00F94C2F18091C00087FF56
:10F2E000FCCF1091C6001F751093C6008091C0001E
:10F2F00086FFFCCF8091C00080648093C0000F9493
:10F30000DCF1812F81548A3108F036C1163409F4BA
:10F3100095C0173490F4133409F44EC0143430F40B
:10F320001134F1F0123409F01DC130C0143409F465
:10F3300059C0153409F016C16BC01A3409F4C4C0A1
:10F340001B3438F4173409F48FC0183409F00AC19B
:10F35000A1C01B3409F4D2C01C3409F003C1E8C0B9
:10F360008FEF81B90DC082B1809582B980E090E0C5
:10F37000E0EDF7E03197F1F70196883C9105C1F790
:10F380008091C00087FFEFCF12B8EFC08FEF84B934
:10F390000DC085B1809585B980E090E0E0EDF7E0A3
:10F3A0003197F1F70196883C9105C1F78091C00033
:10F3B00087FFEFCF15B8D9C08FEF87B90DC088B1DF
:10F3C000809588B980E090E0E0EDF7E03197F1F7C3
:10F3D0000196883C9105C1F78091C00087FFEFCF6F
:10F3E00018B8C3C08FEF8AB90DC08BB180958BB9A7
:10F3F00080E090E0E0EDF7E03197F1F70196883C8E
:10F400009105C1F78091C00087FFEFCF1BB8ADC059
:10F410008FEF8DB90DC08EB180958EB980E090E0F0
:10F42000E0EDF7E03197F1F70196883C9105C1F7DF
:10F430008091C00087FFEFCF1EB897C08FEF80BBD1
:10F440000DC081B3809581BB80E090E0E0EDF7E0F6
:10F450003197F1F70196883C9105C1F78091C00082
:10F4600087FFEFCF11BA81C08FEF83BB0DC084B38C
:10F47000809584BB80E090E0E0EDF7E03197F1F714
:10F480000196883C9105C1F78091C00087FFEFCFBE
:10F4900014BA6BC08FEF809301010FC080910201FD
:10F4A00080958093020180E090E0E0EDF7E03197F5
:10F4B000F1F70196883C9105C1F78091C00087FF64
:10F4C000EDCF1092020151C08FEF809304010FC065
:10F4D0008091050180958093050180E090E0E0ED4A
:10F4E000F7E03197F1F70196883C9105C1F78091DB
:10F4F000C00087FFEDCF1092050137C08FEF8093DA
:10F5000007010FC08091080180958093080180E079
:10F5100090E0E0EDF7E03197F1F70196883C910536
:10F52000C1F78091C00087FFEDCF109208011DC088
:10F530008FEF80930A010FC080910B01809580931B
:10F540000B0180E090E0E0EDF7E03197F1F70196F4
:10F55000883C9105C1F78091C00087FFEDCF1092E4
:10F560000B0103C085E292EEEEC98091C00087FFD7
:10F57000FCCF8091C600EAC988E392EEE4C98CE131
:10F5800091EEE1C988249924933011F1943028F444
:10F59000913089F09230B8F408C0953061F195301F
:10F5A000F0F0963009F048C043C02B3109F042C951
:10F5B00091E06BE13FC96227C15DDE4F2883CF52E6
:10F5C000D14092E037C9B22FA0E0622793E032C960
:10F5D000822F90E0A82BB92B622794E02BC92E3004
:10F5E00009F039C3622795E0C05DDE4F19821882A9
:10F5F000C053D1401FC9E1E0F0E0EC0FFD1FC05D3A
:10F60000DE4F08811981C053D140E00FF11F2083E4
:10F610000F5F1F4FC05DDE4F19830883C053D14079
:10F6200062270A171B0709F005C9D80196E002C92D
:10F63000261709F010C303C0973009F0FBC87724E0
:10F640009981933109F412C19431C8F4963009F4C8
:10F65000D8C0973050F4923009F406C1933009F4C1
:10F660006DC0913009F059C253C0913109F477C08F
:10F67000923108F0BBC0903109F04FC2F5C098310B
:10F6800009F487C0993150F4953109F4EFC09531F0
:10F6900008F4C6C1963109F040C2C2C19A3109F4DA
:10F6A0006CC09A3108F491C09B3109F45BC09D3164
:10F6B00009F033C29D81903359F48F81882311F46E
:10F6C0009EE11CC0813011F091E018C098E916C08D
:10F6D000892F807591F0903539F4E0E0F0E089E011
:10F6E0008093570094910AC0983539F4E3E0F0E034
:10F6F00089E080935700949101C090E01A821B82A8
:10F700008D818C831D829E831F8227E030E009C299
:10F710001A8288E08B8381E48C8386E58D8382E581
:10F720008E8389E48F8383E5888780E589878FE5E9
:10F730008A8782E38B872BE030E0F3C18A818139AD
:10F7400041F0823941F0803911F48FE005C080E04A
:10F7500003C082E001C08AE01A828B8344C0772410
:10F76000739482C08D81882311F48EE12CC0813086
:10F7700011F081E028C088E926C01A82E1E0F0E0BB
:10F7800089E08093570084918B831C8224E030E0D1
:10F79000C8C18B81803589F48C81883039F4E2E0EE
:10F7A000F0E089E08093570084910DC0E0E0F0E044
:10F7B00089E080935700849106C0E3E0F0E089E09F
:10F7C0008093570084911A82DFCF8D81836C99E0FA
:10F7D000E1E0F0E0082E90935700E89507B600FCB2
:10F7E000FDCF1A821B8223E030E09BC180EC8A832C
:10F7F000CE5CDE4F188219821A821B82C253D1401E
:10F800008EC18A8190E0A0E0B0E0582F44273327D2
:10F8100022278B8190E0A0E0B0E0DC0199278827C7
:10F82000282B392B4A2B5B2B8D8190E0A0E0B0E098
:10F83000282B392B4A2B5B2B8C8190E0A0E0B0E089
:10F84000BA2FA92F982F8827282B392B4A2B5B2BCF
:10F85000220F331F441F551FC05EDE4F288339839C
:10F860004A835B83C052D1401A8259C13A81C95C34
:10F87000DE4F3883C753D140CA5CDE4F1882C6536F
:10F88000D1408B81C82EDD24CA5CDE4F488159816E
:10F89000C653D140C42AD52A933109F082C0CE5C28
:10F8A000DE4F88819981AA81BB81C253D1408050AB
:10F8B000904CA340B04030F583E0CE5CDE4FE88052
:10F8C000F9800A811B81C253D140F70100935B008C
:10F8D00080935700E89507B600FCFDCFCE5CDE4F65
:10F8E000088119812A813B81C253D14000501F4FAA
:10F8F0002F4F3F4FCE5CDE4F088319832A833B8313
:10F90000C253D140C05EDE4F488159816A817B81FC
:10F91000C052D140DE011B9631E08C9111962C91A2
:10F9200011971296C75CDE4F2883C953D140C85C3B
:10F93000DE4F1882C853D14090E0C85CDE4FE881AA
:10F94000F981C853D1408E2B9F2B0C01FA01609393
:10F950005B0030935700E89511244E5F5F4F6F4F67
:10F960007F4F0EEFE02E0FEFF02ECE0CDF1CC114F8
:10F97000D10499F685E0C05EDE4F088119812A81A5
:10F980003B81C052D140F80120935B008093570027
:10F99000E89507B600FCFDCF81E180935700E8951C
:10F9A00035C0C05EDE4F88819981AA81BB81C0527B
:10F9B000D140B695A795979587957C018601ABE0D8
:10F9C000AA2EB12CAC0EBD1E0BC0D5016D915D01F0
:10F9D000C7010F947FFE0894E11CF11C01501040F8
:10F9E0000115110591F7A60160E070E0440F551F65
:10F9F000661F771FC05EDE4FE880F9800A811B8199
:10FA0000C052D1404E0D5F1D601F711F1A82C05E33
:10FA1000DE4F488359836A837B83C052D1407FC0C5
:10FA2000FA80C55CDE4FF882CB53D140C65CDE4F16
:10FA30001882CA53D1408B81C82EDD24C65CDE4FAC
:10FA400008811981CA53D140C02AD12A1A828981DA
:10FA5000BE016D5F7F4F843121F59601C05EDE4FA0
:10FA6000E880F9800A811B81C052D1400BBFF701A9
:10FA700087919691DB018C9311969C936E5F7F4FDB
:10FA8000D801C7010296A11DB11DC05EDE4F88835B
:10FA90009983AA83BB83C052D14022503040F1F6F3
:10FAA00036C0C05EDE4F288139814A815B81C052F9
:10FAB000D1400894C108D108760100E010E0089414
:10FAC000C11CD11C0894E11CF11C011D111DE20E8A
:10FAD000F31E041F151F21BDBB27A52F942F832FB5
:10FAE00082BD2F5F3F4F4F4F5F4FF89A80B5DB01CC
:10FAF0008D93BD012E153F054007510761F7C05E8C
:10FB0000DE4F288339834A835B83C052D1409601FC
:10FB10002D5F3F4FFB01108204C080EC8A8322E0FE
:10FB200030E08BE18093C6008091C00086FFFCCF5F
:10FB30008091C00080648093C000C15DDE4FF88179
:10FB4000CF52D140F093C6008091C00086FFFCCF19
:10FB50008091C00080648093C000432F3093C60022
:10FB60008091C00086FFFCCF8091C00080648093AC
:10FB7000C000922F2093C6008091C00086FFFCCF6A
:10FB80008091C00080648093C0008EE08093C600A6
:10FB90008091C00086FFFCCF8091C000806480937C
:10FBA000C00065E1C15DDE4FE880CF52D1406E25D7
:10FBB00069276427FE01319610C090819093C6009A
:10FBC0008091C00086FFFCCF31968091C000806498
:10FBD0008093C0006927215030402115310569F715
:10FBE0006093C6008091C00086FFFCCF8091C0006A
:10FBF00080648093C00085B1805885B9772081F4F6
:10FC0000C15DDE4F0881CF52D1400F5FC15DDE4F35
:10FC10000883CF52D14090E0A0E0B0E00D941AF4F8
:10FC200027982F9880E090E020ED37E0F901319798
:10FC3000F1F7019684369105C9F700008091C00064
:10FC40008D7F8093C00081E180935700E895EE2777
:10FC5000FF270994FFCF90E00D941AF497FB092E2B
:10FC600007260AD077FD04D02ED006D000201AF443
:10FC7000709561957F4F0895F6F7909581959F4F08
:10FC80000895A1E21A2EAA1BBB1BFD010DC0AA1FDD
:10FC9000BB1FEE1FFF1FA217B307E407F50720F0F5
:10FCA000A21BB30BE40BF50B661F771F881F991F70
:10FCB0001A9469F760957095809590959B01AC01B9
:10FCC000BD01CF010895AA1BBB1B51E107C0AA1FAC
:10FCD000BB1FA617B70710F0A61BB70B881F991FED
:10FCE0005A95A9F780959095BC01CD010895F99991
:10FCF000FECF92BD81BDF89A992780B50895262F31
:10FD0000F999FECF1FBA92BD81BD20BD0FB6F89400
:0EFD1000FA9AF99A0FBE01960895F894FFCF63
:00000001FF
