:020000040000FA
:100000000C9463000C948B000C948B000C947D0C6E
:100010000C947D0C0C947D0C0C948B000C948B0038
:100020000C948B000C948B000C948B000C948B0024
:100030000C948B000C948B000C948B000C948B0014
:100040000C94140B0C948B000C94E20A0C94BC0AD4
:100050000C948B000C948B000C948B000C948B00F4
:100060000C945E0B0C948B00000000002400270011
:100070002A0000000008000201000003040700003D
:1000800000000000000000000000230026002900FE
:1000900000000000250028002B00040404040404D0
:1000A0000404020202020202030303030303010227
:1000B00004081020408001020408102001020408F6
:1000C0001020F50C041611241FBECFEFD8E0DEBFC0
:1000D000CDBF25E0AEECB2E001C01D92A434B20762
:1000E000E1F712E0A0E0B1E0E2E9F4E302C005903C
:1000F0000D92AE3CB107D9F710E0C2E6D0E004C0E3
:100100002197FE010E944418C136D107C9F70E9409
:10011000400E0C943C1A0C940000CF92DF92EF92A8
:10012000FF92CF93DF93B0911505A0E08111AB2F23
:100130008091160590E0880F991FAC014A575F4FD8
:10014000C0901B05D0901C05E0901D05F0901E0589
:1001500030E020E0FA01C591D491E881B90190E046
:1001600080E0EB23EA130AC02F5F3F4F6C157D053B
:100170008E059F0578F36FEF7FEFCB01DF91CF9175
:10018000FF90EF90DF90CF90089596E0899FD00187
:100190001124A357BB4F90967C936E935F9791E089
:1001A00091969C939197E091FA04F091FB049091C1
:1001B000F904992339F0309751F0811108C08091EA
:1001C000A9040994309719F05C968C91FACF0895A0
:1001D000089508950895AF92BF92CF92DF92EF9263
:1001E000FF920F931F93CF93DF936C017B018B01E1
:1001F000040F151FEB015E01AE18BF08C017D10731
:1002000059F06991D601ED91FC910190F081E02DBA
:10021000C6010995892B79F7C501DF91CF911F910F
:100220000F91FF90EF90DF90CF90BF90AF90089527
:10023000FC01538D448D252F30E0842F90E0821BEC
:10024000930B541710F0CF96089501970895FC0171
:10025000918D828D981761F0A28DAE0FBF2FB11DC9
:100260005D968C91928D9F5F9F73928F90E0089521
:100270008FEF9FEF0895FC01918D828D981731F0DB
:10028000828DE80FF11D858D90E008958FEF9FEF2F
:100290000895FC01918D228D892F90E0805C9F4F05
:1002A000821B91098F73992708958EED93E00E9428
:1002B000490121E0892B09F420E0822F089580E094
:1002C00090E0892B29F00E94550181110C940000C7
:1002D0000895FC01A48DA80FB92FB11DA35ABF4FDB
:1002E0002C91848D90E001968F739927848FA68935
:1002F000B7892C93A089B1898C91837080648C9389
:10030000938D848D981306C00288F389E02D808137
:100310008F7D80830895EF92FF920F931F93CF9369
:10032000DF93EC0181E0888F9B8D8C8D98131AC030
:10033000E889F989808185FF15C09FB7F894EE8917
:10034000FF896083E889F989808183708064808374
:100350009FBF81E090E0DF91CF911F910F91FF90BF
:10036000EF900895F62E0B8D10E00F5F1F4F0F7367
:100370001127E02E8C8D8E110CC00FB607FCFACF22
:10038000E889F989808185FFF5CFCE010E94690156
:10039000F1CFEB8DEC0FFD2FF11DE35AFF4FF082F3
:1003A0009FB7F8940B8FEA89FB8980818062CFCF59
:1003B000CF93DF93EC01888D8823B9F0AA89BB899C
:1003C000E889F9898C9185FD03C0808186FD0DC087
:1003D0000FB607FCF7CF8C9185FFF2CF808185FFA8
:1003E000EDCFCE010E946901E9CFDF91CF91089551
:1003F000833081F028F4813099F08230A9F008959B
:100400008730A9F08830C9F08430B1F48091800041
:100410008F7D03C0809180008F7780938000089546
:1004200084B58F7784BD089584B58F7DFBCF80918F
:10043000B0008F778093B00008958091B0008F7DD9
:10044000F9CFCF93DF93282F30E0F901EE58FF4F1B
:100450008491F901E255FF4FD491F901E656FF4F1F
:10046000C491CC23A1F081110E94F801EC2FF0E09F
:10047000EE0FFF1FEA57FF4FA591B491EC91ED23CA
:1004800081E090E009F480E0DF91CF91089580E071
:1004900090E0FACF1F93CF93DF93282F30E0F9013C
:1004A000EE58FF4F8491F901E255FF4FD491F901C5
:1004B000E656FF4FC491CC23A9F0162F81110E945C
:1004C000F801EC2FF0E0EE0FFF1FE057FF4FA59172
:1004D000B4918FB7F894EC91111108C0D095DE2338
:1004E000DC938FBFDF91CF911F910895DE2BF8CF62
:1004F000CF93DF9390E0FC01E255FF4F24918656A5
:100500009F4FFC0184918823C9F090E0880F991FC8
:10051000FC01E859FF4FA591B491FC01E057FF4F52
:10052000C591D49161110DC09FB7F8948C9120951D
:1005300082238C938881282328839FBFDF91CF91CA
:100540000895623051F49FB7F8943C91822F8095C2
:1005500083238C93E8812E2BEFCF8FB7F894EC9107
:100560002E2B2C938FBFEACF3FB7F894809157037F
:1005700090915803A0915903B0915A0326B5A89BB6
:1005800005C02F3F19F00196A11DB11D3FBFBA2F25
:10059000A92F982F8827BC01CD01620F711D811DE5
:1005A000911D42E0660F771F881F991F4A95D1F76A
:1005B00008958F929F92AF92BF92CF92DF92EF9267
:1005C000FF924B015C010E94B4026B017C010E940E
:1005D000B4026C197D098E099F09683E734081053C
:1005E0009105A8F321E0821A9108A108B10888EECC
:1005F000C80E83E0D81EE11CF11C81149104A104F3
:10060000B10429F7FF90EF90DF90CF90BF90AF90AB
:100610009F908F9008952FB7F89460915303709135
:10062000540380915503909156032FBF0895CF92A4
:10063000DF92EF92FF920F931F93CF93DF93CDB78B
:10064000DEB7C054D1400FB6F894DEBF0FBECDBFA9
:100650000E940B03009117051091180520911905B0
:1006600030911A056B017C01C01AD10AE20AF30A23
:1006700097018601003D17402105310590F48091D6
:100680001F05C05CDE4F0FB6F894DEBF0FBECDBFB6
:10069000DF91CF911F910F91FF90EF90DF90CF905E
:1006A000089560931705709318058093190590932A
:1006B0001A05109212051092110510921005109251
:1006C0000F0510920E0562E0809113050E947802DA
:1006D00061E070E080E090E00E94D90261E08091EA
:1006E00013050E94780260E0809113050E944A027F
:1006F000809114058551823020F58BE291E10197BC
:10070000F1F762E0809113050E9478028091200544
:1007100090E08230910538F0880F991F880F991F5B
:1007200005970197F1F7F89480E00E948D006F3FE4
:100730007F4F8F4F9F4F61F410921F05789480E098
:10074000A0CF64E170E080E090E00E94D902D9CFB0
:1007500081E00E948D006F3F7F4F8F4F9F4F61F36D
:100760008E010F5F1F4F6E012FEBC21A2EEFD20AC0
:10077000780180E00E948D00F7016083718382839D
:10078000938381E00E948D00F701648375838683E3
:100790009783F8E0EF0EF11CEC14FD0451F7789408
:1007A00030E020E0F801C080D180E280F380448115
:1007B000558166817781FFEFCF16DF06EF06FF06D2
:1007C00031F04F3F8FEF58076807780719F4109200
:1007D0001F05B5CFF90183E0F595E7958A95E1F717
:1007E000E25FFA4F8081880FC416D506E606F70649
:1007F00010F180832F5F3F4F085F1F4F2832310574
:1008000089F64091120520910E0580910F05280F61
:100810003327331F80911005280F311D809111055A
:10082000820F932F911D99274817190681F681E0B1
:1008300080931F0526CF8160DCCF0F931F93CF934A
:10084000DF93C82FD62F86E0C89FF0011124E3570D
:10085000FB4F11A2878D90A181309105F1F058F0E6
:1008600082309105F1F1039709F440C0DF91CF91F7
:100870001F910F9108956623C9F361E070E08C2FFA
:100880000E94C5000E940B036093E5047093E60488
:100890008093E7049093E804E9CF0E940B03009152
:1008A000E5041091E6042091E7043091E804AB01DF
:1008B000BC01401B510B620B730B8091F7049091AC
:1008C000F804B0E0A0E084179507A607B70748F43E
:1008D00062E070E08C2FDF91CF911F910F910C940B
:1008E000C50063E070E0D111C1CFF4CF70E060E0EB
:1008F000F1CF0895862F0C942102862F642F0C943B
:100900004A02862F642F0C94780220912F03260F21
:100910003327331F21323105ECF42091B403FC015D
:1009200090E080E0243069F082E00895A0912F03E8
:100930002191AC01415F5C4FA40FB52FB11D2C93E9
:100940000196861798F380912F03680F60932F0309
:1009500080E0089581E008951092B40381E08093CF
:10096000B30310928E0361E082E10E944A0261E0CB
:1009700083E10E944A02E9EBF0E080818E7F808370
:1009800080818D7F808388E48093B80085E48093A4
:10099000BC000895CF93DF9391E090930E038823DA
:1009A000B9F0C091B800D091BA008091BC008A7BA8
:1009B0008093BC0060E082E10E944A0260E083E133
:1009C0000E944A020E94AC04D093BA00C093B800BF
:1009D000DF91CF9108958F929F92AF92BF92CF9265
:1009E000DF92EF92FF920F931F93CF93DF93D091FB
:1009F000DD03D13208F0D7C0182FC091DC030E946C
:100A0000B4026B017C018091B40381116BC082E060
:100A10008093B4031093B3038FEF8093B2031092CB
:100A2000B103D093B003ACEBB3E0E0E9F3E080E0D6
:100A3000D81391C010928F0380918F03CC0FC82BD5
:100A4000C0938F0380918E03813009F088C010928B
:100A50008E030E94B4026B017C0180918F0380930E
:100A6000BB008091B6039091B703A091B803B091F9
:100A7000B903892B8A2B8B2BA1F00E94B402009121
:100A8000B6031091B7032091B8033091B9036C19E4
:100A90007D098E099F09061717072807390708F4EB
:100AA00042C08091BC0083FDD8CF85EC8093BC0010
:100AB0000E94B4026B017C018091B403823009F47E
:100AC00050C08091B2038F3F09F46FC08091B20390
:100AD000803209F46CC08091B203803309F469C09C
:100AE00084E026C08091B6039091B703A091B8032B
:100AF000B091B903892B8A2B8B2B09F484CF0E94E8
:100B0000B4028090B6039090B703A090B803B09061
:100B1000B9036C197D098E099F0986169706A806E8
:100B2000B90608F070CF8091B5030E94CA0485E031
:100B30001092BB031092DD031092BA03DF91CF91A4
:100B40001F910F91FF90EF90DF90CF90BF90AF90EB
:100B50009F908F9008959D9191938F5F69CF85EEBF
:100B6000A5CF8091B6039091B703A091B803B0913F
:100B7000B903892B8A2B8B2B09F49ECF0E94B402D8
:100B80000091B6031091B7032091B8033091B903D7
:100B90006C197D098E099F09061717072807390761
:100BA00008F08ACFC0CF81E0C3CF80E0C1CF82E020
:100BB000BFCF83E0BDCFEF92FF920F931F93CF93F0
:100BC000DF93EC018B017C0183E7E80EF11CD70178
:100BD0008D919C91FE01E159FF4F208131E03093CE
:100BE000BA032093DC031092BB031092DD03DC01F7
:100BF000ED91FC910190F081E02D0995FE01E05905
:100C0000FF4F8081823058F0F70180819181DC01B3
:100C1000ED91FC910190F081E02D612F099581E02B
:100C20000E94EB04CF58DF4F08831983DF91CF91E7
:100C30001F910F91FF90EF90089521E030E002C0E6
:100C4000220F331F6A95E2F7FC01EF58FF4F6081D6
:100C50007181442341F0262B372B3183208360811F
:100C600071810C94DB052095309526233723F5CF31
:100C7000CF92DF92EF92FF920F931F93CF93DF9368
:100C8000D82FC62F613208F098C00E94B4026B01C1
:100C90007C018091B40381116BC081E08093B40327
:100CA0008093B3039FEF9093B2031092B1039C0F14
:100CB0009093B00380938F0380918F03DD0FD82B27
:100CC000D0938F0380918E03813009F078C0109209
:100CD0008E030E94B4026B017C0180918F0380938C
:100CE000BB008091B6039091B703A091B803B09177
:100CF000B903892B8A2B8B2BA1F00E94B40200919F
:100D0000B6031091B7032091B8033091B9036C1961
:100D10007D098E099F09061717072807390708F468
:100D200048C08091BC0083FDD8CF85EC8093BC0087
:100D30000E94B4026B017C018091B403813009F4FC
:100D400040C08091B1038C1710F4C091B103E0E969
:100D5000F3E0AEE6B3E080E08C1355C08C2FDF915A
:100D6000CF911F910F91FF90EF90DF90CF9008955A
:100D70008091B6039091B703A091B803B091B903E5
:100D8000892B8A2B8B2B09F484CF0E94B40200910B
:100D9000B6031091B7032091B8033091B9036C19D1
:100DA0007D098E099F09061717072807390708F0DC
:100DB00070CF8091B5030E94CA04C0E0CFCF85EE0A
:100DC000B5CF8091B6039091B703A091B803B091CD
:100DD000B903892B8A2B8B2B09F4AECF0E94B40266
:100DE0000091B6031091B7032091B8033091B90375
:100DF0006C197D098E099F090617170728073907FF
:100E000008F09ACFD6CF91919D938F5FA5CF08958B
:100E1000E091640380916303E81730F4F0E0E25955
:100E2000FC4F808190E008958FEF9FEF089590919F
:100E30006403809163032FEF3FEF981748F4E92F85
:100E4000F0E0E259FC4F208130E09F5F9093640313
:100E5000C90108958091630390916403891B990BE4
:100E60000895CF92DF92EF92FF920F931F93CF934B
:100E7000DF937C01CB018A012091BA03222389F000
:100E8000EB016B01C40ED51ECC15DD0569F069912F
:100E9000D701ED91FC910190F081E02DC7010995FA
:100EA000F3CF642F0E948504C801DF91CF911F9179
:100EB0000F91FF90EF90DF90CF900895CF93DF9345
:100EC0001F92CDB7DEB769832091BA032223F9F0D0
:100ED0002091DD03203258F021E030E0FC01338323
:100EE000228390E080E00F90DF91CF910895809170
:100EF000BB03E82FF0E0E454FC4F998190838F5FAF
:100F00008093BB038093DD0381E090E0ECCF61E050
:100F1000CE0101960E948504F7CFFC01248131E0C7
:100F20003093BA032093DC031092BB031092DD03CD
:100F30008385682B81E894E00E945E0781E00C9431
:100F4000EB0420915D0330915E032817390771F49B
:100F500090915B0380915C03981741F0E0915B03F3
:100F6000F0E0E253FD4F808190E008958FEF9FEF16
:100F70000895EF92FF920F931F93CF93DF93DC01BD
:100F80005C96ED90FC905D97E114F10479F481E0BA
:100F900090E013969C938E93129790E080E0DF91FF
:100FA000CF911F910F91FF90EF9008955196ED9181
:100FB000FC91529750968C915097982F90950FB71F
:100FC0005E962C915E97122F127021FD6095F89419
:100FD0002081112319F1282B2083E7012197F1F7B4
:100FE00028E0462F50E0308160FF1AC0382B308354
:100FF000E7012197F1F7BA0175956795215089F7B7
:10100000112381F08081892380830FBF5C968D91AD
:101010009C910197F1F781E090E0C1CF2923DCCFCB
:101020003923E5CF9081892BEFCF20915D0330915B
:101030005E032817390771F480915C0320915B03EC
:1010400090E0805C9F4F821B910960E470E00E94F9
:101050001C18089590E080E0089520915D03309180
:101060005E0328173907B9F490915B0380915C0304
:10107000981789F0E0915B03F0E0E253FD4F808127
:1010800020915B0330E02F5F3F4F2F733327209376
:101090005B0390E008958FEF9FEF089590E080E06C
:1010A00008950F931F93CF938C01C62F0E948D0735
:1010B0006C2F6460C8010E948D076C2F6B7FC80184
:1010C0000E948D0783EC90E00197F1F7CF911F917B
:1010D0000F9108950F931F93CF93DF938C01D62F19
:1010E000C42F607F642B0E94510880E1D89FB0011B
:1010F00011246C2BC801DF91CF911F910F910C949B
:10110000510840E061E082E095E00E946A088BE3CC
:101110009FE10197F1F70895CF93DF93CDB7DEB745
:1011200028970FB6F894DEBF0FBECDBF98E0E8E079
:10113000F1E0DE01119601900D929A95E1F7909100
:101140000A05961710F46FEF690F262F30E0220F73
:10115000331F41E050E04C0F5D1F240F351FF90194
:101160006081680F606840E082E095E028960FB6E5
:10117000F894DEBF0FBECDBFDF91CF910C946A080B
:10118000CF93DF93EA010E948C084C815D816881D6
:10119000798182E095E0DF91CF910C94EB0041E002
:1011A0000E946A0881E090E00895CF92DF92EF926A
:1011B000FF920F931F93CF93DF93EC0181E090E0B8
:1011C0007C0102C0EE0CFF1C6A95E2F76E0180E71D
:1011D000C80ED11CD6016C91613208F060E2FE01AC
:1011E000E159FF4F80810E9438061092640380937A
:1011F0006303CD58DF4F88819981DC01ED91FC912B
:101200000284F385E02D09958C01F60180818230FE
:1012100060F088819981DC01ED91FC910284F38575
:10122000E02D099520E0022B182B0E211F2181E0D3
:1012300090E00E151F0511F090E080E0DF91CF9156
:101240001F910F91FF90EF90DF90CF90089542E0B3
:1012500050E06FE671E081E295E00C94EB00CF93F3
:10126000DF93FC0101900020E9F73197AF01481BA3
:10127000590BBC0181E295E00E94EB00EC010E9459
:1012800027098C0F9D1FDF91CF910895CF93DF9396
:101290006AE181E295E00E94B907EC010E9427090A
:1012A0008C0F9D1FDF91CF910895CF93DF93FC01A9
:1012B000448155816081718181E295E00E94EB005B
:1012C000EC010E9427098C0F9D1FDF91CF9108959B
:1012D0000F931F93CF93DF93EC018881998100973F
:1012E00059F02A813B812617370730F081E0DF91E2
:1012F000CF911F910F9108958B016F5F7F4F0E94D7
:101300006F19009759F0998388831B830A832C8176
:101310003D81232B59F7FC011082E8CF80E0E7CF15
:10132000EF92FF920F931F93CF93DF936115710597
:1013300041F480E0DF91CF911F910F91FF90EF90EA
:10134000089541155105B1F07B01EC010C811D811F
:10135000040F151FB8010E946809882351F32881E2
:1013600039818C819D81B701820F931F0E94351AAC
:101370001D830C8381E0DECFCF93DF93EC01888166
:101380009981009711F00E94E618198218821D8237
:101390001C821B821A82DF91CF910895CF93DF9335
:1013A000EC01FB0101900020E9F73197AF01461BEA
:1013B000570B0E949009811103C0CE010E94BC0905
:1013C000CE01DF91CF910895CF93DF93EC01FB0124
:1013D00044815581608171810E949009811103C00F
:1013E000CE010E94BC09CE01DF91CF910895EF920A
:1013F000FF920F931F93CF93DF93EC017B018A0140
:10140000BA010E94680981110BC0CE010E94BC097B
:10141000CE01DF91CF911F910F91FF90EF90089532
:101420001D830C83B701888199810E94351AF0CF02
:10143000EF92FF920F931F93CF93DF93CDB7DEB759
:1014400029970FB6F894DEBF0FBECDBF8C01862F53
:10145000F8011182108213821282158214824AE0EE
:101460009E012F5F3F4F7901B90190E00E94241641
:10147000F70101900020E9F73197AF014E195F099C
:10148000B701C8010E94F70929960FB6F894DEBF8C
:101490000FBECDBFDF91CF911F910F91FF90EF90C5
:1014A0000895FB01DC0111961C921E9213961C926A
:1014B0001E92129715961C921E92149786179707E4
:1014C00049F0608171816115710521F04481558178
:1014D0000C94F7090895FC01118210821382128284
:1014E00015821482FB0101900020E9F73197AF01CA
:1014F000461B570B0C94F709FC01808191810097E2
:1015000011F00C94E618089585ED8093BC0080914D
:10151000B6039091B703A091B803B091B9030796B1
:10152000A11DB11D23E0B695A795979587952A959E
:10153000D1F72091BC0024FD03C01092B40308959C
:101540004091B6035091B7036091B8037091B9030D
:10155000452B462B472B69F30097A105B10541F0B8
:1015600025E32A95F1F700000197A109B109E1CF20
:101570008091B5030C94CA041F920F920FB60F927C
:1015800011242F933F934F935F936F937F938F9388
:101590009F93AF93BF93EF93FF938EED93E00E94E1
:1015A0006901FF91EF91BF91AF919F918F917F91D1
:1015B0006F915F914F913F912F910F900FBE0F90C0
:1015C0001F9018951F920F920FB60F9211242F9310
:1015D0008F939F93EF93FF93E091EE03F091EF03CE
:1015E0008081E091F403F091F50382FD1BC09081AE
:1015F0008091F7038F5F8F732091F803821741F07A
:10160000E091F703F0E0E252FC4F958F8093F703EF
:10161000FF91EF919F918F912F910F900FBE0F909F
:101620001F9018958081F4CF1F920F920FB60F92E2
:1016300011242F933F938F939F93AF93BF938091E8
:10164000530390915403A0915503B09156033091E8
:10165000520323E0230F2D3758F50196A11DB11D2C
:10166000209352038093530390935403A093550304
:10167000B09356038091570390915803A09159035A
:10168000B0915A030196A11DB11D80935703909309
:101690005803A0935903B0935A03BF91AF919F9100
:1016A0008F913F912F910F900FBE0F901F90189523
:1016B00026E8230F0296A11DB11DD2CF1F920F92D3
:1016C0000FB60F9211242F933F934F935F936F9315
:1016D0007F938F939F93AF93BF93EF93FF938091EB
:1016E000B900887F803609F44AC0F0F5883209F4E1
:1016F000A7C018F5803109F49BC0B8F4882309F419
:10170000F9C0883009F494C0FF91EF91BF91AF9177
:101710009F918F917F916F915F914F913F912F9109
:101720000F900FBE0F901F901895883109F488C054
:10173000803251F78093B20314C0803409F49DC005
:1017400040F48033B9F38833F9F68093B20385EC23
:10175000B0C0803509F485C0883509F496C0883456
:1017600099F60E94840AD0CF883909F48CC038F5E4
:10177000883729F050F4883611F0803729F683E055
:101780008093B4031092510357C0883809F47BC08A
:10179000803919F0803809F0B7CF80915103803239
:1017A00008F071C0E091510381E08E0F80935103E6
:1017B0008091BB00F0E0EF5CFC4F80833DC0803B3C
:1017C00039F0E0F4803A09F479C0883A09F09CCF06
:1017D00084E08093B4031092300310922F03E091C1
:1017E0006103F0916203099580912F0381110FC06D
:1017F00081E080932F0310920F0309C0803C09F40D
:10180000A6CF883C09F4A3CF883B09F07DCFE091B7
:10181000300381E08E0F80933003F0E0E15FFC4FF6
:1018200080818093BB009091300380912F0329C069
:1018300080918F038093BB0085EC8093BC0064CFC4
:101840009091B1038091B003981758F5E091B103DE
:1018500081E08E0F8093B103F0E0E057FC4F808170
:10186000E9CFE091B10381E08E0F8093B1038091C5
:10187000BB00F0E0E057FC4F80839091B103809172
:10188000B0039817C8F285E8D8CFE091B10381E0A2
:101890008E0F8093B1038091BB00F0E0E057FC4FC6
:1018A00080838091B30381115CCF81E080938E03AC
:1018B00084EA8093BC001092B40326CF85EC809319
:1018C000BC001092B40380915103803230F4E09157
:1018D0005103F0E0EF5CFC4F10826091510370E027
:1018E000E0915F03F091600381E393E0099510922A
:1018F00051030ACF1092B20334CF1F920F920FB64A
:101900000F9211242F933F934F935F936F937F9385
:101910008F939F93AF93BF93EF93FF93E0915D03FA
:10192000F0915E03309749F0A685B7858585968D41
:1019300091FF14C09C918923A1F4FF91EF91BF9175
:10194000AF919F918F917F916F915F914F913F9157
:101950002F910F900FBE0F901F9018959C91892387
:1019600061F7A389B4899C918589809589238C939B
:10197000868997890197F1F7608D718DA685B78566
:10198000558538E020E0CB010197F1F7822F90E0F8
:1019900095958795282F4C91452309F02068315063
:1019A00091F7868D81FD209580915C0390E00196F2
:1019B0008F73992730915B03381799F0A0915C03DE
:1019C000B0E0A253BD4F2C9380935C03828D938D26
:1019D0000197F1F7A389B4898C919589892B8C9310
:1019E000ACCF868D8160868FF1CF1092E10310928B
:1019F000E00388EE93E0A0E0B0E08093E2039093F0
:101A0000E303A093E403B093E50324E131E03093D2
:101A1000DF032093DE0325EC30E03093EB032093CB
:101A2000EA0324EC30E03093ED032093EC0320EC48
:101A300030E03093EF032093EE0321EC30E030935D
:101A4000F1032093F00322EC30E03093F303209372
:101A5000F20326EC30E03093F5032093F403109268
:101A6000F7031092F8031092F9031092FA03109200
:101A70008404109283048093850490938604A09339
:101A80008704B093880426E231E0309382042093E7
:101A900081041092240510922305809325059093CC
:101AA0002605A0932705B093280584E491E0909340
:101AB0002205809321051092380510923705109267
:101AC0003A051092390510923C0510923B05109290
:101AD0003E0510923D0560913F056E7F6D7F6093DE
:101AE0003F056695617081E0682787E00E944A02A1
:101AF00061E087E00E947802E5EBF0E0E491E0939A
:101B00003105E1EAF0E0E491F0E0EE0FFF1FE0576D
:101B1000FF4F85919491909333058093320560E057
:101B200086E10E94780280913F0581FD04C061E05A
:101B300086E10E944A0286E180932D05E4ECF0E004
:101B4000E491E0932E05E0EBF0E0E491F0E0EE0F9D
:101B5000FF1FEA57FF4F8591949190933005809332
:101B60002F0586E0809313058BE080931405E4EB4A
:101B7000F0E0E491E0931505E0EAF0E0E491E09311
:101B8000160580E89EE3A0E0B0E080931B059093EB
:101B90001C05A0931D05B0931E051092050510921B
:101BA000040588E391E0909303058093020580E2A9
:101BB0008093060584E180930B0584E080930C05F7
:101BC00010920D0510928F041092930410929204BB
:101BD00010929404E9EAF4E085EE94E01082148215
:101BE0001382158236968E179F07C1F78FE591E015
:101BF0009093F0048093EF048CE591E09093F204CD
:101C00008093F10484E08093F30483E08093F404F0
:101C100083E691E09093EE048093ED048AE090E0F7
:101C20009093F6048093F50484EF91E09093F80488
:101C30008093F7041092FB041092FA041092E904C6
:101C40001092EA041092EB041092EC041092F90442
:101C500086E591E090938E0480938D0481E28093D9
:101C6000FC0481E08093FD0481E894E090930105F9
:101C70008093000562E771E08BE794E00C946B0AB7
:101C8000CF93DF93CDB7DEB762970FB6F894DEBF80
:101C90000FBECDBF789484B5826084BD84B5816069
:101CA00084BD85B5826085BD85B5816085BD809127
:101CB0006E00816080936E0010928100809181009F
:101CC0008260809381008091810081608093810097
:101CD000809180008160809380008091B100846059
:101CE0008093B1008091B00081608093B0008091BA
:101CF0007A00846080937A0080917A008260809379
:101D00007A0080917A00816080937A0080917A00D5
:101D1000806880937A001092C100E091EE03F09108
:101D2000EF0382E08083E091EA03F091EB031082FD
:101D3000E091EC03F091ED038FEC80831092F603B9
:101D4000E091F203F091F30386E08083E091F003E9
:101D5000F091F103808180618083E091F003F09144
:101D6000F103808188608083E091F003F091F103BA
:101D7000808180688083E091F003F091F10380819D
:101D80008F7D808360E08CE00E94780260E08BE0D1
:101D90000E94780260E088E00E94780260E08AE0B9
:101DA0000E94780260E089E00E94780260E086E0AC
:101DB0000E94780261E082E00E94780261E083E0A4
:101DC0000E94780261E084E00E94780261E08DE088
:101DD0000E94780261E085E00E94780210923C0542
:101DE00010923B0510923A05109239051092380571
:101DF000109237058DE991E090933E0580933D0563
:101E000090912D05963108F047C02DEB30E03093CE
:101E10003805209337052BE931E030933A052093BC
:101E200039052CE231E030933C0520933B052091AD
:101E3000680084E0983048F031E09E3008F430E0EB
:101E400081E001C0880F3A95EAF7822B8093680001
:101E50002DE630E0983050F02BE630E09E3030F048
:101E60002CE630E0963110F030E020E0309335057C
:101E700020933405292F30E0983008F0E0C181E04C
:101E800001C0880F9A95EAF78093360580913D0549
:101E900090913E050197F1F780913B0590913C05AB
:101EA000892B49F1E0915D03F0915E0385E0E13219
:101EB000F80709F1309739F0A389B4899C91858995
:101EC000809589238C9380913F058E7F80933F0579
:101ED00010925C0310925B0381E295E090935E03A5
:101EE00080935D03E0913405F091350580819091F8
:101EF0003605892B808384E791E00E942F0962E0F8
:101F0000809113050E9478020E940B03605D774068
:101F1000810991096093170570931805809319053D
:101F200090931A0587E38093200510926403109222
:101F300063031092BB031092DD030E94AC0489EE90
:101F400090E090936203809361038AEE90E0909317
:101F5000600380935F031092070580910C05823027
:101F600018F098E09093070580930A0562E370E00B
:101F700080E090E00E94D90260910D0582E095E03A
:101F80000E948D0768EE73E080E090E00E94D90225
:101F900060E382E095E00E9451080BE416E4C8017A
:101FA0000197F1F760E382E095E00E945108C801D3
:101FB0000197F1F760E382E095E00E94510883E524
:101FC00092E00197F1F760E282E095E00E9451080B
:101FD00060910705606240E082E095E00E946A0837
:101FE00084E08093080540E06CE082E095E00E9488
:101FF0006A080E94810882E08093090540E066E05B
:1020000082E095E00E946A0840E062E082E095E0AC
:102010000E946A088BE39FE10197F1F788E08093C3
:102020000D0560E082E095E00E948D0783E691E077
:102030009093EE048093ED046FEF7FEF8DE894E0D2
:102040000E94DB056091FD04613208F060E280913E
:10205000FC040E943806109264038093630380910D
:10206000000590910105DC01ED91FC910284F3855E
:10207000E02D09959093FF048093FE048091FD0468
:102080008230B8F08091000590910105DC01ED915E
:10209000FC910284F385E02D099520E0382F809192
:1020A000FE049091FF04822B932B9093FF04809366
:1020B000FE04412C512C3201439436E0232E8091B2
:1020C0006D03811190C167E771E0CE0101960E9416
:1020D0006B0AAE014F5F5F4F61E070E087E090E018
:1020E0000E94C008CE0101960E947C0A68EE73E04F
:1020F00080E090E00E94D9020E94810860E871E0CF
:10210000CE0101960E946B0AAE014F5F5F4F70E0F7
:1021100060E082E090E00E94C008CE0101960E943B
:102120007C0A62E971E0CE0101960E946B0AAE0161
:102130004F5F5F4F61E070E086E090E00E94C00872
:10214000CE0101960E947C0A62E771E0CE01019601
:102150000E946B0AAE014F5F5F4F62E070E090E05B
:1021600080E00E94C008CE0101960E947C0A62E0D5
:1021700081E00E948C08332433943092F9040E9449
:102180000B030091E9041091EA042091EB043091D3
:10219000EC04AB01BC01401B510B620B730B809133
:1021A000F5049091F604B0E0A0E084179507A60727
:1021B000B70718F7912C8091F404981608F060C0C6
:1021C000C92CD12CE091F104F091F204EC0DFD1D2D
:1021D00040E060818DE894E00E941D06D301C201B9
:1021E000092C04C0880F991FAA1FBB1F0A94D2F79D
:1021F0005C017C01E094F094812C8091F3048816BA
:1022000080F5082D10E0E091EF04F091F004E00F6C
:10221000F11F60818DE894E00E94D5080C5F1F4F8C
:10222000000F111FF801E357FB4F892BA9F48081A0
:1022300091818A299B29918380838394DECF9E306C
:1022400040F42850310981E001C0880F2A95EAF74F
:102250001BCE2E503109F7CF808191818E219F2195
:10226000EACF8091F1049091F204C80ED91E41E0AA
:10227000F60160818DE894E00E941D0693949BCF47
:102280000DE814E07801D7015F968D919C919097AD
:10229000892B59F45C961C925C97EFEFFFEF5E96EA
:1022A000FC93EE935D9791961C92F6E0EF0EF11C75
:1022B00089EC94E08E159F0531F7B12C8091F304E1
:1022C000B81608F052C0A12CCB2CD12CCC0CDD1CA4
:1022D000D601AB56BB4F6D012091F404A21608F055
:1022E00042C0F601608171810A2C02C07695679523
:1022F0000A94E2F7B29E900111242A0D311DEDE8F7
:10230000F4E080E0458D568D2417350709F422C48A
:102310008F5F36968A30B1F760FF23C0EDE8F4E0B6
:1023200090E080E0448D411117C0E091ED04F09100
:10233000EE04E20FF31F4081289EF001299EF00D6C
:102340001124E357FB4F448F368F258F10A2178E31
:1023500061E00E941D0405C0019636968A30910501
:1023600009F7A394B9CFB394A9CFD12CD8019196F2
:102370008C918111D82E0A5F1F4FE016F106B1F73C
:102380000E940B036093E9047093EA048093EB04CA
:102390009093EC04DD2009F4F0CE8091AE04882304
:1023A00009F4EBCE8091AC049091AD04019709F053
:1023B000E4CE1091A904112309F4DFCE133209F4FD
:1023C000CBC319831A8241E050E0BE016F5F7F4F9B
:1023D0008BE794E00E94900941E0612F82E095E054
:1023E0000E946A08CACE8BE00E942102882E809348
:1023F00066038AE00E942102A82E8093680389E088
:102400000E942102B82E8093690388E00E94210275
:10241000382E809365038CE00E942102982E8093D1
:1024200067030E941703882349F0809114058B30BD
:1024300028F08D3040F085518230B8F160E070E0D6
:1024400080EC9FE71CC060910F0570E090E080E099
:102450000E9450162DEC3CEC4CEC5DE30E948B1678
:102460006B017C0160910E0570E090E080E00E94BD
:1024700050169B01AC01C701B6010E9481170E9452
:10248000ED17062F60936C030E941703882341F019
:10249000809114058C3009F4C6C0C8F48B3081F1EA
:1024A00060E070E080EC9FE753C060910E05709192
:1024B0000F0576276727762790E080E00E944E166A
:1024C0002DEC3CEC4CEC5DE30E948B16D8CF855193
:1024D000823030F710911005612F70E0762F66275B
:1024E00066277F7780911105682B90E080E00E943D
:1024F0004E162DEC3CEC4CEC5DE30E948B16AFC00D
:102500006091100570E090E080E00E944E166B0133
:102510007C011091110517FF0AC0AC019B0160E01E
:1025200070E080E89FEB0E9480176B017C011F70B8
:10253000612F70E090E080E00E9450162DEC3CECA2
:102540004CEC5DE30E948B16A70196010E94811757
:102550000E94ED1760936A03B1E084E090E03B16BF
:1025600009F486C0E1E082E090E08E1609F480C0B4
:10257000F1E083E090E09F1609F47AC081E0A812B0
:1025800072C0109201011092000161E082E00E948D
:102590004A0261E08DE00E944A0260E083E00E940E
:1025A0004A0260E084E00E944A0261E085E00E9405
:1025B0004A0280910001909101018230910509F455
:1025C00022C108F076C0009709F4B6C0019709F45B
:1025D00002C180916B03811113C080910001909121
:1025E00001018230910509F4E9C108F047C1009763
:1025F00009F4AAC1019709F4C4C181E080936B0377
:1026000068EE73E080E090E00E94D90280E090E004
:10261000892B09F454CD0E945501882309F44FCD2C
:102620000E9400004ACD10911005612F70E090E0EB
:1026300080E00E944E166B017C01609111056F7065
:1026400070E090E080E00E9450162DEC3CEC4CECE9
:102650005DE30E948B16A70196010E94811717FF68
:1026600077CF905875CF91E0B91207C081E090E024
:10267000909301018093000188CF85E090E063335F
:10268000B8F7063508F4D4C161E084E00E944A023C
:1026900060E083E00E944A0260E082E00E944A0219
:1026A00060E08DE00E944A0260E085E00E944A02FC
:1026B000A7CF84309105E9F008F4C8C0059709F068
:1026C00088CF0E9481086AE971E0CE0101960E94DC
:1026D0006B0AAE014F5F5F4F70E060E087E090E013
:1026E0000E94C008CE0101960E947C0A6DEB71E049
:1026F00017C00E9481086AE971E0CE0101960E942C
:102700006B0AAE014F5F5F4F70E060E087E090E0E2
:102710000E94C008CE0101960E947C0A6FEE71E013
:10272000CE0101960E946B0AAE014F5F5F4F61E0E0
:1027300070E082E090E022C00E9481086AE971E0C6
:10274000CE0101960E946B0AAE014F5F5F4F70E0B1
:1027500060E087E090E00E94C008CE0101960E94F0
:102760007C0A69E072E0CE0101960E946B0AAE011C
:102770004F5F5F4F61E070E083E090E00E94C0082F
:10278000CE0101960E947C0A63EA71E0CE010196B7
:102790000E946B0AAE014F5F5F4F62E070E082E023
:1027A00090E00E94C008CE0101960E947C0A64EB72
:1027B00071E0CE0101960E946B0AAE014F5F5F4F40
:1027C00063E070E087E090E00E94C008CE010196CF
:1027D0000E947C0AFECE0E9481086AE971E0CE0167
:1027E00001960E946B0AAE014F5F5F4F70E060E0A0
:1027F00087E090E00E94C008CE0101960E947C0A0A
:1028000062E272E08DCF0E9481086AE971E0CE0138
:1028100001960E946B0AAE014F5F5F4F70E060E06F
:1028200087E090E00E94C008CE0101960E947C0AD9
:102830006CE372E0CE0101960E946B0AAE014F5F1D
:102840005F4F61E070E081E090E098CF0E948108E6
:102850006AE971E0CE0101960E946B0AAE014F5FFA
:102860005F4F70E060E087E090E00E94C008CE011A
:1028700001960E947C0A68E572E0DCCF8430910505
:1028800009F441C008F4B7C0059709F0B6CE8FEC43
:1028900091E00E942F0969ED71E0CE0101960E943E
:1028A0006B0A6BE774E0CE0101960E94E40963EEC7
:1028B00071E00E94CE090E945509CE0101960E9446
:1028C0007C0A60916A03CE0101960E94180A6BE6A9
:1028D00072E0CE0107960E946B0ABE016F5F7F4FC8
:1028E000CE0107960E94E40967E872E00E94CE09D3
:1028F0000E945509CE0107960E947C0ACE010196DE
:102900000E947C0A1EC08FEC91E00E942F0969EDA5
:1029100071E0CE0101960E946B0A6BE774E0CE0174
:1029200001960E94E40963EE71E00E94CE090E94C4
:102930005509CE0101960E947C0A86EE91E00E9424
:102940002F090E94460959CE8FEC91E00E942F0971
:1029500069ED71E0CE0101960E946B0A6BE774E0AD
:10296000CE0101960E94E40963EE71E00E94CE0957
:102970000E945509CE0101960E947C0A80E092E0F7
:10298000DECF8FEC91E00E942F0969ED71E0CE015E
:1029900001960E946B0A6BE774E0CE0101960E94DB
:1029A000E40963EE71E00E94CE090E945509CE0150
:1029B00001960E947C0A89E192E0C1CF8FEC91E000
:1029C0000E942F0969ED71E0CE0101960E946B0A09
:1029D0006BE774E0CE0101960E94E40963EE71E0BA
:1029E0000E94CE090E945509CE0101960E947C0AE0
:1029F00083E392E0A4CF8FEC91E00E942F0969ED70
:102A000071E0CE0101960E946B0A6BE774E0CE0183
:102A100001960E94E40963EE71E00E94CE090E94D3
:102A20005509CE0101960E947C0A8FE492E087CF7F
:102A300060E082E00E944A0260E08DE00E944A026B
:102A400060E084E00E944A0261E083E00E944A0262
:102A500060E085E00E944A020E948108602FCE015A
:102A600007960E94180A6BE872E0CE010D960E944C
:102A70006B0ABE01695F7F4FCE010D960E94E4098B
:102A800066E972E00E94CE09BC01CE0101960E9467
:102A9000510AAE014F5F5F4F70E060E090E080E070
:102AA0000E94C008CE0101960E947C0ACE010D96BC
:102AB0000E947C0ACE0107960E947C0A60916A03FC
:102AC000CE0107960E94180A68E972E0CE010D96C1
:102AD0000E946B0ABE01695F7F4FCE010D960E9476
:102AE000E4098C018FED89831A8241E050E0BE0138
:102AF0006F5F7F4FC8010E949009811103C0C80118
:102B00000E94BC0966EA72E0C8010E94CE09BC01BD
:102B1000CE0101960E94510AAE014F5F5F4F61E006
:102B200070E090E080E00E94C008CE0101960E9413
:102B30007C0ACE010D960E947C0ACE0107960E9467
:102B40007C0A87E090E0909301018093000110924D
:102B50006B0356CD6170FDCB0E94810868EA72E07C
:102B6000CE0101960E946B0AAE014F5F5F4F70E08D
:102B700060E084E090E00E94C008CE0101960E94CF
:102B80007C0A6BE774E0CE0101960E94510AAE0107
:102B90004F5F5F4F61E070E084E090E00E94C0080A
:102BA000CE0101960E947C0A66EB72E0CE0101968E
:102BB0000E946B0AAE014F5F5F4F62E070E086E0FB
:102BC00090E00E94C008CE0101960E947C0A6FEB43
:102BD00072E0CE0101960E946B0AAE014F5F5F4F1B
:102BE00063E070E084E090E00E94C008CE010196AE
:102BF0000E947C0A68EE73E080E090E00E94D902B7
:102C000081E080936D0302CD8BE794E00E947C0A03
:102C100084E491E0909322058093210580915D03E7
:102C200090915E038152954071F4E0913405F091EA
:102C30003505908180913605809589238083109297
:102C40005E0310925D030895BB27FB015527AA2759
:102C5000880F991FAA1FA41710F0A41B8395505129
:102C6000B9F7A05DAA3308F0A95DA193009779F7A1
:102C7000B111B1931192CB010C943E16DC01FC0111
:102C8000672F71917723E1F7329704C07C916D93A0
:102C900070836291AE17BF07C8F30895E89409C026
:102CA00097FB3EF490958095709561957F4F8F4F7F
:102CB0009F4F9923A9F0F92F96E9BB279395F69595
:102CC000879577956795B795F111F8CFFAF4BB0F13
:102CD00011F460FF1BC06F5F7F4F8F4F9F4F16C077
:102CE000882311F096E911C0772321F09EE8872F01
:102CF000762F05C0662371F096E8862F70E060E0BD
:102D00002AF09A95660F771F881FDAF7880F969535
:102D1000879597F908950E949E160C940F170E94AC
:102D2000011738F00E94081720F0952311F00C9439
:102D3000F8160C94FE1611240C9443170E942017C9
:102D400070F3959FC1F3950F50E0551F629FF001FE
:102D5000729FBB27F00DB11D639FAA27F00DB11D17
:102D6000AA1F649F6627B00DA11D661F829F2227A0
:102D7000B00DA11D621F739FB00DA11D621F839F27
:102D8000A00D611D221F749F3327A00D611D231FFD
:102D9000849F600D211D822F762F6A2F11249F574B
:102DA00050409AF0F1F088234AF0EE0FFF1FBB1F4E
:102DB000661F771F881F91505040A9F79E3F51050D
:102DC00080F00C94F8160C9443175F3FE4F3983EA0
:102DD000D4F3869577956795B795F795E7959F5FB7
:102DE000C1F7FE2B880F911D9695879597F9089549
:102DF00097F99F6780E870E060E008959FEF80ECAE
:102E0000089500240A941616170618060906089550
:102E100000240A9412161306140605060895092EB6
:102E20000394000C11F4882352F0BB0F40F4BF2B25
:102E300011F460FF04C06F5F7F4F8F4F9F4F089565
:102E400057FD9058440F551F59F05F3F71F047955B
:102E5000880F97FB991F61F09F3F79F08795089540
:102E6000121613061406551FF2CF4695F1DF08C05F
:102E7000161617061806991FF1CF8695710561057C
:102E800008940895E894BB2766277727CB0197F924
:102E900008952F923F924F925F926F927F928F92FE
:102EA0009F92AF92BF92CF92DF92EF92FF920F93D9
:102EB0001F93CF93DF93CDB7DEB7CA1BDB0B0FB6E3
:102EC000F894DEBF0FBECDBF09942A8839884888A0
:102ED0005F846E847D848C849B84AA84B984C88436
:102EE000DF80EE80FD800C811B81AA81B981CE0F2D
:102EF000D11D0FB6F894DEBF0FBECDBFED01089512
:102F00005058BB27AA270E9498170C940F170E94AD
:102F1000011738F00E94081720F039F49F3F19F488
:102F200026F40C94FE160EF4E095E7FB0C94F816CC
:102F3000E92F0E94201758F3BA1762077307840716
:102F4000950720F079F4A6F50C9442170EF4E0955D
:102F50000B2EBA2FA02D0B01B90190010C01CA0153
:102F6000A0011124FF27591B99F0593F50F4503EFE
:102F700068F11A16F040A22F232F342F4427585FF0
:102F8000F3CF469537952795A795F0405395C9F708
:102F90007EF41F16BA0B620B730B840BBAF09150C0
:102FA000A1F0FF0FBB1F661F771F881FC2F70EC05F
:102FB000BA0F621F731F841F48F487957795679532
:102FC000B795F7959E3F08F0B0CF9395880F08F01E
:102FD0009927EE0F9795879508950E94281788F0F6
:102FE0009F5798F0B92F9927B751B0F0E1F0660FCD
:102FF000771F881F991F1AF0BA95C9F714C0B1300E
:1030000091F00E944217B1E008950C944217672F87
:10301000782F8827B85F39F0B93FCCF3869577953C
:103020006795B395D9F73EF4909580957095619525
:103030007F4F8F4F9F4F089597FB072E16F40094F4
:1030400007D077FD09D00E94301807FC05D03EF468
:10305000909581959F4F0895709561957F4F089544
:10306000AA1BBB1B51E107C0AA1FBB1FA617B707AE
:1030700010F0A61BB70B881F991F5A95A9F78095CA
:103080009095BC01CD010895EE0FFF1F0590F491BE
:10309000E02D09940F931F93CF93DF938230910516
:1030A00010F482E090E0E0914205F091430530E0B9
:1030B00020E0B0E0A0E0309799F42115310509F443
:1030C0004AC0281B390B24303105D8F58A819B81F1
:1030D0006115710589F1FB0193838283FE0111C0A3
:1030E000408151810281138148175907E0F0481748
:1030F000590799F4109761F012960C931297139652
:103100001C933296CF01DF91CF911F910F910895BB
:103110000093420510934305F4CF2115310551F07A
:103120004217530738F0A901DB019A01BD01DF0105
:10313000F801C1CFEF01F9CF909343058093420589
:10314000CDCFFE01E20FF31F8193919322503109FD
:1031500039832883D7CF2091400530914105232B17
:1031600041F42091040130910501309341052093F1
:10317000400520910201309103012115310541F4F0
:103180002DB73EB74091060150910701241B350B26
:10319000E0914005F0914105E217F307A0F42E1BE2
:1031A0003F0B2817390778F0AC014E5F5F4F2417AB
:1031B000350748F04E0F5F1F50934105409340057F
:1031C000819391939FCFF0E0E0E09CCFCF93DF938A
:1031D0000097E9F0FC01329713821282A091420518
:1031E000B0914305ED0130E020E01097A1F420817B
:1031F0003181820F931F209140053091410528179E
:10320000390709F061C0F0934105E0934005DF9173
:10321000CF910895EA01CE17DF07E8F54A815B8177
:103220009E0141155105B1F7E901FB83EA834991FC
:103230005991C40FD51FEC17FD0761F4808191816E
:103240000296840F951FE901998388838281938177
:103250009B838A83F0E0E0E012968D919C91139716
:103260000097B9F52D913C911197CD010296820FEF
:10327000931F20914005309141052817390739F6F1
:10328000309751F51092430510924205B0934105D5
:10329000A0934005BCCFD383C28340815181840F6A
:1032A000951FC817D90761F44E5F5F4F88819981D8
:1032B000480F591F518340838A819B819383828366
:1032C0002115310509F0B0CFF0934305E093420595
:1032D0009ECFFD01DC01C0CF13821282D7CFB0E0B8
:1032E000A0E0E5E7F9E10C944B178C01009751F44D
:1032F000CB010E944A188C01C801CDB7DEB7E0E1CE
:103300000C946717FC01E60FF71F9C01225031094E
:10331000E217F30708F49DC0D901CD91DC91119714
:10332000C617D70798F0C530D10530F3CE01049702
:103330008617970708F3C61BD70B2297C193D19323
:103340006D937C93CF010E94E618D6CF5B01AC1A37
:10335000BD0A4C018C0E9D1EA0914205B091430503
:10336000512C412CF12CE12C109731F58091400526
:10337000909141058815990509F05CC046165706DD
:1033800008F058C08091020190910301009741F428
:103390008DB79EB74091060150910701841B950B94
:1033A000E817F90708F055C0F0934105E093400590
:1033B000F90171836083A0CF8D919C911197129632
:1033C0006C90129713967C901397A815B90559F530
:1033D0006C0142E0C40ED11CCA14DB0420F1AC0124
:1033E0004A195B09DA011296159780F0628273829E
:1033F00051834083D9016D937C93E114F10471F002
:10340000D7011396FC93EE93129776CF22968C0FEA
:103410009D1FF90191838083F301EFCFF093430562
:10342000E093420569CF4816590608F42C017D0146
:10343000D3019ACFCB010E944A187C01009749F032
:10344000AE01B8010E942C1AC8010E94E61887013B
:1034500053CF10E000E050CFFB01DC0102C001902F
:103460000D9241505040D8F70895FB01DC010190C6
:103470000D920020E1F7089510E0C2E6D0E004C00C
:10348000FE010E9444182196C336D107C9F7F8946B
:10349000FFCF07000000440580000000400014003A
:1034A0005400000000008B01EB001801D801490115
:1034B00027013B01000000005E0731074E080707A7
:1034C0002A071707080700000000CF08EB004E0886
:1034D000790400000000B907EB004E080707150843
:1034E0002D08A10700000000E8001D06D50804050E
:1034F00006000102033132333435363738392A3089
:10350000230D0A002B0041540057656C636F6D65F5
:103510002100456E74657220796F7572206D6F623F
:10352000696C65006E756D6265723A005741524E66
:10353000494E472100534D53206E6F74696669638D
:103540006174696F6E0069732073656E742E004834
:103550006967682074656D70657261747572652144
:103560000041542B434D47463D310041542B434DC0
:1035700047533D2200220D005761726E696E67212C
:1035800020476173206973206465746563746564A2
:1035900021005761726E696E672120434F20697365
:1035A00020646574656374656421005761726E6997
:1035B0006E672120434F3220697320646574656310
:1035C00074656421005761726E696E672120536DC6
:1035D0006F6B65206973206465746563746564212D
:1035E000005761726E696E672120466C616D6520BF
:1035F0006973206465746563746564210057617242
:103600006E696E672120486967682074656D706512
:103610007261747572652028004329210048756D18
:1036200069646974793A2000250054656D7065728B
:1036300061747572653A200043004D6F62696C6574
:10364000204E756D626572006973207361766564E2
:10365000007375636365737366756C6C7921000024
:107E0000112484B714BE81FFF0D085E080938100F7
:107E100082E08093C00088E18093C10086E0809377
:107E2000C20080E18093C4008EE0C9D0259A86E02C
:107E300020E33CEF91E0309385002093840096BBD3
:107E4000B09BFECF1D9AA8958150A9F7CC24DD24C4
:107E500088248394B5E0AB2EA1E19A2EF3E0BF2EE7
:107E6000A2D0813461F49FD0082FAFD0023811F036
:107E7000013811F484E001C083E08DD089C08234E0
:107E800011F484E103C0853419F485E0A6D080C0E4
:107E9000853579F488D0E82EFF2485D0082F10E0AE
:107EA000102F00270E291F29000F111F8ED06801E7
:107EB0006FC0863521F484E090D080E0DECF843638
:107EC00009F040C070D06FD0082F6DD080E0C81688
:107ED00080E7D80618F4F601B7BEE895C0E0D1E017
:107EE00062D089930C17E1F7F0E0CF16F0E7DF06D8
:107EF00018F0F601B7BEE89568D007B600FCFDCFD4
:107F0000A601A0E0B1E02C9130E011968C91119780
:107F100090E0982F8827822B932B1296FA010C0160
:107F200087BEE89511244E5F5F4FF1E0A038BF0790
:107F300051F7F601A7BEE89507B600FCFDCF97BE46
:107F4000E89526C08437B1F42ED02DD0F82E2BD052
:107F50003CD0F601EF2C8F010F5F1F4F84911BD097
:107F6000EA94F801C1F70894C11CD11CFA94CF0C13
:107F7000D11C0EC0853739F428D08EE10CD085E9AC
:107F80000AD08FE07ACF813511F488E018D01DD067
:107F900080E101D065CF982F8091C00085FFFCCF94
:107FA0009093C60008958091C00087FFFCCF809118
:107FB000C00084FD01C0A8958091C6000895E0E648
:107FC000F0E098E1908380830895EDDF803219F02E
:107FD00088E0F5DFFFCF84E1DECF1F93182FE3DFCA
:107FE0001150E9F7F2DF1F91089580E0E8DFEE27F6
:047FF000FF270994CA
:027FFE00040479
:00000001FF
