:100000000C9463000C948B000C948B000C947D0C6E
:100010000C947D0C0C947D0C0C948B000C948B0038
:100020000C948B000C948B000C948B000C948B0024
:100030000C948B000C948B000C948B000C948B0014
:100040000C94140B0C948B000C94E20A0C94BC0AD4
:100050000C948B000C948B000C948B000C948B00F4
:100060000C945E0B0C948B00000000002400270011
:100070002A0000000008000201000003040700003D
:1000800000000000000000000000230026002900FE
:1000900000000000250028002B00040404040404D0
:1000A0000404020202020202030303030303010227
:1000B00004081020408001020408102001020408F6
:1000C0001020F50CB61611241FBECFEFD8E0DEBF0E
:1000D000CDBF25E0A8EFB2E001C01D92AD36B2075A
:1000E000E1F712E0A0E0B1E0E6EFF5E302C0059031
:1000F0000D92A83FB107D9F710E0C2E6D0E004C0E6
:100100002197FE010E94F618C136D107C9F70E9457
:10011000400E0C94EE1A0C940000CF92DF92EF92F6
:10012000FF92CF93DF93B0913E05A0E08111AB2FFA
:1001300080913F0590E0880F991FAC014A575F4FAF
:10014000C0904405D0904505E0904605F0904705E5
:1001500030E020E0FA01C591D491E881B90190E046
:1001600080E0EB23EA130AC02F5F3F4F6C157D053B
:100170008E059F0578F36FEF7FEFCB01DF91CF9175
:10018000FF90EF90DF90CF90089596E0899FD00187
:100190001124AA54BB4F90967C936E935F9791E085
:1001A00091969C939197E0912305F091240590916D
:1001B0002205992339F0309751F0811108C08091C0
:1001C000D2040994309719F05C968C91FACF089577
:1001D000089508950895AF92BF92CF92DF92EF9263
:1001E000FF920F931F93CF93DF936C017B018B01E1
:1001F000040F151FEB015E01AE18BF08C017D10731
:1002000059F06991D601ED91FC910190F081E02DBA
:10021000C6010995892B79F7C501DF91CF911F910F
:100220000F91FF90EF90DF90CF90BF90AF90089527
:10023000FC01538D448D252F30E0842F90E0821BEC
:10024000930B541710F0CF96089501970895FC0171
:10025000918D828D981761F0A28DAE0FBF2FB11DC9
:100260005D968C91928D9F5F9F73928F90E0089521
:100270008FEF9FEF0895FC01918D828D981731F0DB
:10028000828DE80FF11D858D90E008958FEF9FEF2F
:100290000895FC01918D228D892F90E0805C9F4F05
:1002A000821B91098F739927089587E094E00E943B
:1002B000490121E0892B09F420E0822F089580E094
:1002C00090E0892B29F00E94550181110C940000C7
:1002D0000895FC01A48DA80FB92FB11DA35ABF4FDB
:1002E0002C91848D90E001968F739927848FA68935
:1002F000B7892C93A089B1898C91837080648C9389
:10030000938D848D981306C00288F389E02D808137
:100310008F7D80830895EF92FF920F931F93CF9369
:10032000DF93EC0181E0888F9B8D8C8D98131AC030
:10033000E889F989808185FF15C09FB7F894EE8917
:10034000FF896083E889F989808183708064808374
:100350009FBF81E090E0DF91CF911F910F91FF90BF
:10036000EF900895F62E0B8D10E00F5F1F4F0F7367
:100370001127E02E8C8D8E110CC00FB607FCFACF22
:10038000E889F989808185FFF5CFCE010E94690156
:10039000F1CFEB8DEC0FFD2FF11DE35AFF4FF082F3
:1003A0009FB7F8940B8FEA89FB8980818062CFCF59
:1003B000CF93DF93EC01888D8823B9F0AA89BB899C
:1003C000E889F9898C9185FD03C0808186FD0DC087
:1003D0000FB607FCF7CF8C9185FFF2CF808185FFA8
:1003E000EDCFCE010E946901E9CFDF91CF91089551
:1003F000833081F028F4813099F08230A9F008959B
:100400008730A9F08830C9F08430B1F48091800041
:100410008F7D03C0809180008F7780938000089546
:1004200084B58F7784BD089584B58F7DFBCF80918F
:10043000B0008F778093B00008958091B0008F7DD9
:10044000F9CFCF93DF93282F30E0F901EE58FF4F1B
:100450008491F901E255FF4FD491F901E656FF4F1F
:10046000C491CC23A1F081110E94F801EC2FF0E09F
:10047000EE0FFF1FEA57FF4FA591B491EC91ED23CA
:1004800081E090E009F480E0DF91CF91089580E071
:1004900090E0FACF1F93CF93DF93282F30E0F9013C
:1004A000EE58FF4F8491F901E255FF4FD491F901C5
:1004B000E656FF4FC491CC23A9F0162F81110E945C
:1004C000F801EC2FF0E0EE0FFF1FE057FF4FA59172
:1004D000B4918FB7F894EC91111108C0D095DE2338
:1004E000DC938FBFDF91CF911F910895DE2BF8CF62
:1004F000CF93DF9390E0FC01E255FF4F24918656A5
:100500009F4FFC0184918823C9F090E0880F991FC8
:10051000FC01E859FF4FA591B491FC01E057FF4F52
:10052000C591D49161110DC09FB7F8948C9120951D
:1005300082238C938881282328839FBFDF91CF91CA
:100540000895623051F49FB7F8943C91822F8095C2
:1005500083238C93E8812E2BEFCF8FB7F894EC9107
:100560002E2B2C938FBFEACF3FB7F8948091810355
:1005700090918203A0918303B091840326B5A89B38
:1005800005C02F3F19F00196A11DB11D3FBFBA2F25
:10059000A92F982F8827BC01CD01620F711D811DE5
:1005A000911D42E0660F771F881F991F4A95D1F76A
:1005B00008958F929F92AF92BF92CF92DF92EF9267
:1005C000FF924B015C010E94B4026B017C010E940E
:1005D000B4026C197D098E099F09683E734081053C
:1005E0009105A8F321E0821A9108A108B10888EECC
:1005F000C80E83E0D81EE11CF11C81149104A104F3
:10060000B10429F7FF90EF90DF90CF90BF90AF90AB
:100610009F908F9008952FB7F89460917D0370910B
:100620007E0380917F03909180032FBF0895CF9226
:10063000DF92EF92FF920F931F93CF93DF93CDB78B
:10064000DEB7C054D1400FB6F894DEBF0FBECDBFA9
:100650000E940B0300914005109141052091420535
:10066000309143056B017C01C01AD10AE20AF30AFA
:1006700097018601003D17402105310590F48091D6
:100680004805C05CDE4F0FB6F894DEBF0FBECDBF8D
:10069000DF91CF911F910F91FF90EF90DF90CF905E
:1006A00008956093400570934105809342059093AF
:1006B000430510923B0510923A05109239051092AD
:1006C00038051092370562E080913C050E9478025F
:1006D00061E070E080E090E00E94D90261E08091EA
:1006E0003C050E94780260E080913C050E944A022D
:1006F00080913D058551823020F58BE291E1019793
:10070000F1F762E080913C050E94780280914905F2
:1007100090E08230910538F0880F991F880F991F5B
:1007200005970197F1F7F89480E00E948D006F3FE4
:100730007F4F8F4F9F4F61F410924805789480E06F
:10074000A0CF64E170E080E090E00E94D902D9CFB0
:1007500081E00E948D006F3F7F4F8F4F9F4F61F36D
:100760008E010F5F1F4F6E012FEBC21A2EEFD20AC0
:10077000780180E00E948D00F7016083718382839D
:10078000938381E00E948D00F701648375838683E3
:100790009783F8E0EF0EF11CEC14FD0451F7789408
:1007A00030E020E0F801C080D180E280F380448115
:1007B000558166817781FFEFCF16DF06EF06FF06D2
:1007C00031F04F3F8FEF58076807780719F4109200
:1007D0004805B5CFF90183E0F595E7958A95E1F7EE
:1007E000E95CFA4F8081880FC416D506E606F70645
:1007F00010F180832F5F3F4F085F1F4F2832310574
:1008000089F640913B052091370580913805280FE6
:100810003327331F80913905280F311D80913A0508
:10082000820F932F911D99274817190681F681E0B1
:100830008093480526CF8160DCCF0F931F93CF9321
:10084000DF93C82FD62F86E0C89FF0011124EA5409
:10085000FB4F11A2878D90A181309105F1F058F0E6
:1008600082309105F1F1039709F440C0DF91CF91F7
:100870001F910F9108956623C9F361E070E08C2FFA
:100880000E94C5000E940B0360930E0570930F0534
:100890008093100590931105E9CF0E940B030091FE
:1008A0000E0510910F052091100530911105AB0137
:1008B000BC01401B510B620B730B80912005909182
:1008C0002105B0E0A0E084179507A607B70748F414
:1008D00062E070E08C2FDF91CF911F910F910C940B
:1008E000C50063E070E0D111C1CFF4CF70E060E0EB
:1008F000F1CF0895862F0C942102862F642F0C943B
:100900004A02862F642F0C94780220915903260FF7
:100910003327331F21323105ECF42091DD03FC0134
:1009200090E080E0243069F082E00895A0915903BE
:100930002191AC01475C5C4FA40FB52FB11D2C93E6
:100940000196861798F380915903680F60935903B5
:1009500080E0089581E008951092DD0381E08093A6
:10096000DC031092B70361E082E10E944A0261E079
:1009700083E10E944A02E9EBF0E080818E7F808370
:1009800080818D7F808388E48093B80085E48093A4
:10099000BC000895CF93DF9391E0909338038823B0
:1009A000B9F0C091B800D091BA008091BC008A7BA8
:1009B0008093BC0060E082E10E944A0260E083E133
:1009C0000E944A020E94AC04D093BA00C093B800BF
:1009D000DF91CF9108958F929F92AF92BF92CF9265
:1009E000DF92EF92FF920F931F93CF93DF93D091FB
:1009F0000604D13208F0D7C0182FC09105040E9418
:100A0000B4026B017C018091DD0381116BC082E037
:100A10008093DD031093DC038FEF8093DB03109250
:100A2000DA03D093D903A5EEB3E0E9EBF3E080E07D
:100A3000D81391C01092B8038091B803CC0FC82B83
:100A4000C093B8038091B703813009F088C0109239
:100A5000B7030E94B4026B017C018091B8038093BC
:100A6000BB008091DF039091E003A091E103B0917E
:100A7000E203892B8A2B8B2BA1F00E94B4020091F8
:100A8000DF031091E0032091E1033091E2036C1940
:100A90007D098E099F09061717072807390708F4EB
:100AA00042C08091BC0083FDD8CF85EC8093BC0010
:100AB0000E94B4026B017C018091DD03823009F455
:100AC00050C08091DB038F3F09F46FC08091DB033E
:100AD000803209F46CC08091DB03803309F469C073
:100AE00084E026C08091DF039091E003A091E103B0
:100AF000B091E203892B8A2B8B2B09F484CF0E94BF
:100B0000B4028090DF039090E003A090E103B090E6
:100B1000E2036C197D098E099F0986169706A806BF
:100B2000B90608F070CF8091DE030E94CA0485E008
:100B30001092E403109206041092E303DF91CF9128
:100B40001F910F91FF90EF90DF90CF90BF90AF90EB
:100B50009F908F9008959D9191938F5F69CF85EEBF
:100B6000A5CF8091DF039091E003A091E103B091C4
:100B7000E203892B8A2B8B2B09F49ECF0E94B402AF
:100B80000091DF031091E0032091E1033091E20333
:100B90006C197D098E099F09061717072807390761
:100BA00008F08ACFC0CF81E0C3CF80E0C1CF82E020
:100BB000BFCF83E0BDCFEF92FF920F931F93CF93F0
:100BC000DF93EC018B017C0183E7E80EF11CD70178
:100BD0008D919C91FE01E159FF4F208131E03093CE
:100BE000E303209305041092E40310920604DC0151
:100BF000ED91FC910190F081E02D0995FE01E05905
:100C0000FF4F8081823058F0F70180819181DC01B3
:100C1000ED91FC910190F081E02D612F099581E02B
:100C20000E94EB04CF58DF4F08831983DF91CF91E7
:100C30001F910F91FF90EF90089521E030E002C0E6
:100C4000220F331F6A95E2F7FC01EF58FF4F6081D6
:100C50007181442341F0262B372B3183208360811F
:100C600071810C94DB052095309526233723F5CF31
:100C7000CF92DF92EF92FF920F931F93CF93DF9368
:100C8000D82FC62F613208F098C00E94B4026B01C1
:100C90007C018091DD0381116BC081E08093DD03D5
:100CA0008093DC039FEF9093DB031092DA039C0F99
:100CB0009093D9038093B8038091B803DD0FD82BAC
:100CC000D093B8038091B703813009F078C01092B7
:100CD000B7030E94B4026B017C018091B80380933A
:100CE000BB008091DF039091E003A091E103B091FC
:100CF000E203892B8A2B8B2BA1F00E94B402009176
:100D0000DF031091E0032091E1033091E2036C19BD
:100D10007D098E099F09061717072807390708F468
:100D200048C08091BC0083FDD8CF85EC8093BC0087
:100D30000E94B4026B017C018091DD03813009F4D3
:100D400040C08091DA038C1710F4C091DA03E9EB0C
:100D5000F3E0A7E9B3E080E08C1355C08C2FDF915E
:100D6000CF911F910F91FF90EF90DF90CF9008955A
:100D70008091DF039091E003A091E103B091E20341
:100D8000892B8A2B8B2B09F484CF0E94B40200910B
:100D9000DF031091E0032091E1033091E2036C192D
:100DA0007D098E099F09061717072807390708F0DC
:100DB00070CF8091DE030E94CA04C0E0CFCF85EEE1
:100DC000B5CF8091DF039091E003A091E103B09152
:100DD000E203892B8A2B8B2B09F4AECF0E94B4023D
:100DE0000091DF031091E0032091E1033091E203D1
:100DF0006C197D098E099F090617170728073907FF
:100E000008F09ACFD6CF91919D938F5FA5CF08958B
:100E1000E0918E0380918D03E81730F4F0E0E956FD
:100E2000FC4F808190E008958FEF9FEF089590919F
:100E30008E0380918D032FEF3FEF981748F4E92F31
:100E4000F0E0E956FC4F208130E09F5F90938E03E5
:100E5000C901089580918D0390918E03891B990B90
:100E60000895CF92DF92EF92FF920F931F93CF934B
:100E7000DF937C01CB018A012091E303222389F0D7
:100E8000EB016B01C40ED51ECC15DD0569F069912F
:100E9000D701ED91FC910190F081E02DC7010995FA
:100EA000F3CF642F0E948504C801DF91CF911F9179
:100EB0000F91FF90EF90DF90CF900895CF93DF9345
:100EC0001F92CDB7DEB769832091E3032223F9F0A7
:100ED00020910604203258F021E030E0FC013383F9
:100EE000228390E080E00F90DF91CF910895809170
:100EF000E403E82FF0E0EB51FC4F998190838F5F82
:100F00008093E4038093060481E090E0ECCF61E0FD
:100F1000CE0101960E948504F7CFFC01248131E0C7
:100F20003093E303209305041092E4031092060427
:100F30008385682B8AEA94E00E945E0781E00C9426
:100F4000EB0420918703309188032817390771F447
:100F50009091850380918603981741F0E091850375
:100F6000F0E0E850FD4F808190E008958FEF9FEF13
:100F70000895EF92FF920F931F93CF93DF93DC01BD
:100F80005C96ED90FC905D97E114F10479F481E0BA
:100F900090E013969C938E93129790E080E0DF91FF
:100FA000CF911F910F91FF90EF9008955196ED9181
:100FB000FC91529750968C915097982F90950FB71F
:100FC0005E962C915E97122F127021FD6095F89419
:100FD0002081112319F1282B2083E7012197F1F7B4
:100FE00028E0462F50E0308160FF1AC0382B308354
:100FF000E7012197F1F7BA0175956795215089F7B7
:10100000112381F08081892380830FBF5C968D91AD
:101010009C910197F1F781E090E0C1CF2923DCCFCB
:101020003923E5CF9081892BEFCF20918703309131
:1010300088032817390771F480918603209185036E
:1010400090E0805C9F4F821B910960E470E00E94F9
:10105000CE18089590E080E00895209187033091A4
:10106000880328173907B9F4909185038091860386
:10107000981789F0E0918503F0E0E850FD4F8081FA
:101080002091850330E02F5F3F4F2F73332720934C
:10109000850390E008958FEF9FEF089590E080E042
:1010A00008950F931F93CF938C01C62F0E948D0735
:1010B0006C2F6460C8010E948D076C2F6B7FC80184
:1010C0000E948D0783EC90E00197F1F7CF911F917B
:1010D0000F9108950F931F93CF93DF938C01D62F19
:1010E000C42F607F642B0E94510880E1D89FB0011B
:1010F00011246C2BC801DF91CF911F910F910C949B
:10110000510840E061E08BE295E00E946A088BE3C1
:101110009FE10197F1F70895CF93DF93CDB7DEB745
:1011200028970FB6F894DEBF0FBECDBF98E0E8E079
:10113000F1E0DE01119601900D929A95E1F7909100
:101140003305961710F46FEF690F262F30E0220F4A
:10115000331F41E050E04C0F5D1F240F351FF90194
:101160006081680F606840E08BE295E028960FB6DA
:10117000F894DEBF0FBECDBFDF91CF910C946A080B
:10118000CF93DF93EA010E948C084C815D816881D6
:1011900079818BE295E0DF91CF910C94EB0041E0F7
:1011A0000E946A0881E090E00895CF92DF92EF926A
:1011B000FF920F931F93CF93DF93EC0181E090E0B8
:1011C0007C0102C0EE0CFF1C6A95E2F76E0180E71D
:1011D000C80ED11CD6016C91613208F060E2FE01AC
:1011E000E159FF4F80810E94380610928E03809350
:1011F0008D03CD58DF4F88819981DC01ED91FC9101
:101200000284F385E02D09958C01F60180818230FE
:1012100060F088819981DC01ED91FC910284F38575
:10122000E02D099520E0022B182B0E211F2181E0D3
:1012300090E00E151F0511F090E080E0DF91CF9156
:101240001F910F91FF90EF90DF90CF90089542E0B3
:1012500050E06FE671E08AE495E00C94EB00CF93E8
:10126000DF93FC0101900020E9F73197AF01481BA3
:10127000590BBC018AE495E00E94EB00EC010E944E
:1012800027098C0F9D1FDF91CF910895CF93DF9396
:101290006AE18AE495E00E94B907EC010E942709FF
:1012A0008C0F9D1FDF91CF910895CF93DF93FC01A9
:1012B00044815581608171818AE495E00E94EB0050
:1012C000EC010E9427098C0F9D1FDF91CF9108959B
:1012D0000F931F93CF93DF93EC018881998100973F
:1012E00059F02A813B812617370730F081E0DF91E2
:1012F000CF911F910F9108958B016F5F7F4F0E94D7
:10130000211A009759F0998388831B830A832C81C3
:101310003D81232B59F7FC011082E8CF80E0E7CF15
:10132000EF92FF920F931F93CF93DF936115710597
:1013300041F480E0DF91CF911F910F91FF90EF90EA
:10134000089541155105B1F07B01EC010C811D811F
:10135000040F151FB8010E946809882351F32881E2
:1013600039818C819D81B701820F931F0E94E71AFA
:101370001D830C8381E0DECFCF93DF93EC01888166
:101380009981009711F00E949819198218821D8284
:101390001C821B821A82DF91CF910895CF93DF9335
:1013A000EC01FB0101900020E9F73197AF01461BEA
:1013B000570B0E949009811103C0CE010E94BC0905
:1013C000CE01DF91CF910895CF93DF93EC01FB0124
:1013D00044815581608171810E949009811103C00F
:1013E000CE010E94BC09CE01DF91CF910895EF920A
:1013F000FF920F931F93CF93DF93EC017B018A0140
:10140000BA010E94680981110BC0CE010E94BC097B
:10141000CE01DF91CF911F910F91FF90EF90089532
:101420001D830C83B701888199810E94E71AF0CF50
:10143000EF92FF920F931F93CF93DF93CDB7DEB759
:1014400029970FB6F894DEBF0FBECDBF8C01862F53
:10145000F8011182108213821282158214824AE0EE
:101460009E012F5F3F4F7901B90190E00E94D6168F
:10147000F70101900020E9F73197AF014E195F099C
:10148000B701C8010E94F70929960FB6F894DEBF8C
:101490000FBECDBFDF91CF911F910F91FF90EF90C5
:1014A0000895FB01DC0111961C921E9213961C926A
:1014B0001E92129715961C921E92149786179707E4
:1014C00049F0608171816115710521F04481558178
:1014D0000C94F7090895FC01118210821382128284
:1014E00015821482FB0101900020E9F73197AF01CA
:1014F000461B570B0C94F709FC01808191810097E2
:1015000011F00C949819089585ED8093BC0080919A
:10151000DF039091E003A091E103B091E20307960D
:10152000A11DB11D23E0B695A795979587952A959E
:10153000D1F72091BC0024FD03C01092DD03089573
:101540004091DF035091E0036091E1037091E20369
:10155000452B462B472B69F30097A105B10541F0B8
:1015600025E32A95F1F700000197A109B109E1CF20
:101570008091DE030C94CA041F920F920FB60F9253
:1015800011242F933F934F935F936F937F938F9388
:101590009F93AF93BF93EF93FF9387E094E00E94F4
:1015A0006901FF91EF91BF91AF919F918F917F91D1
:1015B0006F915F914F913F912F910F900FBE0F90C0
:1015C0001F9018951F920F920FB60F9211242F9310
:1015D0008F939F93EF93FF93E0911704F09118047A
:1015E0008081E0911D04F0911E0482FD1BC090815A
:1015F000809120048F5F8F7320912104821741F026
:10160000E0912004F0E0E95FFB4F958F8093200488
:10161000FF91EF919F918F912F910F900FBE0F909F
:101620001F9018958081F4CF1F920F920FB60F92E2
:1016300011242F933F938F939F93AF93BF938091E8
:101640007D0390917E03A0917F03B0918003309140
:101650007C0323E0230F2D3758F50196A11DB11D02
:1016600020937C0380937D0390937E03A0937F035C
:10167000B09380038091810390918203A0918303B2
:10168000B09184030196A11DB11D809381039093B5
:101690008203A0938303B0938403BF91AF919F9182
:1016A0008F913F912F910F900FBE0F901F90189523
:1016B00026E8230F0296A11DB11DD2CF1F920F92D3
:1016C0000FB60F9211242F933F934F935F936F9315
:1016D0007F938F939F93AF93BF93EF93FF938091EB
:1016E000B900887F803609F44AC0F0F5883209F4E1
:1016F000A7C018F5803109F49BC0B8F4882309F419
:10170000F9C0883009F494C0FF91EF91BF91AF9177
:101710009F918F917F916F915F914F913F912F9109
:101720000F900FBE0F901F901895883109F488C054
:10173000803251F78093DB0314C0803409F49DC0DC
:1017400040F48033B9F38833F9F68093DB0385ECFA
:10175000B0C0803509F485C0883509F496C0883456
:1017600099F60E94840AD0CF883909F48CC038F5E4
:10177000883729F050F4883611F0803729F683E055
:101780008093DD0310927B0357C0883809F47BC037
:10179000803919F0803809F0B7CF80917B0380320F
:1017A00008F071C0E0917B0381E08E0F80937B0392
:1017B0008091BB00F0E0E55AFC4F80833DC0803B48
:1017C00039F0E0F4803A09F479C0883A09F09CCF06
:1017D00084E08093DD0310925A0310925903E09144
:1017E0008B03F0918C0309958091590381110FC0EF
:1017F00081E0809359031092390309C0803C09F4B9
:10180000A6CF883C09F4A3CF883B09F07DCFE091B7
:101810005A0381E08E0F80935A03F0E0E75CFC4F9F
:1018200080818093BB0090915A038091590329C015
:101830008091B8038093BB0085EC8093BC0064CF9B
:101840009091DA038091D903981758F5E091DA0363
:1018500081E08E0F8093DA03F0E0E754FC4F808143
:10186000E9CFE091DA0381E08E0F8093DA03809173
:10187000BB00F0E0E754FC4F80839091DA03809145
:10188000D9039817C8F285E8D8CFE091DA0381E050
:101890008E0F8093DA038091BB00F0E0E754FC4F99
:1018A00080838091DC0381115CCF81E08093B7035A
:1018B00084EA8093BC001092DD0326CF85EC8093F0
:1018C000BC001092DD0380917B03803230F4E09104
:1018D0007B03F0E0E55AFC4F108260917B0370E0DF
:1018E000E0918903F0918A038BE593E009951092CA
:1018F0007B030ACF1092DB0334CF1F920F920FB6F7
:101900000F9211242F933F934F935F936F937F9385
:101910008F939F93AF93BF93EF93FF93E0918703D0
:10192000F0918803309749F0A685B7858585968D17
:1019300091FF14C09C918923A1F4FF91EF91BF9175
:10194000AF919F918F917F916F915F914F913F9157
:101950002F910F900FBE0F901F9018959C91892387
:1019600061F7A389B4899C918589809589238C939B
:10197000868997890197F1F7608D718DA685B78566
:10198000558538E020E0CB010197F1F7822F90E0F8
:1019900095958795282F4C91452309F02068315063
:1019A00091F7868D81FD20958091860390E00196C8
:1019B0008F73992730918503381799F0A09186038A
:1019C000B0E0A850BD4F2C9380938603828D938DF9
:1019D0000197F1F7A389B4898C919589892B8C9310
:1019E000ACCF868D8160868FF1CF10920A04109261
:1019F000090488EE93E0A0E0B0E080930B0490939C
:101A00000C04A0930D04B0930E0424E131E0309354
:101A100008042093070425EC30E03093140420934D
:101A2000130424EC30E0309316042093150420ECCA
:101A300030E0309318042093170421EC30E0309309
:101A40001A042093190422EC30E030931C042093F4
:101A50001B0426EC30E030931E0420931D041092EA
:101A60002004109221041092220410922304109258
:101A7000AD041092AC048093AE049093AF04A09395
:101A8000B004B093B10426E231E03093AB0420936C
:101A9000AA0410924D0510924C0580934E05909328
:101AA0004F05A0935005B093510584E491E09093C5
:101AB0004B0580934A0510926105109260051092C3
:101AC00063051092620510926505109264051092EC
:101AD000670510926605609168056E7F6D7F609363
:101AE00068056695617081E0682788E00E944A0277
:101AF00061E088E00E947802E6EBF0E0E491E09398
:101B00005A05E2EAF0E0E491F0E0EE0FFF1FE05743
:101B1000FF4F8591949190935C0580935B0560E005
:101B200086E10E9478028091680581FD04C061E031
:101B300086E10E944A0286E180935605E4ECF0E0DB
:101B4000E491E0935705E0EBF0E0E491F0E0EE0F74
:101B5000FF1FEA57FF4F8591949190935905809309
:101B6000580585E080933C058BE080933D05E3EBD1
:101B7000F0E0E491E0933E05EFE9F0E0E491E093DA
:101B80003F0580E89EE3A0E0B0E080934405909399
:101B90004505A0934605B093470510922E05109277
:101BA0002D0588E391E090932C0580932B0580E22E
:101BB00080932F0584E18093340584E0809335057C
:101BC000109236051092B8041092BC041092BB0417
:101BD0001092BD04E2EDF4E08EE095E010821482F4
:101BE0001382158236968E179F07C1F78FE591E015
:101BF00090931905809318058CE591E090931B054F
:101C000080931A0584E080931C0583E080931D0572
:101C100083E691E090931705809316058AE090E0A3
:101C200090931F0580931E0584EF91E0909321050A
:101C3000809320051092240510922305109212051E
:101C4000109213051092140510921505109222059A
:101C500086E591E09093B7048093B60481E2809387
:101C6000250581E0809326058AEA94E090932A0571
:101C70008093290562E771E084EA94E00C946B0A92
:101C8000CF93DF93CDB7DEB762970FB6F894DEBF80
:101C90000FBECDBF789484B5826084BD84B5816069
:101CA00084BD85B5826085BD85B5816085BD809127
:101CB0006E00816080936E0010928100809181009F
:101CC0008260809381008091810081608093810097
:101CD000809180008160809380008091B100846059
:101CE0008093B1008091B00081608093B0008091BA
:101CF0007A00846080937A0080917A008260809379
:101D00007A0080917A00816080937A0080917A00D5
:101D1000806880937A001092C100E0911704F091DE
:101D2000180482E08083E0911304F091140410827F
:101D3000E0911504F09116048FEC808310921F043B
:101D4000E0911B04F0911C0486E08083E09119046B
:101D5000F0911A04808180618083E0911904F091F0
:101D60001A04808188608083E0911904F0911A043C
:101D7000808180688083E0911904F0911A04808149
:101D80008F7D808360E08CE00E94780260E08BE0D1
:101D90000E94780260E08AE00E94780260E089E0B8
:101DA0000E94780260E085E00E94780261E082E0B3
:101DB0000E94780261E083E00E94780261E084E0A2
:101DC0000E94780261E08DE00E9478021092650521
:101DD00010926405109263051092620510926105DD
:101DE000109260058DE991E09093670580936605F8
:101DF00090915605963108F047C02DEB30E03093B6
:101E00006105209360052BE931E030936305209351
:101E100062052CE231E03093650520936405209142
:101E2000680084E0983048F031E09E3008F430E0FB
:101E300081E001C0880F3A95EAF7822B8093680011
:101E40002DE630E0983050F02BE630E09E3030F058
:101E50002CE630E0963110F030E020E030935E0563
:101E600020935D05292F30E0983008F0E0C181E033
:101E700001C0880F9A95EAF780935F058091660507
:101E8000909167050197F1F7809164059091650540
:101E9000892B49F1E0918703F091880355E0EA34FA
:101EA000F50709F1309739F0A389B4899C918589A8
:101EB000809589238C93809168058E7F8093680537
:101EC00010928603109285038AE495E0909388032C
:101ED00080938703E0915D05F0915E05808190918C
:101EE0005F05892B808384E791E00E942F0962E0DF
:101EF00080913C050E9478020E940B03605D774050
:101F000081099109609340057093410580934205D2
:101F10009093430587E38093490510928E031092B6
:101F20008D031092E403109206040E94AC0489EE23
:101F300090E090938C0380938B038AEE90E09093D3
:101F40008A03809389031092300580913505823091
:101F500018F098E0909330058093330562E370E0C9
:101F600080E090E00E94D902609136058BE295E016
:101F70000E948D0768EE73E080E090E00E94D90235
:101F800060E38BE295E00E9451080BE416E4C8017F
:101F90000197F1F760E38BE295E00E945108C801D8
:101FA0000197F1F760E38BE295E00E94510883E529
:101FB00092E00197F1F760E28BE295E00E94510810
:101FC00060913005606240E08BE295E00E946A0813
:101FD00084E08093310540E06CE08BE295E00E9464
:101FE0006A080E94810882E08093320540E066E042
:101FF0008BE295E00E946A0840E062E08BE295E0A7
:102000000E946A088BE39FE10197F1F788E08093D3
:10201000360560E08BE295E00E948D0783E691E053
:1020200090931705809316056FEF7FEF86EB94E092
:102030000E94DB0560912605613208F060E2809124
:1020400025050E94380610928E0380938D0380919F
:10205000290590912A05DC01ED91FC910284F3851C
:10206000E02D0995909328058093270580912605FA
:102070008230B8F08091290590912A05DC01ED911C
:10208000FC910284F385E02D099520E0382F8091A2
:10209000270590912805822B932B909328058093F8
:1020A0002705412C512C32014394AA24AA94BA2C1E
:1020B0008091960381118DC167E771E0CE01019691
:1020C0000E946B0AAE014F5F5F4F61E070E087E0F6
:1020D00090E00E94C008CE0101960E947C0A68EE42
:1020E00073E080E090E00E94D9020E94810860E8DD
:1020F00071E0CE0101960E946B0AAE014F5F5F4F07
:1021000070E060E082E090E00E94C008CE0101969D
:102110000E947C0A62E971E0CE0101960E946B0A7E
:10212000AE014F5F5F4F61E070E086E090E00E949B
:10213000C008CE0101960E947C0A62E771E0CE01E0
:1021400001960E946B0AAE014F5F5F4F62E070E044
:1021500090E080E00E94C008CE0101960E947C0AB7
:1021600062E081E00E948C08B1E0B09322050E94F9
:102170000B03009112051091130520911405309165
:102180001505AB01BC01401B510B620B730B809119
:102190001E0590911F05B0E0A0E084179507A607E3
:1021A000B70710F7312C80911D05381608F060C074
:1021B000C32CD12CE0911A05F0911B05EC0DFD1DEF
:1021C00040E0608186EB94E00E941D06D301C201CD
:1021D000032C04C0880F991FAA1FBB1F0A94D2F7B3
:1021E0004C017C01E094F094212C80911C05281670
:1021F00080F5022D10E0E0911805F0911905E00F2F
:10220000F11F608186EB94E00E94D5080C5F1F4FA0
:10221000000F111FF801EA54FB4F892BA9F48081AC
:10222000918188299929918380832394DECF9E30E0
:1022300040F42850310981E001C0880F2A95EAF75F
:102240001BCE2E503109F7CF808191818E219F21A5
:10225000EACF80911A0590911B05C80ED91E41E066
:10226000F601608186EB94E00E941D0633949BCFBB
:1022700006EB14E07801D7015F968D919C919097C1
:10228000892B49F45C961C925C975E96BC92AE9248
:102290005D9791961C92B6E0EB0EF11CE2EFF4E034
:1022A000EE15FF0541F7912C80911C05981608F05A
:1022B00053C0812CC92CD12CCC0CDD1CC6018254FE
:1022C0009B4F6C0120911D05821608F043C0D6017A
:1022D0006D917C91082C02C0769567950A94E2F77F
:1022E000929E90011124280D311DE6EBF4E080E070
:1022F000458D568D2417350709F4DEC48F5F369659
:102300008A30B1F760FF24C0E6EBF4E090E080E0B3
:10231000448D411118C0E0911605F0911705E20FA8
:10232000F31F4081B6E0B89FF001B99FF00D112472
:10233000EA54FB4F448F368F258F10A2178E61E031
:102340000E941D0405C0019636968A30910501F75A
:102350008394B8CF9394A8CFD12CF80181A1811197
:10236000D82E0A5F1F4FE016F106B9F70E940B0343
:1023700060931205709313058093140590931505CF
:10238000DD2009F4F1CE8091D704882309F4ECCE46
:102390008091D5049091D604019709F0E5CE109173
:1023A000D204112309F4E0CE133209F487C419834F
:1023B0001A8241E050E0BE016F5F7F4F84EA94E0F3
:1023C0000E94900941E0612F8BE295E00E946A082B
:1023D000CBCE8BE00E942102282E809392038AE0CC
:1023E0000E942102382E8093910389E00E942102ED
:1023F000882E809390038CE00E942102082F809306
:1024000093030E941703882349F080913D058B3088
:1024100028F08D3040F085518230B8F160E070E0F6
:1024200080EC9FE71CC06091380570E090E080E090
:102430000E9402172DEC3CEC4CEC5DE30E943D1732
:102440006B017C016091370570E090E080E00E94B4
:1024500002179B01AC01C701B6010E9433180E940C
:102460009F18962E609395030E941703882341F0CE
:1024700080913D058C3009F4BBC0C8F48B3081F1EC
:1024800060E070E080EC9FE753C060913705709189
:10249000380576276727762790E080E00E940017AE
:1024A0002DEC3CEC4CEC5DE30E943D17D8CF855100
:1024B000823030F710913905612F70E0762F662752
:1024C00066277F7780913A05682B90E080E00E9434
:1024D00000172DEC3CEC4CEC5DE30E943D17A4C0D2
:1024E0006091390570E090E080E00E9400176B0178
:1024F0007C0110913A0517FF0AC0AC019B0160E016
:1025000070E080E89FEB0E9432186B017C011F7025
:10251000612F70E090E080E00E9402172DEC3CEC0F
:102520004CEC5DE30E943D17A70196010E94331811
:102530000E949F1860938F03F1E082E090E02F16D5
:1025400009F47BC083E090E0013009F476C051E0EB
:1025500035126EC0109201011092000161E082E01C
:102560000E944A0261E08DE00E944A0260E083E03E
:102570000E944A0260E084E00E944A0280910001C9
:10258000909101018230910509F456C108F0C3C051
:10259000009709F4DFC0019709F42BC180919403DF
:1025A000811113C080910001909101018230910549
:1025B00009F4FEC108F07BC1009709F4BBC1019783
:1025C00009F4D9C181E08093940368EE73E080E060
:1025D00090E00E94D90280E090E0892B09F468CD58
:1025E0000E945501882309F463CD0E94000060CD4C
:1025F00010913905612F70E090E080E00E94001793
:102600006B017C0160913A056F7070E090E080E0B2
:102610000E9402172DEC3CEC4CEC5DE30E943D1750
:10262000A70196010E94331817FF82CF905880CFE0
:1026300081E0881207C081E090E0909301018093CF
:1026400000018CCF84E090E06932B8F790E59915ED
:1026500008F0E8C161E084E00E944A0260E083E0A3
:102660000E944A020E94810860E5CE0107960E94FE
:10267000180A61E772E0CE010D960E946B0ABE0156
:10268000695F7F4FCE010D960E94E40963E872E016
:102690000E94CE09BC01CE0101960E94510AAE01F2
:1026A0004F5F5F4F70E060E090E080E00E94C00804
:1026B000CE0101960E947C0ACE010D960E947C0AF2
:1026C000CE0107960E947C0A65E872E0CE01019671
:1026D0000E946B0AAE014F5F5F4F61E070E085E0E2
:1026E00090E00E94C008CE0101960E947C0A61E938
:1026F00072E0CE0101960E946B0AAE014F5F5F4F00
:1027000062E070E085E090E00E94C008CE01019692
:102710000E947C0A5ACF8330910509F4B0C0049717
:1027200009F03CCF0E9481086AE971E0CE01019670
:102730000E946B0AAE014F5F5F4F70E060E087E080
:1027400090E00E94C008CE0101960E947C0A6DEBC9
:1027500071E066C00E9481086AE971E0CE010196CD
:102760000E946B0AAE014F5F5F4F70E060E087E050
:1027700090E00E94C008CE0101960E947C0A6FEE94
:1027800071E0CE0101960E946B0AAE014F5F5F4F70
:1027900061E070E083E090E00E94C008CE01019605
:1027A0000E947C0A63EA71E0CE0101960E946B0AE6
:1027B000AE014F5F5F4F62E070E082E090E00E9408
:1027C000C008CE0101960E947C0A64EB71E0CE0144
:1027D00001960E946B0AAE014F5F5F4F63E070E0AD
:1027E00087E090E00E94C008CE0101960E947C0A1A
:1027F000D5CE0E9481086AE971E0CE0101960E945F
:102800006B0AAE014F5F5F4F70E060E087E090E0E1
:102810000E94C008CE0101960E947C0A68E072E026
:10282000CE0101960E946B0AAE014F5F5F4F61E0DF
:1028300070E082E090E0B0CF0E9481086AE971E028
:10284000CE0101960E946B0AAE014F5F5F4F70E0B0
:1028500060E087E090E00E94C008CE0101960E94EF
:102860007C0A62E272E0CE0101960E946B0AAE0120
:102870004F5F5F4F61E070E081E090E08DCF0E949C
:1028800081086AE971E0CE0101960E946B0AAE01EF
:102890004F5F5F4F70E060E087E090E00E94C0080B
:1028A000CE0101960E947C0A6EE372E0DCCF833099
:1028B000910509F49AC0049709F084CE8FEC91E059
:1028C0000E942F0969ED71E0CE0101960E946B0A0A
:1028D00064EA74E0CE0101960E94E40963EE71E0BF
:1028E0000E94CE090E945509CE0101960E947C0AE1
:1028F00060918F03CE0101960E94180A61E572E093
:10290000CE0107960E946B0ABE016F5F7F4FCE011A
:1029100007960E94E4096DE672E00E94CE090E94CB
:102920005509CE0107960E947C0ACE0101960E94AD
:102930007C0A1EC08FEC91E00E942F0969ED71E0C6
:10294000CE0101960E946B0A64EA74E0CE01019602
:102950000E94E40963EE71E00E94CE090E945509CD
:10296000CE0101960E947C0A86EE91E00E942F091A
:102970000E94460927CE8FEC91E00E942F0969ED55
:1029800071E0CE0101960E946B0A64EA74E0CE0108
:1029900001960E94E40963EE71E00E94CE090E9454
:1029A0005509CE0101960E947C0A8FEF91E0DECF9F
:1029B0008FEC91E00E942F0969ED71E0CE01019644
:1029C0000E946B0A64EA74E0CE0101960E94E40959
:1029D00063EE71E00E94CE090E945509CE01019676
:1029E0000E947C0A89E192E0C1CF8FEC91E00E94C5
:1029F0002F0969ED71E0CE0101960E946B0A64EA2D
:102A000074E0CE0101960E94E40963EE71E00E9439
:102A1000CE090E945509CE0101960E947C0A85E3E9
:102A200092E0A4CF60E082E00E944A0260E08DE084
:102A30000E944A0260E084E00E944A0261E083E072
:102A40000E944A020E948108602FCE0107960E94D0
:102A5000180A6DE972E0CE010D960E946B0ABE0164
:102A6000695F7F4FCE010D960E94E409BC01CE0143
:102A700001960E94510AAE014F5F5F4F70E060E027
:102A800090E080E00E94C008CE0101960E947C0A7E
:102A9000CE010D960E947C0ACE0107960E947C0A08
:102AA00060919203CE0107960E94180A65EA72E0CF
:102AB000CE010D960E946B0ABE01695F7F4FCE0169
:102AC0000D960E94E409BC01CE0101960E94510AB4
:102AD000AE014F5F5F4F61E070E090E080E00E94E8
:102AE000C008CE0101960E947C0ACE010D960E947C
:102AF0007C0ACE0107960E947C0A60919103CE0168
:102B000007960E94180A6DEA72E0CE010D960E94A7
:102B10006B0ABE01695F7F4FCE010D960E94E409EA
:102B2000BC01CE0101960E94510AAE014F5F5F4F7A
:102B300062E070E090E080E00E94C008CE01019663
:102B40000E947C0ACE010D960E947C0ACE01079657
:102B50000E947C0A60919003CE0107960E94180A99
:102B600062EB72E0CE010D960E946B0ABE01695FB6
:102B70007F4FCE010D960E94E409BC01CE01019663
:102B80000E94510AAE014F5F5F4F63E070E090E03A
:102B900080E00E94C008CE0101960E947C0ACE010E
:102BA0000D960E947C0ACE0107960E947C0A68EE70
:102BB00073E080E090E00E94D9020E948108609159
:102BC0009503CE0107960E94180A68EB72E0CE01C9
:102BD0000D960E946B0ABE01695F7F4FCE010D9674
:102BE0000E94E40963E872E00E94CE09BC01CE01B4
:102BF00001960E94510AAE014F5F5F4F70E060E0A6
:102C000090E080E00E94C008CE0101960E947C0AFC
:102C1000CE010D960E947C0ACE0107960E947C0A86
:102C200060918F03CE0107960E94180A63EC72E050
:102C3000CE010D960E946B0ABE01695F7F4FCE01E7
:102C40000D960E94E4098C018FED89831A8241E080
:102C500050E0BE016F5F7F4FC8010E949009811153
:102C600003C0C8010E94BC0961ED72E0C8010E9466
:102C7000CE09BC01CE0101960E94510AAE014F5F00
:102C80005F4F61E070E090E080E00E94C008CE01FC
:102C900001960E947C0ACE010D960E947C0ACE010C
:102CA00007960E947C0A86E090E090930101809351
:102CB00000011092940389CC617042CB0E9481087C
:102CC00063ED72E0CE0101960E946B0AAE014F5F88
:102CD0005F4F70E060E084E090E00E94C008CE01A9
:102CE00001960E947C0A64EA74E0CE0101960E947B
:102CF000510AAE014F5F5F4F61E070E084E090E009
:102D00000E94C008CE0101960E947C0A61EE72E02A
:102D1000CE0101960E946B0AAE014F5F5F4F62E0E9
:102D200070E086E090E00E94C008CE0101960E940B
:102D30007C0A6AEE72E0CE0101960E946B0AAE0137
:102D40004F5F5F4F63E070E084E090E00E94C00856
:102D5000CE0101960E947C0A68EE73E080E090E06C
:102D60000E94D90281E08093960335CC84EA94E0F6
:102D70000E947C0A84E491E090934B0580934A057D
:102D800080918703909188038A54954071F4E09173
:102D90005D05F0915E05908180915F0580958923A6
:102DA000808310928803109287030895BB27FB014C
:102DB0005527AA27880F991FAA1FA41710F0A41B34
:102DC00083955051B9F7A05DAA3308F0A95DA1938E
:102DD000009779F7B111B1931192CB010C94F016D1
:102DE000DC01FC01672F71917723E1F7329704C072
:102DF0007C916D9370836291AE17BF07C8F30895FD
:102E0000E89409C097FB3EF4909580957095619584
:102E10007F4F8F4F9F4F9923A9F0F92F96E9BB273A
:102E20009395F695879577956795B795F111F8CFB6
:102E3000FAF4BB0F11F460FF1BC06F5F7F4F8F4F21
:102E40009F4F16C0882311F096E911C0772321F017
:102E50009EE8872F762F05C0662371F096E8862FAF
:102E600070E060E02AF09A95660F771F881FDAF706
:102E7000880F9695879597F908950E9450170C949E
:102E8000C1170E94B31738F00E94BA1720F095239B
:102E900011F00C94AA170C94B01711240C94F51788
:102EA0000E94D21770F3959FC1F3950F50E0551F04
:102EB000629FF001729FBB27F00DB11D639FAA278F
:102EC000F00DB11DAA1F649F6627B00DA11D661FDE
:102ED000829F2227B00DA11D621F739FB00DA11DFF
:102EE000621F839FA00D611D221F749F3327A00DB9
:102EF000611D231F849F600D211D822F762F6A2F55
:102F000011249F5750409AF0F1F088234AF0EE0FB9
:102F1000FF1FBB1F661F771F881F91505040A9F7E6
:102F20009E3F510580F00C94AA170C94F5175F3F53
:102F3000E4F3983ED4F3869577956795B795F79522
:102F4000E7959F5FC1F7FE2B880F911D969587959A
:102F500097F9089597F99F6780E870E060E0089519
:102F60009FEF80EC089500240A94161617061806A1
:102F70000906089500240A9412161306140605067D
:102F80000895092E0394000C11F4882352F0BB0F0E
:102F900040F4BF2B11F460FF04C06F5F7F4F8F4F71
:102FA0009F4F089557FD9058440F551F59F05F3FAC
:102FB00071F04795880F97FB991F61F09F3F79F05B
:102FC00087950895121613061406551FF2CF4695DD
:102FD000F1DF08C0161617061806991FF1CF86955F
:102FE0007105610508940895E894BB276627772743
:102FF000CB0197F908952F923F924F925F926F9273
:103000007F928F929F92AF92BF92CF92DF92EF9278
:10301000FF920F931F93CF93DF93CDB7DEB7CA1BF9
:10302000DB0B0FB6F894DEBF0FBECDBF09942A8824
:10303000398848885F846E847D848C849B84AA84CC
:10304000B984C884DF80EE80FD800C811B81AA8159
:10305000B981CE0FD11D0FB6F894DEBF0FBECDBF24
:10306000ED0108955058BB27AA270E944A180C94D6
:10307000C1170E94B31738F00E94BA1720F039F434
:103080009F3F19F426F40C94B0170EF4E095E7FB7B
:103090000C94AA17E92F0E94D21758F3BA176207A7
:1030A00073078407950720F079F4A6F50C94F417BC
:1030B0000EF4E0950B2EBA2FA02D0B01B901900153
:1030C0000C01CA01A0011124FF27591B99F0593F97
:1030D00050F4503E68F11A16F040A22F232F342FDF
:1030E0004427585FF3CF469537952795A795F0402D
:1030F0005395C9F77EF41F16BA0B620B730B840B42
:10310000BAF09150A1F0FF0FBB1F661F771F881FF9
:10311000C2F70EC0BA0F621F731F841F48F4879551
:1031200077956795B795F7959E3F08F0B0CF939543
:10313000880F08F09927EE0F9795879508950E94BC
:10314000DA1788F09F5798F0B92F9927B751B0F048
:10315000E1F0660F771F881F991F1AF0BA95C9F71B
:1031600014C0B13091F00E94F417B1E008950C94AE
:10317000F417672F782F8827B85F39F0B93FCCF361
:10318000869577956795B395D9F73EF49095809598
:10319000709561957F4F8F4F9F4F089597FB072E36
:1031A00016F4009407D077FD09D00E94E21807FCBE
:1031B00005D03EF4909581959F4F08957095619547
:1031C0007F4F0895AA1BBB1B51E107C0AA1FBB1F5D
:1031D000A617B70710F0A61BB70B881F991F5A95A3
:1031E000A9F780959095BC01CD010895EE0FFF1FC2
:1031F0000590F491E02D09940F931F93CF93DF93E3
:103200008230910510F482E090E0E0916B05F0913E
:103210006C0530E020E0B0E0A0E0309799F4211593
:10322000310509F44AC0281B390B24303105D8F583
:103230008A819B816115710589F1FB0193838283EA
:10324000FE0111C040815181028113814817590745
:10325000E0F04817590799F4109761F012960C9313
:10326000129713961C933296CF01DF91CF911F9145
:103270000F91089500936B0510936C05F4CF211501
:10328000310551F04217530738F0A901DB019A01CB
:10329000BD01DF01F801C1CFEF01F9CF90936C05BB
:1032A00080936B05CDCFFE01E20FF31F81939193C5
:1032B0002250310939832883D7CF20916905309175
:1032C0006A05232B41F420910401309105013093CC
:1032D0006A052093690520910201309103012115AF
:1032E000310541F42DB73EB74091060150910701D9
:1032F000241B350BE0916905F0916A05E217F3078D
:10330000A0F42E1B3F0B2817390778F0AC014E5F55
:103310005F4F2417350748F04E0F5F1F50936A0523
:1033200040936905819391939FCFF0E0E0E09CCFBB
:10333000CF93DF930097E9F0FC013297138212825A
:10334000A0916B05B0916C05ED0130E020E0109785
:10335000A1F420813181820F931F20916905309162
:103360006A052817390709F061C0F0936A05E093F0
:103370006905DF91CF910895EA01CE17DF07E8F5DF
:103380004A815B819E0141155105B1F7E901FB833B
:10339000EA8349915991C40FD51FEC17FD0761F4D9
:1033A000808191810296840F951FE901998388831A
:1033B000828193819B838A83F0E0E0E012968D9175
:1033C0009C9113970097B9F52D913C911197CD01E0
:1033D0000296820F931F2091690530916A05281784
:1033E000390739F6309751F510926C0510926B053C
:1033F000B0936A05A0936905BCCFD383C283408193
:103400005181840F951FC817D90761F44E5F5F4F34
:1034100088819981480F591F518340838A819B81FC
:10342000938382832115310509F0B0CFF0936C05A9
:10343000E0936B059ECFFD01DC01C0CF13821282A9
:10344000D7CFB0E0A0E0E7E2FAE10C94FD178C01E1
:10345000009751F4CB010E94FC188C01C801CDB734
:10346000DEB7E0E10C941918FC01E60FF71F9C0190
:1034700022503109E217F30708F49DC0D901CD911C
:10348000DC911197C617D70798F0C530D10530F3F6
:10349000CE0104978617970708F3C61BD70B229710
:1034A000C193D1936D937C93CF010E949819D6CF8D
:1034B0005B01AC1ABD0A4C018C0E9D1EA0916B05E0
:1034C000B0916C05512C412CF12CE12C109731F569
:1034D0008091690590916A058815990509F05CC08D
:1034E0004616570608F058C08091020190910301DA
:1034F000009741F48DB79EB74091060150910701A6
:10350000841B950BE817F90708F055C0F0936A057E
:10351000E0936905F90171836083A0CF8D919C913F
:10352000119712966C90129713967C901397A8158A
:10353000B90559F56C0142E0C40ED11CCA14DB0474
:1035400020F1AC014A195B09DA011296159780F057
:103550006282738251834083D9016D937C93E1141D
:10356000F10471F0D7011396FC93EE93129776CF86
:1035700022968C0F9D1FF90191838083F301EFCF79
:10358000F0936C05E0936B0569CF4816590608F473
:103590002C017D01D3019ACFCB010E94FC187C0144
:1035A000009749F0AE01B8010E94DE1AC8010E94DE
:1035B0009819870153CF10E000E050CFFB01DC01E8
:1035C00002C001900D9241505040D8F70895FB0180
:1035D000DC0101900D920020E1F7089510E0C2E6B1
:1035E000D0E004C0FE010E94F6182196C336D10730
:0635F000C9F7F894FFCFBB
:1035F600060000006D058000000040001400540025
:10360600000000008B01EB001801D80149012701D9
:103616003B01000000005E0731074E0807072A0736
:103626001707080700000000CF08EB004E087904D2
:1036360000000000B907EB004E08070715082D0823
:10364600A10700000000E8001D06D50804050600D5
:103656000102033132333435363738392A30230DF7
:103666000A002B0041540057656C636F6D6521009D
:10367600456E74657220796F7572206D6F62696C24
:1036860065006E756D6265723A005741524E494E3D
:10369600472100534D53206E6F74696669636174E8
:1036A600696F6E0069732073656E742E00486967D2
:1036B600682074656D70657261747572652100416C
:1036C600542B434D47463D310041542B434D475300
:1036D6003D2200220D005761726E696E67212043FC
:1036E6004F206973206465746563746564210057AF
:1036F60061726E696E672120434F322069732064C0
:103706006574656374656421005761726E696E67DE
:103716002120536D6F6B6520697320646574656342
:1037260074656421005761726E696E672120466C6C
:10373600616D6520697320646574656374656421D1
:10374600005761726E696E67212048696768207448
:10375600656D706572617475726520280043292154
:103766000048756D69646974792076616C756520A9
:103776003E20002500486F6F642073797374656D71
:1037860000697320656E61626C65642E00466C612B
:103796006D653A2000536D6F6B653A2000434F3AD2
:1037A6002000434F323A200048756D696469747988
:1037B6003A200054656D70657261747572653A20C1
:1037C6000043004D6F62696C65204E756D626572CF
:1037D600006973207361766564007375636365734E
:0837E6007366756C6C7921001B
:00000001FF
