:020000040000FA
:100000000C9463000C948B000C948B000C947D0C6E
:100010000C947D0C0C947D0C0C948B000C948B0038
:100020000C948B000C948B000C948B000C948B0024
:100030000C948B000C948B000C948B000C948B0014
:100040000C94140B0C948B000C94E20A0C94BC0AD4
:100050000C948B000C948B000C948B000C948B00F4
:100060000C945E0B0C948B00000000002400270011
:100070002A0000000008000201000003040700003D
:1000800000000000000000000000230026002900FE
:1000900000000000250028002B00040404040404D0
:1000A0000404020202020202030303030303010227
:1000B00004081020408001020408102001020408F6
:1000C0001020F50C5C1611241FBECFEFD8E0DEBF68
:1000D000CDBF25E0A8EFB2E001C01D92AE36B20759
:1000E000E1F712E0A0E0B1E0E2E4F5E302C0059040
:1000F0000D92A83FB107D9F710E0C2E6D0E004C0E6
:100100002197FE010E949C18C136D107C9F70E94B1
:10011000400E0C94941A0C940000CF92DF92EF9250
:10012000FF92CF93DF93B0913F05A0E08111AB2FF9
:100130008091400590E0880F991FAC014A575F4FAE
:10014000C0904505D0904605E0904705F0904805E1
:1001500030E020E0FA01C591D491E881B90190E046
:1001600080E0EB23EA130AC02F5F3F4F6C157D053B
:100170008E059F0578F36FEF7FEFCB01DF91CF9175
:10018000FF90EF90DF90CF90089596E0899FD00187
:100190001124A954BB4F90967C936E935F9791E086
:1001A00091969C939197E0912405F091250590916B
:1001B0002305992339F0309751F0811108C08091BF
:1001C000D3040994309719F05C968C91FACF089576
:1001D000089508950895AF92BF92CF92DF92EF9263
:1001E000FF920F931F93CF93DF936C017B018B01E1
:1001F000040F151FEB015E01AE18BF08C017D10731
:1002000059F06991D601ED91FC910190F081E02DBA
:10021000C6010995892B79F7C501DF91CF911F910F
:100220000F91FF90EF90DF90CF90BF90AF90089527
:10023000FC01538D448D252F30E0842F90E0821BEC
:10024000930B541710F0CF96089501970895FC0171
:10025000918D828D981761F0A28DAE0FBF2FB11DC9
:100260005D968C91928D9F5F9F73928F90E0089521
:100270008FEF9FEF0895FC01918D828D981731F0DB
:10028000828DE80FF11D858D90E008958FEF9FEF2F
:100290000895FC01918D228D892F90E0805C9F4F05
:1002A000821B91098F739927089588E094E00E943A
:1002B000490121E0892B09F420E0822F089580E094
:1002C00090E0892B29F00E94550181110C940000C7
:1002D0000895FC01A48DA80FB92FB11DA35ABF4FDB
:1002E0002C91848D90E001968F739927848FA68935
:1002F000B7892C93A089B1898C91837080648C9389
:10030000938D848D981306C00288F389E02D808137
:100310008F7D80830895EF92FF920F931F93CF9369
:10032000DF93EC0181E0888F9B8D8C8D98131AC030
:10033000E889F989808185FF15C09FB7F894EE8917
:10034000FF896083E889F989808183708064808374
:100350009FBF81E090E0DF91CF911F910F91FF90BF
:10036000EF900895F62E0B8D10E00F5F1F4F0F7367
:100370001127E02E8C8D8E110CC00FB607FCFACF22
:10038000E889F989808185FFF5CFCE010E94690156
:10039000F1CFEB8DEC0FFD2FF11DE35AFF4FF082F3
:1003A0009FB7F8940B8FEA89FB8980818062CFCF59
:1003B000CF93DF93EC01888D8823B9F0AA89BB899C
:1003C000E889F9898C9185FD03C0808186FD0DC087
:1003D0000FB607FCF7CF8C9185FFF2CF808185FFA8
:1003E000EDCFCE010E946901E9CFDF91CF91089551
:1003F000833081F028F4813099F08230A9F008959B
:100400008730A9F08830C9F08430B1F48091800041
:100410008F7D03C0809180008F7780938000089546
:1004200084B58F7784BD089584B58F7DFBCF80918F
:10043000B0008F778093B00008958091B0008F7DD9
:10044000F9CFCF93DF93282F30E0F901EE58FF4F1B
:100450008491F901E255FF4FD491F901E656FF4F1F
:10046000C491CC23A1F081110E94F801EC2FF0E09F
:10047000EE0FFF1FEA57FF4FA591B491EC91ED23CA
:1004800081E090E009F480E0DF91CF91089580E071
:1004900090E0FACF1F93CF93DF93282F30E0F9013C
:1004A000EE58FF4F8491F901E255FF4FD491F901C5
:1004B000E656FF4FC491CC23A9F0162F81110E945C
:1004C000F801EC2FF0E0EE0FFF1FE057FF4FA59172
:1004D000B4918FB7F894EC91111108C0D095DE2338
:1004E000DC938FBFDF91CF911F910895DE2BF8CF62
:1004F000CF93DF9390E0FC01E255FF4F24918656A5
:100500009F4FFC0184918823C9F090E0880F991FC8
:10051000FC01E859FF4FA591B491FC01E057FF4F52
:10052000C591D49161110DC09FB7F8948C9120951D
:1005300082238C938881282328839FBFDF91CF91CA
:100540000895623051F49FB7F8943C91822F8095C2
:1005500083238C93E8812E2BEFCF8FB7F894EC9107
:100560002E2B2C938FBFEACF3FB7F8948091810355
:1005700090918203A0918303B091840326B5A89B38
:1005800005C02F3F19F00196A11DB11D3FBFBA2F25
:10059000A92F982F8827BC01CD01620F711D811DE5
:1005A000911D42E0660F771F881F991F4A95D1F76A
:1005B00008958F929F92AF92BF92CF92DF92EF9267
:1005C000FF924B015C010E94B4026B017C010E940E
:1005D000B4026C197D098E099F09683E734081053C
:1005E0009105A8F321E0821A9108A108B10888EECC
:1005F000C80E83E0D81EE11CF11C81149104A104F3
:10060000B10429F7FF90EF90DF90CF90BF90AF90AB
:100610009F908F9008952FB7F89460917D0370910B
:100620007E0380917F03909180032FBF0895CF9226
:10063000DF92EF92FF920F931F93CF93DF93CDB78B
:10064000DEB7C054D1400FB6F894DEBF0FBECDBFA9
:100650000E940B0300914105109142052091430532
:10066000309144056B017C01C01AD10AE20AF30AF9
:1006700097018601003D17402105310590F48091D6
:100680004905C05CDE4F0FB6F894DEBF0FBECDBF8C
:10069000DF91CF911F910F91FF90EF90DF90CF905E
:1006A00008956093410570934205809343059093AC
:1006B000440510923C0510923B0510923A051092A9
:1006C00039051092380562E080913D050E9478025C
:1006D00061E070E080E090E00E94D90261E08091EA
:1006E0003D050E94780260E080913D050E944A022B
:1006F00080913E058551823020F58BE291E1019792
:10070000F1F762E080913D050E94780280914A05F0
:1007100090E08230910538F0880F991F880F991F5B
:1007200005970197F1F7F89480E00E948D006F3FE4
:100730007F4F8F4F9F4F61F410924905789480E06E
:10074000A0CF64E170E080E090E00E94D902D9CFB0
:1007500081E00E948D006F3F7F4F8F4F9F4F61F36D
:100760008E010F5F1F4F6E012FEBC21A2EEFD20AC0
:10077000780180E00E948D00F7016083718382839D
:10078000938381E00E948D00F701648375838683E3
:100790009783F8E0EF0EF11CEC14FD0451F7789408
:1007A00030E020E0F801C080D180E280F380448115
:1007B000558166817781FFEFCF16DF06EF06FF06D2
:1007C00031F04F3F8FEF58076807780719F4109200
:1007D0004905B5CFF90183E0F595E7958A95E1F7ED
:1007E000E85CFA4F8081880FC416D506E606F70646
:1007F00010F180832F5F3F4F085F1F4F2832310574
:1008000089F640913C052091380580913905280FE3
:100810003327331F80913A05280F311D80913B0506
:10082000820F932F911D99274817190681F681E0B1
:100830008093490526CF8160DCCF0F931F93CF9320
:10084000DF93C82FD62F86E0C89FF0011124E9540A
:10085000FB4F11A2878D90A181309105F1F058F0E6
:1008600082309105F1F1039709F440C0DF91CF91F7
:100870001F910F9108956623C9F361E070E08C2FFA
:100880000E94C5000E940B0360930F057093100532
:100890008093110590931205E9CF0E940B030091FC
:1008A0000F05109110052091110530911205AB0133
:1008B000BC01401B510B620B730B80912105909181
:1008C0002205B0E0A0E084179507A607B70748F413
:1008D00062E070E08C2FDF91CF911F910F910C940B
:1008E000C50063E070E0D111C1CFF4CF70E060E0EB
:1008F000F1CF0895862F0C942102862F642F0C943B
:100900004A02862F642F0C94780220915903260FF7
:100910003327331F21323105ECF42091DE03FC0133
:1009200090E080E0243069F082E00895A0915903BE
:100930002191AC01475C5C4FA40FB52FB11D2C93E6
:100940000196861798F380915903680F60935903B5
:1009500080E0089581E008951092DE0381E08093A5
:10096000DD031092B80361E082E10E944A0261E077
:1009700083E10E944A02E9EBF0E080818E7F808370
:1009800080818D7F808388E48093B80085E48093A4
:10099000BC000895CF93DF9391E0909338038823B0
:1009A000B9F0C091B800D091BA008091BC008A7BA8
:1009B0008093BC0060E082E10E944A0260E083E133
:1009C0000E944A020E94AC04D093BA00C093B800BF
:1009D000DF91CF9108958F929F92AF92BF92CF9265
:1009E000DF92EF92FF920F931F93CF93DF93D091FB
:1009F0000704D13208F0D7C0182FC09106040E9416
:100A0000B4026B017C018091DE0381116BC082E036
:100A10008093DE031093DD038FEF8093DC0310924D
:100A2000DB03D093DA03A6EEB3E0EAEBF3E080E079
:100A3000D81391C01092B9038091B903CC0FC82B81
:100A4000C093B9038091B803813009F088C0109237
:100A5000B8030E94B4026B017C018091B9038093BA
:100A6000BB008091E0039091E103A091E203B0917B
:100A7000E303892B8A2B8B2BA1F00E94B4020091F7
:100A8000E0031091E1032091E2033091E3036C193C
:100A90007D098E099F09061717072807390708F4EB
:100AA00042C08091BC0083FDD8CF85EC8093BC0010
:100AB0000E94B4026B017C018091DE03823009F454
:100AC00050C08091DC038F3F09F46FC08091DC033C
:100AD000803209F46CC08091DC03803309F469C072
:100AE00084E026C08091E0039091E103A091E203AD
:100AF000B091E303892B8A2B8B2B09F484CF0E94BE
:100B0000B4028090E0039090E103A090E203B090E3
:100B1000E3036C197D098E099F0986169706A806BE
:100B2000B90608F070CF8091DF030E94CA0485E007
:100B30001092E503109207041092E403DF91CF9125
:100B40001F910F91FF90EF90DF90CF90BF90AF90EB
:100B50009F908F9008959D9191938F5F69CF85EEBF
:100B6000A5CF8091E0039091E103A091E203B091C1
:100B7000E303892B8A2B8B2B09F49ECF0E94B402AE
:100B80000091E0031091E1032091E2033091E3032F
:100B90006C197D098E099F09061717072807390761
:100BA00008F08ACFC0CF81E0C3CF80E0C1CF82E020
:100BB000BFCF83E0BDCFEF92FF920F931F93CF93F0
:100BC000DF93EC018B017C0183E7E80EF11CD70178
:100BD0008D919C91FE01E159FF4F208131E03093CE
:100BE000E403209306041092E50310920704DC014D
:100BF000ED91FC910190F081E02D0995FE01E05905
:100C0000FF4F8081823058F0F70180819181DC01B3
:100C1000ED91FC910190F081E02D612F099581E02B
:100C20000E94EB04CF58DF4F08831983DF91CF91E7
:100C30001F910F91FF90EF90089521E030E002C0E6
:100C4000220F331F6A95E2F7FC01EF58FF4F6081D6
:100C50007181442341F0262B372B3183208360811F
:100C600071810C94DB052095309526233723F5CF31
:100C7000CF92DF92EF92FF920F931F93CF93DF9368
:100C8000D82FC62F613208F098C00E94B4026B01C1
:100C90007C018091DE0381116BC081E08093DE03D3
:100CA0008093DD039FEF9093DC031092DB039C0F96
:100CB0009093DA038093B9038091B903DD0FD82BA9
:100CC000D093B9038091B803813009F078C01092B5
:100CD000B8030E94B4026B017C018091B903809338
:100CE000BB008091E0039091E103A091E203B091F9
:100CF000E303892B8A2B8B2BA1F00E94B402009175
:100D0000E0031091E1032091E2033091E3036C19B9
:100D10007D098E099F09061717072807390708F468
:100D200048C08091BC0083FDD8CF85EC8093BC0087
:100D30000E94B4026B017C018091DE03813009F4D2
:100D400040C08091DB038C1710F4C091DB03EAEB09
:100D5000F3E0A8E9B3E080E08C1355C08C2FDF915D
:100D6000CF911F910F91FF90EF90DF90CF9008955A
:100D70008091E0039091E103A091E203B091E3033D
:100D8000892B8A2B8B2B09F484CF0E94B40200910B
:100D9000E0031091E1032091E2033091E3036C1929
:100DA0007D098E099F09061717072807390708F0DC
:100DB00070CF8091DF030E94CA04C0E0CFCF85EEE0
:100DC000B5CF8091E0039091E103A091E203B0914F
:100DD000E303892B8A2B8B2B09F4AECF0E94B4023C
:100DE0000091E0031091E1032091E2033091E303CD
:100DF0006C197D098E099F090617170728073907FF
:100E000008F09ACFD6CF91919D938F5FA5CF08958B
:100E1000E0918E0380918D03E81730F4F0E0E856FE
:100E2000FC4F808190E008958FEF9FEF089590919F
:100E30008E0380918D032FEF3FEF981748F4E92F31
:100E4000F0E0E856FC4F208130E09F5F90938E03E6
:100E5000C901089580918D0390918E03891B990B90
:100E60000895CF92DF92EF92FF920F931F93CF934B
:100E7000DF937C01CB018A012091E403222389F0D6
:100E8000EB016B01C40ED51ECC15DD0569F069912F
:100E9000D701ED91FC910190F081E02DC7010995FA
:100EA000F3CF642F0E948504C801DF91CF911F9179
:100EB0000F91FF90EF90DF90CF900895CF93DF9345
:100EC0001F92CDB7DEB769832091E4032223F9F0A6
:100ED00020910704203258F021E030E0FC013383F8
:100EE000228390E080E00F90DF91CF910895809170
:100EF000E503E82FF0E0EA51FC4F998190838F5F82
:100F00008093E5038093070481E090E0ECCF61E0FB
:100F1000CE0101960E948504F7CFFC01248131E0C7
:100F20003093E403209306041092E5031092070423
:100F30008385682B8BEA94E00E945E0781E00C9425
:100F4000EB0420918703309188032817390771F447
:100F50009091850380918603981741F0E091850375
:100F6000F0E0E850FD4F808190E008958FEF9FEF13
:100F70000895EF92FF920F931F93CF93DF93DC01BD
:100F80005C96ED90FC905D97E114F10479F481E0BA
:100F900090E013969C938E93129790E080E0DF91FF
:100FA000CF911F910F91FF90EF9008955196ED9181
:100FB000FC91529750968C915097982F90950FB71F
:100FC0005E962C915E97122F127021FD6095F89419
:100FD0002081112319F1282B2083E7012197F1F7B4
:100FE00028E0462F50E0308160FF1AC0382B308354
:100FF000E7012197F1F7BA0175956795215089F7B7
:10100000112381F08081892380830FBF5C968D91AD
:101010009C910197F1F781E090E0C1CF2923DCCFCB
:101020003923E5CF9081892BEFCF20918703309131
:1010300088032817390771F480918603209185036E
:1010400090E0805C9F4F821B910960E470E00E94F9
:101050007418089590E080E00895209187033091FE
:10106000880328173907B9F4909185038091860386
:10107000981789F0E0918503F0E0E850FD4F8081FA
:101080002091850330E02F5F3F4F2F73332720934C
:10109000850390E008958FEF9FEF089590E080E042
:1010A00008950F931F93CF938C01C62F0E948D0735
:1010B0006C2F6460C8010E948D076C2F6B7FC80184
:1010C0000E948D0783EC90E00197F1F7CF911F917B
:1010D0000F9108950F931F93CF93DF938C01D62F19
:1010E000C42F607F642B0E94510880E1D89FB0011B
:1010F00011246C2BC801DF91CF911F910F910C949B
:10110000510840E061E08CE295E00E946A088BE3C0
:101110009FE10197F1F70895CF93DF93CDB7DEB745
:1011200028970FB6F894DEBF0FBECDBF98E0E8E079
:10113000F1E0DE01119601900D929A95E1F7909100
:101140003405961710F46FEF690F262F30E0220F49
:10115000331F41E050E04C0F5D1F240F351FF90194
:101160006081680F606840E08CE295E028960FB6D9
:10117000F894DEBF0FBECDBFDF91CF910C946A080B
:10118000CF93DF93EA010E948C084C815D816881D6
:1011900079818CE295E0DF91CF910C94EB0041E0F6
:1011A0000E946A0881E090E00895CF92DF92EF926A
:1011B000FF920F931F93CF93DF93EC0181E090E0B8
:1011C0007C0102C0EE0CFF1C6A95E2F76E0180E71D
:1011D000C80ED11CD6016C91613208F060E2FE01AC
:1011E000E159FF4F80810E94380610928E03809350
:1011F0008D03CD58DF4F88819981DC01ED91FC9101
:101200000284F385E02D09958C01F60180818230FE
:1012100060F088819981DC01ED91FC910284F38575
:10122000E02D099520E0022B182B0E211F2181E0D3
:1012300090E00E151F0511F090E080E0DF91CF9156
:101240001F910F91FF90EF90DF90CF90089542E0B3
:1012500050E06FE671E08BE495E00C94EB00CF93E7
:10126000DF93FC0101900020E9F73197AF01481BA3
:10127000590BBC018BE495E00E94EB00EC010E944D
:1012800027098C0F9D1FDF91CF910895CF93DF9396
:101290006AE18BE495E00E94B907EC010E942709FE
:1012A0008C0F9D1FDF91CF910895CF93DF93FC01A9
:1012B00044815581608171818BE495E00E94EB004F
:1012C000EC010E9427098C0F9D1FDF91CF9108959B
:1012D0000F931F93CF93DF93EC018881998100973F
:1012E00059F02A813B812617370730F081E0DF91E2
:1012F000CF911F910F9108958B016F5F7F4F0E94D7
:10130000C719009759F0998388831B830A832C811E
:101310003D81232B59F7FC011082E8CF80E0E7CF15
:10132000EF92FF920F931F93CF93DF936115710597
:1013300041F480E0DF91CF911F910F91FF90EF90EA
:10134000089541155105B1F07B01EC010C811D811F
:10135000040F151FB8010E946809882351F32881E2
:1013600039818C819D81B701820F931F0E948D1A54
:101370001D830C8381E0DECFCF93DF93EC01888166
:101380009981009711F00E943E19198218821D82DE
:101390001C821B821A82DF91CF910895CF93DF9335
:1013A000EC01FB0101900020E9F73197AF01461BEA
:1013B000570B0E949009811103C0CE010E94BC0905
:1013C000CE01DF91CF910895CF93DF93EC01FB0124
:1013D00044815581608171810E949009811103C00F
:1013E000CE010E94BC09CE01DF91CF910895EF920A
:1013F000FF920F931F93CF93DF93EC017B018A0140
:10140000BA010E94680981110BC0CE010E94BC097B
:10141000CE01DF91CF911F910F91FF90EF90089532
:101420001D830C83B701888199810E948D1AF0CFAA
:10143000EF92FF920F931F93CF93DF93CDB7DEB759
:1014400029970FB6F894DEBF0FBECDBF8C01862F53
:10145000F8011182108213821282158214824AE0EE
:101460009E012F5F3F4F7901B90190E00E947C16E9
:10147000F70101900020E9F73197AF014E195F099C
:10148000B701C8010E94F70929960FB6F894DEBF8C
:101490000FBECDBFDF91CF911F910F91FF90EF90C5
:1014A0000895FB01DC0111961C921E9213961C926A
:1014B0001E92129715961C921E92149786179707E4
:1014C00049F0608171816115710521F04481558178
:1014D0000C94F7090895FC01118210821382128284
:1014E00015821482FB0101900020E9F73197AF01CA
:1014F000461B570B0C94F709FC01808191810097E2
:1015000011F00C943E19089585ED8093BC008091F4
:10151000E0039091E103A091E203B091E303079609
:10152000A11DB11D23E0B695A795979587952A959E
:10153000D1F72091BC0024FD03C01092DE03089572
:101540004091E0035091E1036091E2037091E30365
:10155000452B462B472B69F30097A105B10541F0B8
:1015600025E32A95F1F700000197A109B109E1CF20
:101570008091DF030C94CA041F920F920FB60F9252
:1015800011242F933F934F935F936F937F938F9388
:101590009F93AF93BF93EF93FF9388E094E00E94F3
:1015A0006901FF91EF91BF91AF919F918F917F91D1
:1015B0006F915F914F913F912F910F900FBE0F90C0
:1015C0001F9018951F920F920FB60F9211242F9310
:1015D0008F939F93EF93FF93E0911804F091190478
:1015E0008081E0911E04F0911F0482FD1BC0908158
:1015F000809121048F5F8F7320912204821741F024
:10160000E0912104F0E0E85FFB4F958F8093210487
:10161000FF91EF919F918F912F910F900FBE0F909F
:101620001F9018958081F4CF1F920F920FB60F92E2
:1016300011242F933F938F939F93AF93BF938091E8
:101640007D0390917E03A0917F03B0918003309140
:101650007C0323E0230F2D3758F50196A11DB11D02
:1016600020937C0380937D0390937E03A0937F035C
:10167000B09380038091810390918203A0918303B2
:10168000B09184030196A11DB11D809381039093B5
:101690008203A0938303B0938403BF91AF919F9182
:1016A0008F913F912F910F900FBE0F901F90189523
:1016B00026E8230F0296A11DB11DD2CF1F920F92D3
:1016C0000FB60F9211242F933F934F935F936F9315
:1016D0007F938F939F93AF93BF93EF93FF938091EB
:1016E000B900887F803609F44AC0F0F5883209F4E1
:1016F000A7C018F5803109F49BC0B8F4882309F419
:10170000F9C0883009F494C0FF91EF91BF91AF9177
:101710009F918F917F916F915F914F913F912F9109
:101720000F900FBE0F901F901895883109F488C054
:10173000803251F78093DC0314C0803409F49DC0DB
:1017400040F48033B9F38833F9F68093DC0385ECF9
:10175000B0C0803509F485C0883509F496C0883456
:1017600099F60E94840AD0CF883909F48CC038F5E4
:10177000883729F050F4883611F0803729F683E055
:101780008093DE0310927B0357C0883809F47BC036
:10179000803919F0803809F0B7CF80917B0380320F
:1017A00008F071C0E0917B0381E08E0F80937B0392
:1017B0008091BB00F0E0E55AFC4F80833DC0803B48
:1017C00039F0E0F4803A09F479C0883A09F09CCF06
:1017D00084E08093DE0310925A0310925903E09143
:1017E0008B03F0918C0309958091590381110FC0EF
:1017F00081E0809359031092390309C0803C09F4B9
:10180000A6CF883C09F4A3CF883B09F07DCFE091B7
:101810005A0381E08E0F80935A03F0E0E75CFC4F9F
:1018200080818093BB0090915A038091590329C015
:101830008091B9038093BB0085EC8093BC0064CF9A
:101840009091DB038091DA03981758F5E091DB0360
:1018500081E08E0F8093DB03F0E0E654FC4F808143
:10186000E9CFE091DB0381E08E0F8093DB03809171
:10187000BB00F0E0E654FC4F80839091DB03809145
:10188000DA039817C8F285E8D8CFE091DB0381E04E
:101890008E0F8093DB038091BB00F0E0E654FC4F99
:1018A00080838091DD0381115CCF81E08093B80358
:1018B00084EA8093BC001092DE0326CF85EC8093EF
:1018C000BC001092DE0380917B03803230F4E09103
:1018D0007B03F0E0E55AFC4F108260917B0370E0DF
:1018E000E0918903F0918A038BE593E009951092CA
:1018F0007B030ACF1092DC0334CF1F920F920FB6F6
:101900000F9211242F933F934F935F936F937F9385
:101910008F939F93AF93BF93EF93FF93E0918703D0
:10192000F0918803309749F0A685B7858585968D17
:1019300091FF14C09C918923A1F4FF91EF91BF9175
:10194000AF919F918F917F916F915F914F913F9157
:101950002F910F900FBE0F901F9018959C91892387
:1019600061F7A389B4899C918589809589238C939B
:10197000868997890197F1F7608D718DA685B78566
:10198000558538E020E0CB010197F1F7822F90E0F8
:1019900095958795282F4C91452309F02068315063
:1019A00091F7868D81FD20958091860390E00196C8
:1019B0008F73992730918503381799F0A09186038A
:1019C000B0E0A850BD4F2C9380938603828D938DF9
:1019D0000197F1F7A389B4898C919589892B8C9310
:1019E000ACCF868D8160868FF1CF10920B04109260
:1019F0000A0488EE93E0A0E0B0E080930C0490939A
:101A00000D04A0930E04B0930F0424E131E0309351
:101A100009042093080425EC30E03093150420934A
:101A2000140424EC30E0309317042093160420ECC7
:101A300030E0309319042093180421EC30E0309307
:101A40001B0420931A0422EC30E030931D042093F1
:101A50001C0426EC30E030931F0420931E041092E7
:101A60002104109222041092230410922404109254
:101A7000AE041092AD048093AF049093B004A09391
:101A8000B104B093B20426E231E03093AC04209369
:101A9000AB0410924E0510924D0580934F05909324
:101AA0005005A0935105B093520584E491E09093C2
:101AB0004C0580934B0510926205109261051092BF
:101AC00064051092630510926605109265051092E8
:101AD000680510926705609169056E7F6D7F609360
:101AE00069056695617081E0682787E00E944A0277
:101AF00061E087E00E947802E5EBF0E0E491E0939A
:101B00005B05E1EAF0E0E491F0E0EE0FFF1FE05743
:101B1000FF4F8591949190935D0580935C0560E003
:101B200086E10E9478028091690581FD04C061E030
:101B300086E10E944A0286E180935705E4ECF0E0DA
:101B4000E491E0935805E0EBF0E0E491F0E0EE0F73
:101B5000FF1FEA57FF4F8591949190935A05809308
:101B6000590586E080933D058BE080933E05E4EBCC
:101B7000F0E0E491E0933F05E0EAF0E0E491E093E7
:101B8000400580E89EE3A0E0B0E080934505909397
:101B90004605A0934705B093480510922F05109273
:101BA0002E0588E391E090932D0580932C0580E22B
:101BB0008093300584E18093350584E08093360579
:101BC000109237051092B9041092BD041092BC0413
:101BD0001092BE04E3EDF4E08FE095E010821482F1
:101BE0001382158236968E179F07C1F78FE591E015
:101BF00090931A05809319058CE591E090931C054C
:101C000080931B0584E080931D0583E080931E056F
:101C100083E691E090931805809317058AE090E0A1
:101C20009093200580931F0584EF91E09093220507
:101C3000809321051092250510922405109213051A
:101C40001092140510921505109216051092230596
:101C500086E591E09093B8048093B70481E2809385
:101C6000260581E0809327058BEA94E090932B056D
:101C700080932A0562E771E085EA94E00C946B0A90
:101C8000CF93DF93CDB7DEB762970FB6F894DEBF80
:101C90000FBECDBF789484B5826084BD84B5816069
:101CA00084BD85B5826085BD85B5816085BD809127
:101CB0006E00816080936E0010928100809181009F
:101CC0008260809381008091810081608093810097
:101CD000809180008160809380008091B100846059
:101CE0008093B1008091B00081608093B0008091BA
:101CF0007A00846080937A0080917A008260809379
:101D00007A0080917A00816080937A0080917A00D5
:101D1000806880937A001092C100E0911804F091DD
:101D2000190482E08083E0911404F091150410827C
:101D3000E0911604F09117048FEC80831092200438
:101D4000E0911C04F0911D0486E08083E0911A0468
:101D5000F0911B04808180618083E0911A04F091EE
:101D60001B04808188608083E0911A04F0911B0439
:101D7000808180688083E0911A04F0911B04808147
:101D80008F7D808360E08CE00E94780260E08BE0D1
:101D90000E94780260E088E00E94780260E08AE0B9
:101DA0000E94780260E089E00E94780260E086E0AC
:101DB0000E94780261E082E00E94780261E083E0A4
:101DC0000E94780261E084E00E94780261E08DE088
:101DD0000E94780261E085E00E9478021092660518
:101DE00010926505109264051092630510926205C9
:101DF000109261058DE991E09093680580936705E5
:101E000090915705963108F047C02DEB30E03093A4
:101E10006205209361052BE931E03093640520933E
:101E200063052CE231E0309366052093650520912F
:101E3000680084E0983048F031E09E3008F430E0EB
:101E400081E001C0880F3A95EAF7822B8093680001
:101E50002DE630E0983050F02BE630E09E3030F048
:101E60002CE630E0963110F030E020E030935F0552
:101E700020935E05292F30E0983008F0E0C181E022
:101E800001C0880F9A95EAF78093600580916705F5
:101E9000909168050197F1F780916505909166052D
:101EA000892B49F1E0918703F091880385E0EB34B9
:101EB000F80709F1309739F0A389B4899C91858995
:101EC000809589238C93809169058E7F8093690525
:101ED00010928603109285038BE495E0909388031B
:101EE00080938703E0915E05F0915F05808190917A
:101EF0006005892B808384E791E00E942F0962E0CE
:101F000080913D050E9478020E940B03605D77403E
:101F100081099109609341057093420580934305BF
:101F20009093440587E380934A0510928E031092A4
:101F30008D031092E503109207040E94AC0489EE11
:101F400090E090938C0380938B038AEE90E09093C3
:101F50008A0380938903109231058091360582307F
:101F600018F098E0909331058093340562E370E0B7
:101F700080E090E00E94D902609137058CE295E004
:101F80000E948D0768EE73E080E090E00E94D90225
:101F900060E38CE295E00E9451080BE416E4C8016E
:101FA0000197F1F760E38CE295E00E945108C801C7
:101FB0000197F1F760E38CE295E00E94510883E518
:101FC00092E00197F1F760E28CE295E00E945108FF
:101FD00060913105606240E08CE295E00E946A0801
:101FE00084E08093320540E06CE08CE295E00E9452
:101FF0006A080E94810882E08093330540E066E031
:102000008CE295E00E946A0840E062E08CE295E094
:102010000E946A088BE39FE10197F1F788E08093C3
:10202000370560E08CE295E00E948D0783E691E041
:1020300090931805809317056FEF7FEF87EB94E07F
:102040000E94DB0560912705613208F060E2809113
:1020500026050E94380610928E0380938D0380918E
:102060002A0590912B05DC01ED91FC910284F3850A
:10207000E02D0995909329058093280580912705E7
:102080008230B8F080912A0590912B05DC01ED910A
:10209000FC910284F385E02D099520E0382F809192
:1020A000280590912905822B932B909329058093E5
:1020B0002805412C512C3201439436E0232E809187
:1020C0009703811190C167E771E0CE0101960E94EC
:1020D0006B0AAE014F5F5F4F61E070E087E090E018
:1020E0000E94C008CE0101960E947C0A68EE73E04F
:1020F00080E090E00E94D9020E94810860E871E0CF
:10210000CE0101960E946B0AAE014F5F5F4F70E0F7
:1021100060E082E090E00E94C008CE0101960E943B
:102120007C0A62E971E0CE0101960E946B0AAE0161
:102130004F5F5F4F61E070E086E090E00E94C00872
:10214000CE0101960E947C0A62E771E0CE01019601
:102150000E946B0AAE014F5F5F4F62E070E090E05B
:1021600080E00E94C008CE0101960E947C0A62E0D5
:1021700081E00E948C0833243394309223050E941E
:102180000B03009113051091140520911505309152
:102190001605AB01BC01401B510B620B730B809108
:1021A0001F0590912005B0E0A0E084179507A607D1
:1021B000B70718F7912C80911E05981608F060C09B
:1021C000C92CD12CE0911B05F0911C05EC0DFD1DD7
:1021D00040E0608187EB94E00E941D06D301C201BC
:1021E000092C04C0880F991FAA1FBB1F0A94D2F79D
:1021F0005C017C01E094F094812C80911D0588168F
:1022000080F5082D10E0E0911905F0911A05E00F16
:10221000F11F608187EB94E00E94D5080C5F1F4F8F
:10222000000F111FF801E954FB4F892BA9F480819D
:1022300091818A299B29918380838394DECF9E306C
:1022400040F42850310981E001C0880F2A95EAF74F
:102250001BCE2E503109F7CF808191818E219F2195
:10226000EACF80911B0590911C05C80ED91E41E054
:10227000F601608187EB94E00E941D0693949BCF4A
:1022800007EB14E07801D7015F968D919C919097B0
:10229000892B59F45C961C925C97EFEFFFEF5E96EA
:1022A000FC93EE935D9791961C92F6E0EF0EF11C75
:1022B00083EF94E08E159F0531F7B12C80911D05B9
:1022C000B81608F052C0A12CCB2CD12CCC0CDD1CA4
:1022D000D601A154BB4F6D0120911E05A21608F036
:1022E00042C0F601608171810A2C02C07695679523
:1022F0000A94E2F7B29E900111242A0D311DE7EBFA
:10230000F4E080E0458D568D2417350709F47AC432
:102310008F5F36968A30B1F760FF23C0E7EBF4E0B9
:1023200090E080E0448D411117C0E0911705F091D5
:102330001805E20FF31F4081289EF001299EF00D41
:102340001124E954FB4F448F368F258F10A2178E2E
:1023500061E00E941D0405C0019636968A30910501
:1023600009F7A394B9CFB394A9CFD12CD8019196F2
:102370008C918111D82E0A5F1F4FE016F106B1F73C
:102380000E940B0360931305709314058093150549
:1023900090931605DD2009F4F0CE8091D8048823AF
:1023A00009F4EBCE8091D6049091D704019709F0FF
:1023B000E4CE1091D304112309F4DFCE133209F4D3
:1023C00023C419831A8241E050E0BE016F5F7F4F42
:1023D00085EA94E00E94900941E0612F8CE295E04B
:1023E0000E946A08CACE8BE00E942102882E809348
:1023F00090038AE00E942102A82E8093920389E034
:102400000E942102B82E8093930388E00E9421024B
:10241000382E80938F038CE00E942102982E8093A7
:1024200091030E941703882349F080913E058B3069
:1024300028F08D3040F085518230B8F160E070E0D6
:1024400080EC9FE71CC06091390570E090E080E06F
:102450000E94A8162DEC3CEC4CEC5DE30E94E316C8
:102460006B017C016091380570E090E080E00E9493
:10247000A8169B01AC01C701B6010E94D9170E94A2
:102480004518062F609396030E941703882341F096
:1024900080913E058C3009F4C6C0C8F48B3081F1C0
:1024A00060E070E080EC9FE753C060913805709168
:1024B000390576276727762790E080E00E94A616E8
:1024C0002DEC3CEC4CEC5DE30E94E316D8CF85513B
:1024D000823030F710913A05612F70E0762F662731
:1024E00066277F7780913B05682B90E080E00E9413
:1024F000A6162DEC3CEC4CEC5DE30E94E316AFC05D
:1025000060913A0570E090E080E00E94A6166B01B1
:102510007C0110913B0517FF0AC0AC019B0160E0F4
:1025200070E080E89FEB0E94D8176B017C011F7060
:10253000612F70E090E080E00E94A8162DEC3CEC4A
:102540004CEC5DE30E94E316A70196010E94D917A7
:102550000E94451860939403B1E084E090E03B163C
:1025600009F486C0E1E082E090E08E1609F480C0B4
:10257000F1E083E090E09F1609F47AC081E0A812B0
:1025800072C0109201011092000161E082E00E948D
:102590004A0261E08DE00E944A0260E083E00E940E
:1025A0004A0260E084E00E944A0261E085E00E9405
:1025B0004A0280910001909101018230910509F455
:1025C0007AC108F0CEC0009709F40EC1019709F452
:1025D0005AC180919503811113C08091000190919F
:1025E00001018230910509F441C208F09FC10097B2
:1025F00009F402C2019709F41CC281E0809395039B
:1026000068EE73E080E090E00E94D90280E090E004
:10261000892B09F454CD0E945501882309F44FCD2C
:102620000E9400004ACD10913A05612F70E090E0C1
:1026300080E00E94A6166B017C0160913B056F70E3
:1026400070E090E080E00E94A8162DEC3CEC4CEC91
:102650005DE30E94E316A70196010E94D91717FFB8
:1026600077CF905875CF91E0B91207C081E090E024
:10267000909301018093000188CF85E090E069325A
:10268000B8F7013508F42CC261E084E00E944A02E8
:1026900060E083E00E944A0260E082E00E944A0219
:1026A00060E08DE00E944A0260E085E00E944A02FC
:1026B0000E94810860E5CE0107960E94180A6BE827
:1026C00072E0CE010D960E946B0ABE01695F7F4FDA
:1026D000CE010D960E94E4096DE972E00E94CE09D8
:1026E000BC01CE0101960E94510AAE014F5F5F4FBF
:1026F00070E060E090E080E00E94C008CE010196AA
:102700000E947C0ACE010D960E947C0ACE0107969B
:102710000E947C0A6FE972E0CE0101960E946B0A6A
:10272000AE014F5F5F4F61E070E085E090E00E9496
:10273000C008CE0101960E947C0A6BEA72E0CE01CD
:1027400001960E946B0AAE014F5F5F4F62E070E03E
:1027500085E090E00E94C008CE0101960E947C0AAC
:102760004FCF84309105E9F008F4C8C0059709F00F
:1027700030CF0E9481086AE971E0CE0101960E9483
:102780006B0AAE014F5F5F4F70E060E087E090E062
:102790000E94C008CE0101960E947C0A6DEB71E098
:1027A00017C00E9481086AE971E0CE0101960E947B
:1027B0006B0AAE014F5F5F4F70E060E087E090E032
:1027C0000E94C008CE0101960E947C0A6FEE71E063
:1027D000CE0101960E946B0AAE014F5F5F4F61E030
:1027E00070E082E090E022C00E9481086AE971E016
:1027F000CE0101960E946B0AAE014F5F5F4F70E001
:1028000060E087E090E00E94C008CE0101960E943F
:102810007C0A69E072E0CE0101960E946B0AAE016B
:102820004F5F5F4F61E070E083E090E00E94C0087E
:10283000CE0101960E947C0A63EA71E0CE01019606
:102840000E946B0AAE014F5F5F4F62E070E082E072
:1028500090E00E94C008CE0101960E947C0A64EBC1
:1028600071E0CE0101960E946B0AAE014F5F5F4F8F
:1028700063E070E087E090E00E94C008CE0101961E
:102880000E947C0AA6CE0E9481086AE971E0CE010E
:1028900001960E946B0AAE014F5F5F4F70E060E0EF
:1028A00087E090E00E94C008CE0101960E947C0A59
:1028B00062E272E08DCF0E9481086AE971E0CE0188
:1028C00001960E946B0AAE014F5F5F4F70E060E0BF
:1028D00087E090E00E94C008CE0101960E947C0A29
:1028E0006CE372E0CE0101960E946B0AAE014F5F6D
:1028F0005F4F61E070E081E090E098CF0E94810836
:102900006AE971E0CE0101960E946B0AAE014F5F49
:102910005F4F70E060E087E090E00E94C008CE0169
:1029200001960E947C0A68E572E0DCCF8430910554
:1029300009F441C008F4B7C0059709F05ECE8FECEA
:1029400091E00E942F0969ED71E0CE0101960E948D
:102950006B0A65EA74E0CE0101960E94E40963EE19
:1029600071E00E94CE090E945509CE0101960E9495
:102970007C0A60919403CE0101960E94180A6BE6CE
:1029800072E0CE0107960E946B0ABE016F5F7F4F17
:10299000CE0107960E94E40967E872E00E94CE0922
:1029A0000E945509CE0107960E947C0ACE0101962D
:1029B0000E947C0A1EC08FEC91E00E942F0969EDF5
:1029C00071E0CE0101960E946B0A65EA74E0CE01C7
:1029D00001960E94E40963EE71E00E94CE090E9414
:1029E0005509CE0101960E947C0A86EE91E00E9474
:1029F0002F090E94460901CE8FEC91E00E942F0919
:102A000069ED71E0CE0101960E946B0A65EA74E0FF
:102A1000CE0101960E94E40963EE71E00E94CE09A6
:102A20000E945509CE0101960E947C0A80E092E046
:102A3000DECF8FEC91E00E942F0969ED71E0CE01AD
:102A400001960E946B0A65EA74E0CE0101960E942D
:102A5000E40963EE71E00E94CE090E945509CE019F
:102A600001960E947C0A89E192E0C1CF8FEC91E04F
:102A70000E942F0969ED71E0CE0101960E946B0A58
:102A800065EA74E0CE0101960E94E40963EE71E00C
:102A90000E94CE090E945509CE0101960E947C0A2F
:102AA00083E392E0A4CF8FEC91E00E942F0969EDBF
:102AB00071E0CE0101960E946B0A65EA74E0CE01D6
:102AC00001960E94E40963EE71E00E94CE090E9423
:102AD0005509CE0101960E947C0A8FE492E087CFCF
:102AE00060E082E00E944A0260E08DE00E944A02BB
:102AF00060E084E00E944A0261E083E00E944A02B2
:102B000060E085E00E944A020E948108602FCE01A9
:102B100007960E94180A67EB72E0CE010D960E949C
:102B20006B0ABE01695F7F4FCE010D960E94E409DA
:102B30006DE972E00E94CE09BC01CE0101960E94AF
:102B4000510AAE014F5F5F4F70E060E090E080E0BF
:102B50000E94C008CE0101960E947C0ACE010D960B
:102B60000E947C0ACE0107960E947C0A6091940321
:102B7000CE0107960E94180A62EC72E0CE010D9613
:102B80000E946B0ABE01695F7F4FCE010D960E94C5
:102B9000E4098C018FED89831A8241E050E0BE0187
:102BA0006F5F7F4FC8010E949009811103C0C80167
:102BB0000E94BC0960ED72E0C8010E94CE09BC0110
:102BC000CE0101960E94510AAE014F5F5F4F61E056
:102BD00070E090E080E00E94C008CE0101960E9463
:102BE0007C0ACE010D960E947C0ACE0107960E94B7
:102BF0007C0A87E090E0909301018093000110929D
:102C00009503FECC6170A5CB0E94810862ED72E055
:102C1000CE0101960E946B0AAE014F5F5F4F70E0DC
:102C200060E084E090E00E94C008CE0101960E941E
:102C30007C0A65EA74E0CE0101960E94510AAE0159
:102C40004F5F5F4F61E070E084E090E00E94C00859
:102C5000CE0101960E947C0A60EE72E0CE010196E0
:102C60000E946B0AAE014F5F5F4F62E070E086E04A
:102C700090E00E94C008CE0101960E947C0A69EE95
:102C800072E0CE0101960E946B0AAE014F5F5F4F6A
:102C900063E070E084E090E00E94C008CE010196FD
:102CA0000E947C0A68EE73E080E090E00E94D90206
:102CB00081E080939703AACC85EA94E00E947C0A85
:102CC00084E491E090934C0580934B0580918703B9
:102CD000909188038B54954071F4E0915E05F091DA
:102CE0005F05908180916005809589238083109293
:102CF0008803109287030895BB27FB015527AA2755
:102D0000880F991FAA1FA41710F0A41B8395505178
:102D1000B9F7A05DAA3308F0A95DA193009779F7F0
:102D2000B111B1931192CB010C949616DC01FC0108
:102D3000672F71917723E1F7329704C07C916D93EF
:102D400070836291AE17BF07C8F30895E89409C075
:102D500097FB3EF490958095709561957F4F8F4FCE
:102D60009F4F9923A9F0F92F96E9BB279395F695E4
:102D7000879577956795B795F111F8CFFAF4BB0F62
:102D800011F460FF1BC06F5F7F4F8F4F9F4F16C0C6
:102D9000882311F096E911C0772321F09EE8872F50
:102DA000762F05C0662371F096E8862F70E060E00C
:102DB0002AF09A95660F771F881FDAF7880F969585
:102DC000879597F908950E94F6160C9467170E944C
:102DD000591738F00E94601720F0952311F00C94D9
:102DE00050170C94561711240C949B170E947817B7
:102DF00070F3959FC1F3950F50E0551F629FF0014E
:102E0000729FBB27F00DB11D639FAA27F00DB11D66
:102E1000AA1F649F6627B00DA11D661F829F2227EF
:102E2000B00DA11D621F739FB00DA11D621F839F76
:102E3000A00D611D221F749F3327A00D611D231F4C
:102E4000849F600D211D822F762F6A2F11249F579A
:102E500050409AF0F1F088234AF0EE0FFF1FBB1F9D
:102E6000661F771F881F91505040A9F79E3F51055C
:102E700080F00C9450170C949B175F3FE4F3983E3E
:102E8000D4F3869577956795B795F795E7959F5F06
:102E9000C1F7FE2B880F911D9695879597F9089598
:102EA00097F99F6780E870E060E008959FEF80ECFD
:102EB000089500240A9416161706180609060895A0
:102EC00000240A9412161306140605060895092E06
:102ED0000394000C11F4882352F0BB0F40F4BF2B75
:102EE00011F460FF04C06F5F7F4F8F4F9F4F0895B5
:102EF00057FD9058440F551F59F05F3F71F04795AB
:102F0000880F97FB991F61F09F3F79F0879508958F
:102F1000121613061406551FF2CF4695F1DF08C0AE
:102F2000161617061806991FF1CF869571056105CB
:102F300008940895E894BB2766277727CB0197F973
:102F400008952F923F924F925F926F927F928F924D
:102F50009F92AF92BF92CF92DF92EF92FF920F9328
:102F60001F93CF93DF93CDB7DEB7CA1BDB0B0FB632
:102F7000F894DEBF0FBECDBF09942A8839884888EF
:102F80005F846E847D848C849B84AA84B984C88485
:102F9000DF80EE80FD800C811B81AA81B981CE0F7C
:102FA000D11D0FB6F894DEBF0FBECDBFED01089561
:102FB0005058BB27AA270E94F0170C9467170E944D
:102FC000591738F00E94601720F039F49F3F19F428
:102FD00026F40C9456170EF4E095E7FB0C9450176A
:102FE000E92F0E94781758F3BA176207730784070E
:102FF000950720F079F4A6F50C949A170EF4E09555
:103000000B2EBA2FA02D0B01B90190010C01CA01A2
:10301000A0011124FF27591B99F0593F50F4503E4D
:1030200068F11A16F040A22F232F342F4427585F3F
:10303000F3CF469537952795A795F0405395C9F757
:103040007EF41F16BA0B620B730B840BBAF091500F
:10305000A1F0FF0FBB1F661F771F881FC2F70EC0AE
:10306000BA0F621F731F841F48F487957795679581
:10307000B795F7959E3F08F0B0CF9395880F08F06D
:103080009927EE0F9795879508950E94801788F0ED
:103090009F5798F0B92F9927B751B0F0E1F0660F1C
:1030A000771F881F991F1AF0BA95C9F714C0B1305D
:1030B00091F00E949A17B1E008950C949A17672F27
:1030C000782F8827B85F39F0B93FCCF3869577958C
:1030D0006795B395D9F73EF4909580957095619575
:1030E0007F4F8F4F9F4F089597FB072E16F4009444
:1030F00007D077FD09D00E94881807FC05D03EF460
:10310000909581959F4F0895709561957F4F089593
:10311000AA1BBB1B51E107C0AA1FBB1FA617B707FD
:1031200010F0A61BB70B881F991F5A95A9F7809519
:103130009095BC01CD010895EE0FFF1F0590F4910D
:10314000E02D09940F931F93CF93DF938230910565
:1031500010F482E090E0E0916C05F0916D0530E0B4
:1031600020E0B0E0A0E0309799F42115310509F492
:103170004AC0281B390B24303105D8F58A819B8140
:103180006115710589F1FB0193838283FE0111C0F2
:10319000408151810281138148175907E0F0481797
:1031A000590799F4109761F012960C9312971396A1
:1031B0001C933296CF01DF91CF911F910F9108950B
:1031C00000936C0510936D05F4CF2115310551F076
:1031D0004217530738F0A901DB019A01BD01DF0155
:1031E000F801C1CFEF01F9CF90936D0580936C0585
:1031F000CDCFFE01E20FF31F81939193225031094D
:1032000039832883D7CF20916A0530916B05232B12
:1032100041F4209104013091050130936B05209316
:103220006A0520910201309103012115310541F415
:103230002DB73EB74091060150910701241B350B75
:10324000E0916A05F0916B05E217F307A0F42E1BDD
:103250003F0B2817390778F0AC014E5F5F4F2417FA
:10326000350748F04E0F5F1F50936B0540936A057A
:10327000819391939FCFF0E0E0E09CCFCF93DF93D9
:103280000097E9F0FC01329713821282A0916C053D
:10329000B0916D05ED0130E020E01097A1F42081A0
:1032A0003181820F931F20916A0530916B05281799
:1032B000390709F061C0F0936B05E0936A05DF916F
:1032C000CF910895EA01CE17DF07E8F54A815B81C7
:1032D0009E0141155105B1F7E901FB83EA8349914C
:1032E0005991C40FD51FEC17FD0761F480819181BE
:1032F0000296840F951FE9019983888382819381C7
:103300009B838A83F0E0E0E012968D919C91139765
:103310000097B9F52D913C911197CD010296820F3E
:10332000931F20916A0530916B052817390739F6EC
:10333000309751F510926D0510926C05B0936B05A6
:10334000A0936A05BCCFD383C28340815181840F8F
:10335000951FC817D90761F44E5F5F4F8881998127
:10336000480F591F518340838A819B8193838283B5
:103370002115310509F0B0CFF0936D05E0936C0590
:103380009ECFFD01DC01C0CF13821282D7CFB0E007
:10339000A0E0EDECF9E10C94A3178C01009751F437
:1033A000CB010E94A2188C01C801CDB7DEB7E0E1C5
:1033B0000C94BF17FC01E60FF71F9C012250310946
:1033C000E217F30708F49DC0D901CD91DC91119764
:1033D000C617D70798F0C530D10530F3CE01049752
:1033E0008617970708F3C61BD70B2297C193D19373
:1033F0006D937C93CF010E943E19D6CF5B01AC1A2E
:10340000BD0A4C018C0E9D1EA0916C05B0916D05FE
:10341000512C412CF12CE12C109731F580916A054B
:1034200090916B058815990509F05CC04616570602
:1034300008F058C08091020190910301009741F477
:103440008DB79EB74091060150910701841B950BE3
:10345000E817F90708F055C0F0936B05E0936A058B
:10346000F90171836083A0CF8D919C911197129681
:103470006C90129713967C901397A815B90559F57F
:103480006C0142E0C40ED11CCA14DB0420F1AC0173
:103490004A195B09DA011296159780F062827382ED
:1034A00051834083D9016D937C93E114F10471F051
:1034B000D7011396FC93EE93129776CF22968C0F3A
:1034C0009D1FF90191838083F301EFCFF0936D0588
:1034D000E0936C0569CF4816590608F42C017D016C
:1034E000D3019ACFCB010E94A2187C01009749F02A
:1034F000AE01B8010E94841AC8010E943E198701DA
:1035000053CF10E000E050CFFB01DC0102C001907E
:103510000D9241505040D8F70895FB01DC01019015
:103520000D920020E1F7089510E0C2E6D0E004C05B
:10353000FE010E949C182196C336D107C9F7F89462
:10354000FFCF070000006E0580000000400014005F
:103550005400000000008B01EB001801D801490164
:1035600027013B01000000005E0731074E080707F6
:103570002A071707080700000000CF08EB004E08D5
:10358000790400000000B907EB004E080707150892
:103590002D08A10700000000E8001D06D50804055D
:1035A00006000102033132333435363738392A30D8
:1035B000230D0A002B0041540057656C636F6D6545
:1035C0002100456E74657220796F7572206D6F628F
:1035D000696C65006E756D6265723A005741524EB6
:1035E000494E472100534D53206E6F7469666963DD
:1035F0006174696F6E0069732073656E742E004884
:103600006967682074656D70657261747572652193
:103610000041542B434D47463D310041542B434D0F
:1036200047533D2200220D005761726E696E67217B
:1036300020476173206973206465746563746564F1
:1036400021005761726E696E672120434F206973B4
:1036500020646574656374656421005761726E69E6
:103660006E672120434F322069732064657465635F
:1036700074656421005761726E696E672120536D15
:103680006F6B65206973206465746563746564217C
:10369000005761726E696E672120466C616D65200E
:1036A0006973206465746563746564210057617291
:1036B0006E696E672120486967682074656D706562
:1036C0007261747572652028004329210048756D68
:1036D00069646974792076616C7565203E200025E7
:1036E00000486F6F642073797374656D006973208F
:1036F000656E61626C65642E0048756D69646974FD
:10370000793A200054656D70657261747572653A1E
:10371000200043004D6F62696C65204E756D6265D7
:103720007200697320736176656400737563636505
:0A373000737366756C6C792100005C
:107E0000112484B714BE81FFF0D085E080938100F7
:107E100082E08093C00088E18093C10086E0809377
:107E2000C20080E18093C4008EE0C9D0259A86E02C
:107E300020E33CEF91E0309385002093840096BBD3
:107E4000B09BFECF1D9AA8958150A9F7CC24DD24C4
:107E500088248394B5E0AB2EA1E19A2EF3E0BF2EE7
:107E6000A2D0813461F49FD0082FAFD0023811F036
:107E7000013811F484E001C083E08DD089C08234E0
:107E800011F484E103C0853419F485E0A6D080C0E4
:107E9000853579F488D0E82EFF2485D0082F10E0AE
:107EA000102F00270E291F29000F111F8ED06801E7
:107EB0006FC0863521F484E090D080E0DECF843638
:107EC00009F040C070D06FD0082F6DD080E0C81688
:107ED00080E7D80618F4F601B7BEE895C0E0D1E017
:107EE00062D089930C17E1F7F0E0CF16F0E7DF06D8
:107EF00018F0F601B7BEE89568D007B600FCFDCFD4
:107F0000A601A0E0B1E02C9130E011968C91119780
:107F100090E0982F8827822B932B1296FA010C0160
:107F200087BEE89511244E5F5F4FF1E0A038BF0790
:107F300051F7F601A7BEE89507B600FCFDCF97BE46
:107F4000E89526C08437B1F42ED02DD0F82E2BD052
:107F50003CD0F601EF2C8F010F5F1F4F84911BD097
:107F6000EA94F801C1F70894C11CD11CFA94CF0C13
:107F7000D11C0EC0853739F428D08EE10CD085E9AC
:107F80000AD08FE07ACF813511F488E018D01DD067
:107F900080E101D065CF982F8091C00085FFFCCF94
:107FA0009093C60008958091C00087FFFCCF809118
:107FB000C00084FD01C0A8958091C6000895E0E648
:107FC000F0E098E1908380830895EDDF803219F02E
:107FD00088E0F5DFFFCF84E1DECF1F93182FE3DFCA
:107FE0001150E9F7F2DF1F91089580E0E8DFEE27F6
:047FF000FF270994CA
:027FFE00040479
:00000001FF
