:100000000C945C010C948D010C948D010C948D0169
:100010000C948D010C948D010C948D010C948D0128
:100020000C948D010C94EC0D0C94EC0D0C94EC0DD7
:100030000C948D010C948D010C948D010C948D0108
:100040000C948D010C948D010C948D010C948D01F8
:100050000C948D010C948D010C948D010C947E0CEC
:100060000C948D010C94480C0C941E0C0C948D0176
:100070000C948D010C948D010C948D010C948D01C8
:100080000C948D010C948D010C948D010C948D01B8
:100090000C948D010C948D010C948D010C94C80C62
:1000A0000C948D010C948D010C948D010C948D0198
:1000B0000C948D010C948D010C948D010C948D0188
:1000C0000C948D010C948D010C948D010C948D0178
:1000D0000C948D010C948D010C948D010C948D0168
:1000E0000C948D010C945E030C94ED010C9420098A
:1000F0000C9408090C944D030C9454030C9484073D
:100100000C944B020C94D0020C9429020C946803BA
:100110000C94860A0C947E080C947F030C947A034A
:100120000C945A030C94EB010C94680E0C943F034E
:100130000C94E0050C9472030C946C030C947603FD
:100140000C9451030C946F080C941A020C948003C5
:100150000C943D020C9464030C94EA010C94B809CD
:100160000C9498080C9491080C946E080C94C50893
:100170000C9483020C947C090C94EC010C944903BC
:100180000C9494090C94B5090C9445030C948118B3
:100190000C94840300002100240027002A002D0075
:1001A0003000330001010000040107010A010000D2
:1001B0000A0B02090C0D0E080703040100000000E1
:1001C000000000000000000000000000000000002F
:1001D00000000000000000000000121110000000EC
:1001E000000000000000000000000000000000000F
:1001F00000000000000020002300260029002C0041
:100200002F00320000010000030106010901000077
:100210002200250028002B002E00310034000201AE
:100220000000050108010B01050505050705080883
:100230000808020202020A0A080804040404010170
:100240000101010101010303030303030303040785
:1002500007070C0C0C0C0C0C0C0C0202020206061C
:100260000606060606060B0B0B0B0B0B0B0B01020F
:1002700010202008081020401020408002010201B8
:100280000804020101020408102040808040201070
:1002900008040201800402018040201008040201C9
:1002A0000804020101020408102040800102040831
:1002B00010204080680E811811241FBECFEFD1E2BC
:1002C000DEBFCDBF00E00CBF26E0A8EFB3E001C069
:1002D0001D92AD36B207E1F713E0A0E0B2E0E4E72B
:1002E000F9E300E00BBF02C007900D92A83FB107F1
:1002F000D9F711E0CBE5D1E000E006C02197010974
:10030000802FFE010E94761ACA35D10780E00807C7
:10031000A9F70E94B30F0C94A81C0C940000CF9274
:10032000DF92EF92FF92CF93DF93B0913E06A0E071
:100330008111AB2F80913F0690E0880F991FAC018F
:100340004C505E4FC0904406D0904506E090460663
:10035000F090470630E020E0FA01C591D491E881A1
:10036000B90190E080E0EB23EA130AC02F5F3F4F12
:100370006C157D058E059F0578F36FEF7FEFCB0140
:10038000DF91CF91FF90EF90DF90CF90089596E0AE
:10039000899FD0011124AA54BA4F90967C936E93F2
:1003A0005F9791E091969C939197E0912306F0914D
:1003B000240690912206992339F0309751F081114B
:1003C00008C08091D2051994309719F05C968C91F1
:1003D000FACF0895089508950895AF92BF92CF92ED
:1003E000DF92EF92FF920F931F93CF93DF936C01F5
:1003F0007B018B01040F151FEB015E01AE18BF08D6
:10040000C017D10759F06991D601ED91FC91019087
:10041000F081E02DC6011995892B79F7C501DF918F
:10042000CF911F910F91FF90EF90DF90CF90BF90F1
:10043000AF900895FC01538D448D252F30E0842F1B
:1004400090E0821B930B541710F0CF9608950197FC
:100450000895FC01918D828D981761F0A28DAE0FE9
:10046000BF2FB11D5D968C91928D9F5F9F73928F70
:1004700090E008958FEF9FEF0895FC01918D828D9C
:10048000981731F0828DE80FF11D858D90E0089569
:100490008FEF9FEF0895FC01918D228D892F90E0C1
:1004A000805C9F4F821B91098F739927089587E085
:1004B00095E00E944B0221E0892B09F420E0822F75
:1004C0000895FC01A48DA80FB92FB11DA35ABF4FE9
:1004D0002C91848D90E001968F739927848FA68943
:1004E000B7892C93A089B1898C91837080648C9397
:1004F000938D848D981306C00288F389E02D808146
:100500008F7D80830895EF92FF920F931F93CF9377
:10051000DF93EC0181E0888F9B8D8C8D98131AC03E
:10052000E889F989808185FF15C09FB7F894EE8925
:10053000FF896083E889F989808183708064808382
:100540009FBF81E090E0DF91CF911F910F91FF90CD
:10055000EF900895F62E0B8D10E00F5F1F4F0F7375
:100560001127E02E8C8D8E110CC00FB607FCFACF30
:10057000E889F989808185FFF5CFCE010E9461026B
:10058000F1CFEB8DEC0FFD2FF11DE35AFF4FF08201
:100590009FB7F8940B8FEA89FB8980818062CFCF67
:1005A000CF93DF93EC01888D8823B9F0AA89BB89AA
:1005B000E889F9898C9185FD03C0808186FD0DC095
:1005C0000FB607FCF7CF8C9185FFF2CF808185FFB6
:1005D000EDCFCE010E946102E9CFDF91CF91089566
:1005E00080E090E0892B29F00E94570281110E943F
:1005F000000080E090E0892B49F080E090E0892BBA
:1006000029F00E94000081110E94000080E090E02B
:10061000892B49F080E090E0892B29F00E940000AE
:1006200081110E94000080E090E0892B49F080E079
:1006300090E0892B29F00E94000081110C940000A9
:1006400008958150823108F05AC0E82FF0E08827E1
:10065000E35DFC4F8F4F0C94761A4D0351033F031B
:10066000450349037F0354035A035E03640368038D
:100670006C03720376037F037A0380038403809103
:1006800080008F77809380000895809180008F7D17
:10069000F9CF80918000877FF5CF84B58F7784BDB7
:1006A000089584B58F7DFBCF8091B0008F778093C4
:1006B000B00008958091B0008F7DF9CF80919000B7
:1006C0008F77809390000895809190008F7DF9CF6F
:1006D00080919000877FF5CF8091A0008F778093E5
:1006E000A00008958091A0008F7DF9CF8091A00097
:1006F000877FF5CF809120018F7780932001089527
:10070000809120018F7DF9CF80912001877FF5CFE7
:10071000CF93DF93282F30E0F901E255FE4F84910B
:10072000F901E259FD4FD491F901E85DFD4FC49103
:10073000CC23A1F081110E942103EC2FF0E0EE0FF9
:10074000FF1FEC50FE4FA591B491EC91ED2381E099
:1007500090E009F480E0DF91CF91089580E090E08F
:10076000FACF1F93CF93DF93282F30E0F901E255A2
:10077000FE4F8491F901E259FD4FD491F901E85DF2
:10078000FD4FC491CC23A9F0162F81110E942103A3
:10079000EC2FF0E0EE0FFF1FE25FFD4FA591B4914B
:1007A0008FB7F894EC91111108C0D095DE23DC933B
:1007B0008FBFDF91CF911F910895DE2BF8CFCF939C
:1007C000DF9390E0FC01E259FD4F2491885D9D4F3D
:1007D000FC0184918823C9F090E0880F991FFC01E7
:1007E000EC56FE4FA591B491FC01E25FFD4FC5911F
:1007F000D49161110DC09FB7F8948C9120958223FC
:100800008C938881282328839FBFDF91CF910895FF
:10081000623051F49FB7F8943C91822F80958323E6
:100820008C93E8812E2BEFCF8FB7F894EC912E2B81
:100830002C938FBFEACF3FB7F894809181049091B9
:100840008204A0918304B091840426B5A89B05C0BE
:100850002F3F19F00196A11DB11D3FBFBA2FA92F3F
:10086000982F8827BC01CD01620F711D811D911D3C
:1008700042E0660F771F881F991F4A95D1F70895A8
:100880008F929F92AF92BF92CF92DF92EF92FF92A0
:100890004B015C010E941B046B017C010E941B0444
:1008A0006C197D098E099F09683E73408105910589
:1008B000A8F321E0821A9108A108B10888EEC80EB9
:1008C00083E0D81EE11CF11C81149104A104B10441
:1008D00029F7FF90EF90DF90CF90BF90AF909F905F
:1008E0008F9008952FB7F89460917D0470917E04E5
:1008F00080917F04909180042FBF0895CF92DF9262
:10090000EF92FF920F931F93CF93DF93CDB7DEB794
:10091000C054D1400FB6F894DEBF0FBECDBF0E94C9
:1009200072040091400610914106209142063091D8
:1009300043066B017C01C01AD10AE20AF30A97014F
:100940008601003D17402105310590F4809148064D
:10095000C05CDE4F0FB6F894DEBF0FBECDBFDF9197
:10096000CF911F910F91FF90EF90DF90CF9008955E
:10097000609340067093410680934206909343062D
:1009800010923B0610923A061092390610923806E1
:100990001092370662E080913C060E94DF0361E01E
:1009A00070E080E090E00E94400461E080913C06AD
:1009B0000E94DF0360E080913C060E94B1038091B9
:1009C0003D068551823020F58BE291E10197F1F7E8
:1009D00062E080913C060E94DF038091490690E02E
:1009E0008230910538F0880F991F880F991F05975D
:1009F0000197F1F7F89480E00E948F016F3F7F4FDD
:100A00008F4F9F4F61F410924806789480E0A0CFFA
:100A100064E170E080E090E00E944004D9CF81E082
:100A20000E948F016F3F7F4F8F4F9F4F61F38E0169
:100A30000F5F1F4F6E012FEBC21A2EEFD20A780103
:100A400080E00E948F01F70160837183828393832A
:100A500081E00E948F01F701648375838683978309
:100A6000F8E0EF0EF11CEC14FD0451F7789430E03F
:100A700020E0F801C080D180E280F380448155817C
:100A800066817781FFEFCF16DF06EF06FF0631F0B4
:100A90004F3F8FEF58076807780719F41092480600
:100AA000B5CFF90183E0F595E7958A95E1F7E95C23
:100AB000F94F8081880FC416D506E606F70610F1B7
:100AC00080832F5F3F4F085F1F4F2832310589F623
:100AD00040913B062091370680913806280F332736
:100AE000331F80913906280F311D80913A06820FFD
:100AF000932F911D99274817190681F681E080935D
:100B0000480626CF8160DCCF0F931F93CF93DF93EE
:100B1000C82FD62F86E0C89FF0011124EA54FA4F5F
:100B200011A2878D90A181309105F1F058F08230AB
:100B30009105F1F1039709F440C0DF91CF911F9126
:100B40000F9108956623C9F361E070E08C2F0E9435
:100B5000C7010E94720460930E0670930F06809383
:100B6000100690931106E9CF0E94720400910E06C0
:100B700010910F062091100630911106AB01BC01B7
:100B8000401B510B620B730B809120069091210644
:100B9000B0E0A0E084179507A607B70748F462E025
:100BA00070E08C2FDF91CF911F910F910C94C701B2
:100BB00063E070E0D111C1CFF4CF70E060E0F1CF1D
:100BC0000895862F0C948803862F642F0C94B1030C
:100BD000862F642F0C94DF0320915904260F3327AE
:100BE000331F21323105ECF42091DD04FC0190E04B
:100BF00080E0243069F082E00895A09159042191A9
:100C0000AC01475C5B4FA40FB52FB11D2C9301962F
:100C1000861798F380915904680F6093590480E017
:100C2000089581E008951092DD0481E08093DC0452
:100C30001092B70461E084E10E94B10361E085E1B4
:100C40000E94B103E9EBF0E080818E7F8083808198
:100C50008D7F808388E48093B80085E48093BC0016
:100C60000895CF93DF9391E0909338048823B9F0EF
:100C7000C091B800D091BA008091BC008A7B80936B
:100C8000BC0060E084E10E94B10360E085E10E9465
:100C9000B1030E941306D093BA00C093B800DF914D
:100CA000CF9108958F929F92AF92BF92CF92DF9291
:100CB000EF92FF920F931F93CF93DF93D09106058E
:100CC000D13208F0D7C0182FC09105050E941B042F
:100CD0006B017C018091DD0481116BC082E0809307
:100CE000DD041093DC048FEF8093DB041092DA04B0
:100CF000D093D904A5EEB4E0E9EBF4E080E0D8139A
:100D000091C01092B8048091B804CC0FC82BC09346
:100D1000B8048091B704813009F088C01092B704FC
:100D20000E941B046B017C018091B8048093BB007E
:100D30008091DF049091E004A091E104B091E2047D
:100D4000892B8A2B8B2BA1F00E941B040091DF04BE
:100D50001091E0042091E1043091E2046C197D09C6
:100D60008E099F09061717072807390708F442C09C
:100D70008091BC0083FDD8CF85EC8093BC000E949D
:100D80001B046B017C018091DD04823009F450C0AA
:100D90008091DB048F3F09F46FC08091DB048032C7
:100DA00009F46CC08091DB04803309F469C084E0ED
:100DB00026C08091DF049091E004A091E104B091FD
:100DC000E204892B8A2B8B2B09F484CF0E941B040D
:100DD0008090DF049090E004A090E104B090E204E1
:100DE0006C197D098E099F0986169706A806B90613
:100DF00008F070CF8091DE040E94310685E01092E9
:100E0000E404109206051092E304DF91CF911F9144
:100E10000F91FF90EF90DF90CF90BF90AF909F9099
:100E20008F9008959D9191938F5F69CF85EEA5CFA7
:100E30008091DF049091E004A091E104B091E2047C
:100E4000892B8A2B8B2B09F49ECF0E941B040091C7
:100E5000DF041091E0042091E1043091E2046C1968
:100E60007D098E099F09061717072807390708F01B
:100E70008ACFC0CF81E0C3CF80E0C1CF82E0BFCFB7
:100E800083E0BDCFEF92FF920F931F93CF93DF9339
:100E9000EC018B017C0183E7E80EF11CD7018D91F9
:100EA0009C91FE01E159FF4F208131E03093E30432
:100EB000209305051092E40410920605DC01ED91E3
:100EC000FC910190F081E02D1995FE01E059FF4F52
:100ED0008081823058F0F70180819181DC01ED91B1
:100EE000FC910190F081E02D612F199581E00E9425
:100EF0005206CF58DF4F08831983DF91CF911F919E
:100F00000F91FF90EF90089521E030E002C0220F92
:100F1000331F6A95E2F7FC01EF58FF4F6081718142
:100F2000442341F0262B372B31832083608171814C
:100F30000C9442072095309526233723F5CFCF9286
:100F4000DF92EF92FF920F931F93CF93DF93D82FEF
:100F5000C62F613208F098C00E941B046B017C010F
:100F60008091DD0481116BC081E08093DD0480936A
:100F7000DC049FEF9093DB041092DA049C0F9093B3
:100F8000D9048093B8048091B804DD0FD82BD09396
:100F9000B8048091B704813009F078C01092B7048A
:100FA0000E941B046B017C018091B8048093BB00FC
:100FB0008091DF049091E004A091E104B091E204FB
:100FC000892B8A2B8B2BA1F00E941B040091DF043C
:100FD0001091E0042091E1043091E2046C197D0944
:100FE0008E099F09061717072807390708F448C014
:100FF0008091BC0083FDD8CF85EC8093BC000E941B
:101000001B046B017C018091DD04813009F440C038
:101010008091DA048C1710F4C091DA04E9EBF4E063
:10102000A7E9B4E080E08C1355C08C2FDF91CF91FD
:101030001F910F91FF90EF90DF90CF9008958091D6
:10104000DF049091E004A091E104B091E204892BC7
:101050008A2B8B2B09F484CF0E941B040091DF04A0
:101060001091E0042091E1043091E2046C197D09B3
:101070008E099F09061717072807390708F070CF50
:101080008091DE040E943106C0E0CFCF85EEB5CF5F
:101090008091DF049091E004A091E104B091E2041A
:1010A000892B8A2B8B2B09F4AECF0E941B04009155
:1010B000DF041091E0042091E1043091E2046C1906
:1010C0007D098E099F09061717072807390708F0B9
:1010D0009ACFD6CF91919D938F5FA5CF0895E09140
:1010E0008E0480918D04E81730F4F0E0E956FB4F50
:1010F000808190E008958FEF9FEF089590918E0486
:1011000080918D042FEF3FEF981748F4E92FF0E01E
:10111000E956FB4F208130E09F5F90938E04C90118
:10112000089580918D0490918E04891B990B0895E8
:10113000CF92DF92EF92FF920F931F93CF93DF93A3
:101140007C01CB018A012091E304222389F0EB0189
:101150006B01C40ED51ECC15DD0569F06991D70170
:10116000ED91FC910190F081E02DC7011995F3CF2D
:10117000642F0E94EC05C801DF91CF911F910F9160
:10118000FF90EF90DF90CF900895CF93DF931F9261
:10119000CDB7DEB769832091E3042223F9F02091D3
:1011A0000605203258F021E030E0FC013383228331
:1011B00090E080E00F90DF91CF9108958091E4045A
:1011C000E82FF0E0EB51FB4F998190838F5F809384
:1011D000E4048093060581E090E0ECCF61E0CE016D
:1011E00001960E94EC05F7CFFC01248131E0309399
:1011F000E304209305051092E4041092060583850C
:10120000682B8AEA95E00E94C50881E00C9452069A
:1012100020918704309188042817390771F4909140
:10122000850480918604981741F0E0918504F0E0F0
:10123000E850FC4F808190E008958FEF9FEF089574
:10124000EF92FF920F931F93CF93DF93DC015C9695
:10125000ED90FC905D97E114F10479F481E090E069
:1012600013969C938E93129790E080E0DF91CF913C
:101270001F910F91FF90EF9008955196ED91FC9181
:10128000529750968C915097982F90950FB75E96E5
:101290002C915E97122F127021FD6095F894208199
:1012A000112319F1282B2083E7012197F1F728E07A
:1012B000462F50E0308160FF1AC0382B3083E701A1
:1012C0002197F1F7BA0175956795215089F7112398
:1012D00081F08081892380830FBF5C968D919C91E2
:1012E0000197F1F781E090E0C1CF2923DCCF3923CA
:1012F000E5CF9081892BEFCF20918704309188042E
:101300002817390771F4809186042091850490E0B4
:10131000805C9F4F821B910960E470E00E94621A1A
:10132000089590E080E0089520918704309188042A
:1013300028173907B9F4909185048091860498178D
:1013400089F0E0918504F0E0E850FC4F8081209125
:10135000850430E02F5F3F4F2F73332720938504A0
:1013600090E008958FEF9FEF089590E080E008955A
:10137000CF92DF92EF92FF920F931F93CF93DF9361
:10138000EC0181E090E07C0102C0EE0CFF1C6A954C
:10139000E2F76E0180E7C80ED11CD6016C91613274
:1013A00008F060E2FE01E159FF4F80810E949F0733
:1013B00010928E0480938D04CD58DF4F88819981DF
:1013C000DC01ED91FC910284F385E02D19958C01EF
:1013D000F6018081823060F088819981DC01ED9195
:1013E000FC910284F385E02D199520E0022B182B47
:1013F0000E211F2181E090E00E151F0511F090E0F5
:1014000080E0DF91CF911F910F91FF90EF90DF90DF
:10141000CF9008950F931F93CF938C01C62F0E94F6
:10142000F4086C2F6460C8010E94F4086C2F6B7F75
:10143000C8010E94F40883EC90E00197F1F7CF9186
:101440001F910F9108950F931F93CF93DF938C01FA
:10145000D62FC42F607F642B0E940A0A80E1D89F98
:10146000B00111246C2BC801DF91CF911F910F9116
:101470000C940A0A40E061E08BE296E00E94230AA5
:101480008BE39FE10197F1F70895CF93DF9300D0AD
:1014900000D01F921F92CDB7DEB798E0E8E0F2E0EF
:1014A000DE01119601900D929A95E1F79091330625
:1014B000961710F46FEF690F262F30E0220F331FBD
:1014C00041E050E04C0F5D1F240F351FF901608192
:1014D000680F606840E08BE296E028960FB6F894BB
:1014E000DEBF0FBECDBFDF91CF910C94230ACF9307
:1014F000DF93EA010E94450A4C815D816881798110
:101500008BE296E0DF91CF910C94ED0141E00E94D7
:10151000230A81E090E0089542E050E06FE672E037
:101520008AE496E00C94ED01CF93DF93FC010190E7
:101530000020E9F73197AF01481B590BBC018AE441
:1015400096E00E94ED01EC010E948C0A8C0F9D1F19
:10155000DF91CF910895CF93DF936AE18AE496E01B
:101560000E942009EC010E948C0A8C0F9D1FDF91C4
:10157000CF910895CF93DF93FC0144815581608121
:1015800071818AE496E00E94ED01EC010E948C0AD0
:101590008C0F9D1FDF91CF9108950F931F93CF93D1
:1015A000DF93EC0188819981009759F02A813B8172
:1015B0002617370730F081E0DF91CF911F910F910F
:1015C00008958B016F5F7F4F0E94B71B009759F002
:1015D000998388831B830A832C813D81232B59F7B0
:1015E000FC011082E8CF80E0E7CFEF92FF920F93EB
:1015F0001F93CF93DF936115710541F480E0DF9174
:10160000CF911F910F91FF90EF90089541155105D3
:10161000B1F07B01EC010C811D81040F151FB80195
:101620000E94CD0A882351F3288139818C819D81C4
:10163000B701820F931F0E94A11C1D830C8381E0C0
:10164000DECFCF93DF93EC0188819981009711F071
:101650000E942E1B198218821D821C821B821A82F4
:10166000DF91CF910895CF93DF93EC01FB010190BF
:101670000020E9F73197AF01461B570B0E94F50A8E
:10168000811103C0CE010E94210BCE01DF91CF91C9
:101690000895CF93DF93EC01FB0144815581608174
:1016A00071810E94F50A811103C0CE010E94210BB5
:1016B000CE01DF91CF910895EF92FF920F931F9388
:1016C000CF93DF93EC017B018A01BA010E94CD0A1E
:1016D00081110BC0CE010E94210BCE01DF91CF9171
:1016E0001F910F91FF90EF9008951D830C83B70118
:1016F000888199810E94A11CF0CFEF92FF920F93F5
:101700001F93CF93DF9300D000D000D0CDB7DEB7CA
:101710008C01862FF80111821082138212821582A9
:1017200014824AE09E012F5F3F4F7901B90190E09A
:101730000E94A118F70101900020E9F73197AF014D
:101740004E195F09B701C8010E945C0B29960FB6BC
:10175000F894DEBF0FBECDBFDF91CF911F910F91E7
:10176000FF90EF900895FB01DC0111961C921E92F0
:1017700013961C921E92129715961C921E92149705
:101780008617970749F0608171816115710521F015
:10179000448155810C945C0B0895FC0111821082E8
:1017A0001382128215821482FB0101900020E9F756
:1017B0003197AF01461B570B0C945C0BFC018081E9
:1017C0009181009711F00C942E1B089585ED809364
:1017D000BC008091DF049091E004A091E104B091FD
:1017E000E2040796A11DB11D23E0B695A795979534
:1017F00087952A95D1F72091BC0024FD03C0109253
:10180000DD0408954091DF045091E0046091E1040B
:101810007091E204452B462B472B69F30097A105F5
:10182000B10541F025E32A95F1F700000197A109E0
:10183000B109E1CF8091DE040C9431061F920F9222
:101840000FB60F9211240BB60F922F933F934F9325
:101850005F936F937F938F939F93AF93BF93EF9318
:10186000FF9387E095E00E946102FF91EF91BF91A5
:10187000AF919F918F917F916F915F914F913F9128
:101880002F910F900BBE0F900FBE0F901F901895C9
:101890001F920F920FB60F9211240BB60F922F9337
:1018A0008F939F93EF93FF93E0911705F0911805A5
:1018B0008081E0911D05F0911E0582FD1DC0908183
:1018C000809120058F5F8F7320912105821741F051
:1018D000E0912005F0E0E95FFA4F958F80932005B5
:1018E000FF91EF919F918F912F910F900BBE0F90D1
:1018F0000FBE0F901F9018958081F2CF1F920F920C
:101900000FB60F9211242F933F938F939F93AF9312
:10191000BF9380917D0490917E04A0917F04B0914B
:10192000800430917C0423E0230F2D3758F5019675
:10193000A11DB11D20937C0480937D0490937E04AF
:10194000A0937F04B09380048091810490918204DD
:10195000A0918304B09184040196A11DB11D8093D0
:10196000810490938204A0938304B0938404BF9174
:10197000AF919F918F913F912F910F900FBE0F903C
:101980001F90189526E8230F0296A11DB11DD2CFF6
:101990001F920F920FB60F9211240BB60F922F9336
:1019A0003F934F935F936F937F938F939F93AF93E7
:1019B000BF93EF93FF938091B900887F803609F43D
:1019C0004DC008F040C0883209F4A9C028F5803124
:1019D00009F49DC0C8F4882309F4FBC0883009F4D9
:1019E00096C0FF91EF91BF91AF919F918F917F91A1
:1019F0006F915F914F913F912F910F900BBE0F9080
:101A00000FBE0F901F901895883109F488C080325E
:101A100041F78093DB0414C0803409F49DC040F486
:101A20008033B9F38833E9F68093DB0485ECB0C0EA
:101A3000803509F485C0883509F496C0883489F664
:101A40000E94E60BCECF883909F48CC038F5883770
:101A500029F050F4883611F0803719F683E080932E
:101A6000DD0410927B0457C0883809F47BC08039AC
:101A700019F0803809F0B5CF80917B04803208F0EE
:101A800071C0E0917B0481E08E0F80937B04809194
:101A9000BB00F0E0E55AFB4F80833DC0803B39F04E
:101AA000E0F4803A09F479C0883A09F09ACF84E0EA
:101AB0008093DD0410925A0410925904E0918B0433
:101AC000F0918C0419958091590481110FC081E027
:101AD000809359041092390409C0803C09F4A6CFC0
:101AE000883C09F4A3CF883B09F07BCFE0915A04EE
:101AF00081E08E0F80935A04F0E0E75CFB4F808119
:101B00008093BB0090915A048091590429C0809120
:101B1000B8048093BB0085EC8093BC0062CF9091A9
:101B2000DA048091D904981758F5E091DA0481E03D
:101B30008E0F8093DA04F0E0E754FB4F8081E9CF09
:101B4000E091DA0481E08E0F8093DA048091BB008B
:101B5000F0E0E754FB4F80839091DA048091D90440
:101B60009817C8F285E8D8CFE091DA0481E08E0FAB
:101B70008093DA048091BB00F0E0E754FB4F808350
:101B80008091DC0481115CCF81E08093B70484EA0A
:101B90008093BC001092DD0424CF85EC8093BC00C0
:101BA0001092DD0480917B04803230F4E0917B045C
:101BB000F0E0E55AFB4F108260917B0470E0E09109
:101BC0008904F0918A048BE594E0199510927B04C6
:101BD00008CF1092DB0434CF1F920F920FB60F92F2
:101BE00011240BB60F922F933F934F935F936F93F4
:101BF0007F938F939F93AF93BF93EF93FF93E09166
:101C00008704F0918804309749F0A685B7858585CB
:101C1000968D91FF16C09C918923B1F4FF91EF91AD
:101C2000BF91AF919F918F917F916F915F914F91F4
:101C30003F912F910F900BBE0F900FBE0F901F90F2
:101C400018959C91892351F7A389B4899C91858922
:101C5000809589238C93868997890197F1F7608D08
:101C6000718DA685B785558538E020E0CB010197B9
:101C7000F1F7822F90E095958795282F4C91452379
:101C800009F02068315091F7868D81FD2095809173
:101C9000860490E001968F73992730918504381758
:101CA00099F0A0918604B0E0A850BC4F2C9380938B
:101CB0008604828D938D0197F1F7A389B4898C9165
:101CC0009589892B8C93AACF868D8160868FF1CFE1
:101CD00010920A051092090588EE93E0A0E0B0E0AA
:101CE00080930B0590930C05A0930D05B0930E0502
:101CF00024E132E0309308052093070525EC30E01D
:101D0000309314052093130524EC30E0309316052E
:101D10002093150520EC30E030931805209317052B
:101D200021EC30E030931A052093190522EC30E0C5
:101D300030931C0520931B0526EC30E030931E05E4
:101D400020931D0510922005109221051092220566
:101D5000109223051092AD051092AC058093AE054C
:101D60009093AF05A093B005B093B10526E232E0A1
:101D70003093AB052093AA0510924D0610924C06A5
:101D800080934E0690934F06A0935006B093510651
:101D900084E492E090934B0680934A061092610689
:101DA0001092600610926306109262061092650609
:101DB000109264061092670610926606609168069B
:101DC0006E7F6D7F609368066695617081E068271D
:101DD00088E00E94B10361E088E00E94DF03E6E74B
:101DE000F2E0E491E0935A06E0E3F2E0E491F0E0FF
:101DF000EE0FFF1FE25FFD4F8591949190935C067B
:101E000080935B0660E086E10E94DF0380916806B4
:101E100081FD04C061E086E10E94B10386E1809308
:101E20005606E4E8F2E0E491E0935706EEE3F2E0D0
:101E3000E491F0E0EE0FFF1FEC50FE4F859194917E
:101E4000909359068093580685E080933C068BE07A
:101E500080933D06E3E7F2E0E491E0933E06EDE295
:101E6000F2E0E491E0933F0680E89EE3A0E0B0E07A
:101E70008093440690934506A0934606B093470688
:101E800010922E0610922D0688E392E090932C0675
:101E900080932B0680E280932F0684E180933406A2
:101EA00084E080933506109236061092B8051092A1
:101EB000BC051092BB051092BD05E2EDF5E08EE089
:101EC00096E0108214821382158236968E179F0731
:101ED000C1F78FE592E090931906809318068CE580
:101EE00092E090931B0680931A0684E080931C0670
:101EF00083E080931D0683E692E09093170680931B
:101F000016068AE090E090931F0680931E0684EFE9
:101F100091E090932106809320061092240610925F
:101F200023061092120610921306109214061092B5
:101F300015061092220686E592E09093B7058093ED
:101F4000B60581E28093250681E0809326068AEA21
:101F500095E090932A068093290662E772E084EA6E
:101F600095E00C94CD0BCF93DF93CDB7DEB762979E
:101F70000FB6F894DEBF0FBECDBF789484B58260F3
:101F800084BD84B5816084BD85B5826085BD85B51D
:101F9000816085BD80916E00816080936E0010929B
:101FA0008100809181008260809381008091810016
:101FB00081608093810080918000816080938000A7
:101FC0008091B10084608093B1008091B000816005
:101FD0008093B00080919100826080939100809105
:101FE0009100816080939100809190008160809346
:101FF00090008091A10082608093A1008091A10057
:1020000081608093A1008091A00081608093A000F6
:102010008091210182608093210180912101816062
:102020008093210180912001816080932001809123
:102030007A00846080937A0080917A008260809335
:102040007A0080917A00816080937A0080917A0092
:10205000806880937A001092C100E0911705F0919A
:10206000180582E08083E0911305F0911405108239
:10207000E0911505F09116058FEC808310921F05F5
:10208000E0911B05F0911C0586E08083E091190525
:10209000F0911A05808180618083E0911905F091AB
:1020A0001A05808188608083E0911905F0911A05F6
:1020B000808180688083E0911905F0911A05808104
:1020C0008F7D808360E08CE00E94DF0360E08BE026
:1020D0000E94DF0360E08AE00E94DF0360E089E0A5
:1020E0000E94DF0360E085E00E94DF0361E082E0A0
:1020F0000E94DF0361E083E00E94DF0361E084E08F
:102100000E94DF0361E08DE00E94DF03109265060C
:102110001092640610926306109262061092610695
:10212000109260068DE991E09093670680936606B1
:102130008091560696EF980F943048F02EEC280FB9
:10214000243028F022EC280F283008F061C02DEB55
:1021500030E030936106209360062BE931E0309344
:102160006306209362062CE231E0309365062093EB
:102170006406943050F02EEC280F243030F022EC1E
:10218000280FF0E0E0E0283010F4E8E6F0E02081ED
:10219000943028F032EC380F383008F40DC231E0BA
:1021A000232B943048F09EEC980F943028F08E53F7
:1021B000F0E0E0E0883010F4E8E6F0E020832091E1
:1021C000560636EF320F343008F4F8C18EEC820F29
:1021D000843008F4F3C182EC820F883008F0F1C13A
:1021E0008DE690E090935E0680935D06343008F0B3
:1021F000EBC12650330B81E001C0880F2A95EAF726
:1022000080935F0680916606909167060197F1F7CB
:102210008091640690916506892B49F1E0918704CD
:10222000F091880456E0EA34F50709F1309739F067
:10223000A389B4899C918589809589238C93809109
:1022400068068E7F8093680610928604109285043B
:102250008AE496E09093880480938704E0915D0679
:10226000F0915E06808190915F06892B808384E7E0
:1022700092E00E94940A62E080913C060E94DF0393
:102280000E947204605D7740810991096093400665
:1022900070934106809342069093430687E38093B0
:1022A000490610928E0410928D041092E40410924C
:1022B00006050E9413068BEE91E090938C048093A8
:1022C0008B048CEE91E090938A04809389041092A1
:1022D000300680913506823018F098E090933006F1
:1022E0008093330662E370E080E090E00E94400457
:1022F000609136068BE296E00E94F40868EE73E087
:1023000080E090E00E94400460E38BE296E00E944F
:102310000A0A0BE416E4C8010197F1F760E38BE2C7
:1023200096E00E940A0AC8010197F1F760E38BE288
:1023300096E00E940A0A83E592E00197F1F760E2D5
:102340008BE296E00E940A0A60913006606240E0EB
:102350008BE296E00E94230A84E08093310640E0FD
:102360006CE08BE296E00E94230A0E943A0A82E027
:102370008093320640E066E08BE296E00E94230AFA
:1023800040E062E08BE296E00E94230A8BE39FE14B
:102390000197F1F788E08093360660E08BE296E0E3
:1023A0000E94F40883E692E0909317068093160645
:1023B0006FEF7FEF86EB95E00E9442076091260663
:1023C000613208F060E2809125060E949F0710921A
:1023D0008E0480938D048091290690912A06DC0159
:1023E000ED91FC910284F385E02D199590932806D8
:1023F00080932706809126068230B8F080912906C6
:1024000090912A06DC01ED91FC910284F385E02D88
:10241000199520E0382F8091270690912806822B6D
:10242000932B9093280680932706412C512C320140
:102430004394AA24AA94BA2C8091960481119EC137
:1024400067E772E0CE0101960E94CD0BAE014F5FAF
:102450005F4F61E070E087E090E00E94770ACE0174
:1024600001960E94DE0B68EE73E080E090E00E942F
:1024700040040E943A0A60E872E0CE0101960E9490
:10248000CD0BAE014F5F5F4F70E060E082E090E007
:102490000E94770ACE0101960E94DE0B62E972E08B
:1024A000CE0101960E94CD0BAE014F5F5F4F61E000
:1024B00070E086E090E00E94770ACE0101960E94CB
:1024C000DE0B62E772E0CE0101960E94CD0BAE01F9
:1024D0004F5F5F4F62E070E090E080E00E94770A1B
:1024E000CE0101960E94DE0B62E081E00E94450A67
:1024F000B1E0B09322060E9472040091120610917E
:1025000013062091140630911506AB01BC01401B47
:10251000510B620B730B80911E0690911F06B0E069
:10252000A0E084179507A607B70710F7312C809114
:102530001D06381608F071C0C32CD12CE0911A0684
:10254000F0911B06EC0DFD1D40E0608186EB95E0EF
:102550000E948407D301C201032C04C0880F991F75
:10256000AA1FBB1F0A94D2F74C017C01E094F0949F
:10257000212C80911C06281608F040C0022D10E086
:10258000E0911806F0911906E00FF11F608186EBCB
:1025900095E00E94B8090C5F1F4F000F111FF80152
:1025A000EA54FA4F892B29F580819181882999294C
:1025B000918380832394DDCF34E0F2CD8BE690E0ED
:1025C00011CE90E080E00ECE88E0223309F418CEE0
:1025D00084E0233309F414CE82E0243309F410CECE
:1025E00082EC820F883018F42E53330B04CE81E036
:1025F00007CE808191818E219F21DACF80911A06AA
:1026000090911B06C80ED91E41E0F601608186EB51
:1026100095E00E94840733948ACF06EB15E0780199
:10262000D7015F968D919C919097892B49F45C9688
:102630001C925C975E96BC92AE925D9791961C92AE
:10264000B6E0EB0EF11CE2EFEE16E5E0FE0641F718
:10265000912C80911C06981608F053C0812CC92C2F
:10266000D12CCC0CDD1CC60182549A4F6C012091F8
:102670001D06821608F043C0D6016D917C91082C8E
:1026800002C0769567950A94E2F7929E9001112414
:10269000280D311DE6EBF5E080E0458D568D2417C1
:1026A000350709F4D4C48F5F36968A30B1F760FFDE
:1026B00024C0E6EBF5E090E080E0448D411118C0C5
:1026C000E0911606F0911706E20FF31F4081B6E085
:1026D000B89FF001B99FF00D1124EA54FA4F448FCE
:1026E000368F258F10A2178E61E00E94840505C0E9
:1026F000019636968A30910501F78394B8CF93946A
:10270000A8CFD12CF80181A18111D82E0A5F1F4FCB
:10271000E016F106B9F70E947204609312067093F6
:1027200013068093140690931506DD2009F4E0CE7D
:102730008091D705882309F4DBCE8091D50590914F
:10274000D605019709F0D4CE1091D205112309F4D2
:10275000CFCE133209F47DC419831A8241E050E0D0
:10276000BE016F5F7F4F84EA95E00E94F50A41E069
:10277000612F8BE296E00E94230ABACE8BE00E9482
:102780008803282E809392048AE00E948803382EC2
:102790008093910489E00E948803882E809390049E
:1027A0008CE00E948803082F809393040E947E048B
:1027B000882349F080913D068B3028F08D3040F021
:1027C00085518230B8F160E070E080EC9FE71CC07A
:1027D0006091380670E090E080E00E94CD182DEC0A
:1027E0003CEC4CEC5DE30E9408196B017C016091AC
:1027F000370670E090E080E00E94CD189B01AC01AC
:10280000C701B6010E94C7190E94331A962E609321
:1028100095040E947E04882341F080913D068C300F
:1028200009F4B1C0C8F48B3081F160E070E080EC55
:102830009FE753C060913706709138067627672767
:10284000762790E080E00E94CB182DEC3CEC4CEC1D
:102850005DE30E940819D8CF8551823030F710917E
:102860003906612F70E0762F662766277F77809183
:102870003A06682B90E080E00E94CB182DEC3CECEF
:102880004CEC5DE30E9408199AC06091390670E033
:1028900090E080E00E94CB186B017C0110913A0619
:1028A00017FF0AC0AC019B0160E070E080E89FEB7D
:1028B0000E94C6196B017C011F70612F70E090E0CF
:1028C00080E00E94CD182DEC3CEC4CEC5DE30E94C6
:1028D0000819A70196010E94C7190E94331A609334
:1028E0008F04F1E082E090E02F1609F471C083E0DC
:1028F00090E0013009F46CC051E0351264C01092D0
:1029000001021092000261E082E00E94B10361E0E6
:102910008DE00E94B10360E083E00E94B10360E0BB
:1029200084E00E94B1038091000290910102823004
:10293000910509F44CC108F0B9C0009709F4D5C05D
:10294000019709F421C180919404811113C08091F1
:102950000002909101028230910509F4F4C108F05F
:1029600071C1009709F4B1C1019709F4CFC181E0A9
:102970008093940468EE73E080E090E00E9440044D
:102980000E94F00259CD10913906612F70E090E05D
:1029900080E00E94CB186B017C0160913A066F7059
:1029A00070E090E080E00E94CD182DEC3CEC4CEC07
:1029B0005DE30E940819A70196010E94C71917FF3D
:1029C0008CCF90588ACF81E0881207C081E090E0D8
:1029D000909301028093000296CF84E090E06932E8
:1029E000B8F790E5991508F0E8C161E084E00E942D
:1029F000B10360E083E00E94B1030E943A0A60E5FF
:102A0000CE0107960E947D0B61E773E0CE010D9623
:102A10000E94CD0BBE01695F7F4FCE010D960E94D3
:102A2000490B63E873E00E94330BBC01CE010196B1
:102A30000E94B30BAE014F5F5F4F70E060E090E02B
:102A400080E00E94770ACE0101960E94DE0BCE0143
:102A50000D960E94DE0BCE0107960E94DE0B65E804
:102A600073E0CE0101960E94CD0BAE014F5F5F4F28
:102A700061E070E085E090E00E94770ACE01019667
:102A80000E94DE0B61E973E0CE0101960E94CD0B3E
:102A9000AE014F5F5F4F62E070E085E090E00E9422
:102AA000770ACE0101960E94DE0B64CF8330910538
:102AB00009F4B0C0049709F046CF0E943A0A6AE9C7
:102AC00072E0CE0101960E94CD0BAE014F5F5F4FC9
:102AD00070E060E087E090E00E94770ACE01019606
:102AE0000E94DE0B6DEB72E066C00E943A0A6AE952
:102AF00072E0CE0101960E94CD0BAE014F5F5F4F99
:102B000070E060E087E090E00E94770ACE010196D5
:102B10000E94DE0B6FEE72E0CE0101960E94CD0B9B
:102B2000AE014F5F5F4F61E070E083E090E00E9494
:102B3000770ACE0101960E94DE0B63EA72E0CE01B5
:102B400001960E94CD0BAE014F5F5F4F62E070E0D7
:102B500082E090E00E94770ACE0101960E94DE0B8F
:102B600064EB72E0CE0101960E94CD0BAE014F5F87
:102B70005F4F63E070E087E090E00E94770ACE014B
:102B800001960E94DE0BDFCE0E943A0A6AE972E0EB
:102B9000CE0101960E94CD0BAE014F5F5F4F70E0FA
:102BA00060E087E090E00E94770ACE0101960E94E3
:102BB000DE0B68E073E0CE0101960E94CD0BAE0102
:102BC0004F5F5F4F61E070E082E090E0B0CF0E9425
:102BD0003A0A6AE972E0CE0101960E94CD0BAE017D
:102BE0004F5F5F4F70E060E087E090E00E94770AFF
:102BF000CE0101960E94DE0B62E273E0CE010196E7
:102C00000E94CD0BAE014F5F5F4F61E070E081E04D
:102C100090E08DCF0E943A0A6AE972E0CE010196F7
:102C20000E94CD0BAE014F5F5F4F70E060E087E028
:102C300090E00E94770ACE0101960E94DE0B6EE3BF
:102C400073E0DCCF8330910509F49AC0049709F052
:102C50008ECE8FEC92E00E94940A69ED72E0CE0174
:102C600001960E94CD0B64EA75E0CE0101960E94A8
:102C7000490B63EE72E00E94330B0E94BA0ACE0148
:102C800001960E94DE0B60918F04CE0101960E9496
:102C90007D0B61E573E0CE0107960E94CD0BBE016E
:102CA0006F5F7F4FCE0107960E94490B6DE673E080
:102CB0000E94330B0E94BA0ACE0107960E94DE0BD7
:102CC000CE0101960E94DE0B1EC08FEC92E00E94A6
:102CD000940A69ED72E0CE0101960E94CD0B64EA80
:102CE00075E0CE0101960E94490B63EE72E00E94EE
:102CF000330B0E94BA0ACE0101960E94DE0B86EECB
:102D000092E00E94940A0E94AB0A31CE8FEC92E0CE
:102D10000E94940A69ED72E0CE0101960E94CD0BEB
:102D200064EA75E0CE0101960E94490B63EE72E001
:102D30000E94330B0E94BA0ACE0101960E94DE0B5C
:102D40008FEF92E0DECF8FEC92E00E94940A69ED63
:102D500072E0CE0101960E94CD0B64EA75E0CE01CF
:102D600001960E94490B63EE72E00E94330B0E94B1
:102D7000BA0ACE0101960E94DE0B89E193E0C1CF31
:102D80008FEC92E00E94940A69ED72E0CE01019608
:102D90000E94CD0B64EA75E0CE0101960E94490BBA
:102DA00063EE72E00E94330B0E94BA0ACE010196D4
:102DB0000E94DE0B85E393E0A4CF60E082E00E94F6
:102DC000B10360E08DE00E94B10360E084E00E9406
:102DD000B10361E083E00E94B1030E943A0A602FD0
:102DE000CE0107960E947D0B6DE973E0CE010D9632
:102DF0000E94CD0BBE01695F7F4FCE010D960E94F0
:102E0000490BBC01CE0101960E94B30BAE014F5F8E
:102E10005F4F70E060E090E080E00E94770ACE01B2
:102E200001960E94DE0BCE010D960E94DE0BCE01B4
:102E300007960E94DE0B60919204CE0107960E94D5
:102E40007D0B65EA73E0CE010D960E94CD0BBE01AD
:102E5000695F7F4FCE010D960E94490BBC01CE01E8
:102E600001960E94B30BAE014F5F5F4F61E070E0CF
:102E700090E080E00E94770ACE0101960E94DE0B6E
:102E8000CE010D960E94DE0BCE0107960E94DE0B4E
:102E900060919104CE0107960E947D0B6DEA73E06C
:102EA000CE010D960E94CD0BBE01695F7F4FCE0112
:102EB0000D960E94490BBC01CE0101960E94B30BF6
:102EC000AE014F5F5F4F62E070E090E080E00E94F3
:102ED000770ACE0101960E94DE0BCE010D960E946C
:102EE000DE0BCE0107960E94DE0B60919004CE01AE
:102EF00007960E947D0B62EB73E0CE010D960E9457
:102F0000CD0BBE01695F7F4FCE010D960E94490B2C
:102F1000BC01CE0101960E94B30BAE014F5F5F4F23
:102F200063E070E090E080E00E94770ACE010196B5
:102F30000E94DE0BCE010D960E94DE0BCE0107969D
:102F40000E94DE0B68EE73E080E090E00E94400497
:102F50000E943A0A60919504CE0107960E947D0B6B
:102F600068EB73E0CE010D960E94CD0BBE01695F48
:102F70007F4FCE010D960E94490B63E873E00E94DB
:102F8000330BBC01CE0101960E94B30BAE014F5F23
:102F90005F4F70E060E090E080E00E94770ACE0131
:102FA00001960E94DE0BCE010D960E94DE0BCE0133
:102FB00007960E94DE0B60918F04CE0107960E9457
:102FC0007D0B63EC73E0CE010D960E94CD0BBE012C
:102FD000695F7F4FCE010D960E94490B8C018FEDEA
:102FE00089831A8241E050E0BE016F5F7F4FC801C4
:102FF0000E94F50A811103C0C8010E94210B61EDF6
:1030000073E0C8010E94330BBC01CE0101960E94FF
:10301000B30BAE014F5F5F4F61E070E090E080E086
:103020000E94770ACE0101960E94DE0BCE010D961A
:103030000E94DE0BCE0107960E94DE0B86E090E038
:1030400090930102809300021092940493CC6170DB
:103050004CCB0E943A0A63ED73E0CE0101960E94C8
:10306000CD0BAE014F5F5F4F70E060E084E090E019
:103070000E94770ACE0101960E94DE0B64EA75E099
:10308000CE0101960E94B30BAE014F5F5F4F61E02E
:1030900070E084E090E00E94770ACE0101960E94E1
:1030A000DE0B61EE73E0CE0101960E94CD0BAE0106
:1030B0004F5F5F4F62E070E086E090E00E94770A29
:1030C000CE0101960E94DE0B6AEE73E0CE010196FE
:1030D0000E94CD0BAE014F5F5F4F63E070E084E074
:1030E00090E00E94770ACE0101960E94DE0B68EE06
:1030F00073E080E090E00E94400481E080939604B9
:103100003FCC84EA95E00E94DE0B84E492E0909349
:103110004B0680934A0680918704909188048A54D4
:10312000964071F4E0915D06F0915E069081809189
:103130005F0680958923808310928804109287040B
:103140000895BB27FB015527AA27880F991FAA1F9F
:10315000A41710F0A41B83955051B9F7A05DAA33B2
:1031600008F0A95DA193009779F7B111B19311927D
:10317000CB010C94BB18DC01FC01672F7191772304
:10318000E1F7329704C07C916D9370836291AE1722
:10319000BF07C8F30895E89409C097FB3EF49095E3
:1031A0008095709561957F4F8F4F9F4F9923A9F020
:1031B000F92F96E9BB279395F695879577956795AF
:1031C000B795F111F8CFFAF4BB0F11F460FF1BC0F3
:1031D0006F5F7F4F8F4F9F4F16C0882311F096E986
:1031E00011C0772321F09EE8872F762F05C0662334
:1031F00071F096E8862F70E060E02AF09A95660FED
:10320000771F881FDAF7880F9695879597F90895A5
:103210000E941B190C948C190E947E1938F00E9490
:10322000851920F0952311F00C9475190C947B19D5
:1032300011240C94C0190E949D1970F3959FC1F33D
:10324000950F50E0551F629FF001729FBB27F00D54
:10325000B11D639FAA27F00DB11DAA1F649F6627A9
:10326000B00DA11D661F829F2227B00DA11D621FF8
:10327000739FB00DA11D621F839FA00D611D221FB2
:10328000749F3327A00D611D231F849F600D211D96
:10329000822F762F6A2F11249F5750409AF0F1F019
:1032A00088234AF0EE0FFF1FBB1F661F771F881F82
:1032B00091505040A9F79E3F510580F00C9475192C
:1032C0000C94C0195F3FE4F3983ED4F3869577954C
:1032D0006795B795F795E7959F5FC1F7FE2B880F28
:1032E000911D9695879597F9089597F99F6780E8BE
:1032F00070E060E008959FEF80EC089500240A9448
:103300001616170618060906089500240A941216C0
:103310001306140605060895092E0394000C11F4F3
:10332000882352F0BB0F40F4BF2B11F460FF04C0A0
:103330006F5F7F4F8F4F9F4F089557FD9058440FF9
:10334000551F59F05F3F71F04795880F97FB991F04
:1033500061F09F3F79F087950895121613061406C1
:10336000551FF2CF4695F1DF08C01616170618064E
:10337000991FF1CF86957105610508940895E89429
:10338000BB2766277727CB0197F908955058BB27AD
:10339000AA270E94DE190C948C190E947E1938F01D
:1033A0000E94851920F039F49F3F19F426F40C94FB
:1033B0007B190EF4E095E7FB0C947519E92F0E9438
:1033C0009D1958F3BA17620773078407950720F011
:1033D00079F4A6F50C94BF190EF4E0950B2EBA2FD4
:1033E000A02D0B01B90190010C01CA01A00111240B
:1033F000FF27591B99F0593F50F4503E68F11A16B7
:10340000F040A22F232F342F4427585FF3CF469547
:1034100037952795A795F0405395C9F77EF41F1669
:10342000BA0B620B730B840BBAF09150A1F0FF0F33
:10343000BB1F661F771F881FC2F70EC0BA0F621F1F
:10344000731F841F48F4879577956795B795F7950F
:103450009E3F08F0B0CF9395880F08F09927EE0FA4
:103460009795879508950E94A51988F09F5798F021
:10347000B92F9927B751B0F0E1F0660F771F881F79
:10348000991F1AF0BA95C9F714C0B13091F00E9493
:10349000BF19B1E008950C94BF19672F782F8827C2
:1034A000B85F39F0B93FCCF3869577956795B395BA
:1034B000D9F73EF490958095709561957F4F8F4F29
:1034C0009F4F089597FB072E16F4009407D077FDC1
:1034D00009D00E947E1A07FC05D03EF49095819594
:1034E0009F4F0895709561957F4F0895EE0FFF1FD0
:1034F000881F8BBF0790F691E02D1994AA1BBB1B68
:1035000051E107C0AA1FBB1FA617B70710F0A61BE3
:10351000B70B881F991F5A95A9F780959095BC0104
:10352000CD0108950F931F93CF93DF9382309105C0
:1035300010F482E090E0E0916B06F0916C0630E0D0
:1035400020E0B0E0A0E0309799F42115310509F4AE
:103550004AC0281B390B24303105D8F58A819B815C
:103560006115710589F1FB0193838283FE0111C00E
:10357000408151810281138148175907E0F04817B3
:10358000590799F4109761F012960C9312971396BD
:103590001C933296CF01DF91CF911F910F91089527
:1035A00000936B0610936C06F4CF2115310551F092
:1035B0004217530738F0A901DB019A01BD01DF0171
:1035C000F801C1CFEF01F9CF90936C0680936B06A1
:1035D000CDCFFE01E20FF31F819391932250310969
:1035E00039832883D7CF2091690630916A06232B2F
:1035F00041F4209104023091050230936A06209331
:10360000690620910202309103022115310541F42F
:103610002DB73EB74091060250910702241B350B8F
:10362000E0916906F0916A06E217F307A0F42E1BF9
:103630003F0B2817390778F0AC014E5F5F4F241716
:10364000350748F04E0F5F1F50936A064093690696
:10365000819391939FCFF0E0E0E09CCFCF93DF93F5
:103660000097E9F0FC01329713821282A0916B0659
:10367000B0916C06ED0130E020E01097A1F42081BC
:103680003181820F931F2091690630916A062817B5
:10369000390709F061C0F0936A06E0936906DF918B
:1036A000CF910895EA01CE17DF07E8F54A815B81E3
:1036B0009E0141155105B1F7E901FB83EA83499168
:1036C0005991C40FD51FEC17FD0761F480819181DA
:1036D0000296840F951FE9019983888382819381E3
:1036E0009B838A83F0E0E0E012968D919C91139782
:1036F0000097B9F52D913C911197CD010296820F5B
:10370000931F2091690630916A062817390739F608
:10371000309751F510926C0610926B06B0936A06C2
:10372000A0936906BCCFD383C28340815181840FAB
:10373000951FC817D90761F44E5F5F4F8881998143
:10374000480F591F518340838A819B8193838283D1
:103750002115310509F0B0CFF0936C06E0936B06AC
:103760009ECFFD01DC01C0CF13821282D7CF4F92D2
:103770005F926F927F928F929F92AF92BF92CF9201
:10378000DF92EF92FF920F931F93CF93DF938C0101
:10379000009799F4CB01DF91CF911F910F91FF908A
:1037A000EF90DF90CF90BF90AF909F908F907F90E1
:1037B0006F905F904F900C94921AFC01E60FF71FE8
:1037C0009C0122503109E217F30708F4AEC0D90179
:1037D000CD91DC911197C617D70720F1C530D105DF
:1037E00078F0CE0104978617970750F0C61BD70BC9
:1037F0002297C193D1936D937C93CF010E942E1B8E
:10380000C801DF91CF911F910F91FF90EF90DF9052
:10381000CF90BF90AF909F908F907F906F905F9070
:103820004F9008955B01AC1ABD0A4C018C0E9D1E91
:10383000A0916B06B0916C06512C412CF12CE12C1F
:10384000109731F58091690690916A06881599055F
:1038500009F05CC04616570608F058C08091020275
:1038600090910302009741F48DB79EB740910602F4
:1038700050910702841B950BE817F90708F055C013
:10388000F0936A06E0936906F90171836083B8CF0B
:103890008D919C91119712966C90129713967C9033
:1038A0001397A815B90559F56C0142E0C40ED11C57
:1038B000CA14DB0420F1AC014A195B09DA01129643
:1038C000159780F06282738251834083D9016D9392
:1038D0007C93E114F10471F0D7011396FC93EE93FD
:1038E00012978ECF22968C0F9D1FF90191838083B2
:1038F000F301EFCFF0936C06E0936B0681CF48168F
:10390000590608F42C017D01D3019ACFCB010E9406
:10391000921A7C01009749F0AE01B8010E94981CF0
:10392000C8010E942E1B87016BCF10E000E068CF1A
:10393000FB01DC0102C001900D9241505040D8F7CC
:103940000895FB01DC0101900D920020E1F708953C
:1039500011E0CBE5D1E000E006C0802FFE010E941F
:10396000761A2196011DCC35D10780E00807A9F70A
:04397000F894FFCFF9
:10397400060000006D0680000000400014005400A2
:10398400000000008302ED011A02D0024B0229025A
:103994003D0200000000C5089808B5096E089108AA
:1039A4007E086F0800000000860AED01B509E005F5
:1039B400000000002009ED01B5096E087C09940996
:1039C400080900000000EA018407B809040506009C
:1039D4000102033132333435363738392A30230D76
:1039E4000A002B0041540057656C636F6D6521001C
:1039F400456E74657220796F7572206D6F62696CA3
:103A040065006E756D6265723A005741524E494EBB
:103A1400472100534D53206E6F7469666963617466
:103A2400696F6E0069732073656E742E0048696750
:103A3400682074656D7065726174757265210041EA
:103A4400542B434D47463D310041542B434D47537E
:103A54003D2200220D005761726E696E672120437A
:103A64004F2069732064657465637465642100572D
:103A740061726E696E672120434F3220697320643E
:103A84006574656374656421005761726E696E675D
:103A94002120536D6F6B65206973206465746563C1
:103AA40074656421005761726E696E672120466CEB
:103AB400616D652069732064657465637465642150
:103AC400005761726E696E672120486967682074C7
:103AD400656D7065726174757265202800432921D3
:103AE4000048756D69646974792076616C75652028
:103AF4003E20002500486F6F642073797374656DF0
:103B040000697320656E61626C65642E00466C61A9
:103B14006D653A2000536D6F6B653A2000434F3A50
:103B24002000434F323A200048756D696469747906
:103B34003A200054656D70657261747572653A203F
:103B44000043004D6F62696C65204E756D6265724D
:103B540000697320736176656400737563636573CC
:083B64007366756C6C79210099
:00000001FF
