:1000000003C1000032C1000030C100002EC1000059
:100010002CC100002AC1000028C1000026C1000038
:1000200024C100000C94ED0A0C94ED0A0C94ED0A26
:100030001CC100001AC1000018C1000016C1000058
:1000400014C1000012C1000010C100000EC1000068
:100050000CC100000AC1000008C100000C94800916
:1000600004C100000C944A090C942109FEC0000050
:10007000FCC00000FAC00000F8C00000F6C000009C
:10008000F4C00000F2C00000F0C00000EEC00000AC
:10009000ECC00000EAC00000E8C000000C94CA09EF
:1000A000E4C00000E2C00000E0C00000DEC00000CC
:1000B000DCC00000DAC00000D8C00000D6C00000DC
:1000C000D4C00000D2C00000D0C00000CEC00000EC
:1000D000CCC00000CAC00000C8C00000C6C00000FC
:1000E000C4C0000000002100240027002A002D00C9
:1000F0003000330001010000040107010A01000083
:100100000A0B02090C0D0E08070304010000000091
:1001100000000000000000000000000000000000DF
:10012000000000000000000000001211100000009C
:1001300000000000000000000000000000000000BF
:1001400000000000000020002300260029002C00F1
:100150002F00320000010000030106010901000028
:100160002200250028002B002E003100340002015F
:100170000000050108010B01050505050705080834
:100180000808020202020A0A080804040404010121
:100190000101010101010303030303030303040736
:1001A00007070C0C0C0C0C0C0C0C020202020606CD
:1001B0000606060606060B0B0B0B0B0B0B0B0102C0
:1001C0001020200808102040102040800201020169
:1001D0000804020101020408102040808040201021
:1001E000080402018004020180402010080402017A
:1001F00008040201010204081020408001020408E2
:1002000010204080690B931011241FBECFEFD1E264
:10021000DEBFCDBF00E00CBF24E0A4ECB2E001C023
:100220001D92A53CB207E1F712E0A0E0B2E0E8E7DA
:10023000F9E200E00BBF02C007900D92A43CB107A9
:10024000D9F711E0C3E0D1E000E006C02197010931
:10025000802FFE010E947E12C230D10780E0080785
:10026000A9F70E94650C0C94AB14CACECF92DF9212
:10027000EF92FF92CF93DF93B0919004A0E08111B1
:10028000AB2F8091910490E0880F991FAC014C5BDB
:100290005E4FC0909604D0909704E0909804F09040
:1002A000990430E020E0FA01C591D491E881B901C8
:1002B00090E080E0EB23EA130AC02F5F3F4F6C15FC
:1002C0007D058E059F0578F36FEF7FEFCB01DF9102
:1002D000CF91FF90EF90DF90CF900895089508950B
:1002E000AF92BF92CF92DF92EF92FF920F931F9344
:1002F000CF93DF936C017B018B01040F151FEB0182
:100300005E01AE18BF08C017D10759F06991D60138
:10031000ED91FC910190F081E02DC6011995892B9A
:1003200079F7C501DF91CF911F910F91FF90EF9069
:10033000DF90CF90BF90AF900895FC01538D448D16
:10034000252F30E0842F90E0821B930B541710F080
:10035000CF96089501970895FC01918D828D98178D
:1003600061F0A28DAE0FBF2FB11D5D968C91928D65
:100370009F5F9F73928F90E008958FEF9FEF089596
:10038000FC01918D828D981731F0828DE80FF11D5F
:10039000858D90E008958FEF9FEF0895FC01918D7A
:1003A000228D892F90E0805C9F4F821B91098F7373
:1003B0009927089584ED93E0F1DF21E0892B09F47A
:1003C00020E0822F0895FC01A48DA80FB92FB11D44
:1003D000A35ABF4F2C91848D90E001968F7399277B
:1003E000848FA689B7892C93A089B1898C91837059
:1003F00080648C93938D848D981306C00288F38952
:10040000E02D80818F7D80830895EF92FF920F937E
:100410001F93CF93DF93EC0181E0888F9B8D8C8DB0
:1004200098131AC0E889F989808185FF15C09FB7A4
:10043000F894EE89FF896083E889F9898081837067
:10044000806480839FBF81E090E0DF91CF911F9116
:100450000F91FF90EF900895F62E0B8D10E00F5F37
:100460001F4F0F731127E02E8C8D8E110BC00FB60E
:1004700007FCFACFE889F989808185FFF5CFCE01A5
:10048000A2DFF2CFEB8DEC0FFD2FF11DE35AFF4FF2
:10049000F0829FB7F8940B8FEA89FB898081806294
:1004A000D0CFCF93DF93EC01888D8823B1F0AA8958
:1004B000BB89E889F9898C9185FD03C0808186FD1F
:1004C0000CC00FB607FCF7CF8C9185FFF2CF80816F
:1004D00085FFEDCFCE0177DFEACFDF91CF91089591
:1004E00080E090E0892B21F065DF81110E940000FF
:1004F00080E090E0892B49F080E090E0892B29F0A2
:100500000E94000081110E94000080E090E0892B91
:1005100049F080E090E0892B29F00E9400008111D1
:100520000E94000080E090E0892B49F080E090E09C
:10053000892B29F00E94000081110C94000008957D
:100540008150823108F05AC0E82FF0E08827E45546
:10055000FD4F8F4F0C947E12CC02D002BE02C4021B
:10056000C802FE02D302D902DD02E302E702EB0277
:10057000F102F502FE02F902FF02030380918000FE
:100580008F77809380000895809180008F7DF9CFD0
:1005900080918000877FF5CF84B58F7784BD0895E3
:1005A00084B58F7DFBCF8091B0008F778093B000B2
:1005B00008958091B0008F7DF9CF809190008F7762
:1005C000809390000895809190008F7DF9CF809165
:1005D0009000877FF5CF8091A0008F778093A00057
:1005E00008958091A0008F7DF9CF8091A000877F32
:1005F000F5CF809120018F7780932001089580911D
:1006000020018F7DF9CF80912001877FF5CFCF9397
:10061000DF93282F30E0F901E250FF4F8491F90178
:10062000E254FE4FD491F901E858FE4FC491CC2317
:1006300099F0811185DFEC2FF0E0EE0FFF1FEC5BEE
:10064000FE4FA591B491EC91ED2381E090E009F487
:1006500080E0DF91CF91089580E090E0FACF1F9382
:10066000CF93DF93282F30E0F901E250FF4F8491C0
:10067000F901E254FE4FD491F901E858FE4FC491BC
:10068000CC23A1F0162F81115BDFEC2FF0E0EE0FF1
:10069000FF1FE25AFE4FA591B4918FB7F894EC91E9
:1006A000111108C0D095DE23DC938FBFDF91CF916D
:1006B0001F910895DE2BF8CFCF93DF9390E0FC01DC
:1006C000E254FE4F249188589E4FFC018491882368
:1006D000C9F090E0880F991FFC01EC51FF4FA591E4
:1006E000B491FC01E25AFE4FC591D49161110DC045
:1006F0009FB7F8948C91209582238C93888128232E
:1007000028839FBFDF91CF910895623051F49FB746
:10071000F8943C91822F809583238C93E8812E2B33
:10072000EFCF8FB7F894EC912E2B2C938FBFEACF9D
:100730003FB7F8948091B7039091B803A091B903A3
:10074000B091BA0326B5A89B05C02F3F19F00196BA
:10075000A11DB11D3FBFBA2FA92F982F8827BC011B
:10076000CD01620F711D811D911D42E0660F771F43
:10077000881F991F4A95D1F708958F929F92AF9243
:10078000BF92CF92DF92EF92FF924B015C01D0DFDC
:100790006B017C01CDDF6C197D098E099F09683ED4
:1007A000734081059105B0F321E0821A9108A108F8
:1007B000B10888EEC80E83E0D81EE11CF11C81143C
:1007C0009104A104B10431F7FF90EF90DF90CF9036
:1007D000BF90AF909F908F900895CF92DF92EF924D
:1007E000FF920F931F93CF93DF93CDB7DEB7C05423
:1007F000D1400FB6F894DEBF0FBECDBF2FB7F8942F
:100800008091D0039091D103A091D203B091D303F2
:100810002FBF409192045091930460919404709181
:1008200095048C019D01041B150B260B370BB90198
:10083000A801403D57406105710590F480919A04EC
:10084000C05CDE4F0FB6F894DEBF0FBECDBFDF91A8
:10085000CF911F910F91FF90EF90DF90CF9008956F
:100860008093920490939304A0939404B09395047E
:1008700010928D0410928C0410928B0410928A04B2
:100880001092890462E080918E0416DF61E070E0CE
:1008900080E090E072DF61E080918E040DDF60E027
:1008A00080918E04DCDE80918F048551823010F5BA
:1008B0008BE291E10197F1F762E080918E04FCDE1A
:1008C00080919B0490E08230910538F0880F991F49
:1008D000880F991F05970197F1F7F89480E0C6DC1F
:1008E0006F3F7F4F8F4F9F4F59F410929A04789427
:1008F00080E0A6CF64E170E080E090E03EDFDCCFF6
:1009000081E0B4DC6F3F7F4F8F4F9F4F71F38E01BB
:100910000F5F1F4F6E018FEBC81A8EEFD80A780158
:1009200080E0A4DCF701608371838283938381E09C
:100930009DDCF7016483758386839783F8E0EF0E6F
:10094000F11CEC14FD0461F7789430E020E0F8012C
:10095000C080D180E280F3804481558166817781B7
:10096000FFEFCF16DF06EF06FF0631F04F3F8FEFA8
:1009700058076807780719F410929A04B9CFF9015B
:1009800083E0F595E7958A95E1F7E757FB4F80817E
:10099000880FC416D506E606F70610F180832F5F90
:1009A0003F4F085F1F4F2832310589F640918D0473
:1009B0002091890480918A04280F3327331F809166
:1009C0008B04280F311D80918C04820F932F911D71
:1009D00099274817190681F681E080939A0430CF51
:1009E0008160DCCF089520914503260F3327331F04
:1009F00021323105ECF420918E03FC0190E080E07F
:100A0000243069F082E00895A09145032191AC0162
:100A10004B5D5C4FA40FB52FB11D2C93019686172B
:100A200098F380914503680F6093450380E0089533
:100A300081E0089510928E0381E080938D031092DF
:100A4000680361E084E10BDE61E085E108DEE9EB4B
:100A5000F0E080818E7F808380818D7F808388E439
:100A60008093B80085E48093BC000895CF93DF9312
:100A700091E0909324038823A1F0C091B800D09115
:100A8000BA008091BC008A7B8093BC0060E084E166
:100A9000E6DD60E085E1E3DDCDDFD093BA00C09311
:100AA000B800DF91CF9108950895E091C603809139
:100AB000C503E81730F4F0E0EC5FFC4F808190E074
:100AC00008958FEF9FEF08959091C6038091C5031D
:100AD0002FEF3FEF981748F4E92FF0E0EC5FFC4F61
:100AE000208130E09F5F9093C603C90108958091F3
:100AF000C5039091C603891B990B0895CF92DF928D
:100B0000EF92FF920F931F93CF93DF937C01CB0162
:100B10008A0120919403222389F0EB016B01C40E1A
:100B2000D51ECC15DD0561F06991D701ED91FC91E1
:100B30000190F081E02DC7011995F3CF642F53DFA9
:100B4000C801DF91CF911F910F91FF90EF90DF903F
:100B5000CF900895CF93DF931F92CDB7DEB769830F
:100B6000209194032223F9F02091C303203258F0FE
:100B700021E030E0FC013383228390E080E00F909D
:100B8000DF91CF9108958091C403E82FF0E0EB56F8
:100B9000FC4F998190838F5F8093C4038093C3033C
:100BA00081E090E0ECCF61E0CE0101961CDFF8CF50
:100BB000CF92DF92EF92FF920F931F93CF93DF9329
:100BC000FC01C48121E020939403C093B5031092EB
:100BD000C4031092C3038385682B81E794E0BADFD6
:100BE000D091C303D13208F08CC0A2DD6B017C012F
:100BF00080918E03811162C082E080938E0381E038
:100C000080938D038FEF80938C0310928B03D0938E
:100C10008A03A5E9B3E0EAE6F3E080E0D81380C0F8
:100C20001092690380916903CC0FC82BC0936903AC
:100C300080916803813009F077C01092680378DDF5
:100C40006B017C01809169038093BB0080919003CC
:100C500090919103A0919203B0919303892B8A2BD9
:100C60008B2B91F065DD0091900310919103209101
:100C70009203309193036C197D098E099F09061721
:100C8000170728073907D0F18091BC0083FDDACF20
:100C900085EC8093BC004CDD6B017C0180918E0360
:100CA000823009F443C080918C038F3F51F18091D1
:100CB0008C03803231F180918C0323C080919003AA
:100CC00090919103A0919203B0919303892B8A2B69
:100CD0008B2B09F48DCF2CDD0091900310919103A3
:100CE00020919203309193036C197D098E099F091D
:100CF000061717072807390708F07ACF80918F0366
:100D0000B5DE1092C4031092C30310929403DF91D6
:100D1000CF911F910F91FF90EF90DF90CF900895AA
:100D20009D9191938F5F7ACF85EEB3CF80919003A1
:100D300090919103A0919203B0919303892B8A2BF8
:100D40008B2B09F4ABCFF4DC00919003109191034D
:100D500020919203309193036C197D098E099F09AC
:100D6000061717072807390708F098CFC7CF209133
:100D7000BD033091BE032817390771F49091BB036E
:100D80008091BC03981741F0E091BB03F0E0EC5375
:100D9000FD4F808190E008958FEF9FEF0895EF92CF
:100DA000FF920F931F93CF93DF93DC015C96ED903E
:100DB000FC905D97E114F10479F481E090E01396E2
:100DC0009C938E93129790E080E0DF91CF911F91DA
:100DD0000F91FF90EF9008955196ED91FC915297ED
:100DE00050968C915097982F90950FB75E962C91B6
:100DF0005E97122F127021FD6095F89420811123C7
:100E000019F1282B2083E7012197F1F728E0462FDD
:100E100050E0308160FF1AC0382B3083E701219702
:100E2000F1F7BA0175956795215089F7112381F083
:100E30008081892380830FBF5C968D919C9101975F
:100E4000F1F781E090E0C1CF2923DCCF3923E5CF52
:100E50009081892BEFCF2091BD033091BE032817DD
:100E6000390769F48091BC032091BB0390E0805C5A
:100E70009F4F821B910960E470E00C946B1290E02C
:100E800080E008952091BD033091BE0328173907F3
:100E9000B9F49091BB038091BC03981789F0E0915D
:100EA000BB03F0E0EC53FD4F80812091BB0330E0A9
:100EB0002F5F3F4F2F7333272093BB0390E008959C
:100EC0008FEF9FEF089590E080E008950F931F93B8
:100ED000CF938C01C62F6CDE6C2F6460C80168DE76
:100EE0006C2F6B7FC80164DE83EC90E00197F1F713
:100EF000CF911F910F9108950F931F93CF93DF937D
:100F00008C01D62FC42F607F642BE0DF80E1D89F57
:100F1000B00111246C2BC801DF91CF911F910F916B
:100F2000D5CF40E061E08DE794E0E6DF8BE39FE121
:100F30000197F1F708950F931F93CF93DF9300D09C
:100F400000D01F921F92CDB7DEB78B0198E0E6E08C
:100F5000F2E0DE01119601900D929A95E1F79091E1
:100F60008504981710F48FEF890F90E0880F991F70
:100F700021E030E02C0F3D1F820F931FFC016081A8
:100F8000606840E08DE794E0B7DFF8014481558167
:100F9000608171818DE794E028960FB6F894DEBFEA
:100FA0000FBECDBFDF91CF911F910F9199C941E045
:100FB000A3DF81E090E0089542E050E060E572E058
:100FC0008CE994E08DC9CF93DF93FC010190002060
:100FD000E9F73197AF01481B590BBC018CE994E04C
:100FE0007FD9EC01E9DF8C0F9D1FDF91CF91089530
:100FF0000F931F93CF93DF93EC0188819981009722
:1010000059F02A813B812617370730F081E0DF91C4
:10101000CF911F910F9108958B016F5F7F4F0E94B9
:10102000BF13009759F0998388831B830A832C810F
:101030003D81232B59F7FC011082E8CF80E0E7CFF8
:10104000CF93DF93EC0188819981009711F00E9482
:101050003613198218821D821C821B821A82DF912C
:10106000CF910895EF92FF920F931F93CF93DF9349
:10107000EC01FB01E080F180E114F10409F104814D
:10108000158101151105A1F08C819D81080F191F93
:10109000B801CE01ADDF882399F0288139818C8198
:1010A0009D81B701820F931F0E94A4141D830C839E
:1010B000CE01DF91CF911F910F91FF90EF90089596
:1010C000CE01BEDFF5CFEF92FF920F931F93CF9328
:1010D000DF93EC017B018A01BA018ADF81110AC02A
:1010E000CE01AEDFCE01DF91CF911F910F91FF9026
:1010F000EF9008951D830C83B701888199810E9428
:10110000A414F0CFEF92FF920F931F93CF93DF932E
:10111000CDB7DEB762970FB6F894DEBF0FBECDBF76
:101120008C01CB01F8011182108213821282158288
:1011300014824AE09E012F5F3F4F7901B9010E945E
:10114000B110F70101900020E9F73197AF014E1976
:101150005F09B701C801B7DF62960FB6F894DEBF2A
:101160000FBECDBFDF91CF911F910F91FF90EF90F8
:101170000895FB01DC0111961C921E9213961C929D
:101180001E92129715961C921E9214978617970717
:1011900041F0608171816115710519F044815581BB
:1011A00092CF0895FC01118210821382128215825F
:1011B0001482FB0101900020E9F73197AF01461B33
:1011C000570B81CFFC0180819181009711F00C9425
:1011D0003613089585ED8093BC0080919003909123
:1011E0009103A0919203B09193030796A11DB11DA5
:1011F00023E0B695A795979587952A95D1F72091E5
:10120000BC0024FD03C010928E030895409190030A
:10121000509191036091920370919303452B462B5B
:10122000472B69F30097A105B10541F025E32A9505
:10123000F1F700000197A109B109E1CF80918F0377
:1012400015CC1F920F920FB60F9211240BB60F926E
:101250002F933F934F935F936F937F938F939F93BE
:10126000AF93BF93EF93FF9384ED93E0ACD8FF91DE
:10127000EF91BF91AF919F918F917F916F915F910E
:101280004F913F912F910F900BBE0F900FBE0F907B
:101290001F9018951F920F920FB60F9211240BB644
:1012A0000F922F938F939F93EF93FF93E091E4031B
:1012B000F091E5038081E091EA03F091EB0382FD78
:1012C0001DC090818091ED038F5F8F732091EE039D
:1012D000821741F0E091ED03F0E0EC52FC4F958F66
:1012E0008093ED03FF91EF919F918F912F910F903C
:1012F0000BBE0F900FBE0F901F9018958081F2CFFC
:101300001F920F920FB60F9211242F933F938F933A
:101310009F93AF93BF938091D0039091D103A091FD
:10132000D203B091D3033091B60323E0230F2D37BE
:1013300058F50196A11DB11D2093B6038093D003EB
:101340009093D103A093D203B093D3038091B703BA
:101350009091B803A091B903B091BA030196A11D71
:10136000B11D8093B7039093B803A093B903B093D2
:10137000BA03BF91AF919F918F913F912F910F90A1
:101380000FBE0F901F90189526E8230F0296A11DFF
:10139000B11DD2CF1F920F920FB60F9211240BB630
:1013A0000F922F933F934F935F936F937F938F93FE
:1013B0009F93AF93BF93EF93FF938091B900887F82
:1013C000803609F44CC008F03FC0883209F4A8C048
:1013D00028F5803109F49CC0C8F4882309F4FAC0C8
:1013E000883009F495C0FF91EF91BF91AF919F9123
:1013F0008F917F916F915F914F913F912F910F90BE
:101400000BBE0F900FBE0F901F901895883109F4F6
:1014100087C0803241F780938C0314C0803409F474
:101420009CC040F48033B9F38833E9F680938C0391
:1014300085ECAFC0803509F484C0883509F495C0C7
:10144000883489F6C7DECFCF883909F48CC038F5E7
:10145000883729F050F4883611F0803721F683E080
:1014600080938E031092670357C0883809F47BC0BD
:10147000803919F0803809F0B6CF80916703803247
:1014800008F071C0E091670381E08E0F80936703DD
:101490008091BB00F0E0E95BFC4F80833DC0803B66
:1014A00039F0E0F4803A09F479C0883A09F09BCF2A
:1014B00084E080938E031092460310924503E091DE
:1014C000C103F091C20319958091450381110FC0AA
:1014D00081E0809345031092250309C0803C09F404
:1014E000A7CF883C09F4A4CF883B09F07CCFE091DA
:1014F000460381E08E0F80934603F0E0EB5DFC4FE6
:1015000080818093BB00909146038091450329C060
:10151000809169038093BB0085EC8093BC0063CF0E
:1015200090918B0380918A03981758F5E0918B0373
:1015300081E08E0F80938B03F0E0E659FC4F8081B1
:10154000E9CFE0918B0381E08E0F80938B03809134
:10155000BB00F0E0E659FC4F808390918B038091B3
:101560008A039817C8F285E8D8CFE0918B0381E011
:101570008E0F80938B038091BB00F0E0E659FC4F07
:10158000808380918D0381115DCF81E0809368031A
:1015900084EA8093BC0010928E0325CF85EC809363
:1015A000BC0010928E0380916703803230F4E0918A
:1015B0006703F0E0E95BFC4F10826091670370E025
:1015C000E091BF03F091C00387E493E01995109276
:1015D000670309CF10928C0335CF1F920F920FB67D
:1015E0000F9211240BB60F922F933F934F935F935B
:1015F0006F937F938F939F93AF93BF93EF93FF93DB
:10160000E091BD03F091BE03309749F0A685B78500
:101610008585968D91FF16C09C918923B1F4FF9129
:10162000EF91BF91AF919F918F917F916F915F915A
:101630004F913F912F910F900BBE0F900FBE0F90C7
:101640001F9018959C91892351F7A389B4899C9187
:101650008589809589238C93868997890197F1F7ED
:10166000608D718DA685B785558538E020E0CB016A
:101670000197F1F7822F90E095958795282F4C914F
:10168000452309F02068315091F7868D81FD209522
:101690008091BC0390E001968F7399273091BB0332
:1016A000381799F0A091BC03B0E0AC53BD4F2C9318
:1016B0008093BC03828D938D0197F1F7A389B48940
:1016C0008C919589892B8C93AACF868D8160868F8A
:1016D000F1CFCF92DF92EF92FF921092D703109248
:1016E000D60398EEC92E93E0D92EE12CF12CC092AE
:1016F000D803D092D903E092DA03F092DB0382E1BF
:1017000092E09093D5038093D40385EC90E090937E
:10171000E1038093E00384EC90E09093E3038093F3
:10172000E20380EC90E09093E5038093E40381EC86
:1017300090E09093E7038093E60382EC90E090932F
:10174000E9038093E80386EC90E09093EB038093A9
:10175000EA031092ED031092EE031092EF03109241
:10176000F0031092740410927304C0927504D09226
:101770007604E0927704F092780484E292E0909309
:1017800072048093710463E572E08BEB94E00ADDF0
:1017900010929F0410929E04C092A004D092A104C3
:1017A000E092A204F092A30482E492E090939D045C
:1017B00080939C041092B3041092B2041092B5046A
:1017C0001092B4041092B7041092B6041092B904A7
:1017D0001092B8046091BA046E7F6D7F6093BA0472
:1017E0006695617081E0682788E00E942F0361E0C0
:1017F00088E00E945C03E6ECF1E0E491E093AC0445
:10180000E0E8F1E0E491F0E0EE0FFF1FE25AFE4F56
:10181000859194919093AE048093AD0460E08DE047
:101820000E945C038091BA0481FD04C061E08DE0F8
:101830000E942F038DE08093A804EBECF1E0E4918B
:10184000E093A904E5E8F1E0E491F0E0EE0FFF1F7A
:10185000EC5BFE4F859194919093AB048093AA0426
:1018600084E080938E049BE090938F04E2ECF1E09F
:10187000E491E0939004ECE7F1E0E491E0939104CB
:1018800040E85EE360E070E0409396045093970474
:1018900060939804709399041092800410927F04CE
:1018A00026E332E030937E0420937D0497E2909308
:1018B000810494E1909386048093870410928804B5
:1018C000FF90EF90DF90CF900895CF93DF93CDB747
:1018D000DEB762970FB6F894DEBF0FBECDBF789427
:1018E00084B5826084BD84B5816084BD85B5826025
:1018F00085BD85B5816085BD80916E0081608093D6
:101900006E0010928100809181008260809381003E
:10191000809181008160809381008091800081604E
:10192000809380008091B10084608093B1008091A9
:10193000B00081608093B0008091910082608093BC
:10194000910080919100816080939100809190003E
:101950008160809390008091A10082608093A100BB
:101960008091A10081608093A1008091A00081609E
:101970008093A00080912101826080932101809159
:1019800021018160809321018091200181608093F9
:10199000200180917A00846080937A0080917A009F
:1019A000826080937A0080917A00816080937A00CF
:1019B00080917A00806880937A001092C100E09153
:1019C000E403F091E50382E08083E091E003F0918D
:1019D000E1031082E091E203F091E3038FEC808356
:1019E0001092EC03E091E803F091E90386E0808334
:1019F000E091E603F091E703808180618083E091CC
:101A0000E603F091E703808188608083E091E6033C
:101A1000F091E703808180688083E091E603F09194
:101A2000E70380818F7D808360E08AE00E945C0311
:101A300060E089E00E945C0360E084E00E945C0357
:101A400061E082E00E945C0361E083E00E945C034D
:101A500061E08BE00E945C031092B7041092B60420
:101A60001092B5041092B4041092B3041092B20410
:101A70008DE991E09093B9048093B8048091A80413
:101A800096EF980F943048F02EEC280F243028F071
:101A900022EC280F283008F061C02DEB30E03093A5
:101AA000B3042093B2042BE931E03093B5042093C2
:101AB000B4042CE231E03093B7042093B6049430A0
:101AC00050F02EEC280F243030F022EC280FF0E0FC
:101AD000E0E0283010F4E8E6F0E02081943028F0CF
:101AE00032EC380F383008F424C131E0232B943025
:101AF00048F09EEC980F943028F08E53F0E0E0E030
:101B0000883010F4E8E6F0E020832091A80436EF56
:101B1000320F343008F40FC18EEC820F843008F499
:101B20000AC182EC820F883008F008C18DE690E08F
:101B30009093B0048093AF04343008F002C1265073
:101B4000330B81E001C0880F2A95EAF78093B10436
:101B50008091B8049091B9040197F1F78091B6048F
:101B60009091B704892B49F1E091BD03F091BE0338
:101B700084E0EC39F80709F1309739F0A389B4898A
:101B80009C918589809589238C938091BA048E7F5E
:101B90008093BA041092BC031092BB038CE994E0CA
:101BA0009093BE038093BD03E091AF04F091B00425
:101BB00080819091B104892B80838CE592E003DAD7
:101BC00062E080918E040E945C032FB7F8948091AC
:101BD000D0039091D103A091D203B091D3032FBF32
:101BE000805D9740A109B10980939204909393047A
:101BF000A0939404B093950487E380939B04109280
:101C0000C6031092C5031092C4031092C3030E942E
:101C10001A058EE691E09093C2038093C1038FE68C
:101C200091E09093C0038093BF031092820480914F
:101C30008704823018F098E09093820480938504A2
:101C400062E370E080E090E00E94BD036091880450
:101C50008DE794E00E94D80568EE73E080E090E0A4
:101C60000E94BD0360E38DE794E030D90BE416E4F5
:101C7000C8010197F1F760E38DE794E027D9C80127
:101C80000197F1F760E38DE794E020D983E592E0D6
:101C90000197F1F760E28DE794E018D96091820432
:101CA000606240E08DE794E027D984E0809383046C
:101CB00040E06CE08DE794E01FD933D982E0809357
:101CC000840440E066E08DE794E016D940E062E0ED
:101CD0008DE794E011D98BE39FE10197F1F788E05C
:101CE0008093880460E08DE794E00E94D80589E045
:101CF0000E9407039093CC038093CB038AE00E9459
:101D000007038C019093CA038093C9030E94ED03DB
:101D1000882351F080918F048B3030F08D3030F17A
:101D20008551823008F450C060E070E080EC9FE79D
:101D300035C034E0DBCE8BE690E0FACE90E080E078
:101D4000F7CE88E0223309F401CF84E0233309F48D
:101D5000FDCE82E0243309F4F9CE82EC820F883084
:101D600018F42E53330BEDCE81E0F0CE60918A044F
:101D700070E090E080E02AD22DEC3CEC4CEC5DE38E
:101D800060D24B015C016091890470E090E080E0DA
:101D90001DD29B01AC01C501B40108D36BD3709374
:101DA000CF036093CE030E94ED03882341F080911E
:101DB0008F048C3009F40BC1B8F48B3061F160E012
:101DC00070E080EC9FE74AC06091890470918A04BA
:101DD00076276727762790E080E0F6D12DEC3CEC63
:101DE0004CEC5DE32ED2DACF8551823040F7F09093
:101DF0008B046F2D70E0762F662766277F778091A2
:101E00008C04682B90E080E0DFD12DEC3CEC4CECB6
:101E10005DE317D2F4C060918B0470E090E080E045
:101E2000D3D14B015C01F0908C04F7FE09C0AC01EA
:101E30009B0160E070E080E89FEBB7D24B015C0152
:101E40006F2D6F7070E090E080E0C0D12DEC3CEC25
:101E50004CEC5DE3F6D1A5019401A8D20BD37093AD
:101E6000C8036093C7035DD8B801CE0107964AD96D
:101E70006FE572E0CE010D9695D9BE01695F7F4F87
:101E8000CE010D96EFD8BC01CE01019672D9BE01EC
:101E90006F5F7F4F90E080E04ED8CE01019692D9DF
:101EA000CE010D968FD9CE0107968CD96091CB03C8
:101EB0007091CC03CE01079625D967E672E0CE017A
:101EC0000D9670D9BE01695F7F4FCE010D96CAD8BD
:101ED000BC01CE0101964DD9BE016F5F7F4F81E0FD
:101EE00090E029D8CE0101966DD9CE010D966AD920
:101EF000CE01079667D96091CE037091CF03CE01D2
:101F0000079600D96DE672E0CE010D964BD9BE0161
:101F1000695F7F4FCE010D96A5D8BC01CE01019619
:101F200028D9BE016F5F7F4F82E090E004D8CE01D8
:101F3000019648D9CE010D9645D9CE01079642D9D2
:101F40006091C7037091C803CE010796DBD868E79C
:101F500072E0CE010D9626D9BE01695F7F4FCE019A
:101F60000D9680D8BC01CE01019603D9BE016F5FEA
:101F70007F4F83E090E00E949B07CE01019622D91B
:101F8000CE010D961FD9CE0107961CD98091CB03A7
:101F90009091CC030197B9F18091C9039091CA0344
:101FA000019789F18091CE039091CF0386349105FA
:101FB0000CF4AAC061E082E00E942F0361E08BE094
:101FC0000E942F0360E083E00E942F0386C0F09000
:101FD0008B046F2D70E090E080E0F6D04B015C0147
:101FE00060918C046F7070E090E080E0EFD02DEC99
:101FF0003CEC4CEC5DE325D1A5019401D7D1F7FE73
:102000002DCF90582BCF61E082E00E942F0361E03A
:102010008BE00E942F0360E083E00E942F030E9468
:10202000910766E872E0CE010196BCD8BE016F5FF1
:102030007F4F90E080E00E949B07CE010196C2D8BE
:102040006FEA72E0CE010196ADD8BE016F5F7F4F9F
:1020500081E090E00E949B07CE010196B3D8809169
:10206000CD0381113AC08FE892E00E94E30769E94D
:1020700072E0CE01019696D86BEB74E0CE0101962A
:102080000E9432088C01FC01E480F580F2E0EF0E42
:10209000F11CB7010E94F807811128C0C8010E94F5
:1020A0002008F80144815581608171818CE994E0B8
:1020B0000E9470010E94DC07CE01019683D886EA57
:1020C00092E00E94E3076AE18CE994E00E94CF0667
:1020D0000E94DC0781E08093CD0364E670E080E03D
:1020E00090E00E94BD030E94700201CEF8012081A1
:1020F00031818481958163EA72E0820F931F24D439
:10210000F801F582E482CDCF60E082E00E942F03E7
:1021100060E08BE00E942F0361E083E00E942F03C8
:102120001092CD03DACF82E492E090939D048093E5
:102130009C048091BD039091BE038C59944071F42E
:10214000E091AF04F091B00490818091B10480954A
:10215000892380831092BE031092BD038BEB94E021
:1021600031C8BB274A3031F4992322F4BDE290955F
:1021700081959F4F01C0BB27FB015527AA27880FD8
:10218000991FAA1FA41710F0A41B83955051B9F7EB
:10219000A05DAA3308F0A95DA193009779F7B1116A
:1021A000B1931192CB0100C0DC01FC01672F71914A
:1021B0007723E1F7329704C07C916D93708362912D
:1021C000AE17BF07C8F30895E89409C097FB3EF423
:1021D00090958095709561957F4F8F4F9F4F992374
:1021E000A9F0F92F96E9BB279395F69587957795F2
:1021F0006795B795F111F8CFFAF4BB0F11F460FFB2
:102200001BC06F5F7F4F8F4F9F4F16C0882311F009
:1022100096E911C0772321F09EE8872F762F05C01D
:10222000662371F096E8862F70E060E02AF09A95B8
:10223000660F771F881FDAF7880F9695879597F9AD
:1022400008950BD078C069D028F06ED018F095238F
:1022500009F05AC05FC01124A2C07ED0A0F3959FA0
:10226000D1F3950F50E0551F629FF001729FBB277D
:10227000F00DB11D639FAA27F00DB11DAA1F649F29
:102280006627B00DA11D661F829F2227B00DA11DDC
:10229000621F739FB00DA11D621F839FA00D611D62
:1022A000221F749F3327A00D611D231F849F600D83
:1022B000211D822F762F6A2F11249F5750408AF0BC
:1022C000E1F088234AF0EE0FFF1FBB1F661F771F48
:1022D000881F91505040A9F79E3F510570F014C0DF
:1022E0005EC05F3FECF3983EDCF38695779567958B
:1022F000B795F795E7959F5FC1F7FE2B880F911D66
:102300009695879597F9089597F99F6780E870E00B
:1023100060E008959FEF80EC089500240A9416165B
:10232000170618060906089500240A9412161306C3
:10233000140605060895092E0394000C11F4882351
:1023400052F0BB0F40F4BF2B11F460FF04C06F5F6D
:102350007F4F8F4F9F4F089557FD9058440F551F43
:1023600059F05F3F71F04795880F97FB991F61F017
:102370009F3F79F087950895121613061406551F8E
:10238000F2CF4695F1DF08C0161617061806991FFA
:10239000F1CF86957105610508940895E894BB27EF
:1023A00066277727CB0197F908955058BB27AA27AE
:1023B0000ED0C1CFB2DF30F0B7DF20F031F49F3F55
:1023C00011F41EF4A7CF0EF4E095E7FB9DCFE92FA3
:1023D000C3DF80F3BA17620773078407950718F005
:1023E00071F49EF5DBCF0EF4E0950B2EBA2FA02DE5
:1023F0000B01B90190010C01CA01A0011124FF27B2
:10240000591B99F0593F50F4503E68F11A16F040AC
:10241000A22F232F342F4427585FF3CF46953795AB
:102420002795A795F0405395C9F77EF41F16BA0B70
:10243000620B730B840BBAF09150A1F0FF0FBB1F1E
:10244000661F771F881FC2F70EC0BA0F621F731F67
:10245000841F48F4879577956795B795F7959E3FC4
:1024600008F0B3CF9395880F08F09927EE0F979552
:102470008795089504D06894B11191CF089574DFC1
:1024800088F09F5790F0B92F9927B751A0F0D1F05D
:10249000660F771F881F991F1AF0BA95C9F712C0E7
:1024A000B13081F07BDFB1E0089578CF672F782FCE
:1024B0008827B85F39F0B93FCCF386957795679553
:1024C000B395D9F73EF490958095709561957F4FBF
:1024D0008F4F9F4F089597FB072E16F4009406D058
:1024E00077FD08D013D007FC05D03EF49095819578
:1024F0009F4F0895709561957F4F0895EE0FFF1FD0
:10250000881F8BBF0790F691E02D1994AA1BBB1B67
:1025100051E107C0AA1FBB1FA617B70710F0A61BE3
:10252000B70B881F991F5A95A9F780959095BC0104
:10253000CD0108950F931F93CF93DF9382309105C0
:1025400010F482E090E0E091C304F091C40430E024
:1025500020E0B0E0A0E0309799F42115310509F4AE
:102560004AC0281B390B24303105D8F58A819B815C
:102570006115710589F1FB0193838283FE0111C00E
:10258000408151810281138148175907E0F04817B3
:10259000590799F4109761F012960C9312971396BD
:1025A0001C933296CF01DF91CF911F910F91089527
:1025B0000093C3041093C404F4CF2115310551F0E6
:1025C0004217530738F0A901DB019A01BD01DF0171
:1025D000F801C1CFEF01F9CF9093C4048093C304F5
:1025E000CDCFFE01E20FF31F819391932250310969
:1025F00039832883D7CF2091C1043091C204232B83
:1026000041F420910202309103023093C2042093DE
:10261000C10420910002309101022115310541F4DD
:102620002DB73EB74091040250910502241B350B93
:10263000E091C104F091C204E217F307A0F42E1B4D
:102640003F0B2817390778F0AC014E5F5F4F241716
:10265000350748F04E0F5F1F5093C2044093C104EA
:10266000819391939FCFF0E0E0E09CCFCF93DF93F5
:102670000097E9F0FC01329713821282A091C30403
:10268000B091C404ED0130E020E01097A1F4208166
:102690003181820F931F2091C1043091C204281709
:1026A000390709F061C0F093C204E093C104DF91DF
:1026B000CF910895EA01CE17DF07E8F54A815B81E3
:1026C0009E0141155105B1F7E901FB83EA83499168
:1026D0005991C40FD51FEC17FD0761F480819181DA
:1026E0000296840F951FE9019983888382819381E3
:1026F0009B838A83F0E0E0E012968D919C91139782
:102700000097B9F52D913C911197CD010296820F5A
:10271000931F2091C1043091C2042817390739F65C
:10272000309751F51092C4041092C304B093C204C0
:10273000A093C104BCCFD383C28340815181840F55
:10274000951FC817D90761F44E5F5F4F8881998143
:10275000480F591F518340838A819B8193838283D1
:102760002115310509F0B0CFF093C404E093C30400
:102770009ECFFD01DC01C0CF13821282D7CF4F92D2
:102780005F926F927F928F929F92AF92BF92CF9201
:10279000DF92EF92FF920F931F93CF93DF938C0101
:1027A000009791F4CB01DF91CF911F910F91FF9092
:1027B000EF90DF90CF90BF90AF909F908F907F90E1
:1027C0006F905F904F90B6CEFC01E60FF71F9C0113
:1027D00022503109E217F30708F4AAC0D901CD91BC
:1027E000DC911197C617D70718F1C530D10570F0E5
:1027F000CE0104978617970748F0C61BD70B229780
:10280000C193D1936D937C93CF0130DFC801DF91E9
:10281000CF911F910F91FF90EF90DF90CF90BF90DD
:10282000AF909F908F907F906F905F904F900895A2
:102830005B01AC1ABD0A4C018C0E9D1EA091C30415
:10284000B091C404512C412CF12CE12C109731F59E
:102850008091C1049091C2048815990509F05CC06B
:102860004616570608F058C0809100029091010268
:10287000009741F48DB79EB7409104025091050234
:10288000841B950BE817F90708F052C0F093C204B7
:10289000E093C104F90171836083B8CF8D919C915D
:1028A000119712966C90129713967C901397A81517
:1028B000B90559F56C0142E0C40ED11CCA14DB0401
:1028C00020F1AC014A195B09DA011296159780F0E4
:1028D0006282738251834083D9016D937C93E114AA
:1028E000F10471F0D7011396FC93EE9312978ECFFB
:1028F00022968C0F9D1FF90191838083F301EFCF06
:10290000F093C404E093C30481CF4816590608F439
:102910002C017D01D3019ACFCB010CDE7C01009705
:1029200039F0AE01B80107D0C801A0DE87016ECF33
:1029300010E000E06BCFFB01DC0102C001900D92C2
:1029400041505040D8F70895FB01DC0101900D92F1
:102950000020E1F7089511E0C3E0D1E000E005C0F8
:10296000802FFE01CBDD2196011DC430D10780E010
:082970000807B1F7F894FFCF4E
:102978000000C5048000000040001400540000005E
:102988000000050270019D015102CE01AC01C00199
:1029980000000000AA057E05630754057705640555
:1029A800550500000000D70770016307F204000016
:1029B8000000CF067001630754052B074207B706CE
:1029C8000D0A003132333435363738004154004669
:1029D8006C616D653A20004761733A200048756D57
:1029E80069646974793A200054656D706572617420
:1029F8007572653A20005741524E494E47210041B1
:102A0800542B434D47463D310041542B434D4753CA
:102A18003D2200220D005761726E696E67212050B9
:102A2800726F706162696C697479206F662066697B
:042A380072652100A2
:00000001FF
