:1000000003C1000032C1000030C100002EC1000059
:100010002CC100002AC1000028C1000026C1000038
:1000200024C100000C94280D0C94280D0C94280D6C
:100030001CC100001AC1000018C1000016C1000058
:1000400014C1000012C1000010C100000EC1000068
:100050000CC100000AC1000008C100000C94BB0BD9
:1000600004C100000C94850B0C945B0BFEC00000D7
:10007000FCC00000FAC00000F8C00000F6C000009C
:10008000F4C00000F2C00000F0C00000EEC00000AC
:10009000ECC00000EAC00000E8C000000C94050CB1
:1000A000E4C00000E2C00000E0C00000DEC00000CC
:1000B000DCC00000DAC00000D8C00000D6C00000DC
:1000C000D4C00000D2C00000D0C00000CEC00000EC
:1000D000CCC00000CAC00000C8C00000C6C00000FC
:1000E000C4C0000000002100240027002A002D00C9
:1000F0003000330001010000040107010A01000083
:100100000A0B02090C0D0E08070304010000000091
:1001100000000000000000000000000000000000DF
:10012000000000000000000000001211100000009C
:1001300000000000000000000000000000000000BF
:1001400000000000000020002300260029002C00F1
:100150002F00320000010000030106010901000028
:100160002200250028002B002E003100340002015F
:100170000000050108010B01050505050705080834
:100180000808020202020A0A080804040404010121
:100190000101010101010303030303030303040736
:1001A00007070C0C0C0C0C0C0C0C020202020606CD
:1001B0000606060606060B0B0B0B0B0B0B0B0102C0
:1001C0001020200808102040102040800201020169
:1001D0000804020101020408102040808040201021
:1001E000080402018004020180402010080402017A
:1001F00008040201010204081020408001020408E2
:1002000010204080A40DEA1511241FBECFEFD1E2CB
:10021000DEBFCDBF00E00CBF26E0A8E9B3E001C01F
:100220001D92AF30B207E1F713E0A0E0B2E0E8E2E0
:10023000F4E300E00BBF02C007900D92A839B107AC
:10024000D9F711E0C3E0D1E000E006C02197010931
:10025000802FFE010E94D617C230D10780E0080728
:10026000A9F70E94F90E0C94031ACACECF92DF921E
:10027000EF92FF92CF93DF93B091DA05A0E0811166
:10028000AB2F8091DB0590E0880F991FAC014C5B90
:100290005E4FC090E005D090E105E090E205F0905F
:1002A000E30530E020E0FA01C591D491E881B9017D
:1002B00090E080E0EB23EA130AC02F5F3F4F6C15FC
:1002C0007D058E059F0578F36FEF7FEFCB01DF9102
:1002D000CF91FF90EF90DF90CF90089596E0899FA7
:1002E000D0011124AE5ABA4F90967C936E935F97CB
:1002F00091E091969C939197E091BF05F091C00594
:100300009091BE05992339F0309751F0811108C0C2
:1003100080916E051994309719F05C968C91FACF04
:100320000895089508950895AF92BF92CF92DF92F5
:10033000EF92FF920F931F93CF93DF936C017B019A
:100340008B01040F151FEB015E01AE18BF08C0172B
:10035000D10759F06991D601ED91FC910190F0819E
:10036000E02DC6011995892B79F7C501DF91CF9151
:100370001F910F91FF90EF90DF90CF90BF90AF90C3
:100380000895FC01538D448D252F30E0842F90E09B
:10039000821B930B541710F0CF9608950197089580
:1003A000FC01918D828D981761F0A28DAE0FBF2F49
:1003B000B11D5D968C91928D9F5F9F73928F90E09F
:1003C00008958FEF9FEF0895FC01918D828D98170E
:1003D00031F0828DE80FF11D858D90E008958FEF4B
:1003E0009FEF0895FC01918D228D892F90E0805C14
:1003F0009F4F821B91098F739927089589EA94E092
:10040000F1DF21E0892B09F420E0822F0895FC011F
:10041000A48DA80FB92FB11DA35ABF4F2C91848D65
:1004200090E001968F739927848FA689B7892C93C2
:10043000A089B1898C91837080648C93938D848D15
:10044000981306C00288F389E02D80818F7D808318
:100450000895EF92FF920F931F93CF93DF93EC01D8
:1004600081E0888F9B8D8C8D98131AC0E889F9895B
:10047000808185FF15C09FB7F894EE89FF8960835E
:10048000E889F98980818370806480839FBF81E0DF
:1004900090E0DF91CF911F910F91FF90EF90089521
:1004A000F62E0B8D10E00F5F1F4F0F731127E02EFC
:1004B0008C8D8E110BC00FB607FCFACFE889F98935
:1004C000808185FFF5CFCE01A2DFF2CFEB8DEC0F5F
:1004D000FD2FF11DE35AFF4FF0829FB7F8940B8F69
:1004E000EA89FB8980818062D0CFCF93DF93EC01D2
:1004F000888D8823B1F0AA89BB89E889F9898C9114
:1005000085FD03C0808186FD0CC00FB607FCF7CFC8
:100510008C9185FFF2CF808185FFEDCFCE0177DF13
:10052000EACFDF91CF91089580E090E0892B21F010
:1005300065DF81110E94000080E090E0892B49F086
:1005400080E090E0892B29F00E94000081110E9438
:10055000000080E090E0892B49F080E090E0892B5A
:1005600029F00E94000081110E94000080E090E0CC
:10057000892B49F080E090E0892B29F00E9400004F
:1005800081110C94000008958150823108F05AC006
:10059000E82FF0E08827E053FD4F8F4F0C94D617DB
:1005A000F002F402E202E802EC022203F702FD028A
:1005B000010307030B030F031503190322031D0394
:1005C00023032703809180008F7780938000089514
:1005D000809180008F7DF9CF80918000877FF5CF5B
:1005E00084B58F7784BD089584B58F7DFBCF8091CE
:1005F000B0008F778093B00008958091B0008F7D18
:10060000F9CF809190008F7780939000089580912A
:1006100090008F7DF9CF80919000877FF5CF8091FA
:10062000A0008F778093A00008958091A0008F7D17
:10063000F9CF8091A000877FF5CF809120018F773F
:10064000809320010895809120018F7DF9CF8091C2
:100650002001877FF5CFCF93DF93282F30E0F9017A
:10066000E250FF4F8491F901E254FE4FD491F90119
:10067000E858FE4FC491CC2399F0811185DFEC2F0F
:10068000F0E0EE0FFF1FEC5BFE4FA591B491EC91F3
:10069000ED2381E090E009F480E0DF91CF910895AF
:1006A00080E090E0FACF1F93CF93DF93282F30E0C4
:1006B000F901E250FF4F8491F901E254FE4FD491C9
:1006C000F901E858FE4FC491CC23A1F0162F8111F7
:1006D0005BDFEC2FF0E0EE0FFF1FE25AFE4FA5911B
:1006E000B4918FB7F894EC91111108C0D095DE2326
:1006F000DC938FBFDF91CF911F910895DE2BF8CF50
:10070000CF93DF9390E0FC01E254FE4F2491885890
:100710009E4FFC0184918823C9F090E0880F991FB7
:10072000FC01EC51FF4FA591B491FC01E25AFE4F40
:10073000C591D49161110DC09FB7F8948C9120950B
:1007400082238C938881282328839FBFDF91CF91B8
:100750000895623051F49FB7F8943C91822F8095B0
:1007600083238C93E8812E2BEFCF8FB7F894EC91F5
:100770002E2B2C938FBFEACF3FB7F89480912104A2
:1007800090912204A0912304B091240426B5A89B43
:1007900005C02F3F19F00196A11DB11D3FBFBA2F13
:1007A000A92F982F8827BC01CD01620F711D811DD3
:1007B000911D42E0660F771F881F991F4A95D1F758
:1007C00008958F929F92AF92BF92CF92DF92EF9255
:1007D000FF924B015C01D0DF6B017C01CDDF6C1916
:1007E0007D098E099F09683E734081059105B0F32C
:1007F00021E0821A9108A108B10888EEC80E83E0B2
:10080000D81EE11CF11C81149104A104B10431F73C
:10081000FF90EF90DF90CF90BF90AF909F908F9020
:1008200008952FB7F89460911D0470911E04809173
:100830001F04909120042FBF0895CF92DF92EF9272
:10084000FF920F931F93CF93DF93CDB7DEB7C054C2
:10085000D1400FB6F894DEBF0FBECDBFE2DF0091EE
:10086000DC051091DD052091DE053091DF056B017F
:100870007C01C01AD10AE20AF30A97018601003D01
:1008800017402105310590F48091E405C05CDE4FEE
:100890000FB6F894DEBF0FBECDBFDF91CF911F9191
:1008A0000F91FF90EF90DF90CF9008956093DC055B
:1008B0007093DD058093DE059093DF051092D705D8
:1008C0001092D6051092D5051092D4051092D3053A
:1008D00062E08091D80514DF61E070E080E090E094
:1008E00070DF61E08091D8050BDF60E08091D80572
:1008F000DADE8091D9058551823010F58BE291E1E5
:100900000197F1F762E08091D805FADE8091E50564
:1009100090E08230910538F0880F991F880F991F59
:1009200005970197F1F7F89480E0A0DC6F3F7F4FC7
:100930008F4F9F4F59F41092E405789480E0A6CF32
:1009400064E170E080E090E03CDFDCCF81E08EDCB1
:100950006F3F7F4F8F4F9F4F71F38E010F5F1F4F80
:100960006E012FEBC21A2EEFD20A780180E07EDCF6
:10097000F701608371838283938381E077DCF701E1
:100980006483758386839783F8E0EF0EF11CEC1483
:10099000FD0461F7789430E020E0F801C080D18058
:1009A000E280F3804481558166817781FFEFCF1625
:1009B000DF06EF06FF0631F04F3F8FEF580768075D
:1009C000780719F41092E405B9CFF90183E0F595A1
:1009D000E7958A95E1F7ED52FA4F8081880FC416AA
:1009E000D506E606F70610F180832F5F3F4F085FBC
:1009F0001F4F2832310589F64091D7052091D30544
:100A00008091D405280F3327331F8091D505280FF7
:100A1000311D8091D605820F932F911D992748177C
:100A2000190681F681E08093E40530CF8160DCCF48
:100A30000F931F93CF93DF93C82FD62F86E0C89FC5
:100A4000F0011124EE5AFA4F11A2878D90A1813046
:100A50009105E1F058F082309105D1F1039709F446
:100A60003CC0DF91CF911F910F9108956623C9F388
:100A700061E070E08C2F32DCD4DE6093AA057093C5
:100A8000AB058093AC059093AD05EBCFCADE00912A
:100A9000AA051091AB052091AC053091AD05AB01D5
:100AA000BC01401B510B620B730B8091BC059091F4
:100AB000BD05B0E0A0E084179507A607B70740F48E
:100AC00062E070E08C2FDF91CF911F910F9106CCE7
:100AD00063E070E0D111C5CFF5CF70E060E0F2CFF8
:100AE0000895862FB8CD862F642FDDCD862F642FF5
:100AF00007CE2091F903260F3327331F213231050A
:100B0000ECF420917F04FC0190E080E0243069F057
:100B100082E00895A091F9032191AC0147525C4F06
:100B2000A40FB52FB11D2C930196861798F38091D1
:100B3000F903680F6093F90380E0089581E0089558
:100B400010927F0481E080937E041092590461E04A
:100B500084E1A9DD61E085E1A6DDE9EBF0E08081DB
:100B60008E7F808380818D7F808388E48093B8002E
:100B700085E48093BC000895CF93DF9391E0909338
:100B8000D8038823A1F0C091B800D091BA00809119
:100B9000BC008A7B8093BC0060E084E184DD60E07F
:100BA00085E181DDCDDFD093BA00C093B800DF913D
:100BB000CF9108958F929F92AF92BF92CF92DF9282
:100BC000EF92FF920F931F93CF93DF93D091A804DE
:100BD000D13208F0D0C0182FC091A704CDDD6B0131
:100BE0007C0180917F04811168C082E080937F0442
:100BF00010937E048FEF80937D0410927C04D09339
:100C00007B04A7E8B4E0EBE5F4E080E0D8138CC007
:100C100010925A0480915A04CC0FC82BC0935A04E6
:100C200080915904813009F083C010925904A4DDE9
:100C30006B017C0180915A048093BB0080918104F8
:100C400090918204A0918304B0918404892B8A2B13
:100C50008B2B99F091DD00918104109182042091F9
:100C60008304309184046C197D098E099F0906174D
:100C700017072807390708F440C08091BC0083FD9E
:100C8000D9CF85EC8093BC0077DD6B017C0180912E
:100C90007F04823009F44EC080917D048F3F09F4B7
:100CA0006CC080917D04803209F469C080917D041C
:100CB000803309F466C084E024C08091810490915F
:100CC0008204A0918304B0918404892B8A2B8B2BFE
:100CD00009F487CF51DD8090810490908204A09028
:100CE0008304B09084046C197D098E099F098616CF
:100CF0009706A806B90608F074CF809180043CDFFF
:100D000085E0109286041092A80410928504DF9169
:100D1000CF911F910F91FF90EF90DF90CF90BF90F8
:100D2000AF909F908F9008959D9191938F5F6ECF1C
:100D300085EEA8CF8091810490918204A0918304D4
:100D4000B0918404892B8A2B8B2B09F4A0CF14DD5E
:100D500000918104109182042091830430918404D5
:100D60006C197D098E099F0906171707280739078F
:100D700008F08DCFC2CF81E0C4CF80E0C2CF82E047
:100D8000C0CF83E0BECFEF92FF920F931F93CF931C
:100D9000DF93EC018B017C0183E7E80EF11CD701A6
:100DA0008D919C91FE01E159FF4F208131E03093FC
:100DB00085042093A704109286041092A804DC01F5
:100DC000ED91FC910190F081E02D1995FE01E05923
:100DD000FF4F8081823058F0F70180819181DC01E2
:100DE000ED91FC910190F081E02D612F199581E04A
:100DF000E1DECF58DF4F08831983DF91CF911F9138
:100E00000F91FF90EF90089521E030E002C0220F93
:100E1000331F6A95E2F7FC01EF58FF4F6081718143
:100E2000442339F0262B372B318320836081718155
:100E3000AACF2095309526233723F6CFCF92DF9285
:100E4000EF92FF920F931F93CF93DF93D82FC62F6C
:100E5000613208F092C090DC6B017C0180917F04CC
:100E6000811168C081E080937F0480937E049FEFAE
:100E700090937D0410927C049C0F90937B0480934C
:100E80005A0480915A04DD0FD82BD0935A048091D4
:100E90005904813009F073C0109259046DDC6B0164
:100EA0007C0180915A048093BB00809181049091D1
:100EB0008204A0918304B0918404892B8A2B8B2B0C
:100EC00099F05ADC009181041091820420918304EE
:100ED000309184046C197D098E099F090617170744
:100EE0002807390708F446C08091BC0083FDD9CF9C
:100EF00085EC8093BC0040DC6B017C0180917F0419
:100F0000813009F43EC080917C048C1710F4C091AC
:100F10007C04EBE5F4E0A9E3B4E080E08C1352C07C
:100F20008C2FDF91CF911F910F91FF90EF90DF9069
:100F3000CF9008958091810490918204A0918304C0
:100F4000B0918404892B8A2B8B2B09F487CF14DC76
:100F500000918104109182042091830430918404D3
:100F60006C197D098E099F0906171707280739078D
:100F700008F074CF80918004FFDDC0E0D1CF85EE12
:100F8000B8CF8091810490918204A0918304B091A4
:100F90008404892B8A2B8B2B09F4B0CFEDDB0091D5
:100FA00081041091820420918304309184046C198F
:100FB0007D098E099F09061717072807390708F0CA
:100FC0009DCFD8CF91919D938F5FA8CF0895E09149
:100FD0002E0480912D04E81730F4F0E0E75CFB4F1D
:100FE000808190E008958FEF9FEF089590912E04F7
:100FF00080912D042FEF3FEF981748F4E92FF0E090
:10100000E75CFB4F208130E09F5F90932E04C90185
:10101000089580912D0490912E04891B990B0895B9
:10102000CF92DF92EF92FF920F931F93CF93DF93B4
:101030007C01CB018A0120918504222389F0EB01F8
:101040006B01C40ED51ECC15DD0561F06991D70189
:10105000ED91FC910190F081E02DC7011995F3CF3E
:10106000642F47DDC801DF91CF911F910F91FF9051
:10107000EF90DF90CF900895CF93DF931F92CDB77D
:10108000DEB76983209185042223F9F02091A8041A
:10109000203258F021E030E0FC013383228390E0DD
:1010A00080E00F90DF91CF91089580918604E82F22
:1010B000F0E0E957FB4F998190838F5F809386041E
:1010C0008093A80481E090E0ECCF61E0CE0101962E
:1010D00010DDF8CFFC01248131E0309385042093AA
:1010E000A704109286041092A8048385682B86E4D6
:1010F00095E0C2DF81E05ECD209127043091280485
:101100002817390771F490912504809126049817C7
:1011100041F0E0912504F0E0E856FC4F808190E03A
:1011200008958FEF9FEF0895EF92FF920F931F9313
:10113000CF93DF93DC015C96ED90FC905D97E1141A
:10114000F10479F481E090E013969C938E931297CA
:1011500090E080E0DF91CF911F910F91FF90EF9091
:1011600008955196ED91FC91529750968C9150971D
:10117000982F90950FB75E962C915E97122F127054
:1011800021FD6095F8942081112319F1282B2083EB
:10119000E7012197F1F728E0462F50E0308160FF0A
:1011A0001AC0382B3083E7012197F1F7BA01759502
:1011B0006795215089F7112381F0808189238083ED
:1011C0000FBF5C968D919C910197F1F781E090E0C3
:1011D000C1CF2923DCCF3923E5CF9081892BEFCFF5
:1011E00020912704309128042817390769F4809149
:1011F00026042091250490E0805C9F4F821B91097A
:1012000060E470E00C94C31790E080E008952091B2
:1012100027043091280428173907B9F49091250440
:1012200080912604981789F0E0912504F0E0E856B3
:10123000FC4F80812091250430E02F5F3F4F2F73BA
:1012400033272093250490E008958FEF9FEF0895B2
:1012500090E080E00895CF92DF92EF92FF920F939B
:101260001F93CF93DF93EC0181E090E07C0102C0FB
:10127000EE0CFF1C6A95E2F76E0180E7C80ED11CE8
:10128000D6016C91613208F060E2FE01E159FF4F36
:101290008081D4DD10922E0480932D04CD58DF4F31
:1012A00088819981DC01ED91FC910284F385E02D28
:1012B00019958C01F6018081823060F088819981D6
:1012C000DC01ED91FC910284F385E02D199520E07D
:1012D000022B182B0E211F2181E090E00E151F0517
:1012E00011F090E080E0DF91CF911F910F91FF907E
:1012F000EF90DF90CF9008950F931F93CF938C01C1
:10130000C62FE8DE6C2F6460C801E4DE6C2F6B7FB3
:10131000C801E0DE83EC90E00197F1F7CF911F91D7
:101320000F9108950F931F93CF93DF938C01D62FC6
:10133000C42F607F642BE0DF80E1D89FB0011124CF
:101340006C2BC801DF91CF911F910F91D5CF40E059
:1013500061E087EC95E0E6DF8BE39FE10197F1F731
:101360000895CF93DF9300D000D01F921F92CDB786
:10137000DEB798E0E9E1F2E0DE01119601900D920E
:101380009A95E1F79091CF05961710F46FEF690FDA
:10139000262F30E0220F331F41E050E04C0F5D1F3D
:1013A000240F351FF9016081680F606840E087EC09
:1013B00095E028960FB6F894DEBF0FBECDBFDF9143
:1013C000CF91B0CFCF93DF93EA01CBDF4C815D812A
:1013D0006881798187EC95E0DF91CF910C9494013D
:1013E00041E0A0DF81E090E0089542E050E06DE64A
:1013F00072E086EE95E00C949401CF93DF93FC01AC
:1014000001900020E9F73197AF01481B590BBC014F
:1014100086EE95E00E949401EC01E7DF8C0F9D1FA2
:10142000DF91CF9108950F931F93CF93DF93EC013A
:1014300088819981009759F02A813B8126173707C7
:1014400030F081E0DF91CF911F910F9108958B01D2
:101450006F5F7F4F0E941719009759F09983888317
:101460001B830A832C813D81232B59F7FC011082B9
:10147000E8CF80E0E7CFEF92FF920F931F93CF93D7
:10148000DF936115710541F480E0DF91CF911F91E9
:101490000F91FF90EF90089541155105A9F07B0140
:1014A000EC010C811D81040F151FB801BCDF8823DE
:1014B00059F3288139818C819D81B701820F931F57
:1014C0000E94FC191D830C8381E0DFCFCF93DF9353
:1014D000EC0188819981009711F00E948E18198281
:1014E00018821D821C821B821A82DF91CF9108957F
:1014F000CF93DF93EC01FB0101900020E9F73197D6
:10150000AF01461B570BB7DF811102C0CE01DEDFF2
:10151000CE01DF91CF910895CF93DF93EC01FB01D2
:101520004481558160817181A6DF811102C0CE01A5
:10153000CDDFCE01DF91CF910895EF92FF920F930F
:101540001F93CF93DF93EC017B018A01BA016BDF1C
:1015500081110AC0CE01BADFCE01DF91CF911F9178
:101560000F91FF90EF9008951D830C83B701888140
:1015700099810E94FC19F0CFEF92FF920F931F9375
:10158000CF93DF93CDB7DEB762970FB6F894DEBF87
:101590000FBECDBF8C01CB01F801118210821382E6
:1015A0001282158214824AE09E012F5F3F4F79011B
:1015B000B9010E940916F70101900020E9F731975F
:1015C000AF014E195F09B701C801B7DF62960FB6C8
:1015D000F894DEBF0FBECDBFDF91CF911F910F9169
:1015E000FF90EF900895FB01DC0111961C921E9272
:1015F00013961C921E92129715961C921E92149787
:101600008617970741F0608171816115710519F0A6
:101610004481558192CF0895FC011182108213827A
:10162000128215821482FB0101900020E9F73197A4
:10163000AF01461B570B81CFFC0180819181009740
:1016400011F00C948E18089585ED8093BC00809164
:10165000810490918204A0918304B0918404079640
:10166000A11DB11D23E0B695A795979587952A955D
:10167000D1F72091BC0024FD03C010927F0408958F
:10168000409181045091820460918304709184049C
:10169000452B462B472B69F30097A105B10541F077
:1016A00025E32A95F1F700000197A109B109E1CFDF
:1016B0008091800461CA1F920F920FB60F9211247D
:1016C0000BB60F922F933F934F935F936F937F933C
:1016D0008F939F93AF93BF93EF93FF9389EA94E027
:1016E0000E940702FF91EF91BF91AF919F918F915F
:1016F0007F916F915F914F913F912F910F900BBE12
:101700000F900FBE0F901F9018951F920F920FB65B
:101710000F9211240BB60F922F938F939F93EF93F9
:10172000FF93E091B904F091BA048081E091BF0485
:10173000F091C00482FD1DC090818091C2048F5F32
:101740008F732091C304821741F0E091C204F0E04E
:10175000E755FB4F958F8093C204FF91EF919F91C6
:101760008F912F910F900BBE0F900FBE0F901F9077
:1017700018958081F2CF1F920F920FB60F9211240D
:101780002F933F938F939F93AF93BF9380911D04AB
:1017900090911E04A0911F04B091200430911C046C
:1017A00023E0230F2D3758F50196A11DB11D20937D
:1017B0001C0480931D0490931E04A0931F04B093F7
:1017C00020048091210490912204A0912304B091DF
:1017D00024040196A11DB11D80932104909322043D
:1017E000A0932304B0932404BF91AF919F918F9154
:1017F0003F912F910F900FBE0F901F90189526E8E4
:10180000230F0296A11DB11DD2CF1F920F920FB6CA
:101810000F9211240BB60F922F933F934F935F9328
:101820006F937F938F939F93AF93BF93EF93FF93A8
:101830008091B900887F803609F44CC008F03FC021
:10184000883209F4A8C028F5803109F49CC0C8F496
:10185000882309F4FAC0883009F495C0FF91EF910C
:10186000BF91AF919F918F917F916F915F914F91B8
:101870003F912F910F900BBE0F900FBE0F901F90B6
:101880001895883109F487C0803241F780937D0430
:1018900014C0803409F49CC040F48033B9F3883319
:1018A000E9F680937D0485ECAFC0803509F484C0EF
:1018B000883509F495C0883489F6C6DECFCF8839DB
:1018C00009F48CC038F5883729F050F4883611F0C7
:1018D000803721F683E080937F0410921B0457C069
:1018E000883809F47BC0803919F0803809F0B6CF08
:1018F00080911B04803208F071C0E0911B0481E0EC
:101900008E0F80931B048091BB00F0E0E550FC4FEC
:1019100080833DC0803B39F0E0F4803A09F479C01F
:10192000883A09F09BCF84E080937F041092FA03F9
:101930001092F903E0912B04F0912C0419958091F9
:10194000F90381110FC081E08093F9031092D9034C
:1019500009C0803C09F4A7CF883C09F4A4CF883B98
:1019600009F07CCFE091FA0381E08E0F8093FA03B7
:10197000F0E0E752FC4F80818093BB009091FA0326
:101980008091F90329C080915A048093BB0085ECB3
:101990008093BC0063CF90917C0480917B04981766
:1019A00058F5E0917C0481E08E0F80937C04F0E098
:1019B000E55AFB4F8081E9CFE0917C0481E08E0FF6
:1019C00080937C048091BB00F0E0E55AFB4F80835C
:1019D00090917C0480917B049817C8F285E8D8CF59
:1019E000E0917C0481E08E0F80937C048091BB00A9
:1019F000F0E0E55AFB4F808380917E0481115DCF3A
:101A000081E08093590484EA8093BC0010927F04A3
:101A100025CF85EC8093BC0010927F0480911B043D
:101A2000803230F4E0911B04F0E0E550FC4F10826E
:101A300060911B0470E0E0912904F0912A048BEF7F
:101A400093E0199510921B0409CF10927D0435CFB5
:101A50001F920F920FB60F9211240BB60F922F9375
:101A60003F934F935F936F937F938F939F93AF9326
:101A7000BF93EF93FF93E0912704F09128043097F0
:101A800049F0A685B7858585968D91FF16C09C91F6
:101A90008923B1F4FF91EF91BF91AF919F918F9105
:101AA0007F916F915F914F913F912F910F900BBE5E
:101AB0000F900FBE0F901F9018959C91892351F79E
:101AC000A389B4899C918589809589238C93868983
:101AD00097890197F1F7608D718DA685B78555853A
:101AE00038E020E0CB010197F1F7822F90E0959547
:101AF0008795282F4C91452309F02068315091F7A4
:101B0000868D81FD20958091260490E001968F734B
:101B1000992730912504381799F0A0912604B0E058
:101B2000A856BC4F2C9380932604828D938D0197E9
:101B3000F1F7A389B4898C919589892B8C93AACFCD
:101B4000868D8160868FF1CFCF92DF92EF92FF92E8
:101B50001092AC041092AB0498EEC92E93E0D92EEB
:101B6000E12CF12CC092AD04D092AE04E092AF040F
:101B7000F092B00485E292E09093AA048093A904C5
:101B800085EC90E09093B6048093B50484EC90E0EB
:101B90009093B8048093B70480EC90E09093BA04DB
:101BA0008093B90481EC90E09093BC048093BB04D3
:101BB00082EC90E09093BE048093BD0486EC90E0AC
:101BC0009093C0048093BF041092C2041092C30487
:101BD0001092C4041092C504109249051092480551
:101BE000C0924A05D0924B05E0924C05F0924D050B
:101BF00087E392E0909347058093460560E772E0A3
:101C000085E096E009DD1092E9051092E805C092A2
:101C1000EA05D092EB05E092EC05F092ED0585E542
:101C200092E09093E7058093E6051092FD051092EF
:101C3000FC051092FF051092FE051092010610920D
:101C400000061092030610920206609104066E7F51
:101C50006D7F609304066695617081E0682788E077
:101C60000E94530361E088E00E948003E6ECF1E00B
:101C7000E491E093F605E0E8F1E0E491F0E0EE0FA6
:101C8000FF1FE25AFE4F859194919093F80580933F
:101C9000F70560E08DE00E9480038091040681FDDD
:101CA00004C061E08DE00E9453038DE08093F20553
:101CB000EBECF1E0E491E093F305E5E8F1E0E49189
:101CC000F0E0EE0FFF1FEC5BFE4F85919491909337
:101CD000F5058093F40585E08093D8058BE080932B
:101CE000D905E3ECF1E0E491E093DA05EDE7F1E00A
:101CF000E491E093DB0580E89EE3A0E0B0E0809310
:101D0000E0059093E105A093E205B093E3051092FE
:101D1000CA051092C90589E492E09093C8058093A2
:101D2000C70580E28093CB0584E18093D00584E0F1
:101D30008093D1051092D205109254051092580547
:101D40001092570510925905EEE6F5E08AEA95E003
:101D5000108214821382158236968E179F07C1F760
:101D600083E092E09093B5058093B40580E092E023
:101D70009093B7058093B60584E08093B80583E01F
:101D80008093B90587E092E09093B3058093B20504
:101D90008AE090E09093BB058093BA0584EF91E0D0
:101DA0009093BD058093BC051092C0051092BF05AD
:101DB0001092AE051092AF051092B0051092B105C9
:101DC0001092BE0587E692E09093530580935205EA
:101DD00081E28093C10581E08093C20586E495E0AD
:101DE0009093C6058093C505FF90EF90DF90CF904C
:101DF0000895CF93DF93CDB7DEB763970FB6F8940E
:101E0000DEBF0FBECDBF789484B5826084BD84B53B
:101E1000816084BD85B5826085BD85B5816085BDE5
:101E200080916E00816080936E001092810080919D
:101E30008100826080938100809181008160809325
:101E40008100809180008160809380008091B1004A
:101E500084608093B1008091B00081608093B00075
:101E600080919100826080939100809191008160C7
:101E70008093910080919000816080939000809188
:101E8000A10082608093A1008091A1008160809375
:101E9000A1008091A00081608093A0008091210129
:101EA00082608093210180912101816080932101D2
:101EB0008091200181608093200180917A0084606C
:101EC00080937A0080917A00826080937A0080917A
:101ED0007A00816080937A0080917A008068809394
:101EE0007A001092C100E091B904F091BA0482E046
:101EF0008083E091B504F091B6041082E091B704BC
:101F0000F091B8048FEC80831092C104E091BD047D
:101F1000F091BE0486E08083E091BB04F091BC04A4
:101F2000808180618083E091BB04F091BC0480815A
:101F300088608083E091BB04F091BC04808180685C
:101F40008083E091BB04F091BC0480818F7D80830D
:101F500060E08AE00E94800360E089E00E948003E4
:101F600060E085E00E94800361E082E00E948003DF
:101F700061E083E00E94800361E084E00E948003CE
:101F800061E08BE00E94800310920106109200062F
:101F90001092FF051092FE051092FD051092FC05AF
:101FA0008DE991E090930306809302068091F205FB
:101FB00096EF980F943048F02EEC280F243028F03C
:101FC00022EC280F283008F061C02DEB30E0309370
:101FD000FD052093FC052BE931E03093FF052093AC
:101FE000FE052CE231E03093010620930006943088
:101FF00050F02EEC280F243030F022EC280FF0E0C7
:10200000E0E0283010F4E8E6F0E02081943028F099
:1020100032EC380F383008F4F5C131E0232B94301E
:1020200048F09EEC980F943028F08E53F0E0E0E0FA
:10203000883010F4E8E6F0E020832091F20536EFD6
:10204000320F343008F4E0C18EEC820F843008F493
:10205000DBC182EC820F883008F0D9C18DE690E0B8
:102060009093FA058093F905343008F0D3C12650D7
:10207000330B81E001C0880F2A95EAF78093FB05B6
:1020800080910206909103060197F1F78091000676
:1020900090910106892B49F1E0912704F0912804E1
:1020A00025E0E63EF20709F1309739F0A389B489BB
:1020B0009C918589809589238C93809104068E7FDD
:1020C00080930406109226041092250486EE95E073
:1020D0009093280480932704E091F905F091FA0584
:1020E00080819091FB05892B808382E792E085D9DE
:1020F00062E08091D8050E9480030E941104605D17
:102100007740810991096093DC057093DD05809328
:10211000DE059093DF0587E38093E50510922E049A
:1021200010922D04109286041092A8040E94A0051B
:1021300082E991E090932C0480932B0483E991E051
:1021400090932A04809329041092CC058091D105A4
:10215000823018F098E09093CC058093CF0562E32D
:1021600070E080E090E00E94E1036091D20587EC8E
:1021700095E00E946A0868EE73E080E090E00E94BB
:10218000E10360E387EC95E0B7D80BE416E4C801FF
:102190000197F1F760E387EC95E0AED8C8010197AD
:1021A000F1F760E387EC95E0A7D883E592E001972B
:1021B000F1F760E287EC95E09FD86091CC05606212
:1021C00040E087EC95E0AED884E08093CD0540E018
:1021D0006CE087EC95E0A6D8BAD882E08093CE0573
:1021E00040E066E087EC95E09DD840E062E087EC57
:1021F00095E098D88BE39FE10197F1F788E0809311
:10220000D20560E087EC95E00E946A0887E092E0E2
:102210009093B3058093B2056FEF7FEF82E595E071
:102220000E94C3066091C205613208F060E28091AD
:10223000C1050E941E0710922E0480932D048091E8
:10224000C5059091C605DC01ED91FC910284F385F2
:10225000E02D19959093C4058093C3058091C20524
:102260008230B8F08091C5059091C605DC01ED91F2
:10227000FC910284F385E02D199520E0382F8091A0
:10228000C3059091C405822B932B9093C405809332
:10229000C305412C512C3201439422242A94322C20
:1022A00080913804811186C165E772E0CE01019604
:1022B000B3D9AE014F5F5F4F61E070E090E080E026
:1022C00081D8CE010196B8D968EE73E080E090E045
:1022D0000E94E1033CD864E872E0CE0101969CD9EB
:1022E000AE014F5F5F4F70E060E090E080E06AD841
:1022F000CE010196A1D967E972E0CE0101968CD991
:10230000AE014F5F5F4F61E070E090E080E05AD82F
:10231000CE01019691D960E772E0CE0101967CD999
:10232000AE014F5F5F4F62E070E090E080E04AD81E
:10233000CE01019681D962E081E013D8B1E0B0937B
:10234000BE050E9411040091AE051091AF052091C9
:10235000B0053091B105AB01BC01401B510B620BC4
:10236000730B8091BA059091BB05B0E0A0E0841793
:102370009507A607B70710F7912C8091B905981615
:1023800008F071C0C92CD12CE091B605F091B705C9
:10239000EC0DFD1D40E0608182E595E00E940407A0
:1023A000D301C201092C04C0880F991FAA1FBB1FAB
:1023B0000A94D2F75C017C01E094F094812C809126
:1023C000B805881608F040C0082D10E0E091B4056B
:1023D000F091B505E00FF11F608182E595E00E9464
:1023E0002B090C5F1F4F000F111FF801EE5AFA4F17
:1023F000892B29F5808191818A299B29918380836A
:102400008394DDCF34E00ACE8BE690E029CE90E0D5
:1024100080E026CE88E0223309F430CE84E02333F6
:1024200009F42CCE82E0243309F428CE82EC820F0A
:10243000883018F42E53330B1CCE81E01FCE8081E0
:1024400091818E219F21DACF8091B6059091B705B9
:10245000C80ED91E41E0F601608182E595E00E9438
:10246000040793948ACF02E515E0F801878D90A1C7
:10247000892B21F4148E368E258E11A2369625E0F6
:10248000EE38F20799F7D12C8091B805D81608F0EC
:1024900053C0C12CED2CF12CEE0CFF1CC701865A49
:1024A0009A4F7C012091B905C21608F043C0D701AC
:1024B0006D917C910C2C02C0769567950A94E2F799
:1024C000D29E900111242C0D311DE2E5F5E080E053
:1024D000458D568D2417350709F422C38F5F369634
:1024E0008A30B1F760FF24C0E2E5F5E090E080E0DB
:1024F000448D411118C0E091B205F091B305E20F8F
:10250000F31F4081B6E0B89FF001B99FF00D112490
:10251000EE5AFA4F448F368F258F10A2178E61E046
:102520000E94180505C0019636968A30910501F77C
:10253000C394B8CFD394A8CFF12CF80181A1811115
:10254000F82E0A5F1F4FF5E00E381F07B1F70E9403
:1025500011046093AE057093AF058093B00590931E
:10256000B105FF2009F4EACE80917305882309F4B0
:10257000E5CE8091710590917205019709F0DECE4C
:1025800010916E05112309F4D9CE133209F4CAC291
:1025900019831A8241E050E0BE016F5F7F4F85E0F2
:1025A00096E00E943B0A41E0612F87EC95E00E9493
:1025B0009209C4CE89E00E942B037C0190933404DD
:1025C000809333048AE00E942B038C01909336049D
:1025D000809335040E941D04882349F08091D90519
:1025E0008B3028F08D3040F085518230A0F160E0D2
:1025F00070E080EC9FE718C06091D40570E090E037
:1026000080E03CD32DEC3CEC4CEC5DE372D34B0111
:102610005C016091D30570E090E080E02FD39B01D6
:10262000AC01C501B4011AD47DD46B01709332049E
:10263000609331040E941D04882341F08091D905E4
:102640008C3009F4C9C0B8F48B3071F160E070E0EF
:1026500080EC9FE74DC06091D3057091D40576273B
:102660006727762790E080E007D32DEC3CEC4CEC1C
:102670005DE33FD3D9CF8551823040F7B090D50587
:102680006B2D70E0762F662766277F778091D605C1
:10269000682B90E080E0F0D22DEC3CEC4CEC5DE35C
:1026A00028D3B7FE25C0B4C06091D50570E090E096
:1026B00080E0E2D24B015C012091D6052B8B27FFF5
:1026C00009C0AC019B0160E070E080E89FEBC5D3DE
:1026D0004B015C016B896F7070E090E080E0CED2BE
:1026E0002DEC3CEC4CEC5DE304D3A5019401B6D396
:1026F00019D47093300460932F04EA94EF2809F4FE
:1027000089C00130110509F485C0E7E4CE16D10473
:102710000CF41EC161E084E00E94530360E083E09A
:102720000E9453030E94A70966E470E0CE01079659
:102730000E94BC0A6BE073E0CE010D960E940C0B68
:10274000BE01695F7F4FCE010D960E948C0A6DE13C
:1027500073E00E94780ABC01CE0101960E94F30A40
:10276000AE014F5F5F4F70E060E090E080E00E945C
:10277000E209CE0101960E941C0BCE010D960E942B
:102780001C0BCE0107960E941C0B6FE173E0CE017B
:1027900001960E940C0BAE014F5F5F4F61E070E04D
:1027A00090E080E00E94E209CE0101960E941C0B9D
:1027B0006FE273E0CE0101960E940C0BAE014F5FF9
:1027C0005F4F62E070E090E080E00E94E209CE019D
:1027D00001960E941C0BB3C05091D5055B8B652FF1
:1027E00070E090E080E048D24B015C016091D6053A
:1027F0006F7070E090E080E041D22DEC3CEC4CEC4E
:102800005DE377D2A501940129D3AB89A7FF70CFEF
:1028100090586ECF61E082E00E94530361E08BE04C
:102820000E94530360E083E00E94530360E084E071
:102830000E9453030E94A70964EA72E0CE01019648
:102840000E940C0BAE014F5F5F4F70E060E090E0C4
:1028500080E00E94E209CE0101960E941C0B66EF07
:1028600072E0CE0101960E940C0BAE014F5F5F4FEC
:1028700061E070E090E080E00E94E209CE01019604
:102880000E941C0B64EB72E0CE0101960E940C0BBF
:10289000AE014F5F5F4F62E070E090E080E00E9429
:1028A000E209CE0101960E941C0B67EC72E0CE019A
:1028B00001960E940C0BAE014F5F5F4F63E070E02A
:1028C00090E080E00E94E209CE0101960E941C0B7C
:1028D00080913704811133C086ED92E00E94FD099A
:1028E00060EE72E0CE0101960E940C0B65E076E08E
:1028F000CE0101960E948C0A6AEE72E00E94780A6C
:10290000DC0114964D915C9115976D917C9186EE4A
:1029100095E00E9494010E94F509CE0101960E9463
:102920001C0B8DEE92E00E94FD096AE186EE95E0B7
:102930000E9494080E94F50981E08093370468EEB4
:1029400073E080E090E00E94E1030E949402A8CC32
:102950000E94A709B801CE0107960E94BC0A6FE346
:1029600073E0CE010D960E940C0BBE01695F7F4F94
:10297000CE010D960E948C0ABC01CE0101960E94E8
:10298000F30AAE014F5F5F4F70E060E090E080E0DF
:102990000E94E209CE0101960E941C0BCE010D9609
:1029A0000E941C0BCE0107960E941C0B6091330401
:1029B00070913404CE0107960E94BC0A67E473E06C
:1029C000CE010D960E940C0BBE01695F7F4FCE01B8
:1029D0000D960E948C0ABC01CE0101960E94F30A5A
:1029E000AE014F5F5F4F61E070E090E080E00E94D9
:1029F000E209CE0101960E941C0BCE010D960E94A9
:102A00001C0BCE0107960E941C0B60913104709143
:102A10003204CE0107960E94BC0A6DE473E0CE0139
:102A20000D960E940C0BBE01695F7F4FCE010D9683
:102A30000E948C0A6DE173E00E94780ABC01CE010D
:102A400001960E94F30AAE014F5F5F4F62E070E0B3
:102A500090E080E00E94E209CE0101960E941C0BEA
:102A6000CE010D960E941C0BCE0107960E941C0BF6
:102A700060912F0470913004CE0107960E94BC0A29
:102A800068E573E0CE010D960E940C0BBE01695FF4
:102A90007F4FCE010D960E948C0A8C018FED8983A9
:102AA0001A8241E050E0BE016F5F7F4FC8010E9473
:102AB0003B0A811103C0C8010E94660A66E673E002
:102AC000C8010E94780ABC01CE0101960E94F30A57
:102AD000AE014F5F5F4F63E070E090E080E00E94E6
:102AE000E209CE0101960E941C0BCE010D960E94B8
:102AF0001C0BCE0107960E941C0B60E082E00E9436
:102B0000530360E08BE00E94530360E084E00E9486
:102B1000530361E083E00E945303109237040FCF08
:102B20006170FECC0E94A70968E673E0CE010196B1
:102B30000E940C0BAE014F5F5F4F70E060E090E0D1
:102B400080E00E94E209CE0101960E941C0B65E024
:102B500076E0CE0101960E94F30AAE014F5F5F4F0F
:102B600061E070E083E090E00E94E209CE0101960E
:102B70000E941C0B69E773E0CE0101960E940C0BCA
:102B8000AE014F5F5F4F62E070E090E080E00E9436
:102B9000E209CE0101960E941C0B67E873E0CE01AA
:102BA00001960E940C0BAE014F5F5F4F63E070E037
:102BB00090E080E00E94E209CE0101960E941C0B89
:102BC00068EE73E080E090E00E94E10381E0809392
:102BD0003804BBCE85E592E09093E7058093E60547
:102BE0008091270490912804865E954071F4E091CD
:102BF000F905F091FA0590818091FB058095892374
:102C00008083109228041092270485E096E00C94AB
:102C10001C0BBB274A3031F4992322F4BDE2909576
:102C200081959F4F01C0BB27FB015527AA27880F1D
:102C3000991FAA1FA41710F0A41B83955051B9F730
:102C4000A05DAA3308F0A95DA193009779F7B111AF
:102C5000B1931192CB0100C0DC01FC01672F71918F
:102C60007723E1F7329704C07C916D937083629172
:102C7000AE17BF07C8F30895E89409C097FB3EF468
:102C800090958095709561957F4F8F4F9F4F9923B9
:102C9000A9F0F92F96E9BB279395F6958795779537
:102CA0006795B795F111F8CFFAF4BB0F11F460FFF7
:102CB0001BC06F5F7F4F8F4F9F4F16C0882311F04F
:102CC00096E911C0772321F09EE8872F762F05C063
:102CD000662371F096E8862F70E060E02AF09A95FE
:102CE000660F771F881FDAF7880F9695879597F9F3
:102CF00008950BD078C069D028F06ED018F09523D5
:102D000009F05AC05FC01124A2C07ED0A0F3959FE5
:102D1000D1F3950F50E0551F629FF001729FBB27C2
:102D2000F00DB11D639FAA27F00DB11DAA1F649F6E
:102D30006627B00DA11D661F829F2227B00DA11D21
:102D4000621F739FB00DA11D621F839FA00D611DA7
:102D5000221F749F3327A00D611D231F849F600DC8
:102D6000211D822F762F6A2F11249F5750408AF001
:102D7000E1F088234AF0EE0FFF1FBB1F661F771F8D
:102D8000881F91505040A9F79E3F510570F014C024
:102D90005EC05F3FECF3983EDCF3869577956795D0
:102DA000B795F795E7959F5FC1F7FE2B880F911DAB
:102DB0009695879597F9089597F99F6780E870E051
:102DC00060E008959FEF80EC089500240A941616A1
:102DD000170618060906089500240A941216130609
:102DE000140605060895092E0394000C11F4882397
:102DF00052F0BB0F40F4BF2B11F460FF04C06F5FB3
:102E00007F4F8F4F9F4F089557FD9058440F551F88
:102E100059F05F3F71F04795880F97FB991F61F05C
:102E20009F3F79F087950895121613061406551FD3
:102E3000F2CF4695F1DF08C0161617061806991F3F
:102E4000F1CF86957105610508940895E894BB2734
:102E500066277727CB0197F908955058BB27AA27F3
:102E60000ED0C1CFB2DF30F0B7DF20F031F49F3F9A
:102E700011F41EF4A7CF0EF4E095E7FB9DCFE92FE8
:102E8000C3DF80F3BA17620773078407950718F04A
:102E900071F49EF5DBCF0EF4E0950B2EBA2FA02D2A
:102EA0000B01B90190010C01CA01A0011124FF27F7
:102EB000591B99F0593F50F4503E68F11A16F040F2
:102EC000A22F232F342F4427585FF3CF46953795F1
:102ED0002795A795F0405395C9F77EF41F16BA0BB6
:102EE000620B730B840BBAF09150A1F0FF0FBB1F64
:102EF000661F771F881FC2F70EC0BA0F621F731FAD
:102F0000841F48F4879577956795B795F7959E3F09
:102F100008F0B3CF9395880F08F09927EE0F979597
:102F20008795089504D06894B11191CF089574DF06
:102F300088F09F5790F0B92F9927B751A0F0D1F0A2
:102F4000660F771F881F991F1AF0BA95C9F712C02C
:102F5000B13081F07BDFB1E0089578CF672F782F13
:102F60008827B85F39F0B93FCCF386957795679598
:102F7000B395D9F73EF490958095709561957F4F04
:102F80008F4F9F4F089597FB072E16F4009406D09D
:102F900077FD08D013D007FC05D03EF490958195BD
:102FA0009F4F0895709561957F4F0895EE0FFF1F15
:102FB000881F8BBF0790F691E02D1994AA1BBB1BAD
:102FC00051E107C0AA1FBB1FA617B70710F0A61B29
:102FD000B70B881F991F5A95A9F780959095BC014A
:102FE000CD0108950F931F93CF93DF938230910506
:102FF00010F482E090E0E0910D06F0910E0630E0D2
:1030000020E0B0E0A0E0309799F42115310509F4F3
:103010004AC0281B390B24303105D8F58A819B81A1
:103020006115710589F1FB0193838283FE0111C053
:10303000408151810281138148175907E0F04817F8
:10304000590799F4109761F012960C931297139602
:103050001C933296CF01DF91CF911F910F9108956C
:1030600000930D0610930E06F4CF2115310551F093
:103070004217530738F0A901DB019A01BD01DF01B6
:10308000F801C1CFEF01F9CF90930E0680930D06A2
:10309000CDCFFE01E20FF31F8193919322503109AE
:1030A00039832883D7CF20910B0630910C06232B30
:1030B00041F4209115023091160230930C062093B2
:1030C0000B0620911302309114022115310541F4B1
:1030D0002DB73EB74091170250911802241B350BB3
:1030E000E0910B06F0910C06E217F307A0F42E1BFB
:1030F0003F0B2817390778F0AC014E5F5F4F24175C
:10310000350748F04E0F5F1F50930C0640930B0697
:10311000819391939FCFF0E0E0E09CCFCF93DF933A
:103120000097E9F0FC01329713821282A0910D06FC
:10313000B0910E06ED0130E020E01097A1F420815F
:103140003181820F931F20910B0630910C062817B6
:10315000390709F061C0F0930C06E0930B06DF918C
:10316000CF910895EA01CE17DF07E8F54A815B8128
:103170009E0141155105B1F7E901FB83EA834991AD
:103180005991C40FD51FEC17FD0761F4808191811F
:103190000296840F951FE901998388838281938128
:1031A0009B838A83F0E0E0E012968D919C911397C7
:1031B0000097B9F52D913C911197CD010296820FA0
:1031C000931F20910B0630910C062817390739F60A
:1031D000309751F510920E0610920D06B0930C0622
:1031E000A0930B06BCCFD383C28340815181840F4F
:1031F000951FC817D90761F44E5F5F4F8881998189
:10320000480F591F518340838A819B819383828316
:103210002115310509F0B0CFF0930E06E0930D06AD
:103220009ECFFD01DC01C0CF13821282D7CF4F9217
:103230005F926F927F928F929F92AF92BF92CF9246
:10324000DF92EF92FF920F931F93CF93DF938C0146
:10325000009791F4CB01DF91CF911F910F91FF90D7
:10326000EF90DF90CF90BF90AF909F908F907F9026
:103270006F905F904F90B6CEFC01E60FF71F9C0158
:1032800022503109E217F30708F4AAC0D901CD9101
:10329000DC911197C617D70718F1C530D10570F02A
:1032A000CE0104978617970748F0C61BD70B2297C5
:1032B000C193D1936D937C93CF0130DFC801DF912F
:1032C000CF911F910F91FF90EF90DF90CF90BF9023
:1032D000AF909F908F907F906F905F904F900895E8
:1032E0005B01AC1ABD0A4C018C0E9D1EA0910D060F
:1032F000B0910E06512C412CF12CE12C109731F598
:1033000080910B0690910C068815990509F05CC018
:103310004616570608F058C0809113029091140287
:10332000009741F48DB79EB7409117025091180253
:10333000841B950BE817F90708F052C0F0930C06B0
:10334000E0930B06F90171836083B8CF8D919C9156
:10335000119712966C90129713967C901397A8155C
:10336000B90559F56C0142E0C40ED11CCA14DB0446
:1033700020F1AC014A195B09DA011296159780F029
:103380006282738251834083D9016D937C93E114EF
:10339000F10471F0D7011396FC93EE9312978ECF40
:1033A00022968C0F9D1FF90191838083F301EFCF4B
:1033B000F0930E06E0930D0681CF4816590608F4E7
:1033C0002C017D01D3019ACFCB010CDE7C0100974B
:1033D00039F0AE01B80107D0C801A0DE87016ECF79
:1033E00010E000E06BCFFB01DC0102C001900D9208
:1033F00041505040D8F70895FB01DC0101900D9237
:103400000020E1F7089511E0C3E0D1E000E005C03D
:10341000802FFE01CBDD2196011DC430D10780E055
:083420000807B1F7F894FFCF93
:1034280004050600010203313233343536373839A2
:103438002A302300000F06800000004000140054CA
:10344800000000000029029401C1017502F201D0B8
:1034580001E401000000003C0810082809E60709FB
:1034680008F607E70700000000F009940128097032
:103478000500000000940894012809E607F00807F1
:10348800097C0800000000910104072B090D0A00BF
:103498002B0041540020202020202057656C636FAA
:1034A8006D65210020456E74657220796F757220F4
:1034B8006D6F62696C650020202020206E756D623A
:1034C80065723A00202020202020205741524E4982
:1034D8004E4721002020534D53206E6F7469666952
:1034E800636174696F6E002020202020206973209A
:1034F80073656E742E0041542B434D47463D310091
:1035080041542B434D47533D2200220D0057617211
:103518006E696E67212050726F706162696C6974A0
:1035280079206F662066697265210048756D696447
:103538006974792076616C7565203E20002500202D
:10354800202020486F6F642073797374656D0020A4
:10355800202020697320656E61626C65642E0046C8
:103568006C616D653A20004761733A200048756DBB
:1035780069646974793A200054656D706572617484
:103588007572653A200043002020204D6F62696CF7
:1035980065204E756D6265720020202020206973B9
:1035A80020736176656400202020737563636573FA
:0835B8007366756C6C7921004B
:020000023000CC
:10E000000D9489F10D94B2F10D94B2F10D94B2F129
:10E010000D94B2F10D94B2F10D94B2F10D94B2F1F0
:10E020000D94B2F10D94B2F10D94B2F10D94B2F1E0
:10E030000D94B2F10D94B2F10D94B2F10D94B2F1D0
:10E040000D94B2F10D94B2F10D94B2F10D94B2F1C0
:10E050000D94B2F10D94B2F10D94B2F10D94B2F1B0
:10E060000D94B2F10D94B2F10D94B2F10D94B2F1A0
:10E070000D94B2F10D94B2F10D94B2F10D94B2F190
:10E080000D94B2F10D94B2F10D94B2F10D94B2F180
:10E090000D94B2F10D94B2F10D94B2F10D94B2F170
:10E0A0000D94B2F10D94B2F10D94B2F10D94B2F160
:10E0B0000D94B2F10D94B2F10D94B2F10D94B2F150
:10E0C0000D94B2F10D94B2F10D94B2F10D94B2F140
:10E0D0000D94B2F10D94B2F10D94B2F10D94B2F130
:10E0E0000D94B2F141546D656761323536300041AF
:10E0F000726475696E6F206578706C6F72657220DE
:10E1000073746B3530305632206279204D4C530099
:10E11000426F6F746C6F616465723E004875683F52
:10E1200000436F6D70696C6564206F6E203D200048
:10E130004350552054797065202020203D20005FF9
:10E140005F4156525F415243485F5F3D2000415658
:10E1500052204C696243205665723D20004743437C
:10E160002056657273696F6E203D20004350552024
:10E1700049442020202020203D20004C6F7720663D
:10E18000757365202020203D20004869676820665F
:10E190007573652020203D200045787420667573D6
:10E1A00065202020203D20004C6F636B2066757336
:10E1B000652020203D20004D617220203720323024
:10E1C000313300312E362E3800342E332E350056A2
:10E1D00023202020414444522020206F7020636F70
:10E1E00064652020202020696E73747275637469E1
:10E1F0006F6E2061646472202020496E74657272B3
:10E20000757074006E6F20766563746F7200726A49
:10E210006D702020006A6D70200057686174207056
:10E220006F72743A00506F7274206E6F7420737541
:10E2300070706F72746564004D7573742062652030
:10E2400061206C6574746572002000577269747483
:10E25000696E672045450052656164696E672045B7
:10E26000450045452065727220636E743D00504F35
:10E27000525400303D5A65726F2061646472003FF1
:10E280003D43505520737461747300403D454550C3
:10E29000524F4D207465737400423D426C696E6B41
:10E2A000204C454400453D44756D70204545505215
:10E2B0004F4D00463D44756D7020464C415348001B
:10E2C000483D48656C70004C3D4C69737420492F83
:10E2D0004F20506F72747300513D51756974005234
:10E2E0003D44756D702052414D00563D73686F7707
:10E2F00020696E7465727275707420566563746FF0
:10E30000727300593D506F727420626C696E6B00BD
:10E310002A0011241FBECFEFD1E2DEBFCDBF01E046
:10E320000CBF12E0A0E0B2E0EEE1FDEF03E00BBFB6
:10E3300002C007900D92A030B107D9F712E0A0E01B
:10E34000B2E001C01D92AE30B107E1F70F9460F367
:10E350000D948DFE01E20EBF0FEF0DBF11241FBE05
:10E360000D9460F30D9400F020E030E040ED57E0B4
:10E3700005C0FA013197F1F72F5F3F4F2817390792
:10E38000C0F308959C01260F311DC901A0E0B0E043
:10E390002F5F3F4FABBFFC018791882361F08093D3
:10E3A000C6008091C00086FFFCCF8091C0008064D1
:10E3B0008093C000EACF08958DE08093C6008091DD
:10E3C000C00086FFFCCF8091C00080648093C000B5
:10E3D0008AE08093C6008091C00086FFFCCF8091C8
:10E3E000C00080648093C00008950F94C2F10F9420
:10E3F000DCF10895FC019081992359F09093C600B7
:10E400008091C00086FFFCCF8091C0008064809323
:10E41000C0003196992379F70895282F982F929567
:10E420009F70892F805D8A3308F0895F8093C600D2
:10E430008091C00086FFFCCF8091C00080648093F3
:10E44000C000822F8F70982F905D9A3308F0995FEB
:10E450009093C6008091C00086FFFCCF8091C000E1
:10E4600080648093C00008959C01FB01853691056E
:10E470001CF46330710594F0C90164E670E00F94F8
:10E480002EFE605D7F4F6093C6008091C00086FFC6
:10E49000FCCF8091C00080648093C0002B30310598
:10E4A00014F43297B4F0C90164E670E00F942EFEC4
:10E4B0006AE070E00F942EFE605D7F4F6093C600AF
:10E4C0008091C00086FFFCCF8091C0008064809363
:10E4D000C000C9016AE070E00F942EFEC0968093E0
:10E4E000C6008091C00086FFFCCF8091C000806490
:10E4F0008093C00008951F93182F8EE692EE60E07F
:10E500000F94C2F11093C6008091C00086FFFCCF2B
:10E510008091C00080648093C0000F94DCF11F9153
:10E5200008952F923F924F925F926F927F928F92B7
:10E530009F92AF92BF92CF92DF92EF92FF920F9392
:10E540001F93DF93CF93CDB7DEB762970FB6F894E2
:10E55000DEBF0FBECDBF382E622ECA01DB015C01CB
:10E560006D01772420E2222E2E010894411C511CBB
:10E570008BC081E0A81680E0B80681E0C80680E084
:10E58000D80628F0C601AA27BB270F940DF2BB2797
:10E59000AD2D9C2D8B2D0F940DF28A2D0F940DF225
:10E5A0002092C6008091C00086FFFCCF8091C00001
:10E5B00080648093C0009DE29093C6008091C0006B
:10E5C00086FFFCCF8091C00080648093C0002092C1
:10E5D000C6008091C00086FFFCCF8091C00080649F
:10E5E0008093C00019828601750188249924A1E0D6
:10E5F0003A1651F03A1620F0B2E03B1661F409C029
:10E600000BBFF701779007C0C7010F9477FE782EF4
:10E6100002C0F7017080872D0F940DF22092C60082
:10E620008091C00086FFFCCF8091C0008064809301
:10E63000C000872D8052F401EF70F0708F3520F408
:10E64000E40DF51D708204C0E40DF51D8EE280839B
:10E650000894E11CF11C011D111D0894811C911CE2
:10E6600090E18916910409F0C2CF80E190E0A0E02A
:10E67000B0E0A80EB91ECA1EDB1E198AC2010F9493
:10E68000FAF10F94DCF16A94662009F072CF629679
:10E690000FB6F894DEBF0FBECDBFCF91DF911F91B3
:10E6A0000F91FF90EF90DF90CF90BF90AF909F9031
:10E6B0008F907F906F905F904F903F902F90089534
:10E6C0002F923F924F925F926F927F928F929F9282
:10E6D000AF92BF92CF92DF92EF92FF920F931F9370
:10E6E000DF93CF93CDB7DEB7CD53D1400FB6F894BB
:10E6F000DEBF0FBECDBF01E20EBF0FEF0DBF94B75F
:10E70000F894A89514BE80916000886180936000A1
:10E7100010926000789493FF05C0E0910002F091A0
:10E7200001021995279A2F9A8091C00082608093E8
:10E73000C00080E18093C40088E18093C1000000A4
:10E74000EE24FF24870144E0A42EB12CCC24DD2448
:10E7500024C0C5010197F1F70894E11CF11C011DCB
:10E76000111D21E2E2162EE4F20620E0020720E06D
:10E77000120718F031E0C32ED12CC801B70127ECE5
:10E780003BE140E050E00F9441FE611571058105C9
:10E79000910519F485B1805885B98091C00087FD35
:10E7A00003C0C114D104A9F2A6014F5F5F4FC25E3E
:10E7B000DE4F59834883CE51D140C25EDE4F8881FF
:10E7C0009981CE51D140019711F00D9410FEC05D9A
:10E7D000DE4F19821882C053D14060E0C15DDE4F28
:10E7E0001882CF52D14088249924C35DDE4F19820C
:10E7F0001882CD52D140C05EDE4F188219821A8233
:10E800001B82C052D140CE5CDE4F188219821A8220
:10E810001B82C253D140EE24FF2487010BBFF701B6
:10E8200007911691C45CDE4F19830883CC53D14005
:10E830000D940BFEC25EDE4F28813981CE51D1404E
:10E840002130310509F52091C600C25EDE4F1982E4
:10E850001882CE51D14022C02F5F3F4F4F4F5F4FA4
:10E86000213082E138078AE7480780E0580780F0C6
:10E87000C45CDE4FE881F981CC53D140EF5FFF4F9C
:10E8800019F0EE27FF27099420E030E040E050E047
:10E890008091C00087FFE0CF2091C600C35DDE4FAE
:10E8A00048815981CD52D1404F5F5F4FC35DDE4FEC
:10E8B00059834883CD52D140213209F063C64A3092
:10E8C000510508F05FC60894811C911C53E0851621
:10E8D000910409F059C600E010E018C081E280936D
:10E8E000C6008091C00086FFFCCF8091C00080648C
:10E8F0008093C0002F5F3F4F2931310579F70F9486
:10E90000DCF10F5F1F4F0530110519F020E030E0FA
:10E91000E5CF10920A0210920B0210920C02109294
:10E920000D02109206021092070210920802109235
:10E930000902109202021092030210920402109235
:10E9400005028FEE90EE60E00F94F5F180E191EE1C
:10E9500060E00F94C2F18091C00087FFFCCF9091DE
:10E96000C600903608F09F759032B8F09093C600BC
:10E970008091C00086FFFCCF8091C00080648093AE
:10E98000C000A0E2A093C6008091C00086FFFCCF2B
:10E990008091C00080648093C000983409F4D7C18E
:10E9A0009934B8F4923409F459C1933458F490333B
:10E9B00019F1903308F4E3C59F33A1F1903409F0C5
:10E9C000DEC5BDC0953409F470C1963409F0D7C5D1
:10E9D00098C1923509F42BC2933538F49C3409F46C
:10E9E000F5C1913509F0CBC518C2963509F445C279
:10E9F000993509F0C4C567C483E792EE62E00F94CD
:10EA0000F5F110920602109207021092080210927D
:10EA1000090210920A0210920B0210920C0210923C
:10EA20000D0213C18FE792EE62E00F94F5F18FEEC5
:10EA300090EE60E00F94F5F181E291EE60E00F94CA
:10EA4000C2F187EB91EE60E00F94F5F180E391EE77
:10EA500060E00F94C2F184EE90EE60E00F94F5F167
:10EA60008FE391EE60E00F94C2F186E090E061E008
:10EA700070E00F9434F20F94DCF18DE591EE60E0DC
:10EA80000F94C2F189EC91EE60E00F94F5F18EE401
:10EA900091EE60E00F94C2F183EC91EE60E00F9490
:10EAA000F5F18CE691EE60E00F94C2F18EE10F94E7
:10EAB0000DF288E90F940DF281E00F940DF20F949E
:10EAC000DCF18BE791EE60E00F94C2F119E0E0E039
:10EAD000F0E010935700E4918E2F0F940DF20F94F5
:10EAE000DCF18AE891EE60E00F94C2F1E3E0F0E03F
:10EAF00010935700E4918E2F0F940DF20F94DCF1D8
:10EB000089E991EE60E00F94C2F1E2E0F0E0109349
:10EB10005700E4918E2F0F940DF20F94DCF188EAE8
:10EB200091EE60E00F94C2F1E1E0F0E01093570045
:10EB30001491812F0F940DF20F94DCF107CF8BE825
:10EB400092EE62E00F94F5F18BE492EE60E00F94A8
:10EB5000F5F10F94DCF100E010E019C0C8016F2D51
:10EB60000F947FFEFF2031F489E492EE60E00F9471
:10EB7000C2F10BC0F092C6008091C00086FFFCCFAE
:10EB80008091C00080648093C0000F5F1F4FC80158
:10EB900081519F41A0E0B0E0ABBFFC01F790BAE229
:10EBA000FB1621F0E2E000301E07C1F60F94DCF105
:10EBB0000F94DCF187E592EE60E00F94F5F10F948D
:10EBC000DCF1CC24DD2400E010E01EC0C8010F946D
:10EBD00077FEF82E882331F489E492EE60E00F94FA
:10EBE000C2F10BC08093C6008091C00086FFFCCFAD
:10EBF0008091C00080648093C000FE1419F00894D6
:10EC0000C11CD11C0F5F1F4FC80181519F41A0E063
:10EC1000B0E0ABBFFC01E790FAE2EF1621F022E092
:10EC20000030120799F60F94DCF10F94DCF182E6C4
:10EC300092EE60E00F94C2F1C60161E070E00F94C3
:10EC400034F20F94DCF10F94DCF110920202109276
:10EC50000302109204021092050278CE89E992EE26
:10EC600062E00F94F5F1279A2F9A16C02F9880E052
:10EC700090E0E0EDF7E03197F1F7019684369105E9
:10EC8000C1F72F9A80E090E0E0EDF7E03197F1F7DF
:10EC9000019684369105C1F78091C00087FFE6CFC9
:10ECA0008091C00087FFFCCF64C485EA92EE62E0E9
:10ECB0000F94F5F140910202509103026091040219
:10ECC0007091050281E020E10F9491F2809102029F
:10ECD00090910302A0910402B091050280509F4FD1
:10ECE000AF4FBF4F8093020290930302A0930402A0
:10ECF000B093050280509041A040B04008F426CE69
:10ED0000A4CF83EB92EE62E00F94F5F140910602FE
:10ED100050910702609108027091090280E020E1A1
:10ED20000F9491F28091060290910702A09108023F
:10ED3000B091090280509F4FAF4FBF4F80930602A2
:10ED400090930702A0930802B0930902FFCD80ECD4
:10ED500092EE62E00F94F5F183E792EE60E00F949B
:10ED6000F5F18FE792EE60E00F94F5F18BE892EE0B
:10ED700060E00F94F5F189E992EE60E00F94F5F10F
:10ED800085EA92EE60E00F94F5F183EB92EE60E09D
:10ED90000F94F5F180EC92EE60E00F94F5F187ECC2
:10EDA00092EE60E00F94F5F188ED92EE60E00F9442
:10EDB000F5F18FED92EE60E00F94F5F18AEE92EEB0
:10EDC00060E00F94F5F183E093EEBDCD87EC92EE19
:10EDD00062E00F94F5F181E40F947BF282E40F94EA
:10EDE0007BF283E40F947BF284E40F947BF285E45E
:10EDF0000F947BF286E40F947BF287E40F947BF20E
:10EE000088E40F947BF28AE40F947BF28BE40F94F6
:10EE10007BF28CE40F947BF299CD88ED92EE62E068
:10EE20000F94F5F1772473948824992409C48FED05
:10EE300092EE62E00F94F5F140910A0250910B02BC
:10EE400060910C0270910D0282E020E10F9491F22A
:10EE500080910A0290910B02A0910C02B0910D02D8
:10EE600080509F4FAF4FBF4F80930A0290930B0289
:10EE7000A0930C02B0930D0269CD8AEE92EE62E08F
:10EE80000F94F5F184EE90EE60E00F94F5F18FECC5
:10EE900091EE60E00F94F5F1662477244301CC5D98
:10EEA000DE4F19821882C452D140D401C301B695F5
:10EEB000A79597958795CA5DDE4F88839983AA8326
:10EEC000BB83C652D140CC5DDE4FA881B981C4520C
:10EED000D1401196CC5DDE4FB983A883C452D14096
:10EEE000CD0162E070E00F9434F2B0E2B093C6005E
:10EEF0008091C00086FFFCCF8091C0008064809329
:10EF0000C000EDE2E093C6008091C00086FFFCCF18
:10EF10008091C00080648093C000F0E2F093C6004E
:10EF20008091C00086FFFCCF8091C00080648093F8
:10EF3000C000CA5DDE4FE880F9800A811B81C6529D
:10EF4000D140BB27A12F902F8F2D0F940DF2CA5DBA
:10EF5000DE4F8881C652D1400F940DF2B0E2FB2EF5
:10EF6000F092C6008091C00086FFFCCF8091C00067
:10EF700080648093C0000DE30093C6008091C000C0
:10EF800086FFFCCF8091C00080648093C00010E2B7
:10EF90001093C6008091C00086FFFCCF8091C00016
:10EFA00080648093C0008BBEF3012791C65DDE4F65
:10EFB0002883CA52D140A22EBB24CC24DD2408943D
:10EFC000611C711C811C911C8BBEF3018791282E42
:10EFD0003324442455240894611C711C811C911C09
:10EFE0008BBEF3013791C55DDE4F3883CB52D140E4
:10EFF0000894611C711C811C911C8BBEF30147910C
:10F00000C45DDE4F4883CC52D140ADEFEA2EAFEF66
:10F01000FA2EAFEF0A2FAFEF1A2F6E0C7F1C801E57
:10F02000911E142D032DF22CEE24EA0CFB1C0C1D5A
:10F030001D1D0F940DF220E22093C6008091C000A8
:10F0400086FFFCCF8091C00080648093C000C65DC5
:10F05000DE4F8881CA52D1400F940DF230E23093D6
:10F06000C6008091C00086FFFCCF8091C000806404
:10F070008093C000C45DDE4F8881CC52D1400F9494
:10F080000DF240E24093C6008091C00086FFFCCFA5
:10F090008091C00080648093C000C55DDE4F888190
:10F0A000CB52D1400F940DF250E25093C6008091A4
:10F0B000C00086FFFCCF8091C00080648093C000B8
:10F0C0008FEFE8168FEFF80680E0080780E018075A
:10F0D00031F484E092EE60E00F94C2F1DFC0D80119
:10F0E000C7018070907CA070B0708050904CA040A0
:10F0F000B040D1F52FEF3FE340E050E0E222F322B1
:10F1000004231523CA5DDE4FA880B980CA80DB8046
:10F11000C652D140AE0CBF1CC01ED11EAA0CBB1CD7
:10F12000CC1CDD1C8EE092EE60E00F94C2F1BB2798
:10F13000A12F902F8F2D0F940DF28E2D0F940DF285
:10F1400030E23093C6008091C00086FFFCCF8091F2
:10F15000C00080648093C0004EE34093C60080915D
:10F16000C00086FFFCCF87C08EE09EEFA0E0B0E03D
:10F17000E822F9220A231B239CE0E91694E9F90608
:10F1800090E0090790E0190709F088C0C45DDE4FE0
:10F19000A881CC52D140EA2EFF2400E010E0102FCD
:10F1A0000F2DFE2CEE24C55DDE4FB881CB52D14031
:10F1B000EB0EF11C011D111DD601C501817090706F
:10F1C000A070B070DC0199278827E80EF91E0A1F8D
:10F1D0001B1F20EF30E040E050E0A222B322C42207
:10F1E000D52241E1AA0CBB1CCC1CDD1C4A95D1F7F1
:10F1F000EA0CFB1C0C1D1D1D81E090E0A0E0B0E0BE
:10F20000282239224A225B2235E1220C331C441C7D
:10F21000551C3A95D1F7E20CF31C041D151D57013E
:10F220006801AA0CBB1CCC1CDD1C85E192EE60E0E1
:10F230000F94C2F1C801AA27BB270F940DF2BB2778
:10F24000A12F902F8F2D0F940DF28E2D0F940DF274
:10F2500090E29093C6008091C00086FFFCCF809121
:10F26000C00080648093C000AEE3A093C60080918C
:10F27000C00086FFFCCF8091C00080648093C000F6
:10F28000C601AA27BB270F940DF2BB27AD2D9C2DDD
:10F290008B2D0F940DF28A2D0F940DF20F94DCF14B
:10F2A000CC5DDE4FE881F981C452D140F99709F471
:10F2B0004DCBF4E0EF2EF12C012D112D6E0C7F1CA7
:10F2C000801E911EF2CD83E093EE62E00F94F5F183
:10F2D0008AE192EE60E00F94C2F18091C00087FF56
:10F2E000FCCF1091C6001F751093C6008091C0001E
:10F2F00086FFFCCF8091C00080648093C0000F9493
:10F30000DCF1812F81548A3108F036C1163409F4BA
:10F3100095C0173490F4133409F44EC0143430F40B
:10F320001134F1F0123409F01DC130C0143409F465
:10F3300059C0153409F016C16BC01A3409F4C4C0A1
:10F340001B3438F4173409F48FC0183409F00AC19B
:10F35000A1C01B3409F4D2C01C3409F003C1E8C0B9
:10F360008FEF81B90DC082B1809582B980E090E0C5
:10F37000E0EDF7E03197F1F70196883C9105C1F790
:10F380008091C00087FFEFCF12B8EFC08FEF84B934
:10F390000DC085B1809585B980E090E0E0EDF7E0A3
:10F3A0003197F1F70196883C9105C1F78091C00033
:10F3B00087FFEFCF15B8D9C08FEF87B90DC088B1DF
:10F3C000809588B980E090E0E0EDF7E03197F1F7C3
:10F3D0000196883C9105C1F78091C00087FFEFCF6F
:10F3E00018B8C3C08FEF8AB90DC08BB180958BB9A7
:10F3F00080E090E0E0EDF7E03197F1F70196883C8E
:10F400009105C1F78091C00087FFEFCF1BB8ADC059
:10F410008FEF8DB90DC08EB180958EB980E090E0F0
:10F42000E0EDF7E03197F1F70196883C9105C1F7DF
:10F430008091C00087FFEFCF1EB897C08FEF80BBD1
:10F440000DC081B3809581BB80E090E0E0EDF7E0F6
:10F450003197F1F70196883C9105C1F78091C00082
:10F4600087FFEFCF11BA81C08FEF83BB0DC084B38C
:10F47000809584BB80E090E0E0EDF7E03197F1F714
:10F480000196883C9105C1F78091C00087FFEFCFBE
:10F4900014BA6BC08FEF809301010FC080910201FD
:10F4A00080958093020180E090E0E0EDF7E03197F5
:10F4B000F1F70196883C9105C1F78091C00087FF64
:10F4C000EDCF1092020151C08FEF809304010FC065
:10F4D0008091050180958093050180E090E0E0ED4A
:10F4E000F7E03197F1F70196883C9105C1F78091DB
:10F4F000C00087FFEDCF1092050137C08FEF8093DA
:10F5000007010FC08091080180958093080180E079
:10F5100090E0E0EDF7E03197F1F70196883C910536
:10F52000C1F78091C00087FFEDCF109208011DC088
:10F530008FEF80930A010FC080910B01809580931B
:10F540000B0180E090E0E0EDF7E03197F1F70196F4
:10F55000883C9105C1F78091C00087FFEDCF1092E4
:10F560000B0103C085E292EEEEC98091C00087FFD7
:10F57000FCCF8091C600EAC988E392EEE4C98CE131
:10F5800091EEE1C988249924933011F1943028F444
:10F59000913089F09230B8F408C0953061F195301F
:10F5A000F0F0963009F048C043C02B3109F042C951
:10F5B00091E06BE13FC96227C15DDE4F2883CF52E6
:10F5C000D14092E037C9B22FA0E0622793E032C960
:10F5D000822F90E0A82BB92B622794E02BC92E3004
:10F5E00009F039C3622795E0C05DDE4F19821882A9
:10F5F000C053D1401FC9E1E0F0E0EC0FFD1FC05D3A
:10F60000DE4F08811981C053D140E00FF11F2083E4
:10F610000F5F1F4FC05DDE4F19830883C053D14079
:10F6200062270A171B0709F005C9D80196E002C92D
:10F63000261709F010C303C0973009F0FBC87724E0
:10F640009981933109F412C19431C8F4963009F4C8
:10F65000D8C0973050F4923009F406C1933009F4C1
:10F660006DC0913009F059C253C0913109F477C08F
:10F67000923108F0BBC0903109F04FC2F5C098310B
:10F6800009F487C0993150F4953109F4EFC09531F0
:10F6900008F4C6C1963109F040C2C2C19A3109F4DA
:10F6A0006CC09A3108F491C09B3109F45BC09D3164
:10F6B00009F033C29D81903359F48F81882311F46E
:10F6C0009EE11CC0813011F091E018C098E916C08D
:10F6D000892F807591F0903539F4E0E0F0E089E011
:10F6E0008093570094910AC0983539F4E3E0F0E034
:10F6F00089E080935700949101C090E01A821B82A8
:10F700008D818C831D829E831F8227E030E009C299
:10F710001A8288E08B8381E48C8386E58D8382E581
:10F720008E8389E48F8383E5888780E589878FE5E9
:10F730008A8782E38B872BE030E0F3C18A818139AD
:10F7400041F0823941F0803911F48FE005C080E04A
:10F7500003C082E001C08AE01A828B8344C0772410
:10F76000739482C08D81882311F48EE12CC0813086
:10F7700011F081E028C088E926C01A82E1E0F0E0BB
:10F7800089E08093570084918B831C8224E030E0D1
:10F79000C8C18B81803589F48C81883039F4E2E0EE
:10F7A000F0E089E08093570084910DC0E0E0F0E044
:10F7B00089E080935700849106C0E3E0F0E089E09F
:10F7C0008093570084911A82DFCF8D81836C99E0FA
:10F7D000E1E0F0E0082E90935700E89507B600FCB2
:10F7E000FDCF1A821B8223E030E09BC180EC8A832C
:10F7F000CE5CDE4F188219821A821B82C253D1401E
:10F800008EC18A8190E0A0E0B0E0582F44273327D2
:10F8100022278B8190E0A0E0B0E0DC0199278827C7
:10F82000282B392B4A2B5B2B8D8190E0A0E0B0E098
:10F83000282B392B4A2B5B2B8C8190E0A0E0B0E089
:10F84000BA2FA92F982F8827282B392B4A2B5B2BCF
:10F85000220F331F441F551FC05EDE4F288339839C
:10F860004A835B83C052D1401A8259C13A81C95C34
:10F87000DE4F3883C753D140CA5CDE4F1882C6536F
:10F88000D1408B81C82EDD24CA5CDE4F488159816E
:10F89000C653D140C42AD52A933109F082C0CE5C28
:10F8A000DE4F88819981AA81BB81C253D1408050AB
:10F8B000904CA340B04030F583E0CE5CDE4FE88052
:10F8C000F9800A811B81C253D140F70100935B008C
:10F8D00080935700E89507B600FCFDCFCE5CDE4F65
:10F8E000088119812A813B81C253D14000501F4FAA
:10F8F0002F4F3F4FCE5CDE4F088319832A833B8313
:10F90000C253D140C05EDE4F488159816A817B81FC
:10F91000C052D140DE011B9631E08C9111962C91A2
:10F9200011971296C75CDE4F2883C953D140C85C3B
:10F93000DE4F1882C853D14090E0C85CDE4FE881AA
:10F94000F981C853D1408E2B9F2B0C01FA01609393
:10F950005B0030935700E89511244E5F5F4F6F4F67
:10F960007F4F0EEFE02E0FEFF02ECE0CDF1CC114F8
:10F97000D10499F685E0C05EDE4F088119812A81A5
:10F980003B81C052D140F80120935B008093570027
:10F99000E89507B600FCFDCF81E180935700E8951C
:10F9A00035C0C05EDE4F88819981AA81BB81C0527B
:10F9B000D140B695A795979587957C018601ABE0D8
:10F9C000AA2EB12CAC0EBD1E0BC0D5016D915D01F0
:10F9D000C7010F947FFE0894E11CF11C01501040F8
:10F9E0000115110591F7A60160E070E0440F551F65
:10F9F000661F771FC05EDE4FE880F9800A811B8199
:10FA0000C052D1404E0D5F1D601F711F1A82C05E33
:10FA1000DE4F488359836A837B83C052D1407FC0C5
:10FA2000FA80C55CDE4FF882CB53D140C65CDE4F16
:10FA30001882CA53D1408B81C82EDD24C65CDE4FAC
:10FA400008811981CA53D140C02AD12A1A828981DA
:10FA5000BE016D5F7F4F843121F59601C05EDE4FA0
:10FA6000E880F9800A811B81C052D1400BBFF701A9
:10FA700087919691DB018C9311969C936E5F7F4FDB
:10FA8000D801C7010296A11DB11DC05EDE4F88835B
:10FA90009983AA83BB83C052D14022503040F1F6F3
:10FAA00036C0C05EDE4F288139814A815B81C052F9
:10FAB000D1400894C108D108760100E010E0089414
:10FAC000C11CD11C0894E11CF11C011D111DE20E8A
:10FAD000F31E041F151F21BDBB27A52F942F832FB5
:10FAE00082BD2F5F3F4F4F4F5F4FF89A80B5DB01CC
:10FAF0008D93BD012E153F054007510761F7C05E8C
:10FB0000DE4F288339834A835B83C052D1409601FC
:10FB10002D5F3F4FFB01108204C080EC8A8322E0FE
:10FB200030E08BE18093C6008091C00086FFFCCF5F
:10FB30008091C00080648093C000C15DDE4FF88179
:10FB4000CF52D140F093C6008091C00086FFFCCF19
:10FB50008091C00080648093C000432F3093C60022
:10FB60008091C00086FFFCCF8091C00080648093AC
:10FB7000C000922F2093C6008091C00086FFFCCF6A
:10FB80008091C00080648093C0008EE08093C600A6
:10FB90008091C00086FFFCCF8091C000806480937C
:10FBA000C00065E1C15DDE4FE880CF52D1406E25D7
:10FBB00069276427FE01319610C090819093C6009A
:10FBC0008091C00086FFFCCF31968091C000806498
:10FBD0008093C0006927215030402115310569F715
:10FBE0006093C6008091C00086FFFCCF8091C0006A
:10FBF00080648093C00085B1805885B9772081F4F6
:10FC0000C15DDE4F0881CF52D1400F5FC15DDE4F35
:10FC10000883CF52D14090E0A0E0B0E00D941AF4F8
:10FC200027982F9880E090E020ED37E0F901319798
:10FC3000F1F7019684369105C9F700008091C00064
:10FC40008D7F8093C00081E180935700E895EE2777
:10FC5000FF270994FFCF90E00D941AF497FB092E2B
:10FC600007260AD077FD04D02ED006D000201AF443
:10FC7000709561957F4F0895F6F7909581959F4F08
:10FC80000895A1E21A2EAA1BBB1BFD010DC0AA1FDD
:10FC9000BB1FEE1FFF1FA217B307E407F50720F0F5
:10FCA000A21BB30BE40BF50B661F771F881F991F70
:10FCB0001A9469F760957095809590959B01AC01B9
:10FCC000BD01CF010895AA1BBB1B51E107C0AA1FAC
:10FCD000BB1FA617B70710F0A61BB70B881F991FED
:10FCE0005A95A9F780959095BC01CD010895F99991
:10FCF000FECF92BD81BDF89A992780B50895262F31
:10FD0000F999FECF1FBA92BD81BD20BD0FB6F89400
:0EFD1000FA9AF99A0FBE01960895F894FFCF63
:040000033000E000E9
:00000001FF
