:1000000003C1000032C1000030C100002EC1000059
:100010002CC100002AC1000028C1000026C1000038
:1000200024C100000C94ED0A0C94ED0A0C94ED0A26
:100030001CC100001AC1000018C1000016C1000058
:1000400014C1000012C1000010C100000EC1000068
:100050000CC100000AC1000008C100000C94800916
:1000600004C100000C944A090C942109FEC0000050
:10007000FCC00000FAC00000F8C00000F6C000009C
:10008000F4C00000F2C00000F0C00000EEC00000AC
:10009000ECC00000EAC00000E8C000000C94CA09EF
:1000A000E4C00000E2C00000E0C00000DEC00000CC
:1000B000DCC00000DAC00000D8C00000D6C00000DC
:1000C000D4C00000D2C00000D0C00000CEC00000EC
:1000D000CCC00000CAC00000C8C00000C6C00000FC
:1000E000C4C0000000002100240027002A002D00C9
:1000F0003000330001010000040107010A01000083
:100100000A0B02090C0D0E08070304010000000091
:1001100000000000000000000000000000000000DF
:10012000000000000000000000001211100000009C
:1001300000000000000000000000000000000000BF
:1001400000000000000020002300260029002C00F1
:100150002F00320000010000030106010901000028
:100160002200250028002B002E003100340002015F
:100170000000050108010B01050505050705080834
:100180000808020202020A0A080804040404010121
:100190000101010101010303030303030303040736
:1001A00007070C0C0C0C0C0C0C0C020202020606CD
:1001B0000606060606060B0B0B0B0B0B0B0B0102C0
:1001C0001020200808102040102040800201020169
:1001D0000804020101020408102040808040201021
:1001E000080402018004020180402010080402017A
:1001F00008040201010204081020408001020408E2
:1002000010204080690B931011241FBECFEFD1E264
:10021000DEBFCDBF00E00CBF24E0A4ECB2E001C023
:100220001D92A53CB207E1F712E0A0E0B2E0E8E7DA
:10023000F9E200E00BBF02C007900D92A43CB107A9
:10024000D9F711E0C3E0D1E000E006C02197010931
:10025000802FFE010E947E12C230D10780E0080785
:10026000A9F70E94650C0C94AB14CACECF92DF9212
:10027000EF92FF92CF93DF93B0919004A0E08111B1
:10028000AB2F8091910490E0880F991FAC014C5BDB
:100290005E4FC0909604D0909704E0909804F09040
:1002A000990430E020E0FA01C591D491E881B901C8
:1002B00090E080E0EB23EA130AC02F5F3F4F6C15FC
:1002C0007D058E059F0578F36FEF7FEFCB01DF9102
:1002D000CF91FF90EF90DF90CF900895089508950B
:1002E000AF92BF92CF92DF92EF92FF920F931F9344
:1002F000CF93DF936C017B018B01040F151FEB0182
:100300005E01AE18BF08C017D10759F06991D60138
:10031000ED91FC910190F081E02DC6011995892B9A
:1003200079F7C501DF91CF911F910F91FF90EF9069
:10033000DF90CF90BF90AF900895FC01538D448D16
:10034000252F30E0842F90E0821B930B541710F080
:10035000CF96089501970895FC01918D828D98178D
:1003600061F0A28DAE0FBF2FB11D5D968C91928D65
:100370009F5F9F73928F90E008958FEF9FEF089596
:10038000FC01918D828D981731F0828DE80FF11D5F
:10039000858D90E008958FEF9FEF0895FC01918D7A
:1003A000228D892F90E0805C9F4F821B91098F7373
:1003B0009927089584ED93E0F1DF21E0892B09F47A
:1003C00020E0822F0895FC01A48DA80FB92FB11D44
:1003D000A35ABF4F2C91848D90E001968F7399277B
:1003E000848FA689B7892C93A089B1898C91837059
:1003F00080648C93938D848D981306C00288F38952
:10040000E02D80818F7D80830895EF92FF920F937E
:100410001F93CF93DF93EC0181E0888F9B8D8C8DB0
:1004200098131AC0E889F989808185FF15C09FB7A4
:10043000F894EE89FF896083E889F9898081837067
:10044000806480839FBF81E090E0DF91CF911F9116
:100450000F91FF90EF900895F62E0B8D10E00F5F37
:100460001F4F0F731127E02E8C8D8E110BC00FB60E
:1004700007FCFACFE889F989808185FFF5CFCE01A5
:10048000A2DFF2CFEB8DEC0FFD2FF11DE35AFF4FF2
:10049000F0829FB7F8940B8FEA89FB898081806294
:1004A000D0CFCF93DF93EC01888D8823B1F0AA8958
:1004B000BB89E889F9898C9185FD03C0808186FD1F
:1004C0000CC00FB607FCF7CF8C9185FFF2CF80816F
:1004D00085FFEDCFCE0177DFEACFDF91CF91089591
:1004E00080E090E0892B21F065DF81110E940000FF
:1004F00080E090E0892B49F080E090E0892B29F0A2
:100500000E94000081110E94000080E090E0892B91
:1005100049F080E090E0892B29F00E9400008111D1
:100520000E94000080E090E0892B49F080E090E09C
:10053000892B29F00E94000081110C94000008957D
:100540008150823108F05AC0E82FF0E08827E45546
:10055000FD4F8F4F0C947E12CC02D002BE02C4021B
:10056000C802FE02D302D902DD02E302E702EB0277
:10057000F102F502FE02F902FF02030380918000FE
:100580008F77809380000895809180008F7DF9CFD0
:1005900080918000877FF5CF84B58F7784BD0895E3
:1005A00084B58F7DFBCF8091B0008F778093B000B2
:1005B00008958091B0008F7DF9CF809190008F7762
:1005C000809390000895809190008F7DF9CF809165
:1005D0009000877FF5CF8091A0008F778093A00057
:1005E00008958091A0008F7DF9CF8091A000877F32
:1005F000F5CF809120018F7780932001089580911D
:1006000020018F7DF9CF80912001877FF5CFCF9397
:10061000DF93282F30E0F901E250FF4F8491F90178
:10062000E254FE4FD491F901E858FE4FC491CC2317
:1006300099F0811185DFEC2FF0E0EE0FFF1FEC5BEE
:10064000FE4FA591B491EC91ED2381E090E009F487
:1006500080E0DF91CF91089580E090E0FACF1F9382
:10066000CF93DF93282F30E0F901E250FF4F8491C0
:10067000F901E254FE4FD491F901E858FE4FC491BC
:10068000CC23A1F0162F81115BDFEC2FF0E0EE0FF1
:10069000FF1FE25AFE4FA591B4918FB7F894EC91E9
:1006A000111108C0D095DE23DC938FBFDF91CF916D
:1006B0001F910895DE2BF8CFCF93DF9390E0FC01DC
:1006C000E254FE4F249188589E4FFC018491882368
:1006D000C9F090E0880F991FFC01EC51FF4FA591E4
:1006E000B491FC01E25AFE4FC591D49161110DC045
:1006F0009FB7F8948C91209582238C93888128232E
:1007000028839FBFDF91CF910895623051F49FB746
:10071000F8943C91822F809583238C93E8812E2B33
:10072000EFCF8FB7F894EC912E2B2C938FBFEACF9D
:100730003FB7F8948091B7039091B803A091B903A3
:10074000B091BA0326B5A89B05C02F3F19F00196BA
:10075000A11DB11D3FBFBA2FA92F982F8827BC011B
:10076000CD01620F711D811D911D42E0660F771F43
:10077000881F991F4A95D1F708958F929F92AF9243
:10078000BF92CF92DF92EF92FF924B015C01D0DFDC
:100790006B017C01CDDF6C197D098E099F09683ED4
:1007A000734081059105B0F321E0821A9108A108F8
:1007B000B10888EEC80E83E0D81EE11CF11C81143C
:1007C0009104A104B10431F7FF90EF90DF90CF9036
:1007D000BF90AF909F908F900895CF92DF92EF924D
:1007E000FF920F931F93CF93DF93CDB7DEB7C05423
:1007F000D1400FB6F894DEBF0FBECDBF2FB7F8942F
:100800008091D0039091D103A091D203B091D303F2
:100810002FBF409192045091930460919404709181
:1008200095048C019D01041B150B260B370BB90198
:10083000A801403D57406105710590F480919A04EC
:10084000C05CDE4F0FB6F894DEBF0FBECDBFDF91A8
:10085000CF911F910F91FF90EF90DF90CF9008956F
:100860008093920490939304A0939404B09395047E
:1008700010928D0410928C0410928B0410928A04B2
:100880001092890462E080918E0416DF61E070E0CE
:1008900080E090E072DF61E080918E040DDF60E027
:1008A00080918E04DCDE80918F048551823010F5BA
:1008B0008BE291E10197F1F762E080918E04FCDE1A
:1008C00080919B0490E08230910538F0880F991F49
:1008D000880F991F05970197F1F7F89480E0C6DC1F
:1008E0006F3F7F4F8F4F9F4F59F410929A04789427
:1008F00080E0A6CF64E170E080E090E03EDFDCCFF6
:1009000081E0B4DC6F3F7F4F8F4F9F4F71F38E01BB
:100910000F5F1F4F6E018FEBC81A8EEFD80A780158
:1009200080E0A4DCF701608371838283938381E09C
:100930009DDCF7016483758386839783F8E0EF0E6F
:10094000F11CEC14FD0461F7789430E020E0F8012C
:10095000C080D180E280F3804481558166817781B7
:10096000FFEFCF16DF06EF06FF0631F04F3F8FEFA8
:1009700058076807780719F410929A04B9CFF9015B
:1009800083E0F595E7958A95E1F7E757FB4F80817E
:10099000880FC416D506E606F70610F180832F5F90
:1009A0003F4F085F1F4F2832310589F640918D0473
:1009B0002091890480918A04280F3327331F809166
:1009C0008B04280F311D80918C04820F932F911D71
:1009D00099274817190681F681E080939A0430CF51
:1009E0008160DCCF089520914503260F3327331F04
:1009F00021323105ECF420918E03FC0190E080E07F
:100A0000243069F082E00895A09145032191AC0162
:100A10004B5D5C4FA40FB52FB11D2C93019686172B
:100A200098F380914503680F6093450380E0089533
:100A300081E0089510928E0381E080938D031092DF
:100A4000680361E084E10BDE61E085E108DEE9EB4B
:100A5000F0E080818E7F808380818D7F808388E439
:100A60008093B80085E48093BC000895CF93DF9312
:100A700091E0909324038823A1F0C091B800D09115
:100A8000BA008091BC008A7B8093BC0060E084E166
:100A9000E6DD60E085E1E3DDCDDFD093BA00C09311
:100AA000B800DF91CF9108950895E091C603809139
:100AB000C503E81730F4F0E0EC5FFC4F808190E074
:100AC00008958FEF9FEF08959091C6038091C5031D
:100AD0002FEF3FEF981748F4E92FF0E0EC5FFC4F61
:100AE000208130E09F5F9093C603C90108958091F3
:100AF000C5039091C603891B990B0895CF92DF928D
:100B0000EF92FF920F931F93CF93DF937C01CB0162
:100B10008A0120919403222389F0EB016B01C40E1A
:100B2000D51ECC15DD0561F06991D701ED91FC91E1
:100B30000190F081E02DC7011995F3CF642F53DFA9
:100B4000C801DF91CF911F910F91FF90EF90DF903F
:100B5000CF900895CF93DF931F92CDB7DEB769830F
:100B6000209194032223F9F02091C303203258F0FE
:100B700021E030E0FC013383228390E080E00F909D
:100B8000DF91CF9108958091C403E82FF0E0EB56F8
:100B9000FC4F998190838F5F8093C4038093C3033C
:100BA00081E090E0ECCF61E0CE0101961CDFF8CF50
:100BB000CF92DF92EF92FF920F931F93CF93DF9329
:100BC000FC01C48121E020939403C093B5031092EB
:100BD000C4031092C3038385682B81E794E0BADFD6
:100BE000D091C303D13208F08CC0A2DD6B017C012F
:100BF00080918E03811162C082E080938E0381E038
:100C000080938D038FEF80938C0310928B03D0938E
:100C10008A03A5E9B3E0EAE6F3E080E0D81380C0F8
:100C20001092690380916903CC0FC82BC0936903AC
:100C300080916803813009F077C01092680378DDF5
:100C40006B017C01809169038093BB0080919003CC
:100C500090919103A0919203B0919303892B8A2BD9
:100C60008B2B91F065DD0091900310919103209101
:100C70009203309193036C197D098E099F09061721
:100C8000170728073907D0F18091BC0083FDDACF20
:100C900085EC8093BC004CDD6B017C0180918E0360
:100CA000823009F443C080918C038F3F51F18091D1
:100CB0008C03803231F180918C0323C080919003AA
:100CC00090919103A0919203B0919303892B8A2B69
:100CD0008B2B09F48DCF2CDD0091900310919103A3
:100CE00020919203309193036C197D098E099F091D
:100CF000061717072807390708F07ACF80918F0366
:100D0000B5DE1092C4031092C30310929403DF91D6
:100D1000CF911F910F91FF90EF90DF90CF900895AA
:100D20009D9191938F5F7ACF85EEB3CF80919003A1
:100D300090919103A0919203B0919303892B8A2BF8
:100D40008B2B09F4ABCFF4DC00919003109191034D
:100D500020919203309193036C197D098E099F09AC
:100D6000061717072807390708F098CFC7CF209133
:100D7000BD033091BE032817390771F49091BB036E
:100D80008091BC03981741F0E091BB03F0E0EC5375
:100D9000FD4F808190E008958FEF9FEF0895EF92CF
:100DA000FF920F931F93CF93DF93DC015C96ED903E
:100DB000FC905D97E114F10479F481E090E01396E2
:100DC0009C938E93129790E080E0DF91CF911F91DA
:100DD0000F91FF90EF9008955196ED91FC915297ED
:100DE00050968C915097982F90950FB75E962C91B6
:100DF0005E97122F127021FD6095F89420811123C7
:100E000019F1282B2083E7012197F1F728E0462FDD
:100E100050E0308160FF1AC0382B3083E701219702
:100E2000F1F7BA0175956795215089F7112381F083
:100E30008081892380830FBF5C968D919C9101975F
:100E4000F1F781E090E0C1CF2923DCCF3923E5CF52
:100E50009081892BEFCF2091BD033091BE032817DD
:100E6000390769F48091BC032091BB0390E0805C5A
:100E70009F4F821B910960E470E00C946B1290E02C
:100E800080E008952091BD033091BE0328173907F3
:100E9000B9F49091BB038091BC03981789F0E0915D
:100EA000BB03F0E0EC53FD4F80812091BB0330E0A9
:100EB0002F5F3F4F2F7333272093BB0390E008959C
:100EC0008FEF9FEF089590E080E008950F931F93B8
:100ED000CF938C01C62F6CDE6C2F6460C80168DE76
:100EE0006C2F6B7FC80164DE83EC90E00197F1F713
:100EF000CF911F910F9108950F931F93CF93DF937D
:100F00008C01D62FC42F607F642BE0DF80E1D89F57
:100F1000B00111246C2BC801DF91CF911F910F916B
:100F2000D5CF40E061E08DE794E0E6DF8BE39FE121
:100F30000197F1F708950F931F93CF93DF9300D09C
:100F400000D01F921F92CDB7DEB78B0198E0E6E08C
:100F5000F2E0DE01119601900D929A95E1F79091E1
:100F60008504981710F48FEF890F90E0880F991F70
:100F700021E030E02C0F3D1F820F931FFC016081A8
:100F8000606840E08DE794E0B7DFF8014481558167
:100F9000608171818DE794E028960FB6F894DEBFEA
:100FA0000FBECDBFDF91CF911F910F9199C941E045
:100FB000A3DF81E090E0089542E050E060E572E058
:100FC0008CE994E08DC9CF93DF93FC010190002060
:100FD000E9F73197AF01481B590BBC018CE994E04C
:100FE0007FD9EC01E9DF8C0F9D1FDF91CF91089530
:100FF0000F931F93CF93DF93EC0188819981009722
:1010000059F02A813B812617370730F081E0DF91C4
:10101000CF911F910F9108958B016F5F7F4F0E94B9
:10102000BF13009759F0998388831B830A832C810F
:101030003D81232B59F7FC011082E8CF80E0E7CFF8
:10104000CF93DF93EC0188819981009711F00E9482
:101050003613198218821D821C821B821A82DF912C
:10106000CF910895EF92FF920F931F93CF93DF9349
:10107000EC01FB01E080F180E114F10409F104814D
:10108000158101151105A1F08C819D81080F191F93
:10109000B801CE01ADDF882399F0288139818C8198
:1010A0009D81B701820F931F0E94A4141D830C839E
:1010B000CE01DF91CF911F910F91FF90EF90089596
:1010C000CE01BEDFF5CFEF92FF920F931F93CF9328
:1010D000DF93EC017B018A01BA018ADF81110AC02A
:1010E000CE01AEDFCE01DF91CF911F910F91FF9026
:1010F000EF9008951D830C83B701888199810E9428
:10110000A414F0CFEF92FF920F931F93CF93DF932E
:10111000CDB7DEB762970FB6F894DEBF0FBECDBF76
:101120008C01CB01F8011182108213821282158288
:1011300014824AE09E012F5F3F4F7901B9010E945E
:10114000B110F70101900020E9F73197AF014E1976
:101150005F09B701C801B7DF62960FB6F894DEBF2A
:101160000FBECDBFDF91CF911F910F91FF90EF90F8
:101170000895FB01DC0111961C921E9213961C929D
:101180001E92129715961C921E9214978617970717
:1011900041F0608171816115710519F044815581BB
:1011A00092CF0895FC01118210821382128215825F
:1011B0001482FB0101900020E9F73197AF01461B33
:1011C000570B81CFFC0180819181009711F00C9425
:1011D0003613089585ED8093BC0080919003909123
:1011E0009103A0919203B09193030796A11DB11DA5
:1011F00023E0B695A795979587952A95D1F72091E5
:10120000BC0024FD03C010928E030895409190030A
:10121000509191036091920370919303452B462B5B
:10122000472B69F30097A105B10541F025E32A9505
:10123000F1F700000197A109B109E1CF80918F0377
:1012400015CC1F920F920FB60F9211240BB60F926E
:101250002F933F934F935F936F937F938F939F93BE
:10126000AF93BF93EF93FF9384ED93E0ACD8FF91DE
:10127000EF91BF91AF919F918F917F916F915F910E
:101280004F913F912F910F900BBE0F900FBE0F907B
:101290001F9018951F920F920FB60F9211240BB644
:1012A0000F922F938F939F93EF93FF93E091E4031B
:1012B000F091E5038081E091EA03F091EB0382FD78
:1012C0001DC090818091ED038F5F8F732091EE039D
:1012D000821741F0E091ED03F0E0EC52FC4F958F66
:1012E0008093ED03FF91EF919F918F912F910F903C
:1012F0000BBE0F900FBE0F901F9018958081F2CFFC
:101300001F920F920FB60F9211242F933F938F933A
:101310009F93AF93BF938091D0039091D103A091FD
:10132000D203B091D3033091B60323E0230F2D37BE
:1013300058F50196A11DB11D2093B6038093D003EB
:101340009093D103A093D203B093D3038091B703BA
:101350009091B803A091B903B091BA030196A11D71
:10136000B11D8093B7039093B803A093B903B093D2
:10137000BA03BF91AF919F918F913F912F910F90A1
:101380000FBE0F901F90189526E8230F0296A11DFF
:10139000B11DD2CF1F920F920FB60F9211240BB630
:1013A0000F922F933F934F935F936F937F938F93FE
:1013B0009F93AF93BF93EF93FF938091B900887F82
:1013C000803609F44CC008F03FC0883209F4A8C048
:1013D00028F5803109F49CC0C8F4882309F4FAC0C8
:1013E000883009F495C0FF91EF91BF91AF919F9123
:1013F0008F917F916F915F914F913F912F910F90BE
:101400000BBE0F900FBE0F901F901895883109F4F6
:1014100087C0803241F780938C0314C0803409F474
:101420009CC040F48033B9F38833E9F680938C0391
:1014300085ECAFC0803509F484C0883509F495C0C7
:10144000883489F6C7DECFCF883909F48CC038F5E7
:10145000883729F050F4883611F0803721F683E080
:1014600080938E031092670357C0883809F47BC0BD
:10147000803919F0803809F0B6CF80916703803247
:1014800008F071C0E091670381E08E0F80936703DD
:101490008091BB00F0E0E95BFC4F80833DC0803B66
:1014A00039F0E0F4803A09F479C0883A09F09BCF2A
:1014B00084E080938E031092460310924503E091DE
:1014C000C103F091C20319958091450381110FC0AA
:1014D00081E0809345031092250309C0803C09F404
:1014E000A7CF883C09F4A4CF883B09F07CCFE091DA
:1014F000460381E08E0F80934603F0E0EB5DFC4FE6
:1015000080818093BB00909146038091450329C060
:10151000809169038093BB0085EC8093BC0063CF0E
:1015200090918B0380918A03981758F5E0918B0373
:1015300081E08E0F80938B03F0E0E659FC4F8081B1
:10154000E9CFE0918B0381E08E0F80938B03809134
:10155000BB00F0E0E659FC4F808390918B038091B3
:101560008A039817C8F285E8D8CFE0918B0381E011
:101570008E0F80938B038091BB00F0E0E659FC4F07
:10158000808380918D0381115DCF81E0809368031A
:1015900084EA8093BC0010928E0325CF85EC809363
:1015A000BC0010928E0380916703803230F4E0918A
:1015B0006703F0E0E95BFC4F10826091670370E025
:1015C000E091BF03F091C00387E493E01995109276
:1015D000670309CF10928C0335CF1F920F920FB67D
:1015E0000F9211240BB60F922F933F934F935F935B
:1015F0006F937F938F939F93AF93BF93EF93FF93DB
:10160000E091BD03F091BE03309749F0A685B78500
:101610008585968D91FF16C09C918923B1F4FF9129
:10162000EF91BF91AF919F918F917F916F915F915A
:101630004F913F912F910F900BBE0F900FBE0F90C7
:101640001F9018959C91892351F7A389B4899C9187
:101650008589809589238C93868997890197F1F7ED
:10166000608D718DA685B785558538E020E0CB016A
:101670000197F1F7822F90E095958795282F4C914F
:10168000452309F02068315091F7868D81FD209522
:101690008091BC0390E001968F7399273091BB0332
:1016A000381799F0A091BC03B0E0AC53BD4F2C9318
:1016B0008093BC03828D938D0197F1F7A389B48940
:1016C0008C919589892B8C93AACF868D8160868F8A
:1016D000F1CFCF92DF92EF92FF921092D703109248
:1016E000D60398EEC92E93E0D92EE12CF12CC092AE
:1016F000D803D092D903E092DA03F092DB0382E1BF
:1017000092E09093D5038093D40385EC90E090937E
:10171000E1038093E00384EC90E09093E3038093F3
:10172000E20380EC90E09093E5038093E40381EC86
:1017300090E09093E7038093E60382EC90E090932F
:10174000E9038093E80386EC90E09093EB038093A9
:10175000EA031092ED031092EE031092EF03109241
:10176000F0031092740410927304C0927504D09226
:101770007604E0927704F092780484E292E0909309
:1017800072048093710463E572E08BEB94E00ADDF0
:1017900010929F0410929E04C092A004D092A104C3
:1017A000E092A204F092A30482E492E090939D045C
:1017B00080939C041092B3041092B2041092B5046A
:1017C0001092B4041092B7041092B6041092B904A7
:1017D0001092B8046091BA046E7F6D7F6093BA0472
:1017E0006695617081E0682788E00E942F0361E0C0
:1017F00088E00E945C03E6ECF1E0E491E093AC0445
:10180000E0E8F1E0E491F0E0EE0FFF1FE25AFE4F56
:10181000859194919093AE048093AD0460E08DE047
:101820000E945C038091BA0481FD04C061E08DE0F8
:101830000E942F038DE08093A804EBECF1E0E4918B
:10184000E093A904E5E8F1E0E491F0E0EE0FFF1F7A
:10185000EC5BFE4F859194919093AB048093AA0426
:1018600084E080938E049BE090938F04E2ECF1E09F
:10187000E491E0939004ECE7F1E0E491E0939104CB
:1018800040E85EE360E070E0409396045093970474
:1018900060939804709399041092800410927F04CE
:1018A00026E332E030937E0420937D0497E2909308
:1018B000810494E1909386048093870410928804B5
:1018C000FF90EF90DF90CF900895CF93DF93CDB747
:1018D000DEB762970FB6F894DEBF0FBECDBF789427
:1018E00084B5826084BD84B5816084BD85B5826025
:1018F00085BD85B5816085BD80916E0081608093D6
:101900006E0010928100809181008260809381003E
:10191000809181008160809381008091800081604E
:10192000809380008091B10084608093B1008091A9
:10193000B00081608093B0008091910082608093BC
:10194000910080919100816080939100809190003E
:101950008160809390008091A10082608093A100BB
:101960008091A10081608093A1008091A00081609E
:101970008093A00080912101826080932101809159
:1019800021018160809321018091200181608093F9
:10199000200180917A00846080937A0080917A009F
:1019A000826080937A0080917A00816080937A00CF
:1019B00080917A00806880937A001092C100E09153
:1019C000E403F091E50382E08083E091E003F0918D
:1019D000E1031082E091E203F091E3038FEC808356
:1019E0001092EC03E091E803F091E90386E0808334
:1019F000E091E603F091E703808180618083E091CC
:101A0000E603F091E703808188608083E091E6033C
:101A1000F091E703808180688083E091E603F09194
:101A2000E70380818F7D808360E08AE00E945C0311
:101A300060E089E00E945C0360E084E00E945C0357
:101A400061E082E00E945C0361E083E00E945C034D
:101A500061E08BE00E945C031092B7041092B60420
:101A60001092B5041092B4041092B3041092B20410
:101A70008DE991E09093B9048093B8048091A80413
:101A800096EF980F943048F02EEC280F243028F071
:101A900022EC280F283008F061C02DEB30E03093A5
:101AA000B3042093B2042BE931E03093B5042093C2
:101AB000B4042CE231E03093B7042093B6049430A0
:101AC00050F02EEC280F243030F022EC280FF0E0FC
:101AD000E0E0283010F4E8E6F0E02081943028F0CF
:101AE00032EC380F383008F424C131E0232B943025
:101AF00048F09EEC980F943028F08E53F0E0E0E030
:101B0000883010F4E8E6F0E020832091A80436EF56
:101B1000320F343008F40FC18EEC820F843008F499
:101B20000AC182EC820F883008F008C18DE690E08F
:101B30009093B0048093AF04343008F002C1265073
:101B4000330B81E001C0880F2A95EAF78093B10436
:101B50008091B8049091B9040197F1F78091B6048F
:101B60009091B704892B49F1E091BD03F091BE0338
:101B700084E0EC39F80709F1309739F0A389B4898A
:101B80009C918589809589238C938091BA048E7F5E
:101B90008093BA041092BC031092BB038CE994E0CA
:101BA0009093BE038093BD03E091AF04F091B00425
:101BB00080819091B104892B80838CE592E003DAD7
:101BC00062E080918E040E945C032FB7F8948091AC
:101BD000D0039091D103A091D203B091D3032FBF32
:101BE000805D9740A109B10980939204909393047A
:101BF000A0939404B093950487E380939B04109280
:101C0000C6031092C5031092C4031092C3030E942E
:101C10001A058EE691E09093C2038093C1038FE68C
:101C200091E09093C0038093BF031092820480914F
:101C30008704823018F098E09093820480938504A2
:101C400062E370E080E090E00E94BD036091880450
:101C50008DE794E00E94D80568EE73E080E090E0A4
:101C60000E94BD0360E38DE794E030D90BE416E4F5
:101C7000C8010197F1F760E38DE794E027D9C80127
:101C80000197F1F760E38DE794E020D983E592E0D6
:101C90000197F1F760E28DE794E018D96091820432
:101CA000606240E08DE794E027D984E0809383046C
:101CB00040E06CE08DE794E01FD933D982E0809357
:101CC000840440E066E08DE794E016D940E062E0ED
:101CD0008DE794E011D98BE39FE10197F1F788E05C
:101CE0008093880460E08DE794E00E94D80589E045
:101CF0000E9407039093CC038093CB038AE00E9459
:101D000007038C019093CA038093C9030E94ED03DB
:101D1000882351F080918F048B3030F08D3030F17A
:101D20008551823008F450C060E070E080EC9FE79D
:101D300035C034E0DBCE8BE690E0FACE90E080E078
:101D4000F7CE88E0223309F401CF84E0233309F48D
:101D5000FDCE82E0243309F4F9CE82EC820F883084
:101D600018F42E53330BEDCE81E0F0CE60918A044F
:101D700070E090E080E02AD22DEC3CEC4CEC5DE38E
:101D800060D24B015C016091890470E090E080E0DA
:101D90001DD29B01AC01C501B40108D36BD3709374
:101DA000CF036093CE030E94ED03882341F080911E
:101DB0008F048C3009F40BC1B8F48B3061F160E012
:101DC00070E080EC9FE74AC06091890470918A04BA
:101DD00076276727762790E080E0F6D12DEC3CEC63
:101DE0004CEC5DE32ED2DACF8551823040F7F09093
:101DF0008B046F2D70E0762F662766277F778091A2
:101E00008C04682B90E080E0DFD12DEC3CEC4CECB6
:101E10005DE317D2F4C060918B0470E090E080E045
:101E2000D3D14B015C01F0908C04F7FE09C0AC01EA
:101E30009B0160E070E080E89FEBB7D24B015C0152
:101E40006F2D6F7070E090E080E0C0D12DEC3CEC25
:101E50004CEC5DE3F6D1A5019401A8D20BD37093AD
:101E6000C8036093C7035DD8B801CE0107964AD96D
:101E70006FE572E0CE010D9695D9BE01695F7F4F87
:101E8000CE010D96EFD8BC01CE01019672D9BE01EC
:101E90006F5F7F4F90E080E04ED8CE01019692D9DF
:101EA000CE010D968FD9CE0107968CD96091CB03C8
:101EB0007091CC03CE01079625D967E672E0CE017A
:101EC0000D9670D9BE01695F7F4FCE010D96CAD8BD
:101ED000BC01CE0101964DD9BE016F5F7F4F81E0FD
:101EE00090E029D8CE0101966DD9CE010D966AD920
:101EF000CE01079667D96091CE037091CF03CE01D2
:101F0000079600D96DE672E0CE010D964BD9BE0161
:101F1000695F7F4FCE010D96A5D8BC01CE01019619
:101F200028D9BE016F5F7F4F82E090E004D8CE01D8
:101F3000019648D9CE010D9645D9CE01079642D9D2
:101F40006091C7037091C803CE010796DBD868E79C
:101F500072E0CE010D9626D9BE01695F7F4FCE019A
:101F60000D9680D8BC01CE01019603D9BE016F5FEA
:101F70007F4F83E090E00E949B07CE01019622D91B
:101F8000CE010D961FD9CE0107961CD98091CB03A7
:101F90009091CC030197B9F18091C9039091CA0344
:101FA000019789F18091CE039091CF0386349105FA
:101FB0000CF4AAC061E082E00E942F0361E08BE094
:101FC0000E942F0360E083E00E942F0386C0F09000
:101FD0008B046F2D70E090E080E0F6D04B015C0147
:101FE00060918C046F7070E090E080E0EFD02DEC99
:101FF0003CEC4CEC5DE325D1A5019401D7D1F7FE73
:102000002DCF90582BCF61E082E00E942F0361E03A
:102010008BE00E942F0360E083E00E942F030E9468
:10202000910766E872E0CE010196BCD8BE016F5FF1
:102030007F4F90E080E00E949B07CE010196C2D8BE
:102040006FEA72E0CE010196ADD8BE016F5F7F4F9F
:1020500081E090E00E949B07CE010196B3D8809169
:10206000CD0381113AC08FE892E00E94E30769E94D
:1020700072E0CE01019696D86BEB74E0CE0101962A
:102080000E9432088C01FC01E480F580F2E0EF0E42
:10209000F11CB7010E94F807811128C0C8010E94F5
:1020A0002008F80144815581608171818CE994E0B8
:1020B0000E9470010E94DC07CE01019683D886EA57
:1020C00092E00E94E3076AE18CE994E00E94CF0667
:1020D0000E94DC0781E08093CD0364E670E080E03D
:1020E00090E00E94BD030E94700201CEF8012081A1
:1020F00031818481958163EA72E0820F931F24D439
:10210000F801F582E482CDCF60E082E00E942F03E7
:1021100060E08BE00E942F0361E083E00E942F03C8
:102120001092CD03DACF82E492E090939D048093E5
:102130009C048091BD039091BE038C59944071F42E
:10214000E091AF04F091B00490818091B10480954A
:10215000892380831092BE031092BD038BEB94E021
:1021600031C8BB274A3031F4992322F4BDE290955F
:1021700081959F4F01C0BB27FB015527AA27880FD8
:10218000991FAA1FA41710F0A41B83955051B9F7EB
:10219000A05DAA3308F0A95DA193009779F7B1116A
:1021A000B1931192CB0100C0DC01FC01672F71914A
:1021B0007723E1F7329704C07C916D93708362912D
:1021C000AE17BF07C8F30895E89409C097FB3EF423
:1021D00090958095709561957F4F8F4F9F4F992374
:1021E000A9F0F92F96E9BB279395F69587957795F2
:1021F0006795B795F111F8CFFAF4BB0F11F460FFB2
:102200001BC06F5F7F4F8F4F9F4F16C0882311F009
:1022100096E911C0772321F09EE8872F762F05C01D
:10222000662371F096E8862F70E060E02AF09A95B8
:10223000660F771F881FDAF7880F9695879597F9AD
:1022400008950BD078C069D028F06ED018F095238F
:1022500009F05AC05FC01124A2C07ED0A0F3959FA0
:10226000D1F3950F50E0551F629FF001729FBB277D
:10227000F00DB11D639FAA27F00DB11DAA1F649F29
:102280006627B00DA11D661F829F2227B00DA11DDC
:10229000621F739FB00DA11D621F839FA00D611D62
:1022A000221F749F3327A00D611D231F849F600D83
:1022B000211D822F762F6A2F11249F5750408AF0BC
:1022C000E1F088234AF0EE0FFF1FBB1F661F771F48
:1022D000881F91505040A9F79E3F510570F014C0DF
:1022E0005EC05F3FECF3983EDCF38695779567958B
:1022F000B795F795E7959F5FC1F7FE2B880F911D66
:102300009695879597F9089597F99F6780E870E00B
:1023100060E008959FEF80EC089500240A9416165B
:10232000170618060906089500240A9412161306C3
:10233000140605060895092E0394000C11F4882351
:1023400052F0BB0F40F4BF2B11F460FF04C06F5F6D
:102350007F4F8F4F9F4F089557FD9058440F551F43
:1023600059F05F3F71F04795880F97FB991F61F017
:102370009F3F79F087950895121613061406551F8E
:10238000F2CF4695F1DF08C0161617061806991FFA
:10239000F1CF86957105610508940895E894BB27EF
:1023A00066277727CB0197F908955058BB27AA27AE
:1023B0000ED0C1CFB2DF30F0B7DF20F031F49F3F55
:1023C00011F41EF4A7CF0EF4E095E7FB9DCFE92FA3
:1023D000C3DF80F3BA17620773078407950718F005
:1023E00071F49EF5DBCF0EF4E0950B2EBA2FA02DE5
:1023F0000B01B90190010C01CA01A0011124FF27B2
:10240000591B99F0593F50F4503E68F11A16F040AC
:10241000A22F232F342F4427585FF3CF46953795AB
:102420002795A795F0405395C9F77EF41F16BA0B70
:10243000620B730B840BBAF09150A1F0FF0FBB1F1E
:10244000661F771F881FC2F70EC0BA0F621F731F67
:10245000841F48F4879577956795B795F7959E3FC4
:1024600008F0B3CF9395880F08F09927EE0F979552
:102470008795089504D06894B11191CF089574DFC1
:1024800088F09F5790F0B92F9927B751A0F0D1F05D
:10249000660F771F881F991F1AF0BA95C9F712C0E7
:1024A000B13081F07BDFB1E0089578CF672F782FCE
:1024B0008827B85F39F0B93FCCF386957795679553
:1024C000B395D9F73EF490958095709561957F4FBF
:1024D0008F4F9F4F089597FB072E16F4009406D058
:1024E00077FD08D013D007FC05D03EF49095819578
:1024F0009F4F0895709561957F4F0895EE0FFF1FD0
:10250000881F8BBF0790F691E02D1994AA1BBB1B67
:1025100051E107C0AA1FBB1FA617B70710F0A61BE3
:10252000B70B881F991F5A95A9F780959095BC0104
:10253000CD0108950F931F93CF93DF9382309105C0
:1025400010F482E090E0E091C304F091C40430E024
:1025500020E0B0E0A0E0309799F42115310509F4AE
:102560004AC0281B390B24303105D8F58A819B815C
:102570006115710589F1FB0193838283FE0111C00E
:10258000408151810281138148175907E0F04817B3
:10259000590799F4109761F012960C9312971396BD
:1025A0001C933296CF01DF91CF911F910F91089527
:1025B0000093C3041093C404F4CF2115310551F0E6
:1025C0004217530738F0A901DB019A01BD01DF0171
:1025D000F801C1CFEF01F9CF9093C4048093C304F5
:1025E000CDCFFE01E20FF31F819391932250310969
:1025F00039832883D7CF2091C1043091C204232B83
:1026000041F420910202309103023093C2042093DE
:10261000C10420910002309101022115310541F4DD
:102620002DB73EB74091040250910502241B350B93
:10263000E091C104F091C204E217F307A0F42E1B4D
:102640003F0B2817390778F0AC014E5F5F4F241716
:10265000350748F04E0F5F1F5093C2044093C104EA
:10266000819391939FCFF0E0E0E09CCFCF93DF93F5
:102670000097E9F0FC01329713821282A091C30403
:10268000B091C404ED0130E020E01097A1F4208166
:102690003181820F931F2091C1043091C204281709
:1026A000390709F061C0F093C204E093C104DF91DF
:1026B000CF910895EA01CE17DF07E8F54A815B81E3
:1026C0009E0141155105B1F7E901FB83EA83499168
:1026D0005991C40FD51FEC17FD0761F480819181DA
:1026E0000296840F951FE9019983888382819381E3
:1026F0009B838A83F0E0E0E012968D919C91139782
:102700000097B9F52D913C911197CD010296820F5A
:10271000931F2091C1043091C2042817390739F65C
:10272000309751F51092C4041092C304B093C204C0
:10273000A093C104BCCFD383C28340815181840F55
:10274000951FC817D90761F44E5F5F4F8881998143
:10275000480F591F518340838A819B8193838283D1
:102760002115310509F0B0CFF093C404E093C30400
:102770009ECFFD01DC01C0CF13821282D7CF4F92D2
:102780005F926F927F928F929F92AF92BF92CF9201
:10279000DF92EF92FF920F931F93CF93DF938C0101
:1027A000009791F4CB01DF91CF911F910F91FF9092
:1027B000EF90DF90CF90BF90AF909F908F907F90E1
:1027C0006F905F904F90B6CEFC01E60FF71F9C0113
:1027D00022503109E217F30708F4AAC0D901CD91BC
:1027E000DC911197C617D70718F1C530D10570F0E5
:1027F000CE0104978617970748F0C61BD70B229780
:10280000C193D1936D937C93CF0130DFC801DF91E9
:10281000CF911F910F91FF90EF90DF90CF90BF90DD
:10282000AF909F908F907F906F905F904F900895A2
:102830005B01AC1ABD0A4C018C0E9D1EA091C30415
:10284000B091C404512C412CF12CE12C109731F59E
:102850008091C1049091C2048815990509F05CC06B
:102860004616570608F058C0809100029091010268
:10287000009741F48DB79EB7409104025091050234
:10288000841B950BE817F90708F052C0F093C204B7
:10289000E093C104F90171836083B8CF8D919C915D
:1028A000119712966C90129713967C901397A81517
:1028B000B90559F56C0142E0C40ED11CCA14DB0401
:1028C00020F1AC014A195B09DA011296159780F0E4
:1028D0006282738251834083D9016D937C93E114AA
:1028E000F10471F0D7011396FC93EE9312978ECFFB
:1028F00022968C0F9D1FF90191838083F301EFCF06
:10290000F093C404E093C30481CF4816590608F439
:102910002C017D01D3019ACFCB010CDE7C01009705
:1029200039F0AE01B80107D0C801A0DE87016ECF33
:1029300010E000E06BCFFB01DC0102C001900D92C2
:1029400041505040D8F70895FB01DC0101900D92F1
:102950000020E1F7089511E0C3E0D1E000E005C0F8
:10296000802FFE01CBDD2196011DC430D10780E010
:082970000807B1F7F894FFCF4E
:102978000000C5048000000040001400540000005E
:102988000000050270019D015102CE01AC01C00199
:1029980000000000AA057E05630754057705640555
:1029A800550500000000D70770016307F204000016
:1029B8000000CF067001630754052B074207B706CE
:1029C8000D0A003132333435363738004154004669
:1029D8006C616D653A20004761733A200048756D57
:1029E80069646974793A200054656D706572617420
:1029F8007572653A20005741524E494E47210041B1
:102A0800542B434D47463D310041542B434D4753CA
:102A18003D2200220D005761726E696E67212050B9
:102A2800726F706162696C697479206F662066697B
:042A380072652100A2
:020000023000CC
:10E000000D9489F10D94B2F10D94B2F10D94B2F129
:10E010000D94B2F10D94B2F10D94B2F10D94B2F1F0
:10E020000D94B2F10D94B2F10D94B2F10D94B2F1E0
:10E030000D94B2F10D94B2F10D94B2F10D94B2F1D0
:10E040000D94B2F10D94B2F10D94B2F10D94B2F1C0
:10E050000D94B2F10D94B2F10D94B2F10D94B2F1B0
:10E060000D94B2F10D94B2F10D94B2F10D94B2F1A0
:10E070000D94B2F10D94B2F10D94B2F10D94B2F190
:10E080000D94B2F10D94B2F10D94B2F10D94B2F180
:10E090000D94B2F10D94B2F10D94B2F10D94B2F170
:10E0A0000D94B2F10D94B2F10D94B2F10D94B2F160
:10E0B0000D94B2F10D94B2F10D94B2F10D94B2F150
:10E0C0000D94B2F10D94B2F10D94B2F10D94B2F140
:10E0D0000D94B2F10D94B2F10D94B2F10D94B2F130
:10E0E0000D94B2F141546D656761323536300041AF
:10E0F000726475696E6F206578706C6F72657220DE
:10E1000073746B3530305632206279204D4C530099
:10E11000426F6F746C6F616465723E004875683F52
:10E1200000436F6D70696C6564206F6E203D200048
:10E130004350552054797065202020203D20005FF9
:10E140005F4156525F415243485F5F3D2000415658
:10E1500052204C696243205665723D20004743437C
:10E160002056657273696F6E203D20004350552024
:10E1700049442020202020203D20004C6F7720663D
:10E18000757365202020203D20004869676820665F
:10E190007573652020203D200045787420667573D6
:10E1A00065202020203D20004C6F636B2066757336
:10E1B000652020203D20004D617220203720323024
:10E1C000313300312E362E3800342E332E350056A2
:10E1D00023202020414444522020206F7020636F70
:10E1E00064652020202020696E73747275637469E1
:10E1F0006F6E2061646472202020496E74657272B3
:10E20000757074006E6F20766563746F7200726A49
:10E210006D702020006A6D70200057686174207056
:10E220006F72743A00506F7274206E6F7420737541
:10E2300070706F72746564004D7573742062652030
:10E2400061206C6574746572002000577269747483
:10E25000696E672045450052656164696E672045B7
:10E26000450045452065727220636E743D00504F35
:10E27000525400303D5A65726F2061646472003FF1
:10E280003D43505520737461747300403D454550C3
:10E29000524F4D207465737400423D426C696E6B41
:10E2A000204C454400453D44756D70204545505215
:10E2B0004F4D00463D44756D7020464C415348001B
:10E2C000483D48656C70004C3D4C69737420492F83
:10E2D0004F20506F72747300513D51756974005234
:10E2E0003D44756D702052414D00563D73686F7707
:10E2F00020696E7465727275707420566563746FF0
:10E30000727300593D506F727420626C696E6B00BD
:10E310002A0011241FBECFEFD1E2DEBFCDBF01E046
:10E320000CBF12E0A0E0B2E0EEE1FDEF03E00BBFB6
:10E3300002C007900D92A030B107D9F712E0A0E01B
:10E34000B2E001C01D92AE30B107E1F70F9460F367
:10E350000D948DFE01E20EBF0FEF0DBF11241FBE05
:10E360000D9460F30D9400F020E030E040ED57E0B4
:10E3700005C0FA013197F1F72F5F3F4F2817390792
:10E38000C0F308959C01260F311DC901A0E0B0E043
:10E390002F5F3F4FABBFFC018791882361F08093D3
:10E3A000C6008091C00086FFFCCF8091C0008064D1
:10E3B0008093C000EACF08958DE08093C6008091DD
:10E3C000C00086FFFCCF8091C00080648093C000B5
:10E3D0008AE08093C6008091C00086FFFCCF8091C8
:10E3E000C00080648093C00008950F94C2F10F9420
:10E3F000DCF10895FC019081992359F09093C600B7
:10E400008091C00086FFFCCF8091C0008064809323
:10E41000C0003196992379F70895282F982F929567
:10E420009F70892F805D8A3308F0895F8093C600D2
:10E430008091C00086FFFCCF8091C00080648093F3
:10E44000C000822F8F70982F905D9A3308F0995FEB
:10E450009093C6008091C00086FFFCCF8091C000E1
:10E4600080648093C00008959C01FB01853691056E
:10E470001CF46330710594F0C90164E670E00F94F8
:10E480002EFE605D7F4F6093C6008091C00086FFC6
:10E49000FCCF8091C00080648093C0002B30310598
:10E4A00014F43297B4F0C90164E670E00F942EFEC4
:10E4B0006AE070E00F942EFE605D7F4F6093C600AF
:10E4C0008091C00086FFFCCF8091C0008064809363
:10E4D000C000C9016AE070E00F942EFEC0968093E0
:10E4E000C6008091C00086FFFCCF8091C000806490
:10E4F0008093C00008951F93182F8EE692EE60E07F
:10E500000F94C2F11093C6008091C00086FFFCCF2B
:10E510008091C00080648093C0000F94DCF11F9153
:10E5200008952F923F924F925F926F927F928F92B7
:10E530009F92AF92BF92CF92DF92EF92FF920F9392
:10E540001F93DF93CF93CDB7DEB762970FB6F894E2
:10E55000DEBF0FBECDBF382E622ECA01DB015C01CB
:10E560006D01772420E2222E2E010894411C511CBB
:10E570008BC081E0A81680E0B80681E0C80680E084
:10E58000D80628F0C601AA27BB270F940DF2BB2797
:10E59000AD2D9C2D8B2D0F940DF28A2D0F940DF225
:10E5A0002092C6008091C00086FFFCCF8091C00001
:10E5B00080648093C0009DE29093C6008091C0006B
:10E5C00086FFFCCF8091C00080648093C0002092C1
:10E5D000C6008091C00086FFFCCF8091C00080649F
:10E5E0008093C00019828601750188249924A1E0D6
:10E5F0003A1651F03A1620F0B2E03B1661F409C029
:10E600000BBFF701779007C0C7010F9477FE782EF4
:10E6100002C0F7017080872D0F940DF22092C60082
:10E620008091C00086FFFCCF8091C0008064809301
:10E63000C000872D8052F401EF70F0708F3520F408
:10E64000E40DF51D708204C0E40DF51D8EE280839B
:10E650000894E11CF11C011D111D0894811C911CE2
:10E6600090E18916910409F0C2CF80E190E0A0E02A
:10E67000B0E0A80EB91ECA1EDB1E198AC2010F9493
:10E68000FAF10F94DCF16A94662009F072CF629679
:10E690000FB6F894DEBF0FBECDBFCF91DF911F91B3
:10E6A0000F91FF90EF90DF90CF90BF90AF909F9031
:10E6B0008F907F906F905F904F903F902F90089534
:10E6C0002F923F924F925F926F927F928F929F9282
:10E6D000AF92BF92CF92DF92EF92FF920F931F9370
:10E6E000DF93CF93CDB7DEB7CD53D1400FB6F894BB
:10E6F000DEBF0FBECDBF01E20EBF0FEF0DBF94B75F
:10E70000F894A89514BE80916000886180936000A1
:10E7100010926000789493FF05C0E0910002F091A0
:10E7200001021995279A2F9A8091C00082608093E8
:10E73000C00080E18093C40088E18093C1000000A4
:10E74000EE24FF24870144E0A42EB12CCC24DD2448
:10E7500024C0C5010197F1F70894E11CF11C011DCB
:10E76000111D21E2E2162EE4F20620E0020720E06D
:10E77000120718F031E0C32ED12CC801B70127ECE5
:10E780003BE140E050E00F9441FE611571058105C9
:10E79000910519F485B1805885B98091C00087FD35
:10E7A00003C0C114D104A9F2A6014F5F5F4FC25E3E
:10E7B000DE4F59834883CE51D140C25EDE4F8881FF
:10E7C0009981CE51D140019711F00D9410FEC05D9A
:10E7D000DE4F19821882C053D14060E0C15DDE4F28
:10E7E0001882CF52D14088249924C35DDE4F19820C
:10E7F0001882CD52D140C05EDE4F188219821A8233
:10E800001B82C052D140CE5CDE4F188219821A8220
:10E810001B82C253D140EE24FF2487010BBFF701B6
:10E8200007911691C45CDE4F19830883CC53D14005
:10E830000D940BFEC25EDE4F28813981CE51D1404E
:10E840002130310509F52091C600C25EDE4F1982E4
:10E850001882CE51D14022C02F5F3F4F4F4F5F4FA4
:10E86000213082E138078AE7480780E0580780F0C6
:10E87000C45CDE4FE881F981CC53D140EF5FFF4F9C
:10E8800019F0EE27FF27099420E030E040E050E047
:10E890008091C00087FFE0CF2091C600C35DDE4FAE
:10E8A00048815981CD52D1404F5F5F4FC35DDE4FEC
:10E8B00059834883CD52D140213209F063C64A3092
:10E8C000510508F05FC60894811C911C53E0851621
:10E8D000910409F059C600E010E018C081E280936D
:10E8E000C6008091C00086FFFCCF8091C00080648C
:10E8F0008093C0002F5F3F4F2931310579F70F9486
:10E90000DCF10F5F1F4F0530110519F020E030E0FA
:10E91000E5CF10920A0210920B0210920C02109294
:10E920000D02109206021092070210920802109235
:10E930000902109202021092030210920402109235
:10E9400005028FEE90EE60E00F94F5F180E191EE1C
:10E9500060E00F94C2F18091C00087FFFCCF9091DE
:10E96000C600903608F09F759032B8F09093C600BC
:10E970008091C00086FFFCCF8091C00080648093AE
:10E98000C000A0E2A093C6008091C00086FFFCCF2B
:10E990008091C00080648093C000983409F4D7C18E
:10E9A0009934B8F4923409F459C1933458F490333B
:10E9B00019F1903308F4E3C59F33A1F1903409F0C5
:10E9C000DEC5BDC0953409F470C1963409F0D7C5D1
:10E9D00098C1923509F42BC2933538F49C3409F46C
:10E9E000F5C1913509F0CBC518C2963509F445C279
:10E9F000993509F0C4C567C483E792EE62E00F94CD
:10EA0000F5F110920602109207021092080210927D
:10EA1000090210920A0210920B0210920C0210923C
:10EA20000D0213C18FE792EE62E00F94F5F18FEEC5
:10EA300090EE60E00F94F5F181E291EE60E00F94CA
:10EA4000C2F187EB91EE60E00F94F5F180E391EE77
:10EA500060E00F94C2F184EE90EE60E00F94F5F167
:10EA60008FE391EE60E00F94C2F186E090E061E008
:10EA700070E00F9434F20F94DCF18DE591EE60E0DC
:10EA80000F94C2F189EC91EE60E00F94F5F18EE401
:10EA900091EE60E00F94C2F183EC91EE60E00F9490
:10EAA000F5F18CE691EE60E00F94C2F18EE10F94E7
:10EAB0000DF288E90F940DF281E00F940DF20F949E
:10EAC000DCF18BE791EE60E00F94C2F119E0E0E039
:10EAD000F0E010935700E4918E2F0F940DF20F94F5
:10EAE000DCF18AE891EE60E00F94C2F1E3E0F0E03F
:10EAF00010935700E4918E2F0F940DF20F94DCF1D8
:10EB000089E991EE60E00F94C2F1E2E0F0E0109349
:10EB10005700E4918E2F0F940DF20F94DCF188EAE8
:10EB200091EE60E00F94C2F1E1E0F0E01093570045
:10EB30001491812F0F940DF20F94DCF107CF8BE825
:10EB400092EE62E00F94F5F18BE492EE60E00F94A8
:10EB5000F5F10F94DCF100E010E019C0C8016F2D51
:10EB60000F947FFEFF2031F489E492EE60E00F9471
:10EB7000C2F10BC0F092C6008091C00086FFFCCFAE
:10EB80008091C00080648093C0000F5F1F4FC80158
:10EB900081519F41A0E0B0E0ABBFFC01F790BAE229
:10EBA000FB1621F0E2E000301E07C1F60F94DCF105
:10EBB0000F94DCF187E592EE60E00F94F5F10F948D
:10EBC000DCF1CC24DD2400E010E01EC0C8010F946D
:10EBD00077FEF82E882331F489E492EE60E00F94FA
:10EBE000C2F10BC08093C6008091C00086FFFCCFAD
:10EBF0008091C00080648093C000FE1419F00894D6
:10EC0000C11CD11C0F5F1F4FC80181519F41A0E063
:10EC1000B0E0ABBFFC01E790FAE2EF1621F022E092
:10EC20000030120799F60F94DCF10F94DCF182E6C4
:10EC300092EE60E00F94C2F1C60161E070E00F94C3
:10EC400034F20F94DCF10F94DCF110920202109276
:10EC50000302109204021092050278CE89E992EE26
:10EC600062E00F94F5F1279A2F9A16C02F9880E052
:10EC700090E0E0EDF7E03197F1F7019684369105E9
:10EC8000C1F72F9A80E090E0E0EDF7E03197F1F7DF
:10EC9000019684369105C1F78091C00087FFE6CFC9
:10ECA0008091C00087FFFCCF64C485EA92EE62E0E9
:10ECB0000F94F5F140910202509103026091040219
:10ECC0007091050281E020E10F9491F2809102029F
:10ECD00090910302A0910402B091050280509F4FD1
:10ECE000AF4FBF4F8093020290930302A0930402A0
:10ECF000B093050280509041A040B04008F426CE69
:10ED0000A4CF83EB92EE62E00F94F5F140910602FE
:10ED100050910702609108027091090280E020E1A1
:10ED20000F9491F28091060290910702A09108023F
:10ED3000B091090280509F4FAF4FBF4F80930602A2
:10ED400090930702A0930802B0930902FFCD80ECD4
:10ED500092EE62E00F94F5F183E792EE60E00F949B
:10ED6000F5F18FE792EE60E00F94F5F18BE892EE0B
:10ED700060E00F94F5F189E992EE60E00F94F5F10F
:10ED800085EA92EE60E00F94F5F183EB92EE60E09D
:10ED90000F94F5F180EC92EE60E00F94F5F187ECC2
:10EDA00092EE60E00F94F5F188ED92EE60E00F9442
:10EDB000F5F18FED92EE60E00F94F5F18AEE92EEB0
:10EDC00060E00F94F5F183E093EEBDCD87EC92EE19
:10EDD00062E00F94F5F181E40F947BF282E40F94EA
:10EDE0007BF283E40F947BF284E40F947BF285E45E
:10EDF0000F947BF286E40F947BF287E40F947BF20E
:10EE000088E40F947BF28AE40F947BF28BE40F94F6
:10EE10007BF28CE40F947BF299CD88ED92EE62E068
:10EE20000F94F5F1772473948824992409C48FED05
:10EE300092EE62E00F94F5F140910A0250910B02BC
:10EE400060910C0270910D0282E020E10F9491F22A
:10EE500080910A0290910B02A0910C02B0910D02D8
:10EE600080509F4FAF4FBF4F80930A0290930B0289
:10EE7000A0930C02B0930D0269CD8AEE92EE62E08F
:10EE80000F94F5F184EE90EE60E00F94F5F18FECC5
:10EE900091EE60E00F94F5F1662477244301CC5D98
:10EEA000DE4F19821882C452D140D401C301B695F5
:10EEB000A79597958795CA5DDE4F88839983AA8326
:10EEC000BB83C652D140CC5DDE4FA881B981C4520C
:10EED000D1401196CC5DDE4FB983A883C452D14096
:10EEE000CD0162E070E00F9434F2B0E2B093C6005E
:10EEF0008091C00086FFFCCF8091C0008064809329
:10EF0000C000EDE2E093C6008091C00086FFFCCF18
:10EF10008091C00080648093C000F0E2F093C6004E
:10EF20008091C00086FFFCCF8091C00080648093F8
:10EF3000C000CA5DDE4FE880F9800A811B81C6529D
:10EF4000D140BB27A12F902F8F2D0F940DF2CA5DBA
:10EF5000DE4F8881C652D1400F940DF2B0E2FB2EF5
:10EF6000F092C6008091C00086FFFCCF8091C00067
:10EF700080648093C0000DE30093C6008091C000C0
:10EF800086FFFCCF8091C00080648093C00010E2B7
:10EF90001093C6008091C00086FFFCCF8091C00016
:10EFA00080648093C0008BBEF3012791C65DDE4F65
:10EFB0002883CA52D140A22EBB24CC24DD2408943D
:10EFC000611C711C811C911C8BBEF3018791282E42
:10EFD0003324442455240894611C711C811C911C09
:10EFE0008BBEF3013791C55DDE4F3883CB52D140E4
:10EFF0000894611C711C811C911C8BBEF30147910C
:10F00000C45DDE4F4883CC52D140ADEFEA2EAFEF66
:10F01000FA2EAFEF0A2FAFEF1A2F6E0C7F1C801E57
:10F02000911E142D032DF22CEE24EA0CFB1C0C1D5A
:10F030001D1D0F940DF220E22093C6008091C000A8
:10F0400086FFFCCF8091C00080648093C000C65DC5
:10F05000DE4F8881CA52D1400F940DF230E23093D6
:10F06000C6008091C00086FFFCCF8091C000806404
:10F070008093C000C45DDE4F8881CC52D1400F9494
:10F080000DF240E24093C6008091C00086FFFCCFA5
:10F090008091C00080648093C000C55DDE4F888190
:10F0A000CB52D1400F940DF250E25093C6008091A4
:10F0B000C00086FFFCCF8091C00080648093C000B8
:10F0C0008FEFE8168FEFF80680E0080780E018075A
:10F0D00031F484E092EE60E00F94C2F1DFC0D80119
:10F0E000C7018070907CA070B0708050904CA040A0
:10F0F000B040D1F52FEF3FE340E050E0E222F322B1
:10F1000004231523CA5DDE4FA880B980CA80DB8046
:10F11000C652D140AE0CBF1CC01ED11EAA0CBB1CD7
:10F12000CC1CDD1C8EE092EE60E00F94C2F1BB2798
:10F13000A12F902F8F2D0F940DF28E2D0F940DF285
:10F1400030E23093C6008091C00086FFFCCF8091F2
:10F15000C00080648093C0004EE34093C60080915D
:10F16000C00086FFFCCF87C08EE09EEFA0E0B0E03D
:10F17000E822F9220A231B239CE0E91694E9F90608
:10F1800090E0090790E0190709F088C0C45DDE4FE0
:10F19000A881CC52D140EA2EFF2400E010E0102FCD
:10F1A0000F2DFE2CEE24C55DDE4FB881CB52D14031
:10F1B000EB0EF11C011D111DD601C501817090706F
:10F1C000A070B070DC0199278827E80EF91E0A1F8D
:10F1D0001B1F20EF30E040E050E0A222B322C42207
:10F1E000D52241E1AA0CBB1CCC1CDD1C4A95D1F7F1
:10F1F000EA0CFB1C0C1D1D1D81E090E0A0E0B0E0BE
:10F20000282239224A225B2235E1220C331C441C7D
:10F21000551C3A95D1F7E20CF31C041D151D57013E
:10F220006801AA0CBB1CCC1CDD1C85E192EE60E0E1
:10F230000F94C2F1C801AA27BB270F940DF2BB2778
:10F24000A12F902F8F2D0F940DF28E2D0F940DF274
:10F2500090E29093C6008091C00086FFFCCF809121
:10F26000C00080648093C000AEE3A093C60080918C
:10F27000C00086FFFCCF8091C00080648093C000F6
:10F28000C601AA27BB270F940DF2BB27AD2D9C2DDD
:10F290008B2D0F940DF28A2D0F940DF20F94DCF14B
:10F2A000CC5DDE4FE881F981C452D140F99709F471
:10F2B0004DCBF4E0EF2EF12C012D112D6E0C7F1CA7
:10F2C000801E911EF2CD83E093EE62E00F94F5F183
:10F2D0008AE192EE60E00F94C2F18091C00087FF56
:10F2E000FCCF1091C6001F751093C6008091C0001E
:10F2F00086FFFCCF8091C00080648093C0000F9493
:10F30000DCF1812F81548A3108F036C1163409F4BA
:10F3100095C0173490F4133409F44EC0143430F40B
:10F320001134F1F0123409F01DC130C0143409F465
:10F3300059C0153409F016C16BC01A3409F4C4C0A1
:10F340001B3438F4173409F48FC0183409F00AC19B
:10F35000A1C01B3409F4D2C01C3409F003C1E8C0B9
:10F360008FEF81B90DC082B1809582B980E090E0C5
:10F37000E0EDF7E03197F1F70196883C9105C1F790
:10F380008091C00087FFEFCF12B8EFC08FEF84B934
:10F390000DC085B1809585B980E090E0E0EDF7E0A3
:10F3A0003197F1F70196883C9105C1F78091C00033
:10F3B00087FFEFCF15B8D9C08FEF87B90DC088B1DF
:10F3C000809588B980E090E0E0EDF7E03197F1F7C3
:10F3D0000196883C9105C1F78091C00087FFEFCF6F
:10F3E00018B8C3C08FEF8AB90DC08BB180958BB9A7
:10F3F00080E090E0E0EDF7E03197F1F70196883C8E
:10F400009105C1F78091C00087FFEFCF1BB8ADC059
:10F410008FEF8DB90DC08EB180958EB980E090E0F0
:10F42000E0EDF7E03197F1F70196883C9105C1F7DF
:10F430008091C00087FFEFCF1EB897C08FEF80BBD1
:10F440000DC081B3809581BB80E090E0E0EDF7E0F6
:10F450003197F1F70196883C9105C1F78091C00082
:10F4600087FFEFCF11BA81C08FEF83BB0DC084B38C
:10F47000809584BB80E090E0E0EDF7E03197F1F714
:10F480000196883C9105C1F78091C00087FFEFCFBE
:10F4900014BA6BC08FEF809301010FC080910201FD
:10F4A00080958093020180E090E0E0EDF7E03197F5
:10F4B000F1F70196883C9105C1F78091C00087FF64
:10F4C000EDCF1092020151C08FEF809304010FC065
:10F4D0008091050180958093050180E090E0E0ED4A
:10F4E000F7E03197F1F70196883C9105C1F78091DB
:10F4F000C00087FFEDCF1092050137C08FEF8093DA
:10F5000007010FC08091080180958093080180E079
:10F5100090E0E0EDF7E03197F1F70196883C910536
:10F52000C1F78091C00087FFEDCF109208011DC088
:10F530008FEF80930A010FC080910B01809580931B
:10F540000B0180E090E0E0EDF7E03197F1F70196F4
:10F55000883C9105C1F78091C00087FFEDCF1092E4
:10F560000B0103C085E292EEEEC98091C00087FFD7
:10F57000FCCF8091C600EAC988E392EEE4C98CE131
:10F5800091EEE1C988249924933011F1943028F444
:10F59000913089F09230B8F408C0953061F195301F
:10F5A000F0F0963009F048C043C02B3109F042C951
:10F5B00091E06BE13FC96227C15DDE4F2883CF52E6
:10F5C000D14092E037C9B22FA0E0622793E032C960
:10F5D000822F90E0A82BB92B622794E02BC92E3004
:10F5E00009F039C3622795E0C05DDE4F19821882A9
:10F5F000C053D1401FC9E1E0F0E0EC0FFD1FC05D3A
:10F60000DE4F08811981C053D140E00FF11F2083E4
:10F610000F5F1F4FC05DDE4F19830883C053D14079
:10F6200062270A171B0709F005C9D80196E002C92D
:10F63000261709F010C303C0973009F0FBC87724E0
:10F640009981933109F412C19431C8F4963009F4C8
:10F65000D8C0973050F4923009F406C1933009F4C1
:10F660006DC0913009F059C253C0913109F477C08F
:10F67000923108F0BBC0903109F04FC2F5C098310B
:10F6800009F487C0993150F4953109F4EFC09531F0
:10F6900008F4C6C1963109F040C2C2C19A3109F4DA
:10F6A0006CC09A3108F491C09B3109F45BC09D3164
:10F6B00009F033C29D81903359F48F81882311F46E
:10F6C0009EE11CC0813011F091E018C098E916C08D
:10F6D000892F807591F0903539F4E0E0F0E089E011
:10F6E0008093570094910AC0983539F4E3E0F0E034
:10F6F00089E080935700949101C090E01A821B82A8
:10F700008D818C831D829E831F8227E030E009C299
:10F710001A8288E08B8381E48C8386E58D8382E581
:10F720008E8389E48F8383E5888780E589878FE5E9
:10F730008A8782E38B872BE030E0F3C18A818139AD
:10F7400041F0823941F0803911F48FE005C080E04A
:10F7500003C082E001C08AE01A828B8344C0772410
:10F76000739482C08D81882311F48EE12CC0813086
:10F7700011F081E028C088E926C01A82E1E0F0E0BB
:10F7800089E08093570084918B831C8224E030E0D1
:10F79000C8C18B81803589F48C81883039F4E2E0EE
:10F7A000F0E089E08093570084910DC0E0E0F0E044
:10F7B00089E080935700849106C0E3E0F0E089E09F
:10F7C0008093570084911A82DFCF8D81836C99E0FA
:10F7D000E1E0F0E0082E90935700E89507B600FCB2
:10F7E000FDCF1A821B8223E030E09BC180EC8A832C
:10F7F000CE5CDE4F188219821A821B82C253D1401E
:10F800008EC18A8190E0A0E0B0E0582F44273327D2
:10F8100022278B8190E0A0E0B0E0DC0199278827C7
:10F82000282B392B4A2B5B2B8D8190E0A0E0B0E098
:10F83000282B392B4A2B5B2B8C8190E0A0E0B0E089
:10F84000BA2FA92F982F8827282B392B4A2B5B2BCF
:10F85000220F331F441F551FC05EDE4F288339839C
:10F860004A835B83C052D1401A8259C13A81C95C34
:10F87000DE4F3883C753D140CA5CDE4F1882C6536F
:10F88000D1408B81C82EDD24CA5CDE4F488159816E
:10F89000C653D140C42AD52A933109F082C0CE5C28
:10F8A000DE4F88819981AA81BB81C253D1408050AB
:10F8B000904CA340B04030F583E0CE5CDE4FE88052
:10F8C000F9800A811B81C253D140F70100935B008C
:10F8D00080935700E89507B600FCFDCFCE5CDE4F65
:10F8E000088119812A813B81C253D14000501F4FAA
:10F8F0002F4F3F4FCE5CDE4F088319832A833B8313
:10F90000C253D140C05EDE4F488159816A817B81FC
:10F91000C052D140DE011B9631E08C9111962C91A2
:10F9200011971296C75CDE4F2883C953D140C85C3B
:10F93000DE4F1882C853D14090E0C85CDE4FE881AA
:10F94000F981C853D1408E2B9F2B0C01FA01609393
:10F950005B0030935700E89511244E5F5F4F6F4F67
:10F960007F4F0EEFE02E0FEFF02ECE0CDF1CC114F8
:10F97000D10499F685E0C05EDE4F088119812A81A5
:10F980003B81C052D140F80120935B008093570027
:10F99000E89507B600FCFDCF81E180935700E8951C
:10F9A00035C0C05EDE4F88819981AA81BB81C0527B
:10F9B000D140B695A795979587957C018601ABE0D8
:10F9C000AA2EB12CAC0EBD1E0BC0D5016D915D01F0
:10F9D000C7010F947FFE0894E11CF11C01501040F8
:10F9E0000115110591F7A60160E070E0440F551F65
:10F9F000661F771FC05EDE4FE880F9800A811B8199
:10FA0000C052D1404E0D5F1D601F711F1A82C05E33
:10FA1000DE4F488359836A837B83C052D1407FC0C5
:10FA2000FA80C55CDE4FF882CB53D140C65CDE4F16
:10FA30001882CA53D1408B81C82EDD24C65CDE4FAC
:10FA400008811981CA53D140C02AD12A1A828981DA
:10FA5000BE016D5F7F4F843121F59601C05EDE4FA0
:10FA6000E880F9800A811B81C052D1400BBFF701A9
:10FA700087919691DB018C9311969C936E5F7F4FDB
:10FA8000D801C7010296A11DB11DC05EDE4F88835B
:10FA90009983AA83BB83C052D14022503040F1F6F3
:10FAA00036C0C05EDE4F288139814A815B81C052F9
:10FAB000D1400894C108D108760100E010E0089414
:10FAC000C11CD11C0894E11CF11C011D111DE20E8A
:10FAD000F31E041F151F21BDBB27A52F942F832FB5
:10FAE00082BD2F5F3F4F4F4F5F4FF89A80B5DB01CC
:10FAF0008D93BD012E153F054007510761F7C05E8C
:10FB0000DE4F288339834A835B83C052D1409601FC
:10FB10002D5F3F4FFB01108204C080EC8A8322E0FE
:10FB200030E08BE18093C6008091C00086FFFCCF5F
:10FB30008091C00080648093C000C15DDE4FF88179
:10FB4000CF52D140F093C6008091C00086FFFCCF19
:10FB50008091C00080648093C000432F3093C60022
:10FB60008091C00086FFFCCF8091C00080648093AC
:10FB7000C000922F2093C6008091C00086FFFCCF6A
:10FB80008091C00080648093C0008EE08093C600A6
:10FB90008091C00086FFFCCF8091C000806480937C
:10FBA000C00065E1C15DDE4FE880CF52D1406E25D7
:10FBB00069276427FE01319610C090819093C6009A
:10FBC0008091C00086FFFCCF31968091C000806498
:10FBD0008093C0006927215030402115310569F715
:10FBE0006093C6008091C00086FFFCCF8091C0006A
:10FBF00080648093C00085B1805885B9772081F4F6
:10FC0000C15DDE4F0881CF52D1400F5FC15DDE4F35
:10FC10000883CF52D14090E0A0E0B0E00D941AF4F8
:10FC200027982F9880E090E020ED37E0F901319798
:10FC3000F1F7019684369105C9F700008091C00064
:10FC40008D7F8093C00081E180935700E895EE2777
:10FC5000FF270994FFCF90E00D941AF497FB092E2B
:10FC600007260AD077FD04D02ED006D000201AF443
:10FC7000709561957F4F0895F6F7909581959F4F08
:10FC80000895A1E21A2EAA1BBB1BFD010DC0AA1FDD
:10FC9000BB1FEE1FFF1FA217B307E407F50720F0F5
:10FCA000A21BB30BE40BF50B661F771F881F991F70
:10FCB0001A9469F760957095809590959B01AC01B9
:10FCC000BD01CF010895AA1BBB1B51E107C0AA1FAC
:10FCD000BB1FA617B70710F0A61BB70B881F991FED
:10FCE0005A95A9F780959095BC01CD010895F99991
:10FCF000FECF92BD81BDF89A992780B50895262F31
:10FD0000F999FECF1FBA92BD81BD20BD0FB6F89400
:0EFD1000FA9AF99A0FBE01960895F894FFCF63
:040000033000E000E9
:00000001FF
