:1000000003C1000032C1000030C100002EC1000059
:100010002CC100002AC1000028C1000026C1000038
:1000200024C100000C94B6090C94B6090C94B609CE
:100030001CC100001AC1000018C1000016C1000058
:1000400014C1000012C1000010C100000EC1000068
:100050000CC100000AC1000008C100000C946C092A
:1000600004C100000C9436090C940D09FEC0000078
:10007000FCC00000FAC00000F8C00000F6C000009C
:10008000F4C00000F2C00000F0C00000EEC00000AC
:10009000ECC00000EAC00000E8C00000E6C00000BC
:1000A000E4C00000E2C00000E0C00000DEC00000CC
:1000B000DCC00000DAC00000D8C00000D6C00000DC
:1000C000D4C00000D2C00000D0C00000CEC00000EC
:1000D000CCC00000CAC00000C8C00000C6C00000FC
:1000E000C4C0000000002100240027002A002D00C9
:1000F0003000330001010000040107010A01000083
:100100000A0B02090C0D0E08070304010000000091
:1001100000000000000000000000000000000000DF
:10012000000000000000000000001211100000009C
:1001300000000000000000000000000000000000BF
:1001400000000000000020002300260029002C00F1
:100150002F00320000010000030106010901000028
:100160002200250028002B002E003100340002015F
:100170000000050108010B01050505050705080834
:100180000808020202020A0A080804040404010121
:100190000101010101010303030303030303040736
:1001A00007070C0C0C0C0C0C0C0C020202020606CD
:1001B0000606060606060B0B0B0B0B0B0B0B0102C0
:1001C0001020200808102040102040800201020169
:1001D0000804020101020408102040808040201021
:1001E000080402018004020180402010080402017A
:1001F00008040201010204081020408001020408E2
:1002000010204080320AD80E11241FBECFEFD1E259
:10021000DEBFCDBF00E00CBF24E0A6EFB2E001C01E
:100220001D92A533B207E1F712E0A0E0B2E0E6E0EC
:10023000F7E200E00BBF02C007900D92A63FB107A6
:10024000D9F711E0C3E0D1E000E006C02197010931
:10025000802FFE010E944511C230D10780E00807BF
:10026000A9F70E942E0B0C947213CACECF92DF9284
:10027000EF92FF92CF93DF93B0910004A0E0811141
:10028000AB2F8091010490E0880F991FAC014C5B6B
:100290005E4FC0900604D0900704E0900804F090F0
:1002A000090430E020E0FA01C591D491E881B90158
:1002B00090E080E0EB23EA130AC02F5F3F4F6C15FC
:1002C0007D058E059F0578F36FEF7FEFCB01DF9102
:1002D000CF91FF90EF90DF90CF900895DC01ED91EA
:1002E000FC910190F081E02D1994AF92BF92CF92D2
:1002F000DF92EF92FF920F931F93CF93DF936C01E6
:100300007B018B01040F151FEB015E01AE18BF08C6
:10031000C017D10759F06991D601ED91FC91019078
:10032000F081E02DC6011995892B79F7C501DF9180
:10033000CF911F910F91FF90EF90DF90CF90BF90E2
:10034000AF900895FC01538D448D252F30E0842F0C
:1003500090E0821B930B541710F0CF9608950197ED
:100360000895FC01918D828D981761F0A28DAE0FDA
:10037000BF2FB11D5D968C91928D9F5F9F73928F61
:1003800090E008958FEF9FEF0895FC01918D828D8D
:10039000981731F0828DE80FF11D858D90E008955A
:1003A0008FEF9FEF0895FC01918D228D892F90E0B2
:1003B000805C9F4F821B91098F739927089584E475
:1003C00093E0F1DF21E0892B09F420E0822F0895EA
:1003D000FC01A48DA80FB92FB11DA35ABF4F2C91BA
:1003E000848D90E001968F739927848FA689B789B1
:1003F0002C93A089B1898C91837080648C93938DA8
:10040000848D981306C00288F389E02D80818F7D4A
:1004100080830895EF92FF920F931F93CF93DF9302
:10042000EC0181E0888F9B8D8C8D98131AC0E88930
:10043000F989808185FF15C09FB7F894EE89FF89FF
:100440006083E889F98980818370806480839FBF9D
:1004500081E090E0DF91CF911F910F91FF90EF909D
:100460000895F62E0B8D10E00F5F1F4F0F731127AD
:10047000E02E8C8D8E110BC00FB607FCFACFE889E9
:10048000F989808185FFF5CFCE01A2DFF2CFEB8D18
:10049000EC0FFD2FF11DE35AFF4FF0829FB7F89448
:1004A0000B8FEA89FB8980818062D0CFCF93DF9365
:1004B000EC01888D8823B1F0AA89BB89E889F98984
:1004C0008C9185FD03C0808186FD0CC00FB607FCB2
:1004D000F7CF8C9185FFF2CF808185FFEDCFCE01E4
:1004E00077DFEACFDF91CF91089580E090E0892B0C
:1004F00021F065DF81110E94000080E090E0892BEF
:1005000049F080E090E0892B29F00E9400008111E1
:100510000E94000080E090E0892B49F080E090E0AC
:10052000892B29F00E94000081110E94000080E0C8
:1005300090E0892B49F080E090E0892B29F00E941F
:10054000000081110C94000008958150823108F060
:100550005AC0E82FF0E08827EF54FD4F8F4F0C94DE
:100560004511D102D502C302C902CD020303D8024C
:10057000DE02E202E802EC02F002F602FA020303F3
:10058000FE0204030803809180008F77809380002F
:100590000895809180008F7DF9CF80918000877FC2
:1005A000F5CF84B58F7784BD089584B58F7DFBCF5B
:1005B0008091B0008F778093B00008958091B00053
:1005C0008F7DF9CF809190008F7780939000089570
:1005D000809190008F7DF9CF80919000877FF5CF3B
:1005E0008091A0008F778093A00008958091A00053
:1005F0008F7DF9CF8091A000877FF5CF809120017A
:100600008F77809320010895809120018F7DF9CF0D
:1006100080912001877FF5CFCF93DF93282F30E0A3
:10062000F901E250FF4F8491F901E254FE4FD49159
:10063000F901E858FE4FC491CC2399F0811185DF70
:10064000EC2FF0E0EE0FFF1FEC5BFE4FA591B49195
:10065000EC91ED2381E090E009F480E0DF91CF910F
:10066000089580E090E0FACF1F93CF93DF93282F77
:1006700030E0F901E250FF4F8491F901E254FE4F5E
:10068000D491F901E858FE4FC491CC23A1F0162F64
:1006900081115BDFEC2FF0E0EE0FFF1FE25AFE4FFF
:1006A000A591B4918FB7F894EC91111108C0D09531
:1006B000DE23DC938FBFDF91CF911F910895DE2B56
:1006C000F8CFCF93DF9390E0FC01E254FE4F2491EA
:1006D00088589E4FFC0184918823C9F090E0880FD0
:1006E000991FFC01EC51FF4FA591B491FC01E25A16
:1006F000FE4FC591D49161110DC09FB7F8948C91B4
:10070000209582238C938881282328839FBFDF91A3
:10071000CF910895623051F49FB7F8943C91822FA5
:10072000809583238C93E8812E2BEFCF8FB7F8949D
:10073000EC912E2B2C938FBFEACF3FB7F89480918A
:10074000370390913803A0913903B0913A0326B54D
:10075000A89B05C02F3F19F00196A11DB11D3FBFF9
:10076000BA2FA92F982F8827BC01CD01620F711DC8
:10077000811D911D42E0660F771F881F991F4A95C2
:10078000D1F708958F929F92AF92BF92CF92DF924E
:10079000EF92FF924B015C01D0DF6B017C01CDDF5A
:1007A0006C197D098E099F09683E7340810591058A
:1007B000B0F321E0821A9108A108B10888EEC80EB2
:1007C00083E0D81EE11CF11C81149104A104B10442
:1007D00031F7FF90EF90DF90CF90BF90AF909F9058
:1007E0008F900895CF92DF92EF92FF920F931F9315
:1007F000CF93DF93CDB7DEB7C054D1400FB6F89496
:10080000DEBF0FBECDBF2FB7F8948091400390910B
:100810004103A0914203B09143032FBF40910204D2
:100820005091030460910404709105048C019D01B2
:10083000041B150B260B370BB901A801403D57408F
:100840006105710590F480910A04C05CDE4F0FB61B
:10085000F894DEBF0FBECDBFDF91CF911F910F91F6
:10086000FF90EF90DF90CF900895809302049093D3
:100870000304A0930404B09305041092FD031092A6
:10088000FC031092FB031092FA031092F90362E04A
:100890008091FE0316DF61E070E080E090E072DF9F
:1008A00061E08091FE030DDF60E08091FE03DCDEFD
:1008B0008091FF038551823010F58BE291E1019721
:1008C000F1F762E08091FE03FCDE80910B0490E082
:1008D0008230910538F0880F991F880F991F05976E
:1008E0000197F1F7F89480E0C1DC6F3F7F4F8F4FA5
:1008F0009F4F59F410920A04789480E0A6CF64E1E7
:1009000070E080E090E03EDFDCCF81E0AFDC6F3F65
:100910007F4F8F4F9F4F71F38E010F5F1F4F6E01FF
:100920008FEBC81A8EEFD80A780180E09FDCF701C0
:10093000608371838283938381E098DCF701648311
:10094000758386839783F8E0EF0EF11CEC14FD04A9
:1009500061F7789430E020E0F801C080D180E28037
:10096000F3804481558166817781FFEFCF16DF06E2
:10097000EF06FF0631F04F3F8FEF58076807780703
:1009800019F410920A04B9CFF90183E0F595E795BF
:100990008A95E1F7E750FC4F8081880FC416D50691
:1009A000E606F70610F180832F5F3F4F085F1F4F69
:1009B0002832310589F64091FD032091F903809199
:1009C000FA03280F3327331F8091FB03280F311DB3
:1009D0008091FC03820F932F911D992748171906C8
:1009E00081F681E080930A0430CF8160DCCF0895E6
:1009F00020913D0330913E032817390771F49091FF
:100A00003B0380913C03981741F0E0913B03F0E0F9
:100A1000EA50FD4F808190E008958FEF9FEF089599
:100A20000895EF92FF920F931F93CF93DF93DC0112
:100A30005C96ED90FC905D97E114F10479F481E00F
:100A400090E013969C938E93129790E080E0DF9154
:100A5000CF911F910F91FF90EF9008955196ED91D6
:100A6000FC91529750968C915097982F90950FB774
:100A70005E962C915E97122F127021FD6095F8946E
:100A80002081112319F1282B2083E7012197F1F709
:100A900028E0462F50E0308160FF1AC0382B3083A9
:100AA000E7012197F1F7BA0175956795215089F70C
:100AB000112381F08081892380830FBF5C968D9103
:100AC0009C910197F1F781E090E0C1CF2923DCCF21
:100AD0003923E5CF9081892BEFCF20913D033091D1
:100AE0003E032817390769F480913C0320913B03AA
:100AF00090E0805C9F4F821B910960E470E00C9451
:100B0000101190E080E0089520913D0330913E0364
:100B100028173907B9F490913B0380913C0398174B
:100B200089F0E0913B03F0E0EA50FD4F8081209195
:100B30003B0330E02F5F3F4F2F73332720933B035E
:100B400090E008958FEF9FEF089590E080E0089582
:100B5000CF93DF93EC0160E08E8186DD61E08E81D2
:100B600083DD60E08E8180DD8BE891E00197F1F715
:100B7000DF91CF910895CF92DF92EF92FF920F9382
:100B80001F93CF93DF936C017C0187E0E80EF11C8B
:100B9000D0E0C0E0062F10E0B8010C2E02C0759521
:100BA00067950A94E2F76170F70181917F015CDD3E
:100BB0002196C430D10581F7C601DF91CF911F91F5
:100BC0000F91FF90EF90DF90CF90C2CFCF92DF9246
:100BD000EF92FF920F931F93CF93DF93EC01F62ECA
:100BE000642F8C8141DD8D818F3F11F060E03CDD11
:100BF0000F2D10E08F8584FF23C06E0187E0C80EA3
:100C0000D11CF12CE12CB8010E2C02C07595679512
:100C10000A94E2F76170F60181916F0125DDFFEF23
:100C2000EF1AFF0A88E0E816F10469F7CE01DF91B8
:100C3000CF911F910F91FF90EF90DF90CF9088CFD1
:100C4000B80184E0759567958A95E1F7CE0193DF49
:100C50006F2DCE01DF91CF911F910F91FF90EF90FB
:100C6000DF90CF9088CF40E0682F81EE93E0AECF49
:100C700081E0F9DF8BE39FE10197F1F70895CF93CE
:100C8000DF93823029F49091F00398609093F00301
:100C90008093F4031092F50380E48093F60380E1DF
:100CA0008093F70380E58093F80361E08091E5038A
:100CB00008DD8091E6038F3F11F061E002DD61E025
:100CC0008091E703FEDCC1EED3E09E01215E33405C
:100CD0008091F00384FD0AC084E090E021962817FB
:100CE00039073CF461E08E81ECDCEFCF88E090E0E6
:100CF000F5CF8BE39DE00197F1F760E08091E5038C
:100D0000B3DC60E08091E703AFDC8091E6038F3FC6
:100D100011F060E0A9DC8091F00384FD2CC063E059
:100D200081EE93E028DFCBE4D6E4CE010197F1F722
:100D300063E081EE93E01FDF2197F1F763E081EE3E
:100D400093E019DF83E592E00197F1F762E081EE2D
:100D500093E011DF8091F003806285DF84E080936F
:100D6000F1038CE080DF84DF82E08093F20386E091
:100D7000DF91CF9178CF806276DF8BE496E40197A4
:100D8000F1F78091F00380626EDF83E592E00197D6
:100D9000F1F78091F003806266DFDCCF9091F4037D
:100DA000891710F08FEF890FE82FF0E0EF51FC4F1B
:100DB0008489806858CF41E009DF81E090E00895A0
:100DC000FB0101900020E9F73197AF01461B570B5B
:100DD000DC01ED91FC910280F381E02D19948F925A
:100DE0009F92AF92BF92EF92FF920F931F93CF9378
:100DF000DF93CDB7DEB7A1970FB6F894DEBF0FBE75
:100E0000CDBF7C01FA01CB0119A2223008F42AE0FF
:100E10008E010F5D1F4F822E912CB12CA12CBF0192
:100E2000A50194010E942311F901CA016A3004F559
:100E3000605DD8016E938D01232B242B252B79F730
:100E400090E080E0109719F0BD01C701B9DFA196CD
:100E50000FB6F894DEBF0FBECDBFDF91CF911F91CB
:100E60000F91FF90EF90BF90AF909F908F9008955B
:100E7000695CDFCFCF92DF92EF92FF920F931F93C7
:100E8000CF93DF9377FF1BC06A017B01EC016DE21A
:100E900025DA8C0144275527BA014C195D096E09E2
:100EA0007F092AE0CE019BDF800F911FDF91CF9158
:100EB0001F910F91FF90EF90DF90CF9008952AE05F
:100EC000DF91CF911F910F91FF90EF90DF90CF9026
:100ED00086CF2F923F924F925F926F927F928F9226
:100EE0009F92AF92BF92CF92DF92EF92FF921F93A9
:100EF000CF93DF93EC016A017B01722EAB01960167
:100F0000CB01B6010E940C1166E372E0811125C08D
:100F100046015701E894B7F82FEF3FEF4FE75FE73F
:100F2000C501B4010E940C1181110BC02FEF3FEFDE
:100F30004FE75FE7C501B40159D76AE372E01816BD
:100F400064F02FEF3FEF4FE75FE4C701B6010E9467
:100F500008111816ACF46EE372E0CE01DF91CF9168
:100F60001F91FF90EF90DF90CF90BF90AF909F9038
:100F70008F907F906F905F904F903F902F9020CFF9
:100F80002FEF3FEF4FE75FECC701B6012FD787FD8B
:100F9000E2CF20E030E0A901C701B60127D7312C0C
:100FA000212C87FF08C06DE2CE0198D91C01F7FA09
:100FB000F094F7F8F09410E060E070E080E09FE3D8
:100FC000711641F020E030E040E251E40E947410DC
:100FD0001F5FF6CFA70196010E9410102B013C0164
:100FE0000E94DC104B015C012AE0BC01A401CE018F
:100FF000F6DE7C01E20CF31C112391F1C501B40172
:10100000F9D69B01AC01C301B2010E940F104B0144
:101010005C016EE2CE0162D9E80EF91E115000F1BA
:1010200020E030E040E251E4C501B40144D72B0197
:101030003C010E94DC104B01B12CA12C2AE0B5012F
:10104000A401CE01CCDEE80EF91EC501B401D2D652
:101050009B01AC01C301B201E2D74B015C01DECFC1
:10106000C701DF91CF911F91FF90EF90DF90CF905C
:10107000BF90AF909F908F907F906F905F904F90B8
:101080003F902F9008950F931F93CF93DF93EC0120
:1010900097DE8C0162E472E0CE0192DE800F911F38
:1010A000DF91CF911F910F9108950F931F93CF93CD
:1010B000DF93EC01FB014481558160817181E881FE
:1010C000F9810280F381E02D19958C0162E472E0D0
:1010D000CE0176DE800F911FDF91CF911F910F918E
:1010E00008950F931F93CF93DF93EC01888199812B
:1010F000009759F02A813B812617370730F081E0AD
:10110000DF91CF911F910F9108958B016F5F7F4FFA
:101110000E948612009759F0998388831B830A8363
:101120002C813D81232B59F7FC011082E8CF80E010
:10113000E7CFEF92FF920F931F93CF93DF93611549
:10114000710541F480E0DF91CF911F910F91FF90E5
:10115000EF90089541155105A9F07B01EC010C8138
:101160001D81040F151FB801BCDF882359F32881A6
:1011700039818C819D81B701820F931F0E946B136F
:101180001D830C8381E0DFCFCF93DF93EC01888157
:101190009981009711F00E94FD11198218821D8219
:1011A0001C821B821A82DF91CF910895EF92FF92E9
:1011B0000F931F93CF93DF93EC017B011982188269
:1011C0001B821A821D821C82FB0101900020E9F71C
:1011D00031978F01061B170BB80183DF811108C0FF
:1011E000CE01DF91CF911F910F91FF90EF90CCCF67
:1011F0001D830C83B70188819981DF91CF911F9165
:101200000F91FF90EF900C946B13FC018081918102
:10121000009711F00C94FD1108951F920F920FB6D4
:101220000F9211240BB60F922F933F934F935F931E
:101230006F937F938F939F93AF93BF93EF93FF939E
:1012400084E493E0C5D8FF91EF91BF91AF919F9156
:101250008F917F916F915F914F913F912F910F905F
:101260000BBE0F900FBE0F901F9018951F920F92FC
:101270000FB60F9211240BB60F922F938F939F935B
:10128000EF93FF93E0915403F09155038081E09137
:101290005A03F0915B0382FD1DC0908180915D0334
:1012A0008F5F8F7320915E03821741F0E0915D03A1
:1012B000F0E0EC5BFC4F958F80935D03FF91EF9125
:1012C0009F918F912F910F900BBE0F900FBE0F909B
:1012D0001F9018958081F2CF1F920F920FB60F9238
:1012E00011242F933F938F939F93AF93BF9380913C
:1012F000400390914103A0914203B0914303309188
:10130000360323E0230F2D3758F50196A11DB11D9B
:10131000209336038093400390934103A0934203AC
:10132000B09343038091370390913803A091390320
:10133000B0913A030196A11DB11D8093370390939C
:101340003803A0933903B0933A03BF91AF919F91B3
:101350008F913F912F910F900FBE0F901F90189576
:1013600026E8230F0296A11DB11DD2CF1F920F9226
:101370000FB60F9211240BB60F922F933F934F93FA
:101380005F936F937F938F939F93AF93BF93EF93ED
:10139000FF93E0913D03F0913E03309749F0A6851D
:1013A000B7858585968D91FF16C09C918923B1F4F0
:1013B000FF91EF91BF91AF919F918F917F916F912D
:1013C0005F914F913F912F910F900BBE0F900FBEE9
:1013D0000F901F9018959C91892351F7A389B48988
:1013E0009C918589809589238C938689978901971B
:1013F000F1F7608D718DA685B785558538E020E0C1
:10140000CB010197F1F7822F90E095958795282FD2
:101410004C91452309F02068315091F7868D81FD6C
:10142000209580913C0390E001968F73992730912D
:101430003B03381799F0A0913C03B0E0AA50BD4F90
:101440002C9380933C03828D938D0197F1F7A389B0
:10145000B4898C919589892B8C93AACF868D8160D4
:10146000868FF1CFCF92DF92EF92FF9210924703D7
:101470001092460398EEC92E93E0D92EE12CF12C60
:10148000C0924803D0924903E0924A03F0924B0382
:101490008AE092E0909345038093440385EC90E0CA
:1014A000909351038093500384EC90E09093530306
:1014B0008093520380EC90E0909355038093540303
:1014C00081EC90E0909357038093560382EC90E078
:1014D000909359038093580386EC90E090935B03BC
:1014E00080935A0310925D0310925E0310925F0383
:1014F0001092600365E472E08BE294E057DE109294
:101500000F0410920E04C0921004D0921104E092C5
:101510001204F092130488E292E090930D048093F9
:101520000C041092230410922204109225041092AD
:101530002404109227041092260410922904109279
:10154000280460912A046E7F6D7F60932A0466955B
:10155000617081E0682788E087D861E088E0B1D8D1
:10156000E6ECF1E0E491E0931C04E0E8F1E0E491C2
:10157000F0E0EE0FFF1FE25AFE4F85919491909399
:101580001E0480931D0460E08DE09BD880912A04A6
:1015900081FD03C061E08DE067D88DE08093180481
:1015A000EBECF1E0E491E0931904E5E8F1E0E4917B
:1015B000F0E0EE0FFF1FEC5BFE4F8591949190934E
:1015C0001B0480931A0484E08093FE038BE08093D5
:1015D000FF03E2ECF1E0E491E0930004ECE7F1E0DA
:1015E000E491E093010480E89EE3A0E0B0E0809302
:1015F000060490930704A0930804B0930904109282
:10160000E4031092E3038CE192E09093E203809371
:10161000E1038BE28093E5038FEF8093E6038DE295
:101620008093E7038FE28093E80381E38093E903EB
:1016300083E38093EA0385E38093EB031092EC034A
:101640001092ED031092EE031092EF031092F0034C
:1016500081E0FF90EF90DF90CF9011CBCF93DF939D
:1016600000D000D0CDB7DEB7789484B5826084BD59
:1016700084B5816084BD85B5826085BD85B5816096
:1016800085BD80916E00816080936E001092810014
:1016900080918100826080938100809181008160CF
:1016A0008093810080918000816080938000809190
:1016B000B10084608093B1008091B000816080931C
:1016C000B0008091910082608093910080919100A0
:1016D0008160809391008091900081608093900060
:1016E0008091A10082608093A1008091A10081601F
:1016F0008093A1008091A00081608093A0008091E0
:101700002101826080932101809121018160809379
:1017100021018091200181608093200180917A00D5
:10172000846080937A0080917A00826080937A004E
:1017300080917A00816080937A0080917A0080683D
:1017400080937A001092C100E0915403F091550308
:1017500082E08083E0915003F09151031082E09188
:101760005203F09153038FEC808310925C03E0915D
:101770005803F091590386E08083E0915603F0917D
:101780005703808180618083E0915603F091570375
:10179000808188608083E0915603F09157038081B7
:1017A00080688083E0915603F091570380818F7D9C
:1017B000808360E08AE00E94610360E089E00E942B
:1017C000610360E084E00E94610361E082E00E94C6
:1017D000610361E083E00E94610361E08BE00E94AD
:1017E000610310922704109226041092250410928F
:1017F000240410922304109222048DE991E0909326
:101800002904809328048091180496EF980F94304F
:1018100048F02EEC280F243028F022EC280F283036
:1018200008F061C02DEB30E03093230420932204B4
:101830002BE931E030932504209324042CE231E09D
:101840003093270420932604943050F02EEC280F78
:10185000243030F022EC280FF0E0E0E0283010F4E3
:10186000E8E6F0E02081943028F032EC380F383090
:1018700008F4EEC031E0232B943048F09EEC980F32
:10188000943028F08E53F0E0E0E0883010F4E8E681
:10189000F0E020832091180436EF320F343008F442
:1018A000D9C08EEC820F843008F4D4C082EC820F51
:1018B000883008F0D2C08DE690E0909320048093A9
:1018C0001F04343008F0CCC02650330B81E001C037
:1018D000880F2A95EAF7809321048091280490913B
:1018E00029040197F1F78091260490912704892B10
:1018F00049F1E0913D03F0913E0384E0EC30F807BC
:1019000009F1309739F0A389B4899C918589809534
:1019100089238C9380912A048E7F80932A041092CD
:101920003C0310923B038CE094E090933E03809341
:101930003D03E0911F04F0912004808190912104E7
:10194000892B80836EE472E08CE094E09CDB62E0A3
:101950008091FE030E9461032FB7F89480914003A9
:1019600090914103A0914203B09143032FBF805D4A
:101970009740A109B1098093020490930304A093B6
:101980000404B093050487E380930B0482E077D9C5
:101990008AE00E940C037C0189E00E940C036C0128
:1019A00061E572E084E493E00BDA47010F2C000C50
:1019B000AA08BB08B501A40184E493E05BDA62E401
:1019C00072E084E493E0FCD980E0E8D96FE572E04E
:1019D00081EE93E0F5D9B501A40181EE93E04ADAF6
:1019E00067E672E084E493E0EBD946010D2C000C2D
:1019F000AA08BB08B501A40184E493E03BDA62E4E1
:101A000072E084E493E0DCD981E0C8D963E772E056
:101A100081EE93E0D5D9B501A40181EE93E02ADAF5
:101A200064E670E080E090E00E94C20321D9CA948D
:101A3000CD2859F1EA94EF2841F10E94F203811177
:101A4000A1C0812C912C20ECA22E2FE7B22ECFC06A
:101A500034E011CF8BE690E030CF90E080E02DCFE6
:101A600088E0223309F437CF84E0233309F433CFFD
:101A700082E0243309F42FCF82EC820F883018F4EF
:101A80002E53330B23CF81E026CF69E772E084E445
:101A900093E0F9DA61E082E00E94340361E08BE0D8
:101AA0000E94340360E083E00E94340380913F038E
:101AB00081115FC062E872E0CE01019677DB409150
:101AC0002F045091300460912B0470912C04CE01AE
:101AD00001962FDB811103C0CE01019655DBBE01BB
:101AE0006F5F7F4F84E493E0E0DACE0101968DDBF7
:101AF00062E972E08CE094E0C6DA6CE972E0CE0153
:101B0000019654DB40912F045091300460912B04D6
:101B100070912C04CE0101960CDB811103C0CE0123
:101B2000019632DB42E050E066EA72E0CE010196B7
:101B300000DB811103C0CE01019626DBBE016F5F81
:101B40007F4F8CE094E0B1DACE0101965EDB69EA6A
:101B500072E08CE094E097DA6AE18CE094E00E9415
:101B60006E0162E472E08CE094E02AD981E0809317
:101B70003F0368EC70E080E090E00E94C2030E94A6
:101B8000750206CF8091FF038B3008F45ACF8D3059
:101B9000A0F08551823008F054CF6091F903709124
:101BA000FA0376276727762790E080E023D12DEC93
:101BB0003CEC4CEC5DE37FD118C06091FA0370E01F
:101BC00090E080E019D12DEC3CEC4CEC5DE373D15E
:101BD0006B017C016091F90370E090E080E00CD132
:101BE0009B01AC01C701B6011BD24B015C010E94F5
:101BF000F203882341F08091FF038C3009F4A3C0E5
:101C000048F48B30F1F0C12CD12C80ECE82E8FE71A
:101C1000F82E3CC085518230B0F71091FB03612F44
:101C200070E0762F662766277F778091FC03682B0C
:101C300090E080E0DFD02DEC3CEC4CEC5DE33BD160
:101C40009AC06091FB0370E090E080E0D3D06B011C
:101C50007C011091FC0317FF09C0AC019B0160E0FF
:101C600070E080E89FEBDBD16B017C011F70612F7E
:101C700070E090E080E0C0D02DEC3CEC4CEC5DE3FB
:101C80001AD1A7019601CCD16B017C0167EC72E0FF
:101C900084E493E095D822E0B501A40184E493E0C4
:101CA00018D962E472E084E493E08AD880E076D8C0
:101CB00062ED72E081EE93E083D822E0B501A401E9
:101CC00081EE93E006D968ED72E084E493E078D881
:101CD00022E0B701A60184E493E0FBD862E472E05D
:101CE00084E493E06DD881E059D866EE72E081EE2D
:101CF00093E066D822E0B701A60181EE93E0E9D82F
:101D000064E670E080E090E00E94C2030E94380622
:101D100020E030E04CE852E4C501B40179D287FDFF
:101D200033C06DEE72E084E493E0ADD961E082E00F
:101D30000E94340361E08BE00E94340360E083E0A2
:101D40000E94340316CF1091FB03612F70E090E0E6
:101D500080E050D06B017C016091FC036F7070E0FB
:101D600090E080E049D02DEC3CEC4CEC5DE3A3D05E
:101D7000A701960155D16B017C0117FF87CFF7FAB8
:101D8000F094F7F8F09482CF62EF72E084E493E08D
:101D90007AD960E082E00E94340360E08BE00E9428
:101DA000340361E083E00E94340310923F03E1CEEC
:101DB00088E292E090930D0480930C0480913D039F
:101DC00090913E038C50944071F4E0911F04F09187
:101DD0002004908180912104809589238083109232
:101DE0003E0310923D038BE294E00FCA40D008F40A
:101DF00081E00895E89409C097FB3EF490958095A2
:101E0000709561957F4F8F4F9F4F9923A9F0F92FC0
:101E100096E9BB279395F695879577956795B7953E
:101E2000F111F8CFFAF4BB0F11F460FF1BC06F5F24
:101E30007F4F8F4F9F4F16C0882311F096E911C036
:101E4000772321F09EE8872F762F05C0662371F057
:101E500096E8862F70E060E02AF09A95660F771F6B
:101E6000881FDAF7880F9695879597F90895990F47
:101E70000008550FAA0BE0E8FEEF16161706E80754
:101E8000F907C0F012161306E407F50798F0621B75
:101E9000730B840B950B39F40A2661F0232B242B4A
:101EA000252B21F408950A2609F4A140A6958FEF69
:101EB000811D811D08950BD078C069D028F06ED0A7
:101EC00018F0952309F05AC05FC01124A2C07ED03B
:101ED000A0F3959FD1F3950F50E0551F629FF0013D
:101EE000729FBB27F00DB11D639FAA27F00DB11D96
:101EF000AA1F649F6627B00DA11D661F829F22271F
:101F0000B00DA11D621F739FB00DA11D621F839FA5
:101F1000A00D611D221F749F3327A00D611D231F7B
:101F2000849F600D211D822F762F6A2F11249F57C9
:101F300050408AF0E1F088234AF0EE0FFF1FBB1FEC
:101F4000661F771F881F91505040A9F79E3F51058B
:101F500070F014C05EC05F3FECF3983EDCF38695F2
:101F600077956795B795F795E7959F5FC1F7FE2B36
:101F7000880F911D9695879597F9089597F99F6712
:101F800080E870E060E008959FEF80EC0895002401
:101F90000A941616170618060906089500240A94CE
:101FA00012161306140605060895092E0394000C54
:101FB00011F4882352F0BB0F40F4BF2B11F460FFE3
:101FC00004C06F5F7F4F8F4F9F4F089557FD90580C
:101FD000440F551F59F05F3F71F04795880F97FBED
:101FE000991F61F09F3F79F08795089512161306A7
:101FF0001406551FF2CF4695F1DF08C016161706D6
:102000001806991FF1CF869571056105089408950A
:10201000E894BB2766277727CB0197F90895505896
:10202000BB27AA270ED0C1CFB2DF30F0B7DF20F038
:1020300031F49F3F11F41EF4A7CF0EF4E095E7FBB7
:102040009DCFE92FC3DF80F3BA17620773078407B8
:10205000950718F071F49EF5DBCF0EF4E0950B2E8A
:10206000BA2FA02D0B01B90190010C01CA01A001EA
:102070001124FF27591B99F0593F50F4503E68F145
:102080001A16F040A22F232F342F4427585FF3CF86
:10209000469537952795A795F0405395C9F77EF457
:1020A0001F16BA0B620B730B840BBAF09150A1F0A0
:1020B000FF0FBB1F661F771F881FC2F70EC0BA0F26
:1020C000621F731F841F48F4879577956795B795AE
:1020D000F7959E3F08F0B3CF9395880F08F09927A6
:1020E000EE0F9795879508950CD05FCF57DF40F09E
:1020F0004EDF30F021F45F3F19F040CF511189CF0E
:1021000043CF64DF98F39923C9F35523B1F3951BAB
:10211000550BBB27AA2762177307840738F09F5F08
:102120005F4F220F331F441FAA1FA9F333D00E2E77
:102130003AF0E0E830D091505040E695001CCAF7E4
:1021400029D0FE2F27D0660F771F881FBB1F2617A9
:1021500037074807AB07B0E809F0BB0B802DBF017C
:10216000FF2793585F4F2AF09E3F510568F006CF36
:1021700050CF5F3FECF3983EDCF3869577956795FB
:10218000B795F7959F5FC9F7880F911D969587952D
:1021900097F90895E1E0660F771F881FBB1F62174C
:1021A00073078407BA0720F0621B730B840BBA0B0A
:1021B000EE1F88F7E095089511DF88F09F5790F0A3
:1021C000B92F9927B751A0F0D1F0660F771F881F5C
:1021D000991F1AF0BA95C9F712C0B13081F018DF13
:1021E000B1E0089515CF672F782F8827B85F39F0B1
:1021F000B93FCCF3869577956795B395D9F73EF4BB
:1022000090958095709561957F4F8F4F9F4F089562
:102210002EDE08F48FEF08952ADE880B990B0895BF
:1022200097FB072E16F4009406D077FD08D035D022
:1022300007FC05D03EF4909581959F4F08957095C9
:1022400061957F4F0895A1E21A2EAA1BBB1BFD01C9
:102250000DC0AA1FBB1FEE1FFF1FA217B307E40785
:10226000F50720F0A21BB30BE40BF50B661F771FDD
:10227000881F991F1A9469F76095709580959095BD
:102280009B01AC01BD01CF010895EE0FFF1F881F18
:102290008BBF0790F691E02D1994AA1BBB1B51E14F
:1022A00007C0AA1FBB1FA617B70710F0A61BB70BC6
:1022B000881F991F5A95A9F780959095BC01CD016B
:1022C00008950F931F93CF93DF938230910510F4FD
:1022D00082E090E0E0913304F091340430E020E0BB
:1022E000B0E0A0E0309799F42115310509F44AC017
:1022F000281B390B24303105D8F58A819B81611563
:10230000710589F1FB0193838283FE0111C0408135
:1023100051810281138148175907E0F04817590786
:1023200099F4109761F012960C93129713961C93E0
:102330003296CF01DF91CF911F910F9108950093B5
:10234000330410933404F4CF2115310551F04217B2
:10235000530738F0A901DB019A01BD01DF01F80143
:10236000C1CFEF01F9CF9093340480933304CDCFE4
:10237000FE01E20FF31F81939193225031093983BB
:102380002883D7CF2091310430913204232B41F49C
:1023900020910202309103023093320420933104E1
:1023A00020910002309101022115310541F42DB731
:1023B0003EB74091040250910502241B350BE09179
:1023C0003104F0913204E217F307A0F42E1B3F0B07
:1023D0002817390778F0AC014E5F5F4F2417350797
:1023E00048F04E0F5F1F50933204409331048193A5
:1023F00091939FCFF0E0E0E09CCFCF93DF930097E5
:10240000E9F0FC01329713821282A0913304B0915B
:102410003404ED0130E020E01097A1F420813181F7
:10242000820F931F2091310430913204281739070D
:1024300009F061C0F0933204E0933104DF91CF9151
:102440000895EA01CE17DF07E8F54A815B819E0116
:1024500041155105B1F7E901FB83EA83499159918F
:10246000C40FD51FEC17FD0761F48081918102969E
:10247000840F951FE90199838883828193819B83CF
:102480008A83F0E0E0E012968D919C91139700977B
:10249000B9F52D913C911197CD010296820F931FB2
:1024A00020913104309132042817390739F63097DA
:1024B00051F51092340410923304B0933204A09377
:1024C0003104BCCFD383C28340815181840F951FD7
:1024D000C817D90761F44E5F5F4F88819981480F13
:1024E000591F518340838A819B8193838283211565
:1024F000310509F0B0CFF0933404E09333049ECF5C
:10250000FD01DC01C0CF13821282D7CF4F925F92C0
:102510006F927F928F929F92AF92BF92CF92DF92F3
:10252000EF92FF920F931F93CF93DF938C0100974D
:1025300091F4CB01DF91CF911F910F91FF90EF901C
:10254000DF90CF90BF90AF909F908F907F906F90D3
:102550005F904F90B6CEFC01E60FF71F9C01225012
:102560003109E217F30708F4AAC0D901CD91DC9133
:102570001197C617D70718F1C530D10570F0CE01F5
:1025800004978617970748F0C61BD70B2297C1936D
:10259000D1936D937C93CF0130DFC801DF91CF9150
:1025A0001F910F91FF90EF90DF90CF90BF90AF9071
:1025B0009F908F907F906F905F904F9008955B01F8
:1025C000AC1ABD0A4C018C0E9D1EA0913304B09133
:1025D0003404512C412CF12CE12C109731F58091D1
:1025E0003104909132048815990509F05CC04616B3
:1025F000570608F058C080910002909101020097A0
:1026000041F48DB79EB74091040250910502841B9E
:10261000950BE817F90708F052C0F0933204E093E5
:102620003104F90171836083B8CF8D919C9111972A
:1026300012966C90129713967C901397A815B90573
:1026400059F56C0142E0C40ED11CCA14DB0420F120
:10265000AC014A195B09DA011296159780F0628283
:10266000738251834083D9016D937C93E114F1040B
:1026700071F0D7011396FC93EE9312978ECF2296AA
:102680008C0F9D1FF90191838083F301EFCFF093AD
:102690003404E093330481CF4816590608F42C0122
:1026A0007D01D3019ACFCB010CDE7C01009739F07C
:1026B000AE01B80107D0C801A0DE87016ECF10E0DF
:1026C00000E06BCFFB01DC0102C001900D92415094
:1026D0005040D8F70895FB01DC0101900D920020D5
:1026E000E1F7089511E0C3E0D1E000E005C0802FDC
:1026F000FE01CBDD2196011DC430D10780E0080723
:06270000B1F7F894FFCFD1
:10270600000035048000000000000A027501A201E5
:102716005602D301B101C50100000000DB067501B8
:10272600A505F7040000000011057501A5051005B3
:102736006D058405F8046E616E00696E66006F763D
:1027460066000D0A003132333435363738004154CD
:1027560000466C616D652056616C75653A200046D1
:102766006C616D653A20004761732056616C756532
:102776003A20004761733A20005741524E494E476E
:10278600210053656E64696E6720534D5320746F44
:10279600200041542B434D47463D310041542B43C5
:1027A6004D47533D2200220D005761726E696E67D8
:1027B600212050726F706162696C697479206F664E
:1027C6002066697265210048756D69646974793A95
:1027D600200048756D3A200054656D70657261740D
:1027E6007572653A200054656D703A20005765741D
:0627F60021004F4B000022
:020000023000CC
:10E000000D9489F10D94B2F10D94B2F10D94B2F129
:10E010000D94B2F10D94B2F10D94B2F10D94B2F1F0
:10E020000D94B2F10D94B2F10D94B2F10D94B2F1E0
:10E030000D94B2F10D94B2F10D94B2F10D94B2F1D0
:10E040000D94B2F10D94B2F10D94B2F10D94B2F1C0
:10E050000D94B2F10D94B2F10D94B2F10D94B2F1B0
:10E060000D94B2F10D94B2F10D94B2F10D94B2F1A0
:10E070000D94B2F10D94B2F10D94B2F10D94B2F190
:10E080000D94B2F10D94B2F10D94B2F10D94B2F180
:10E090000D94B2F10D94B2F10D94B2F10D94B2F170
:10E0A0000D94B2F10D94B2F10D94B2F10D94B2F160
:10E0B0000D94B2F10D94B2F10D94B2F10D94B2F150
:10E0C0000D94B2F10D94B2F10D94B2F10D94B2F140
:10E0D0000D94B2F10D94B2F10D94B2F10D94B2F130
:10E0E0000D94B2F141546D656761323536300041AF
:10E0F000726475696E6F206578706C6F72657220DE
:10E1000073746B3530305632206279204D4C530099
:10E11000426F6F746C6F616465723E004875683F52
:10E1200000436F6D70696C6564206F6E203D200048
:10E130004350552054797065202020203D20005FF9
:10E140005F4156525F415243485F5F3D2000415658
:10E1500052204C696243205665723D20004743437C
:10E160002056657273696F6E203D20004350552024
:10E1700049442020202020203D20004C6F7720663D
:10E18000757365202020203D20004869676820665F
:10E190007573652020203D200045787420667573D6
:10E1A00065202020203D20004C6F636B2066757336
:10E1B000652020203D20004D617220203720323024
:10E1C000313300312E362E3800342E332E350056A2
:10E1D00023202020414444522020206F7020636F70
:10E1E00064652020202020696E73747275637469E1
:10E1F0006F6E2061646472202020496E74657272B3
:10E20000757074006E6F20766563746F7200726A49
:10E210006D702020006A6D70200057686174207056
:10E220006F72743A00506F7274206E6F7420737541
:10E2300070706F72746564004D7573742062652030
:10E2400061206C6574746572002000577269747483
:10E25000696E672045450052656164696E672045B7
:10E26000450045452065727220636E743D00504F35
:10E27000525400303D5A65726F2061646472003FF1
:10E280003D43505520737461747300403D454550C3
:10E29000524F4D207465737400423D426C696E6B41
:10E2A000204C454400453D44756D70204545505215
:10E2B0004F4D00463D44756D7020464C415348001B
:10E2C000483D48656C70004C3D4C69737420492F83
:10E2D0004F20506F72747300513D51756974005234
:10E2E0003D44756D702052414D00563D73686F7707
:10E2F00020696E7465727275707420566563746FF0
:10E30000727300593D506F727420626C696E6B00BD
:10E310002A0011241FBECFEFD1E2DEBFCDBF01E046
:10E320000CBF12E0A0E0B2E0EEE1FDEF03E00BBFB6
:10E3300002C007900D92A030B107D9F712E0A0E01B
:10E34000B2E001C01D92AE30B107E1F70F9460F367
:10E350000D948DFE01E20EBF0FEF0DBF11241FBE05
:10E360000D9460F30D9400F020E030E040ED57E0B4
:10E3700005C0FA013197F1F72F5F3F4F2817390792
:10E38000C0F308959C01260F311DC901A0E0B0E043
:10E390002F5F3F4FABBFFC018791882361F08093D3
:10E3A000C6008091C00086FFFCCF8091C0008064D1
:10E3B0008093C000EACF08958DE08093C6008091DD
:10E3C000C00086FFFCCF8091C00080648093C000B5
:10E3D0008AE08093C6008091C00086FFFCCF8091C8
:10E3E000C00080648093C00008950F94C2F10F9420
:10E3F000DCF10895FC019081992359F09093C600B7
:10E400008091C00086FFFCCF8091C0008064809323
:10E41000C0003196992379F70895282F982F929567
:10E420009F70892F805D8A3308F0895F8093C600D2
:10E430008091C00086FFFCCF8091C00080648093F3
:10E44000C000822F8F70982F905D9A3308F0995FEB
:10E450009093C6008091C00086FFFCCF8091C000E1
:10E4600080648093C00008959C01FB01853691056E
:10E470001CF46330710594F0C90164E670E00F94F8
:10E480002EFE605D7F4F6093C6008091C00086FFC6
:10E49000FCCF8091C00080648093C0002B30310598
:10E4A00014F43297B4F0C90164E670E00F942EFEC4
:10E4B0006AE070E00F942EFE605D7F4F6093C600AF
:10E4C0008091C00086FFFCCF8091C0008064809363
:10E4D000C000C9016AE070E00F942EFEC0968093E0
:10E4E000C6008091C00086FFFCCF8091C000806490
:10E4F0008093C00008951F93182F8EE692EE60E07F
:10E500000F94C2F11093C6008091C00086FFFCCF2B
:10E510008091C00080648093C0000F94DCF11F9153
:10E5200008952F923F924F925F926F927F928F92B7
:10E530009F92AF92BF92CF92DF92EF92FF920F9392
:10E540001F93DF93CF93CDB7DEB762970FB6F894E2
:10E55000DEBF0FBECDBF382E622ECA01DB015C01CB
:10E560006D01772420E2222E2E010894411C511CBB
:10E570008BC081E0A81680E0B80681E0C80680E084
:10E58000D80628F0C601AA27BB270F940DF2BB2797
:10E59000AD2D9C2D8B2D0F940DF28A2D0F940DF225
:10E5A0002092C6008091C00086FFFCCF8091C00001
:10E5B00080648093C0009DE29093C6008091C0006B
:10E5C00086FFFCCF8091C00080648093C0002092C1
:10E5D000C6008091C00086FFFCCF8091C00080649F
:10E5E0008093C00019828601750188249924A1E0D6
:10E5F0003A1651F03A1620F0B2E03B1661F409C029
:10E600000BBFF701779007C0C7010F9477FE782EF4
:10E6100002C0F7017080872D0F940DF22092C60082
:10E620008091C00086FFFCCF8091C0008064809301
:10E63000C000872D8052F401EF70F0708F3520F408
:10E64000E40DF51D708204C0E40DF51D8EE280839B
:10E650000894E11CF11C011D111D0894811C911CE2
:10E6600090E18916910409F0C2CF80E190E0A0E02A
:10E67000B0E0A80EB91ECA1EDB1E198AC2010F9493
:10E68000FAF10F94DCF16A94662009F072CF629679
:10E690000FB6F894DEBF0FBECDBFCF91DF911F91B3
:10E6A0000F91FF90EF90DF90CF90BF90AF909F9031
:10E6B0008F907F906F905F904F903F902F90089534
:10E6C0002F923F924F925F926F927F928F929F9282
:10E6D000AF92BF92CF92DF92EF92FF920F931F9370
:10E6E000DF93CF93CDB7DEB7CD53D1400FB6F894BB
:10E6F000DEBF0FBECDBF01E20EBF0FEF0DBF94B75F
:10E70000F894A89514BE80916000886180936000A1
:10E7100010926000789493FF05C0E0910002F091A0
:10E7200001021995279A2F9A8091C00082608093E8
:10E73000C00080E18093C40088E18093C1000000A4
:10E74000EE24FF24870144E0A42EB12CCC24DD2448
:10E7500024C0C5010197F1F70894E11CF11C011DCB
:10E76000111D21E2E2162EE4F20620E0020720E06D
:10E77000120718F031E0C32ED12CC801B70127ECE5
:10E780003BE140E050E00F9441FE611571058105C9
:10E79000910519F485B1805885B98091C00087FD35
:10E7A00003C0C114D104A9F2A6014F5F5F4FC25E3E
:10E7B000DE4F59834883CE51D140C25EDE4F8881FF
:10E7C0009981CE51D140019711F00D9410FEC05D9A
:10E7D000DE4F19821882C053D14060E0C15DDE4F28
:10E7E0001882CF52D14088249924C35DDE4F19820C
:10E7F0001882CD52D140C05EDE4F188219821A8233
:10E800001B82C052D140CE5CDE4F188219821A8220
:10E810001B82C253D140EE24FF2487010BBFF701B6
:10E8200007911691C45CDE4F19830883CC53D14005
:10E830000D940BFEC25EDE4F28813981CE51D1404E
:10E840002130310509F52091C600C25EDE4F1982E4
:10E850001882CE51D14022C02F5F3F4F4F4F5F4FA4
:10E86000213082E138078AE7480780E0580780F0C6
:10E87000C45CDE4FE881F981CC53D140EF5FFF4F9C
:10E8800019F0EE27FF27099420E030E040E050E047
:10E890008091C00087FFE0CF2091C600C35DDE4FAE
:10E8A00048815981CD52D1404F5F5F4FC35DDE4FEC
:10E8B00059834883CD52D140213209F063C64A3092
:10E8C000510508F05FC60894811C911C53E0851621
:10E8D000910409F059C600E010E018C081E280936D
:10E8E000C6008091C00086FFFCCF8091C00080648C
:10E8F0008093C0002F5F3F4F2931310579F70F9486
:10E90000DCF10F5F1F4F0530110519F020E030E0FA
:10E91000E5CF10920A0210920B0210920C02109294
:10E920000D02109206021092070210920802109235
:10E930000902109202021092030210920402109235
:10E9400005028FEE90EE60E00F94F5F180E191EE1C
:10E9500060E00F94C2F18091C00087FFFCCF9091DE
:10E96000C600903608F09F759032B8F09093C600BC
:10E970008091C00086FFFCCF8091C00080648093AE
:10E98000C000A0E2A093C6008091C00086FFFCCF2B
:10E990008091C00080648093C000983409F4D7C18E
:10E9A0009934B8F4923409F459C1933458F490333B
:10E9B00019F1903308F4E3C59F33A1F1903409F0C5
:10E9C000DEC5BDC0953409F470C1963409F0D7C5D1
:10E9D00098C1923509F42BC2933538F49C3409F46C
:10E9E000F5C1913509F0CBC518C2963509F445C279
:10E9F000993509F0C4C567C483E792EE62E00F94CD
:10EA0000F5F110920602109207021092080210927D
:10EA1000090210920A0210920B0210920C0210923C
:10EA20000D0213C18FE792EE62E00F94F5F18FEEC5
:10EA300090EE60E00F94F5F181E291EE60E00F94CA
:10EA4000C2F187EB91EE60E00F94F5F180E391EE77
:10EA500060E00F94C2F184EE90EE60E00F94F5F167
:10EA60008FE391EE60E00F94C2F186E090E061E008
:10EA700070E00F9434F20F94DCF18DE591EE60E0DC
:10EA80000F94C2F189EC91EE60E00F94F5F18EE401
:10EA900091EE60E00F94C2F183EC91EE60E00F9490
:10EAA000F5F18CE691EE60E00F94C2F18EE10F94E7
:10EAB0000DF288E90F940DF281E00F940DF20F949E
:10EAC000DCF18BE791EE60E00F94C2F119E0E0E039
:10EAD000F0E010935700E4918E2F0F940DF20F94F5
:10EAE000DCF18AE891EE60E00F94C2F1E3E0F0E03F
:10EAF00010935700E4918E2F0F940DF20F94DCF1D8
:10EB000089E991EE60E00F94C2F1E2E0F0E0109349
:10EB10005700E4918E2F0F940DF20F94DCF188EAE8
:10EB200091EE60E00F94C2F1E1E0F0E01093570045
:10EB30001491812F0F940DF20F94DCF107CF8BE825
:10EB400092EE62E00F94F5F18BE492EE60E00F94A8
:10EB5000F5F10F94DCF100E010E019C0C8016F2D51
:10EB60000F947FFEFF2031F489E492EE60E00F9471
:10EB7000C2F10BC0F092C6008091C00086FFFCCFAE
:10EB80008091C00080648093C0000F5F1F4FC80158
:10EB900081519F41A0E0B0E0ABBFFC01F790BAE229
:10EBA000FB1621F0E2E000301E07C1F60F94DCF105
:10EBB0000F94DCF187E592EE60E00F94F5F10F948D
:10EBC000DCF1CC24DD2400E010E01EC0C8010F946D
:10EBD00077FEF82E882331F489E492EE60E00F94FA
:10EBE000C2F10BC08093C6008091C00086FFFCCFAD
:10EBF0008091C00080648093C000FE1419F00894D6
:10EC0000C11CD11C0F5F1F4FC80181519F41A0E063
:10EC1000B0E0ABBFFC01E790FAE2EF1621F022E092
:10EC20000030120799F60F94DCF10F94DCF182E6C4
:10EC300092EE60E00F94C2F1C60161E070E00F94C3
:10EC400034F20F94DCF10F94DCF110920202109276
:10EC50000302109204021092050278CE89E992EE26
:10EC600062E00F94F5F1279A2F9A16C02F9880E052
:10EC700090E0E0EDF7E03197F1F7019684369105E9
:10EC8000C1F72F9A80E090E0E0EDF7E03197F1F7DF
:10EC9000019684369105C1F78091C00087FFE6CFC9
:10ECA0008091C00087FFFCCF64C485EA92EE62E0E9
:10ECB0000F94F5F140910202509103026091040219
:10ECC0007091050281E020E10F9491F2809102029F
:10ECD00090910302A0910402B091050280509F4FD1
:10ECE000AF4FBF4F8093020290930302A0930402A0
:10ECF000B093050280509041A040B04008F426CE69
:10ED0000A4CF83EB92EE62E00F94F5F140910602FE
:10ED100050910702609108027091090280E020E1A1
:10ED20000F9491F28091060290910702A09108023F
:10ED3000B091090280509F4FAF4FBF4F80930602A2
:10ED400090930702A0930802B0930902FFCD80ECD4
:10ED500092EE62E00F94F5F183E792EE60E00F949B
:10ED6000F5F18FE792EE60E00F94F5F18BE892EE0B
:10ED700060E00F94F5F189E992EE60E00F94F5F10F
:10ED800085EA92EE60E00F94F5F183EB92EE60E09D
:10ED90000F94F5F180EC92EE60E00F94F5F187ECC2
:10EDA00092EE60E00F94F5F188ED92EE60E00F9442
:10EDB000F5F18FED92EE60E00F94F5F18AEE92EEB0
:10EDC00060E00F94F5F183E093EEBDCD87EC92EE19
:10EDD00062E00F94F5F181E40F947BF282E40F94EA
:10EDE0007BF283E40F947BF284E40F947BF285E45E
:10EDF0000F947BF286E40F947BF287E40F947BF20E
:10EE000088E40F947BF28AE40F947BF28BE40F94F6
:10EE10007BF28CE40F947BF299CD88ED92EE62E068
:10EE20000F94F5F1772473948824992409C48FED05
:10EE300092EE62E00F94F5F140910A0250910B02BC
:10EE400060910C0270910D0282E020E10F9491F22A
:10EE500080910A0290910B02A0910C02B0910D02D8
:10EE600080509F4FAF4FBF4F80930A0290930B0289
:10EE7000A0930C02B0930D0269CD8AEE92EE62E08F
:10EE80000F94F5F184EE90EE60E00F94F5F18FECC5
:10EE900091EE60E00F94F5F1662477244301CC5D98
:10EEA000DE4F19821882C452D140D401C301B695F5
:10EEB000A79597958795CA5DDE4F88839983AA8326
:10EEC000BB83C652D140CC5DDE4FA881B981C4520C
:10EED000D1401196CC5DDE4FB983A883C452D14096
:10EEE000CD0162E070E00F9434F2B0E2B093C6005E
:10EEF0008091C00086FFFCCF8091C0008064809329
:10EF0000C000EDE2E093C6008091C00086FFFCCF18
:10EF10008091C00080648093C000F0E2F093C6004E
:10EF20008091C00086FFFCCF8091C00080648093F8
:10EF3000C000CA5DDE4FE880F9800A811B81C6529D
:10EF4000D140BB27A12F902F8F2D0F940DF2CA5DBA
:10EF5000DE4F8881C652D1400F940DF2B0E2FB2EF5
:10EF6000F092C6008091C00086FFFCCF8091C00067
:10EF700080648093C0000DE30093C6008091C000C0
:10EF800086FFFCCF8091C00080648093C00010E2B7
:10EF90001093C6008091C00086FFFCCF8091C00016
:10EFA00080648093C0008BBEF3012791C65DDE4F65
:10EFB0002883CA52D140A22EBB24CC24DD2408943D
:10EFC000611C711C811C911C8BBEF3018791282E42
:10EFD0003324442455240894611C711C811C911C09
:10EFE0008BBEF3013791C55DDE4F3883CB52D140E4
:10EFF0000894611C711C811C911C8BBEF30147910C
:10F00000C45DDE4F4883CC52D140ADEFEA2EAFEF66
:10F01000FA2EAFEF0A2FAFEF1A2F6E0C7F1C801E57
:10F02000911E142D032DF22CEE24EA0CFB1C0C1D5A
:10F030001D1D0F940DF220E22093C6008091C000A8
:10F0400086FFFCCF8091C00080648093C000C65DC5
:10F05000DE4F8881CA52D1400F940DF230E23093D6
:10F06000C6008091C00086FFFCCF8091C000806404
:10F070008093C000C45DDE4F8881CC52D1400F9494
:10F080000DF240E24093C6008091C00086FFFCCFA5
:10F090008091C00080648093C000C55DDE4F888190
:10F0A000CB52D1400F940DF250E25093C6008091A4
:10F0B000C00086FFFCCF8091C00080648093C000B8
:10F0C0008FEFE8168FEFF80680E0080780E018075A
:10F0D00031F484E092EE60E00F94C2F1DFC0D80119
:10F0E000C7018070907CA070B0708050904CA040A0
:10F0F000B040D1F52FEF3FE340E050E0E222F322B1
:10F1000004231523CA5DDE4FA880B980CA80DB8046
:10F11000C652D140AE0CBF1CC01ED11EAA0CBB1CD7
:10F12000CC1CDD1C8EE092EE60E00F94C2F1BB2798
:10F13000A12F902F8F2D0F940DF28E2D0F940DF285
:10F1400030E23093C6008091C00086FFFCCF8091F2
:10F15000C00080648093C0004EE34093C60080915D
:10F16000C00086FFFCCF87C08EE09EEFA0E0B0E03D
:10F17000E822F9220A231B239CE0E91694E9F90608
:10F1800090E0090790E0190709F088C0C45DDE4FE0
:10F19000A881CC52D140EA2EFF2400E010E0102FCD
:10F1A0000F2DFE2CEE24C55DDE4FB881CB52D14031
:10F1B000EB0EF11C011D111DD601C501817090706F
:10F1C000A070B070DC0199278827E80EF91E0A1F8D
:10F1D0001B1F20EF30E040E050E0A222B322C42207
:10F1E000D52241E1AA0CBB1CCC1CDD1C4A95D1F7F1
:10F1F000EA0CFB1C0C1D1D1D81E090E0A0E0B0E0BE
:10F20000282239224A225B2235E1220C331C441C7D
:10F21000551C3A95D1F7E20CF31C041D151D57013E
:10F220006801AA0CBB1CCC1CDD1C85E192EE60E0E1
:10F230000F94C2F1C801AA27BB270F940DF2BB2778
:10F24000A12F902F8F2D0F940DF28E2D0F940DF274
:10F2500090E29093C6008091C00086FFFCCF809121
:10F26000C00080648093C000AEE3A093C60080918C
:10F27000C00086FFFCCF8091C00080648093C000F6
:10F28000C601AA27BB270F940DF2BB27AD2D9C2DDD
:10F290008B2D0F940DF28A2D0F940DF20F94DCF14B
:10F2A000CC5DDE4FE881F981C452D140F99709F471
:10F2B0004DCBF4E0EF2EF12C012D112D6E0C7F1CA7
:10F2C000801E911EF2CD83E093EE62E00F94F5F183
:10F2D0008AE192EE60E00F94C2F18091C00087FF56
:10F2E000FCCF1091C6001F751093C6008091C0001E
:10F2F00086FFFCCF8091C00080648093C0000F9493
:10F30000DCF1812F81548A3108F036C1163409F4BA
:10F3100095C0173490F4133409F44EC0143430F40B
:10F320001134F1F0123409F01DC130C0143409F465
:10F3300059C0153409F016C16BC01A3409F4C4C0A1
:10F340001B3438F4173409F48FC0183409F00AC19B
:10F35000A1C01B3409F4D2C01C3409F003C1E8C0B9
:10F360008FEF81B90DC082B1809582B980E090E0C5
:10F37000E0EDF7E03197F1F70196883C9105C1F790
:10F380008091C00087FFEFCF12B8EFC08FEF84B934
:10F390000DC085B1809585B980E090E0E0EDF7E0A3
:10F3A0003197F1F70196883C9105C1F78091C00033
:10F3B00087FFEFCF15B8D9C08FEF87B90DC088B1DF
:10F3C000809588B980E090E0E0EDF7E03197F1F7C3
:10F3D0000196883C9105C1F78091C00087FFEFCF6F
:10F3E00018B8C3C08FEF8AB90DC08BB180958BB9A7
:10F3F00080E090E0E0EDF7E03197F1F70196883C8E
:10F400009105C1F78091C00087FFEFCF1BB8ADC059
:10F410008FEF8DB90DC08EB180958EB980E090E0F0
:10F42000E0EDF7E03197F1F70196883C9105C1F7DF
:10F430008091C00087FFEFCF1EB897C08FEF80BBD1
:10F440000DC081B3809581BB80E090E0E0EDF7E0F6
:10F450003197F1F70196883C9105C1F78091C00082
:10F4600087FFEFCF11BA81C08FEF83BB0DC084B38C
:10F47000809584BB80E090E0E0EDF7E03197F1F714
:10F480000196883C9105C1F78091C00087FFEFCFBE
:10F4900014BA6BC08FEF809301010FC080910201FD
:10F4A00080958093020180E090E0E0EDF7E03197F5
:10F4B000F1F70196883C9105C1F78091C00087FF64
:10F4C000EDCF1092020151C08FEF809304010FC065
:10F4D0008091050180958093050180E090E0E0ED4A
:10F4E000F7E03197F1F70196883C9105C1F78091DB
:10F4F000C00087FFEDCF1092050137C08FEF8093DA
:10F5000007010FC08091080180958093080180E079
:10F5100090E0E0EDF7E03197F1F70196883C910536
:10F52000C1F78091C00087FFEDCF109208011DC088
:10F530008FEF80930A010FC080910B01809580931B
:10F540000B0180E090E0E0EDF7E03197F1F70196F4
:10F55000883C9105C1F78091C00087FFEDCF1092E4
:10F560000B0103C085E292EEEEC98091C00087FFD7
:10F57000FCCF8091C600EAC988E392EEE4C98CE131
:10F5800091EEE1C988249924933011F1943028F444
:10F59000913089F09230B8F408C0953061F195301F
:10F5A000F0F0963009F048C043C02B3109F042C951
:10F5B00091E06BE13FC96227C15DDE4F2883CF52E6
:10F5C000D14092E037C9B22FA0E0622793E032C960
:10F5D000822F90E0A82BB92B622794E02BC92E3004
:10F5E00009F039C3622795E0C05DDE4F19821882A9
:10F5F000C053D1401FC9E1E0F0E0EC0FFD1FC05D3A
:10F60000DE4F08811981C053D140E00FF11F2083E4
:10F610000F5F1F4FC05DDE4F19830883C053D14079
:10F6200062270A171B0709F005C9D80196E002C92D
:10F63000261709F010C303C0973009F0FBC87724E0
:10F640009981933109F412C19431C8F4963009F4C8
:10F65000D8C0973050F4923009F406C1933009F4C1
:10F660006DC0913009F059C253C0913109F477C08F
:10F67000923108F0BBC0903109F04FC2F5C098310B
:10F6800009F487C0993150F4953109F4EFC09531F0
:10F6900008F4C6C1963109F040C2C2C19A3109F4DA
:10F6A0006CC09A3108F491C09B3109F45BC09D3164
:10F6B00009F033C29D81903359F48F81882311F46E
:10F6C0009EE11CC0813011F091E018C098E916C08D
:10F6D000892F807591F0903539F4E0E0F0E089E011
:10F6E0008093570094910AC0983539F4E3E0F0E034
:10F6F00089E080935700949101C090E01A821B82A8
:10F700008D818C831D829E831F8227E030E009C299
:10F710001A8288E08B8381E48C8386E58D8382E581
:10F720008E8389E48F8383E5888780E589878FE5E9
:10F730008A8782E38B872BE030E0F3C18A818139AD
:10F7400041F0823941F0803911F48FE005C080E04A
:10F7500003C082E001C08AE01A828B8344C0772410
:10F76000739482C08D81882311F48EE12CC0813086
:10F7700011F081E028C088E926C01A82E1E0F0E0BB
:10F7800089E08093570084918B831C8224E030E0D1
:10F79000C8C18B81803589F48C81883039F4E2E0EE
:10F7A000F0E089E08093570084910DC0E0E0F0E044
:10F7B00089E080935700849106C0E3E0F0E089E09F
:10F7C0008093570084911A82DFCF8D81836C99E0FA
:10F7D000E1E0F0E0082E90935700E89507B600FCB2
:10F7E000FDCF1A821B8223E030E09BC180EC8A832C
:10F7F000CE5CDE4F188219821A821B82C253D1401E
:10F800008EC18A8190E0A0E0B0E0582F44273327D2
:10F8100022278B8190E0A0E0B0E0DC0199278827C7
:10F82000282B392B4A2B5B2B8D8190E0A0E0B0E098
:10F83000282B392B4A2B5B2B8C8190E0A0E0B0E089
:10F84000BA2FA92F982F8827282B392B4A2B5B2BCF
:10F85000220F331F441F551FC05EDE4F288339839C
:10F860004A835B83C052D1401A8259C13A81C95C34
:10F87000DE4F3883C753D140CA5CDE4F1882C6536F
:10F88000D1408B81C82EDD24CA5CDE4F488159816E
:10F89000C653D140C42AD52A933109F082C0CE5C28
:10F8A000DE4F88819981AA81BB81C253D1408050AB
:10F8B000904CA340B04030F583E0CE5CDE4FE88052
:10F8C000F9800A811B81C253D140F70100935B008C
:10F8D00080935700E89507B600FCFDCFCE5CDE4F65
:10F8E000088119812A813B81C253D14000501F4FAA
:10F8F0002F4F3F4FCE5CDE4F088319832A833B8313
:10F90000C253D140C05EDE4F488159816A817B81FC
:10F91000C052D140DE011B9631E08C9111962C91A2
:10F9200011971296C75CDE4F2883C953D140C85C3B
:10F93000DE4F1882C853D14090E0C85CDE4FE881AA
:10F94000F981C853D1408E2B9F2B0C01FA01609393
:10F950005B0030935700E89511244E5F5F4F6F4F67
:10F960007F4F0EEFE02E0FEFF02ECE0CDF1CC114F8
:10F97000D10499F685E0C05EDE4F088119812A81A5
:10F980003B81C052D140F80120935B008093570027
:10F99000E89507B600FCFDCF81E180935700E8951C
:10F9A00035C0C05EDE4F88819981AA81BB81C0527B
:10F9B000D140B695A795979587957C018601ABE0D8
:10F9C000AA2EB12CAC0EBD1E0BC0D5016D915D01F0
:10F9D000C7010F947FFE0894E11CF11C01501040F8
:10F9E0000115110591F7A60160E070E0440F551F65
:10F9F000661F771FC05EDE4FE880F9800A811B8199
:10FA0000C052D1404E0D5F1D601F711F1A82C05E33
:10FA1000DE4F488359836A837B83C052D1407FC0C5
:10FA2000FA80C55CDE4FF882CB53D140C65CDE4F16
:10FA30001882CA53D1408B81C82EDD24C65CDE4FAC
:10FA400008811981CA53D140C02AD12A1A828981DA
:10FA5000BE016D5F7F4F843121F59601C05EDE4FA0
:10FA6000E880F9800A811B81C052D1400BBFF701A9
:10FA700087919691DB018C9311969C936E5F7F4FDB
:10FA8000D801C7010296A11DB11DC05EDE4F88835B
:10FA90009983AA83BB83C052D14022503040F1F6F3
:10FAA00036C0C05EDE4F288139814A815B81C052F9
:10FAB000D1400894C108D108760100E010E0089414
:10FAC000C11CD11C0894E11CF11C011D111DE20E8A
:10FAD000F31E041F151F21BDBB27A52F942F832FB5
:10FAE00082BD2F5F3F4F4F4F5F4FF89A80B5DB01CC
:10FAF0008D93BD012E153F054007510761F7C05E8C
:10FB0000DE4F288339834A835B83C052D1409601FC
:10FB10002D5F3F4FFB01108204C080EC8A8322E0FE
:10FB200030E08BE18093C6008091C00086FFFCCF5F
:10FB30008091C00080648093C000C15DDE4FF88179
:10FB4000CF52D140F093C6008091C00086FFFCCF19
:10FB50008091C00080648093C000432F3093C60022
:10FB60008091C00086FFFCCF8091C00080648093AC
:10FB7000C000922F2093C6008091C00086FFFCCF6A
:10FB80008091C00080648093C0008EE08093C600A6
:10FB90008091C00086FFFCCF8091C000806480937C
:10FBA000C00065E1C15DDE4FE880CF52D1406E25D7
:10FBB00069276427FE01319610C090819093C6009A
:10FBC0008091C00086FFFCCF31968091C000806498
:10FBD0008093C0006927215030402115310569F715
:10FBE0006093C6008091C00086FFFCCF8091C0006A
:10FBF00080648093C00085B1805885B9772081F4F6
:10FC0000C15DDE4F0881CF52D1400F5FC15DDE4F35
:10FC10000883CF52D14090E0A0E0B0E00D941AF4F8
:10FC200027982F9880E090E020ED37E0F901319798
:10FC3000F1F7019684369105C9F700008091C00064
:10FC40008D7F8093C00081E180935700E895EE2777
:10FC5000FF270994FFCF90E00D941AF497FB092E2B
:10FC600007260AD077FD04D02ED006D000201AF443
:10FC7000709561957F4F0895F6F7909581959F4F08
:10FC80000895A1E21A2EAA1BBB1BFD010DC0AA1FDD
:10FC9000BB1FEE1FFF1FA217B307E407F50720F0F5
:10FCA000A21BB30BE40BF50B661F771F881F991F70
:10FCB0001A9469F760957095809590959B01AC01B9
:10FCC000BD01CF010895AA1BBB1B51E107C0AA1FAC
:10FCD000BB1FA617B70710F0A61BB70B881F991FED
:10FCE0005A95A9F780959095BC01CD010895F99991
:10FCF000FECF92BD81BDF89A992780B50895262F31
:10FD0000F999FECF1FBA92BD81BD20BD0FB6F89400
:0EFD1000FA9AF99A0FBE01960895F894FFCF63
:040000033000E000E9
:00000001FF
